{
  "_format": "hh-sol-artifact-1",
  "contractName": "BudgetPolicy",
  "sourceName": "contracts/policies/BudgetPolicy.sol",
  "abi": [
    {
      "inputs": [
        {
          "internalType": "address",
          "name": "initialOwner",
          "type": "address"
        },
        {
          "internalType": "address",
          "name": "_policyEngine",
          "type": "address"
        },
        {
          "internalType": "uint256",
          "name": "_budget",
          "type": "uint256"
        },
        {
          "internalType": "enum BudgetPolicy.Period",
          "name": "_period",
          "type": "uint8"
        },
        {
          "internalType": "address",
          "name": "_budgetToken",
          "type": "address"
        }
      ],
      "stateMutability": "nonpayable",
      "type": "constructor"
    },
    {
      "anonymous": false,
      "inputs": [
        {
          "indexed": true,
          "internalType": "address",
          "name": "agent",
          "type": "address"
        },
        {
          "indexed": true,
          "internalType": "address",
          "name": "token",
          "type": "address"
        },
        {
          "indexed": false,
          "internalType": "uint256",
          "name": "amount",
          "type": "uint256"
        },
        {
          "indexed": false,
          "internalType": "uint256",
          "name": "newSpent",
          "type": "uint256"
        }
      ],
      "name": "BudgetSpent",
      "type": "event"
    },
    {
      "anonymous": false,
      "inputs": [
        {
          "indexed": false,
          "internalType": "uint256",
          "name": "newBudget",
          "type": "uint256"
        }
      ],
      "name": "BudgetUpdated",
      "type": "event"
    },
    {
      "anonymous": false,
      "inputs": [
        {
          "indexed": true,
          "internalType": "address",
          "name": "previousOwner",
          "type": "address"
        },
        {
          "indexed": true,
          "internalType": "address",
          "name": "newOwner",
          "type": "address"
        }
      ],
      "name": "OwnershipTransferred",
      "type": "event"
    },
    {
      "anonymous": false,
      "inputs": [
        {
          "indexed": false,
          "internalType": "uint256",
          "name": "newPeriodStart",
          "type": "uint256"
        }
      ],
      "name": "PeriodReset",
      "type": "event"
    },
    {
      "inputs": [],
      "name": "budget",
      "outputs": [
        {
          "internalType": "uint256",
          "name": "",
          "type": "uint256"
        }
      ],
      "stateMutability": "view",
      "type": "function"
    },
    {
      "inputs": [],
      "name": "budgetToken",
      "outputs": [
        {
          "internalType": "address",
          "name": "",
          "type": "address"
        }
      ],
      "stateMutability": "view",
      "type": "function"
    },
    {
      "inputs": [],
      "name": "owner",
      "outputs": [
        {
          "internalType": "address",
          "name": "",
          "type": "address"
        }
      ],
      "stateMutability": "view",
      "type": "function"
    },
    {
      "inputs": [
        {
          "internalType": "uint256",
          "name": "_budget",
          "type": "uint256"
        }
      ],
      "name": "ownerSetBudget",
      "outputs": [],
      "stateMutability": "nonpayable",
      "type": "function"
    },
    {
      "inputs": [],
      "name": "period",
      "outputs": [
        {
          "internalType": "enum BudgetPolicy.Period",
          "name": "",
          "type": "uint8"
        }
      ],
      "stateMutability": "view",
      "type": "function"
    },
    {
      "inputs": [],
      "name": "periodDuration",
      "outputs": [
        {
          "internalType": "uint256",
          "name": "",
          "type": "uint256"
        }
      ],
      "stateMutability": "view",
      "type": "function"
    },
    {
      "inputs": [],
      "name": "periodStart",
      "outputs": [
        {
          "internalType": "uint256",
          "name": "",
          "type": "uint256"
        }
      ],
      "stateMutability": "view",
      "type": "function"
    },
    {
      "inputs": [],
      "name": "policyEngine",
      "outputs": [
        {
          "internalType": "address",
          "name": "",
          "type": "address"
        }
      ],
      "stateMutability": "view",
      "type": "function"
    },
    {
      "inputs": [],
      "name": "renounceOwnership",
      "outputs": [],
      "stateMutability": "nonpayable",
      "type": "function"
    },
    {
      "inputs": [],
      "name": "spent",
      "outputs": [
        {
          "internalType": "uint256",
          "name": "",
          "type": "uint256"
        }
      ],
      "stateMutability": "view",
      "type": "function"
    },
    {
      "inputs": [
        {
          "internalType": "address",
          "name": "newOwner",
          "type": "address"
        }
      ],
      "name": "transferOwnership",
      "outputs": [],
      "stateMutability": "nonpayable",
      "type": "function"
    },
    {
      "inputs": [
        {
          "internalType": "address",
          "name": "agent",
          "type": "address"
        },
        {
          "internalType": "address",
          "name": "token",
          "type": "address"
        },
        {
          "internalType": "address",
          "name": "",
          "type": "address"
        },
        {
          "internalType": "uint256",
          "name": "amount",
          "type": "uint256"
        },
        {
          "internalType": "bytes",
          "name": "",
          "type": "bytes"
        }
      ],
      "name": "validate",
      "outputs": [],
      "stateMutability": "nonpayable",
      "type": "function"
    }
  ],
  "bytecode": "0x60a060405234801561001057600080fd5b50604051610b0d380380610b0d83398101604081905261002f916101c0565b61003833610154565b6000831161008d5760405162461bcd60e51b815260206004820152601660248201527f42503a20627564676574206d757374206265203e20300000000000000000000060448201526064015b60405180910390fd5b60028260028111156100a1576100a1610224565b60ff1611156100e75760405162461bcd60e51b815260206004820152601260248201527110940e881a5b9d985b1a59081c195c9a5bd960721b6044820152606401610084565b6100f085610154565b6001600160a01b038416608052600183815560038054849260ff199091169083600281111561012157610121610224565b0217905550600580546001600160a01b0319166001600160a01b03929092169190911790555050426004555061023a9050565b600080546001600160a01b038381166001600160a01b0319831681178455604051919092169283917f8be0079c531659141344cd1fd0a4f28419497f9722a3daafe3b4186f6b6457e09190a35050565b80516001600160a01b03811681146101bb57600080fd5b919050565b600080600080600060a086880312156101d857600080fd5b6101e1866101a4565b94506101ef602087016101a4565b93506040860151925060608601516003811061020a57600080fd5b9150610218608087016101a4565b90509295509295909350565b634e487b7160e01b600052602160045260246000fd5b6080516108aa6102636000396000818161012f01528181610247015261036101526108aa6000f3fe608060405234801561001057600080fd5b50600436106100b45760003560e01c8063b470aade11610071578063b470aade14610151578063e90df74914610159578063ed01bf291461016c578063eda4e6d614610175578063ef78d4fd1461017e578063f2fde38b1461019857600080fd5b80632fd0046d146100b95780634370e687146100ce578063715018a6146100e15780637ab71b7a146100e95780638da5cb5b14610105578063927399a51461012a575b600080fd5b6100cc6100c7366004610695565b6101ab565b005b6100cc6100dc3660046106ca565b61023c565b6100cc61045f565b6100f260025481565b6040519081526020015b60405180910390f35b6000546001600160a01b03165b6040516001600160a01b0390911681526020016100fc565b6101127f000000000000000000000000000000000000000000000000000000000000000081565b6100f2610473565b600554610112906001600160a01b031681565b6100f260015481565b6100f260045481565b60035461018b9060ff1681565b6040516100fc919061078d565b6100cc6101a63660046107b5565b610482565b6101b36104fb565b600081116102015760405162461bcd60e51b8152602060048201526016602482015275042503a20627564676574206d757374206265203e20360541b60448201526064015b60405180910390fd5b60018190556040518181527fa0f8c4bbabac2904a1933feee4b665bc08f3d75d616bd9045f707c558dbdfc319060200160405180910390a150565b336001600160a01b037f000000000000000000000000000000000000000000000000000000000000000016146102ac5760405162461bcd60e51b815260206004820152601560248201527442503a206f6e6c7920506f6c696379456e67696e6560581b60448201526064016101f8565b6005546001600160a01b038681169116146103025760405162461bcd60e51b815260206004820152601660248201527521281d103bb937b733903232b737b6b4b730ba34b7b760511b60448201526064016101f8565b61030a610555565b6001548360025461031b91906107ed565b111561035f5760405162461bcd60e51b815260206004820152601360248201527210940e88189d5919d95d08195e18d959591959606a1b60448201526064016101f8565b7f00000000000000000000000000000000000000000000000000000000000000006001600160a01b031663c10a09cf6040518163ffffffff1660e01b8152600401602060405180830381865afa1580156103bd573d6000803e3d6000fd5b505050506040513d601f19601f820116820180604052508101906103e19190610806565b6104575782600260008282546103f791906107ed565b92505081905550846001600160a01b0316866001600160a01b03167f5744e3598d8dfbd6b0ac12137fda44554be43bb12662c8272e3bf4e95b75d5b58560025460405161044e929190918252602082015260400190565b60405180910390a35b505050505050565b6104676104fb565b61047160006105f0565b565b600061047d610640565b905090565b61048a6104fb565b6001600160a01b0381166104ef5760405162461bcd60e51b815260206004820152602660248201527f4f776e61626c653a206e6577206f776e657220697320746865207a65726f206160448201526564647265737360d01b60648201526084016101f8565b6104f8816105f0565b50565b6000546001600160a01b031633146104715760405162461bcd60e51b815260206004820181905260248201527f4f776e61626c653a2063616c6c6572206973206e6f7420746865206f776e657260448201526064016101f8565b600061055f610640565b90508060045461056f91906107ed565b42106104f857600060028190556004546105899042610828565b905081610596818361083b565b6105a0919061085d565b600460008282546105b191906107ed565b90915550506004546040519081527f4711e52c972094536a2b69a08c2257ab02b644f374a725bbccd324122bd7f1249060200160405180910390a15050565b600080546001600160a01b038381166001600160a01b0319831681178455604051919092169283917f8be0079c531659141344cd1fd0a4f28419497f9722a3daafe3b4186f6b6457e09190a35050565b60008060035460ff16600281111561065a5761065a610777565b0361066757506201518090565b600160035460ff16600281111561068057610680610777565b0361068d575062093a8090565b5062278d0090565b6000602082840312156106a757600080fd5b5035919050565b80356001600160a01b03811681146106c557600080fd5b919050565b60008060008060008060a087890312156106e357600080fd5b6106ec876106ae565b95506106fa602088016106ae565b9450610708604088016106ae565b935060608701359250608087013567ffffffffffffffff8082111561072c57600080fd5b818901915089601f83011261074057600080fd5b81358181111561074f57600080fd5b8a602082850101111561076157600080fd5b6020830194508093505050509295509295509295565b634e487b7160e01b600052602160045260246000fd5b60208101600383106107af57634e487b7160e01b600052602160045260246000fd5b91905290565b6000602082840312156107c757600080fd5b6107d0826106ae565b9392505050565b634e487b7160e01b600052601160045260246000fd5b80820180821115610800576108006107d7565b92915050565b60006020828403121561081857600080fd5b815180151581146107d057600080fd5b81810381811115610800576108006107d7565b60008261085857634e487b7160e01b600052601260045260246000fd5b500490565b8082028115828204841417610800576108006107d756fea2646970667358221220b135a8c958b21edf9ac04ed440477244018f34fba4312c09a8e0b2a083e5024964736f6c63430008140033",
  "linkReferences": {},
  "deployedLinkReferences": {}
}