{
  "_format": "hh-sol-artifact-1",
  "contractName": "ExecutionController",
  "sourceName": "contracts/execution/ExecutionController.sol",
  "abi": [
    {
      "inputs": [
        {
          "internalType": "address",
          "name": "initialOwner",
          "type": "address"
        },
        {
          "internalType": "address",
          "name": "_agentSafe",
          "type": "address"
        },
        {
          "internalType": "address",
          "name": "_policyEngine",
          "type": "address"
        }
      ],
      "stateMutability": "nonpayable",
      "type": "constructor"
    },
    {
      "anonymous": false,
      "inputs": [
        {
          "indexed": true,
          "internalType": "address",
          "name": "hook",
          "type": "address"
        },
        {
          "indexed": true,
          "internalType": "address",
          "name": "agent",
          "type": "address"
        },
        {
          "indexed": true,
          "internalType": "address",
          "name": "to",
          "type": "address"
        },
        {
          "indexed": false,
          "internalType": "uint256",
          "name": "amount",
          "type": "uint256"
        }
      ],
      "name": "AuditHookFailed",
      "type": "event"
    },
    {
      "anonymous": false,
      "inputs": [
        {
          "indexed": true,
          "internalType": "address",
          "name": "hook",
          "type": "address"
        }
      ],
      "name": "AuditHookSet",
      "type": "event"
    },
    {
      "anonymous": false,
      "inputs": [
        {
          "indexed": true,
          "internalType": "address",
          "name": "agent",
          "type": "address"
        },
        {
          "indexed": true,
          "internalType": "address",
          "name": "to",
          "type": "address"
        },
        {
          "indexed": false,
          "internalType": "uint256",
          "name": "amount",
          "type": "uint256"
        },
        {
          "indexed": false,
          "internalType": "string",
          "name": "paymentType",
          "type": "string"
        }
      ],
      "name": "ExecutionCompleted",
      "type": "event"
    },
    {
      "anonymous": false,
      "inputs": [
        {
          "indexed": true,
          "internalType": "address",
          "name": "agent",
          "type": "address"
        },
        {
          "indexed": true,
          "internalType": "address",
          "name": "to",
          "type": "address"
        },
        {
          "indexed": false,
          "internalType": "uint256",
          "name": "amount",
          "type": "uint256"
        },
        {
          "indexed": false,
          "internalType": "string",
          "name": "paymentType",
          "type": "string"
        }
      ],
      "name": "ExecutionStarted",
      "type": "event"
    },
    {
      "anonymous": false,
      "inputs": [
        {
          "indexed": true,
          "internalType": "address",
          "name": "previousOwner",
          "type": "address"
        },
        {
          "indexed": true,
          "internalType": "address",
          "name": "newOwner",
          "type": "address"
        }
      ],
      "name": "OwnershipTransferred",
      "type": "event"
    },
    {
      "anonymous": false,
      "inputs": [
        {
          "indexed": false,
          "internalType": "uint256",
          "name": "newLimit",
          "type": "uint256"
        }
      ],
      "name": "RateLimitUpdated",
      "type": "event"
    },
    {
      "inputs": [],
      "name": "agentSafe",
      "outputs": [
        {
          "internalType": "address",
          "name": "",
          "type": "address"
        }
      ],
      "stateMutability": "view",
      "type": "function"
    },
    {
      "inputs": [],
      "name": "auditHook",
      "outputs": [
        {
          "internalType": "address",
          "name": "",
          "type": "address"
        }
      ],
      "stateMutability": "view",
      "type": "function"
    },
    {
      "inputs": [
        {
          "internalType": "address",
          "name": "",
          "type": "address"
        }
      ],
      "name": "callsInBlock",
      "outputs": [
        {
          "internalType": "uint256",
          "name": "",
          "type": "uint256"
        }
      ],
      "stateMutability": "view",
      "type": "function"
    },
    {
      "inputs": [
        {
          "internalType": "address",
          "name": "agent",
          "type": "address"
        },
        {
          "internalType": "address",
          "name": "token",
          "type": "address"
        },
        {
          "internalType": "address",
          "name": "to",
          "type": "address"
        },
        {
          "internalType": "uint256",
          "name": "amount",
          "type": "uint256"
        },
        {
          "internalType": "bool",
          "name": "allowNonLSP1Recipient",
          "type": "bool"
        },
        {
          "internalType": "bytes",
          "name": "tokenData",
          "type": "bytes"
        }
      ],
      "name": "executeTokenWithPolicies",
      "outputs": [],
      "stateMutability": "nonpayable",
      "type": "function"
    },
    {
      "inputs": [
        {
          "internalType": "address",
          "name": "agent",
          "type": "address"
        },
        {
          "internalType": "address payable",
          "name": "to",
          "type": "address"
        },
        {
          "internalType": "uint256",
          "name": "amount",
          "type": "uint256"
        },
        {
          "internalType": "bytes",
          "name": "data",
          "type": "bytes"
        }
      ],
      "name": "executeWithPolicies",
      "outputs": [],
      "stateMutability": "nonpayable",
      "type": "function"
    },
    {
      "inputs": [
        {
          "internalType": "address",
          "name": "",
          "type": "address"
        }
      ],
      "name": "lastBlockNumber",
      "outputs": [
        {
          "internalType": "uint256",
          "name": "",
          "type": "uint256"
        }
      ],
      "stateMutability": "view",
      "type": "function"
    },
    {
      "inputs": [],
      "name": "maxCallsPerBlock",
      "outputs": [
        {
          "internalType": "uint256",
          "name": "",
          "type": "uint256"
        }
      ],
      "stateMutability": "view",
      "type": "function"
    },
    {
      "inputs": [],
      "name": "owner",
      "outputs": [
        {
          "internalType": "address",
          "name": "",
          "type": "address"
        }
      ],
      "stateMutability": "view",
      "type": "function"
    },
    {
      "inputs": [],
      "name": "policyEngine",
      "outputs": [
        {
          "internalType": "address",
          "name": "",
          "type": "address"
        }
      ],
      "stateMutability": "view",
      "type": "function"
    },
    {
      "inputs": [],
      "name": "renounceOwnership",
      "outputs": [],
      "stateMutability": "nonpayable",
      "type": "function"
    },
    {
      "inputs": [
        {
          "internalType": "address",
          "name": "hook",
          "type": "address"
        }
      ],
      "name": "setAuditHook",
      "outputs": [],
      "stateMutability": "nonpayable",
      "type": "function"
    },
    {
      "inputs": [
        {
          "internalType": "uint256",
          "name": "newLimit",
          "type": "uint256"
        }
      ],
      "name": "setMaxCallsPerBlock",
      "outputs": [],
      "stateMutability": "nonpayable",
      "type": "function"
    },
    {
      "inputs": [
        {
          "internalType": "address",
          "name": "newOwner",
          "type": "address"
        }
      ],
      "name": "transferOwnership",
      "outputs": [],
      "stateMutability": "nonpayable",
      "type": "function"
    }
  ],
  "bytecode": "0x60e0604052600a6002553480156200001657600080fd5b5060405162001272380380620012728339810160408190526200003991620001b8565b62000044336200013d565b600180556001600160a01b038216620000945760405162461bcd60e51b815260206004820152600d60248201526c45433a207a65726f207361666560981b60448201526064015b60405180910390fd5b6001600160a01b038116620000de5760405162461bcd60e51b815260206004820152600f60248201526e45433a207a65726f20706f6c69637960881b60448201526064016200008b565b6001600160a01b03808316608052811660a052604051620000ff906200018d565b604051809103906000f0801580156200011c573d6000803e3d6000fd5b506001600160a01b031660c05262000134836200013d565b50505062000202565b600080546001600160a01b038381166001600160a01b0319831681178455604051919092169283917f8be0079c531659141344cd1fd0a4f28419497f9722a3daafe3b4186f6b6457e09190a35050565b61033d8062000f3583390190565b80516001600160a01b0381168114620001b357600080fd5b919050565b600080600060608486031215620001ce57600080fd5b620001d9846200019b565b9250620001e9602085016200019b565b9150620001f9604085016200019b565b90509250925092565b60805160a05160c051610cf56200024060003960006108fa015260006101520152600081816101b50152818161039201526106140152610cf56000f3fe608060405234801561001057600080fd5b50600436106100cf5760003560e01c8063a27e790e1161008c578063e675a40211610066578063e675a402146101d7578063f2fde38b146101ea578063f373a337146101fd578063f9c449381461021057600080fd5b8063a27e790e14610194578063a280e509146101a7578063c7d285ae146101b057600080fd5b8063715018a6146100d45780637ac1792f146100de5780638877ea3d146101115780638da5cb5b1461013c578063927399a51461014d578063941ee20b14610174575b600080fd5b6100dc610223565b005b6100fe6100ec3660046109cf565b60036020526000908152604090205481565b6040519081526020015b60405180910390f35b600554610124906001600160a01b031681565b6040516001600160a01b039091168152602001610108565b6000546001600160a01b0316610124565b6101247f000000000000000000000000000000000000000000000000000000000000000081565b6100fe6101823660046109cf565b60046020526000908152604090205481565b6100dc6101a23660046109f3565b610237565b6100fe60025481565b6101247f000000000000000000000000000000000000000000000000000000000000000081565b6100dc6101e5366004610a55565b61027a565b6100dc6101f83660046109cf565b610481565b6100dc61020b3660046109cf565b6104fa565b6100dc61021e366004610af2565b61054c565b61022b6106fb565b6102356000610755565b565b61023f6106fb565b60028190556040518181527f1939de75d13c836ba62103f23c7a2622e9cbc2113aa33a8c74eb28e409313db29060200160405180910390a150565b6102826107a5565b6001600160a01b0386166102ce5760405162461bcd60e51b815260206004820152600e60248201526d22a19d103d32b937903a37b5b2b760911b60448201526064015b60405180910390fd5b6102d7876107fe565b6005546001600160a01b03161561031157610311878686604051806040016040528060058152602001642a27a5a2a760d91b8152506108e0565b846001600160a01b0316876001600160a01b03167ff7e9abad70d91e33a7a4ee8c0d98ddf716a8ce13001d223dfedf8778f541aa5286604051610373918152604060208201819052600590820152642a27a5a2a760d91b606082015260800190565b60405180910390a360405163303c1d6b60e21b81526001600160a01b037f0000000000000000000000000000000000000000000000000000000000000000169063c0f075ac906103d3908a908a908a908a908a908a908a90600401610b8e565b600060405180830381600087803b1580156103ed57600080fd5b505af1158015610401573d6000803e3d6000fd5b50505050846001600160a01b0316876001600160a01b03167fcb5b93869e6ad4efd84aebf5a948eaa212cf106df787efe23a80a4ca561a189186604051610467918152604060208201819052600590820152642a27a5a2a760d91b606082015260800190565b60405180910390a361047860018055565b50505050505050565b6104896106fb565b6001600160a01b0381166104ee5760405162461bcd60e51b815260206004820152602660248201527f4f776e61626c653a206e6577206f776e657220697320746865207a65726f206160448201526564647265737360d01b60648201526084016102c5565b6104f781610755565b50565b6105026106fb565b600580546001600160a01b0319166001600160a01b0383169081179091556040517f155f330b5167e3d2fc76338d94f25ebe6e2e8365b175a0ab387c1cc58b5361a790600090a250565b6105546107a5565b61055d856107fe565b6005546001600160a01b0316156105955761059585858560405180604001604052806003815260200162098b2b60eb1b8152506108e0565b836001600160a01b0316856001600160a01b03167ff7e9abad70d91e33a7a4ee8c0d98ddf716a8ce13001d223dfedf8778f541aa52856040516105f591815260406020820181905260039082015262098b2b60eb1b606082015260800190565b60405180910390a360405163050062a360e41b81526001600160a01b037f000000000000000000000000000000000000000000000000000000000000000016906350062a30906106519088908890889088908890600401610bdf565b600060405180830381600087803b15801561066b57600080fd5b505af115801561067f573d6000803e3d6000fd5b50505050836001600160a01b0316856001600160a01b03167fcb5b93869e6ad4efd84aebf5a948eaa212cf106df787efe23a80a4ca561a1891856040516106e391815260406020820181905260039082015262098b2b60eb1b606082015260800190565b60405180910390a36106f460018055565b5050505050565b6000546001600160a01b031633146102355760405162461bcd60e51b815260206004820181905260248201527f4f776e61626c653a2063616c6c6572206973206e6f7420746865206f776e657260448201526064016102c5565b600080546001600160a01b038381166001600160a01b0319831681178455604051919092169283917f8be0079c531659141344cd1fd0a4f28419497f9722a3daafe3b4186f6b6457e09190a35050565b6002600154036107f75760405162461bcd60e51b815260206004820152601f60248201527f5265656e7472616e637947756172643a207265656e7472616e742063616c6c0060448201526064016102c5565b6002600155565b6001600160a01b0381166000908152600460205260409020544390811115610849576001600160a01b0382166000908152600360209081526040808320839055600490915290208190555b6001600160a01b038216600090815260036020526040812080549161086d83610c1e565b90915550506002546001600160a01b03831660009081526003602052604090205411156108dc5760405162461bcd60e51b815260206004820152601760248201527f45433a2072617465206c696d697420657863656564656400000000000000000060448201526064016102c5565b5050565b60055460405163edafcd5b60e01b81526001600160a01b037f000000000000000000000000000000000000000000000000000000000000000081169263edafcd5b9261093b9291909116908890889088908890600401610c45565b600060405180830381600087803b15801561095557600080fd5b505af1925050508015610966575060015b6109b4576005546040518381526001600160a01b0385811692878216929116907fdb11e84ffc00544b4d0384e83518df208620ad9da8f84236bf82274ee6ef9ed49060200160405180910390a45b50505050565b6001600160a01b03811681146104f757600080fd5b6000602082840312156109e157600080fd5b81356109ec816109ba565b9392505050565b600060208284031215610a0557600080fd5b5035919050565b60008083601f840112610a1e57600080fd5b50813567ffffffffffffffff811115610a3657600080fd5b602083019150836020828501011115610a4e57600080fd5b9250929050565b600080600080600080600060c0888a031215610a7057600080fd5b8735610a7b816109ba565b96506020880135610a8b816109ba565b95506040880135610a9b816109ba565b94506060880135935060808801358015158114610ab757600080fd5b925060a088013567ffffffffffffffff811115610ad357600080fd5b610adf8a828b01610a0c565b989b979a50959850939692959293505050565b600080600080600060808688031215610b0a57600080fd5b8535610b15816109ba565b94506020860135610b25816109ba565b935060408601359250606086013567ffffffffffffffff811115610b4857600080fd5b610b5488828901610a0c565b969995985093965092949392505050565b81835281816020850137506000828201602090810191909152601f909101601f19169091010190565b6001600160a01b03888116825287811660208301528616604082015260608101859052831515608082015260c060a08201819052600090610bd29083018486610b65565b9998505050505050505050565b6001600160a01b0386811682528516602082015260408101849052608060608201819052600090610c139083018486610b65565b979650505050505050565b600060018201610c3e57634e487b7160e01b600052601160045260246000fd5b5060010190565b600060018060a01b038088168352602081881681850152818716604085015285606085015260a06080850152845191508160a085015260005b82811015610c9a5785810182015185820160c001528101610c7e565b5050600060c0828501015260c0601f19601f830116840101915050969550505050505056fea264697066735822122065a176877fafbf223c740c1e47b87bc90c0974fb5ac7748fb74fde843243d87964736f6c63430008140033608060405234801561001057600080fd5b5061031d806100206000396000f3fe608060405234801561001057600080fd5b506004361061002b5760003560e01c8063edafcd5b14610030575b600080fd5b61004361003e366004610166565b610045565b005b6000856001600160a01b0316858585856040516024016100689493929190610277565b60408051601f198184030181529181526020820180516001600160e01b0316635df16beb60e01b1790525161009d91906102cb565b6000604051808303816000865af19150503d80600081146100da576040519150601f19603f3d011682016040523d82523d6000602084013e6100df565b606091505b505090508061012c5760405162461bcd60e51b81526020600482015260156024820152741150ce88185d591a5d081a1bdbdac819985a5b1959605a1b604482015260640160405180910390fd5b505050505050565b80356001600160a01b038116811461014b57600080fd5b919050565b634e487b7160e01b600052604160045260246000fd5b600080600080600060a0868803121561017e57600080fd5b61018786610134565b945061019560208701610134565b93506101a360408701610134565b925060608601359150608086013567ffffffffffffffff808211156101c757600080fd5b818801915088601f8301126101db57600080fd5b8135818111156101ed576101ed610150565b604051601f8201601f19908116603f0116810190838211818310171561021557610215610150565b816040528281528b602084870101111561022e57600080fd5b8260208601602083013760006020848301015280955050505050509295509295909350565b60005b8381101561026e578181015183820152602001610256565b50506000910152565b600060018060a01b0380871683528086166020840152508360408301526080606083015282518060808401526102b48160a0850160208701610253565b601f01601f19169190910160a00195945050505050565b600082516102dd818460208701610253565b919091019291505056fea2646970667358221220f21e384080d00dd4931378f55a451303d06fb46d628fe6c1cc5d5635d71b57ec64736f6c63430008140033",
  "linkReferences": {},
  "deployedLinkReferences": {}
}