{"contracts/execution/ExecutionController.sol":{"AuditHookCaller":{"abi":[{"inputs":[{"internalType":"address","name":"hook","type":"address"},{"internalType":"address","name":"agent","type":"address"},{"internalType":"address","name":"to","type":"address"},{"internalType":"uint256","name":"amount","type":"uint256"},{"internalType":"string","name":"paymentType","type":"string"}],"name":"call","outputs":[],"stateMutability":"nonpayable","type":"function"}],"evm":{"bytecode":{"linkReferences":{},"object":"608060405234801561001057600080fd5b5061031d806100206000396000f3fe608060405234801561001057600080fd5b506004361061002b5760003560e01c8063edafcd5b14610030575b600080fd5b61004361003e366004610166565b610045565b005b6000856001600160a01b0316858585856040516024016100689493929190610277565b60408051601f198184030181529181526020820180516001600160e01b0316635df16beb60e01b1790525161009d91906102cb565b6000604051808303816000865af19150503d80600081146100da576040519150601f19603f3d011682016040523d82523d6000602084013e6100df565b606091505b505090508061012c5760405162461bcd60e51b81526020600482015260156024820152741150ce88185d591a5d081a1bdbdac819985a5b1959605a1b604482015260640160405180910390fd5b505050505050565b80356001600160a01b038116811461014b57600080fd5b919050565b634e487b7160e01b600052604160045260246000fd5b600080600080600060a0868803121561017e57600080fd5b61018786610134565b945061019560208701610134565b93506101a360408701610134565b925060608601359150608086013567ffffffffffffffff808211156101c757600080fd5b818801915088601f8301126101db57600080fd5b8135818111156101ed576101ed610150565b604051601f8201601f19908116603f0116810190838211818310171561021557610215610150565b816040528281528b602084870101111561022e57600080fd5b8260208601602083013760006020848301015280955050505050509295509295909350565b60005b8381101561026e578181015183820152602001610256565b50506000910152565b600060018060a01b0380871683528086166020840152508360408301526080606083015282518060808401526102b48160a0850160208701610253565b601f01601f19169190910160a00195945050505050565b600082516102dd818460208701610253565b919091019291505056fea264697066735822122008b98cde8c911d62388f2dd600b98d4795711762721c98b34ea4490dba6e53e364736f6c63430008140033","opcodes":"PUSH1 0x80 PUSH1 0x40 MSTORE CALLVALUE DUP1 ISZERO PUSH2 0x10 JUMPI PUSH1 0x0 DUP1 REVERT JUMPDEST POP PUSH2 0x31D DUP1 PUSH2 0x20 PUSH1 0x0 CODECOPY PUSH1 0x0 RETURN INVALID PUSH1 0x80 PUSH1 0x40 MSTORE CALLVALUE DUP1 ISZERO PUSH2 0x10 JUMPI PUSH1 0x0 DUP1 REVERT JUMPDEST POP PUSH1 0x4 CALLDATASIZE LT PUSH2 0x2B JUMPI PUSH1 0x0 CALLDATALOAD PUSH1 0xE0 SHR DUP1 PUSH4 0xEDAFCD5B EQ PUSH2 0x30 JUMPI JUMPDEST PUSH1 0x0 DUP1 REVERT JUMPDEST PUSH2 0x43 PUSH2 0x3E CALLDATASIZE PUSH1 0x4 PUSH2 0x166 JUMP JUMPDEST PUSH2 0x45 JUMP JUMPDEST STOP JUMPDEST PUSH1 0x0 DUP6 PUSH1 0x1 PUSH1 0x1 PUSH1 0xA0 SHL SUB AND DUP6 DUP6 DUP6 DUP6 PUSH1 0x40 MLOAD PUSH1 0x24 ADD PUSH2 0x68 SWAP5 SWAP4 SWAP3 SWAP2 SWAP1 PUSH2 0x277 JUMP JUMPDEST PUSH1 0x40 DUP1 MLOAD PUSH1 0x1F NOT DUP2 DUP5 SUB ADD DUP2 MSTORE SWAP2 DUP2 MSTORE PUSH1 0x20 DUP3 ADD DUP1 MLOAD PUSH1 0x1 PUSH1 0x1 PUSH1 0xE0 SHL SUB AND PUSH4 0x5DF16BEB PUSH1 0xE0 SHL OR SWAP1 MSTORE MLOAD PUSH2 0x9D SWAP2 SWAP1 PUSH2 0x2CB JUMP JUMPDEST PUSH1 0x0 PUSH1 0x40 MLOAD DUP1 DUP4 SUB DUP2 PUSH1 0x0 DUP7 GAS CALL SWAP2 POP POP RETURNDATASIZE DUP1 PUSH1 0x0 DUP2 EQ PUSH2 0xDA JUMPI PUSH1 0x40 MLOAD SWAP2 POP PUSH1 0x1F NOT PUSH1 0x3F RETURNDATASIZE ADD AND DUP3 ADD PUSH1 0x40 MSTORE RETURNDATASIZE DUP3 MSTORE RETURNDATASIZE PUSH1 0x0 PUSH1 0x20 DUP5 ADD RETURNDATACOPY PUSH2 0xDF JUMP JUMPDEST PUSH1 0x60 SWAP2 POP JUMPDEST POP POP SWAP1 POP DUP1 PUSH2 0x12C JUMPI PUSH1 0x40 MLOAD PUSH3 0x461BCD PUSH1 0xE5 SHL DUP2 MSTORE PUSH1 0x20 PUSH1 0x4 DUP3 ADD MSTORE PUSH1 0x15 PUSH1 0x24 DUP3 ADD MSTORE PUSH21 0x1150CE88185D591A5D081A1BDBDAC819985A5B1959 PUSH1 0x5A SHL PUSH1 0x44 DUP3 ADD MSTORE PUSH1 0x64 ADD PUSH1 0x40 MLOAD DUP1 SWAP2 SUB SWAP1 REVERT JUMPDEST POP POP POP POP POP POP JUMP JUMPDEST DUP1 CALLDATALOAD PUSH1 0x1 PUSH1 0x1 PUSH1 0xA0 SHL SUB DUP2 AND DUP2 EQ PUSH2 0x14B JUMPI PUSH1 0x0 DUP1 REVERT JUMPDEST SWAP2 SWAP1 POP JUMP JUMPDEST PUSH4 0x4E487B71 PUSH1 0xE0 SHL PUSH1 0x0 MSTORE PUSH1 0x41 PUSH1 0x4 MSTORE PUSH1 0x24 PUSH1 0x0 REVERT JUMPDEST PUSH1 0x0 DUP1 PUSH1 0x0 DUP1 PUSH1 0x0 PUSH1 0xA0 DUP7 DUP9 SUB SLT ISZERO PUSH2 0x17E JUMPI PUSH1 0x0 DUP1 REVERT JUMPDEST PUSH2 0x187 DUP7 PUSH2 0x134 JUMP JUMPDEST SWAP5 POP PUSH2 0x195 PUSH1 0x20 DUP8 ADD PUSH2 0x134 JUMP JUMPDEST SWAP4 POP PUSH2 0x1A3 PUSH1 0x40 DUP8 ADD PUSH2 0x134 JUMP JUMPDEST SWAP3 POP PUSH1 0x60 DUP7 ADD CALLDATALOAD SWAP2 POP PUSH1 0x80 DUP7 ADD CALLDATALOAD PUSH8 0xFFFFFFFFFFFFFFFF DUP1 DUP3 GT ISZERO PUSH2 0x1C7 JUMPI PUSH1 0x0 DUP1 REVERT JUMPDEST DUP2 DUP9 ADD SWAP2 POP DUP9 PUSH1 0x1F DUP4 ADD SLT PUSH2 0x1DB JUMPI PUSH1 0x0 DUP1 REVERT JUMPDEST DUP2 CALLDATALOAD DUP2 DUP2 GT ISZERO PUSH2 0x1ED JUMPI PUSH2 0x1ED PUSH2 0x150 JUMP JUMPDEST PUSH1 0x40 MLOAD PUSH1 0x1F DUP3 ADD PUSH1 0x1F NOT SWAP1 DUP2 AND PUSH1 0x3F ADD AND DUP2 ADD SWAP1 DUP4 DUP3 GT DUP2 DUP4 LT OR ISZERO PUSH2 0x215 JUMPI PUSH2 0x215 PUSH2 0x150 JUMP JUMPDEST DUP2 PUSH1 0x40 MSTORE DUP3 DUP2 MSTORE DUP12 PUSH1 0x20 DUP5 DUP8 ADD ADD GT ISZERO PUSH2 0x22E JUMPI PUSH1 0x0 DUP1 REVERT JUMPDEST DUP3 PUSH1 0x20 DUP7 ADD PUSH1 0x20 DUP4 ADD CALLDATACOPY PUSH1 0x0 PUSH1 0x20 DUP5 DUP4 ADD ADD MSTORE DUP1 SWAP6 POP POP POP POP POP POP SWAP3 SWAP6 POP SWAP3 SWAP6 SWAP1 SWAP4 POP JUMP JUMPDEST PUSH1 0x0 JUMPDEST DUP4 DUP2 LT ISZERO PUSH2 0x26E JUMPI DUP2 DUP2 ADD MLOAD DUP4 DUP3 ADD MSTORE PUSH1 0x20 ADD PUSH2 0x256 JUMP JUMPDEST POP POP PUSH1 0x0 SWAP2 ADD MSTORE JUMP JUMPDEST PUSH1 0x0 PUSH1 0x1 DUP1 PUSH1 0xA0 SHL SUB DUP1 DUP8 AND DUP4 MSTORE DUP1 DUP7 AND PUSH1 0x20 DUP5 ADD MSTORE POP DUP4 PUSH1 0x40 DUP4 ADD MSTORE PUSH1 0x80 PUSH1 0x60 DUP4 ADD MSTORE DUP3 MLOAD DUP1 PUSH1 0x80 DUP5 ADD MSTORE PUSH2 0x2B4 DUP2 PUSH1 0xA0 DUP6 ADD PUSH1 0x20 DUP8 ADD PUSH2 0x253 JUMP JUMPDEST PUSH1 0x1F ADD PUSH1 0x1F NOT AND SWAP2 SWAP1 SWAP2 ADD PUSH1 0xA0 ADD SWAP6 SWAP5 POP POP POP POP POP JUMP JUMPDEST PUSH1 0x0 DUP3 MLOAD PUSH2 0x2DD DUP2 DUP5 PUSH1 0x20 DUP8 ADD PUSH2 0x253 JUMP JUMPDEST SWAP2 SWAP1 SWAP2 ADD SWAP3 SWAP2 POP POP JUMP INVALID LOG2 PUSH5 0x6970667358 0x22 SLT KECCAK256 ADDMOD 0xB9 DUP13 0xDE DUP13 SWAP2 SAR PUSH3 0x388F2D 0xD6 STOP 0xB9 DUP14 SELFBALANCE SWAP6 PUSH18 0x1762721C98B34EA4490DBA6E53E364736F6C PUSH4 0x43000814 STOP CALLER "},"methodIdentifiers":{"call(address,address,address,uint256,string)":"edafcd5b"}}}}}