{"contracts/execution/ExecutionController.sol":{"ExecutionController":{"abi":[{"inputs":[{"internalType":"address","name":"initialOwner","type":"address"},{"internalType":"address","name":"_agentSafe","type":"address"},{"internalType":"address","name":"_policyEngine","type":"address"}],"stateMutability":"nonpayable","type":"constructor"},{"anonymous":false,"inputs":[{"indexed":true,"internalType":"address","name":"hook","type":"address"}],"name":"AuditHookSet","type":"event"},{"anonymous":false,"inputs":[{"indexed":true,"internalType":"address","name":"agent","type":"address"},{"indexed":true,"internalType":"address","name":"to","type":"address"},{"indexed":false,"internalType":"uint256","name":"amount","type":"uint256"},{"indexed":false,"internalType":"string","name":"paymentType","type":"string"}],"name":"ExecutionCompleted","type":"event"},{"anonymous":false,"inputs":[{"indexed":true,"internalType":"address","name":"agent","type":"address"},{"indexed":true,"internalType":"address","name":"to","type":"address"},{"indexed":false,"internalType":"uint256","name":"amount","type":"uint256"},{"indexed":false,"internalType":"string","name":"paymentType","type":"string"}],"name":"ExecutionStarted","type":"event"},{"anonymous":false,"inputs":[{"indexed":true,"internalType":"address","name":"previousOwner","type":"address"},{"indexed":true,"internalType":"address","name":"newOwner","type":"address"}],"name":"OwnershipTransferred","type":"event"},{"anonymous":false,"inputs":[{"indexed":false,"internalType":"uint256","name":"newLimit","type":"uint256"}],"name":"RateLimitUpdated","type":"event"},{"inputs":[],"name":"agentSafe","outputs":[{"internalType":"address","name":"","type":"address"}],"stateMutability":"view","type":"function"},{"inputs":[],"name":"auditHook","outputs":[{"internalType":"address","name":"","type":"address"}],"stateMutability":"view","type":"function"},{"inputs":[{"internalType":"address","name":"","type":"address"}],"name":"callsInBlock","outputs":[{"internalType":"uint256","name":"","type":"uint256"}],"stateMutability":"view","type":"function"},{"inputs":[{"internalType":"address","name":"agent","type":"address"},{"internalType":"address","name":"token","type":"address"},{"internalType":"address","name":"to","type":"address"},{"internalType":"uint256","name":"amount","type":"uint256"},{"internalType":"bool","name":"allowNonLSP1Recipient","type":"bool"},{"internalType":"bytes","name":"tokenData","type":"bytes"}],"name":"executeTokenWithPolicies","outputs":[],"stateMutability":"nonpayable","type":"function"},{"inputs":[{"internalType":"address","name":"agent","type":"address"},{"internalType":"address payable","name":"to","type":"address"},{"internalType":"uint256","name":"amount","type":"uint256"},{"internalType":"bytes","name":"data","type":"bytes"}],"name":"executeWithPolicies","outputs":[],"stateMutability":"nonpayable","type":"function"},{"inputs":[{"internalType":"address","name":"","type":"address"}],"name":"lastBlockNumber","outputs":[{"internalType":"uint256","name":"","type":"uint256"}],"stateMutability":"view","type":"function"},{"inputs":[],"name":"maxCallsPerBlock","outputs":[{"internalType":"uint256","name":"","type":"uint256"}],"stateMutability":"view","type":"function"},{"inputs":[],"name":"owner","outputs":[{"internalType":"address","name":"","type":"address"}],"stateMutability":"view","type":"function"},{"inputs":[],"name":"policyEngine","outputs":[{"internalType":"address","name":"","type":"address"}],"stateMutability":"view","type":"function"},{"inputs":[],"name":"renounceOwnership","outputs":[],"stateMutability":"nonpayable","type":"function"},{"inputs":[{"internalType":"address","name":"hook","type":"address"}],"name":"setAuditHook","outputs":[],"stateMutability":"nonpayable","type":"function"},{"inputs":[{"internalType":"uint256","name":"newLimit","type":"uint256"}],"name":"setMaxCallsPerBlock","outputs":[],"stateMutability":"nonpayable","type":"function"},{"inputs":[{"internalType":"address","name":"newOwner","type":"address"}],"name":"transferOwnership","outputs":[],"stateMutability":"nonpayable","type":"function"}],"evm":{"bytecode":{"linkReferences":{},"object":"60c0604052600a60025534801561001557600080fd5b50604051620011b8380380620011b883398101604081905261003691610166565b61003f336100fa565b600180556001600160a01b03821661008e5760405162461bcd60e51b815260206004820152600d60248201526c45433a207a65726f207361666560981b60448201526064015b60405180910390fd5b6001600160a01b0381166100d65760405162461bcd60e51b815260206004820152600f60248201526e45433a207a65726f20706f6c69637960881b6044820152606401610085565b6001600160a01b03808316608052811660a0526100f2836100fa565b5050506101a9565b600080546001600160a01b038381166001600160a01b0319831681178455604051919092169283917f8be0079c531659141344cd1fd0a4f28419497f9722a3daafe3b4186f6b6457e09190a35050565b80516001600160a01b038116811461016157600080fd5b919050565b60008060006060848603121561017b57600080fd5b6101848461014a565b92506101926020850161014a565b91506101a06040850161014a565b90509250925092565b60805160a051610fdb620001dd60003960006101520152600081816101b50152818161039201526106120152610fdb6000f3fe608060405234801561001057600080fd5b50600436106100cf5760003560e01c8063a27e790e1161008c578063e675a40211610066578063e675a402146101d7578063f2fde38b146101ea578063f373a337146101fd578063f9c449381461021057600080fd5b8063a27e790e14610194578063a280e509146101a7578063c7d285ae146101b057600080fd5b8063715018a6146100d45780637ac1792f146100de5780638877ea3d146101115780638da5cb5b1461013c578063927399a51461014d578063941ee20b14610174575b600080fd5b6100dc610223565b005b6100fe6100ec36600461098e565b60036020526000908152604090205481565b6040519081526020015b60405180910390f35b600554610124906001600160a01b031681565b6040516001600160a01b039091168152602001610108565b6000546001600160a01b0316610124565b6101247f000000000000000000000000000000000000000000000000000000000000000081565b6100fe61018236600461098e565b60046020526000908152604090205481565b6100dc6101a23660046109b2565b610237565b6100fe60025481565b6101247f000000000000000000000000000000000000000000000000000000000000000081565b6100dc6101e5366004610a14565b61027a565b6100dc6101f836600461098e565b61047f565b6100dc61020b36600461098e565b6104f8565b6100dc61021e366004610ab1565b61054a565b61022b6106f7565b6102356000610751565b565b61023f6106f7565b60028190556040518181527f1939de75d13c836ba62103f23c7a2622e9cbc2113aa33a8c74eb28e409313db29060200160405180910390a150565b6102826107a1565b6001600160a01b0386166102ce5760405162461bcd60e51b815260206004820152600e60248201526d22a19d103d32b937903a37b5b2b760911b60448201526064015b60405180910390fd5b6102d7876107fa565b6005546001600160a01b03161561031157610311878686604051806040016040528060058152602001642a27a5a2a760d91b8152506108dc565b846001600160a01b0316876001600160a01b03167ff7e9abad70d91e33a7a4ee8c0d98ddf716a8ce13001d223dfedf8778f541aa5286604051610373918152604060208201819052600590820152642a27a5a2a760d91b606082015260800190565b60405180910390a3604051631f8a336160e01b81526001600160a01b037f00000000000000000000000000000000000000000000000000000000000000001690631f8a3361906103d190899089908990899089908990600401610b4d565b600060405180830381600087803b1580156103eb57600080fd5b505af11580156103ff573d6000803e3d6000fd5b50505050846001600160a01b0316876001600160a01b03167fcb5b93869e6ad4efd84aebf5a948eaa212cf106df787efe23a80a4ca561a189186604051610465918152604060208201819052600590820152642a27a5a2a760d91b606082015260800190565b60405180910390a361047660018055565b50505050505050565b6104876106f7565b6001600160a01b0381166104ec5760405162461bcd60e51b815260206004820152602660248201527f4f776e61626c653a206e6577206f776e657220697320746865207a65726f206160448201526564647265737360d01b60648201526084016102c5565b6104f581610751565b50565b6105006106f7565b600580546001600160a01b0319166001600160a01b0383169081179091556040517f155f330b5167e3d2fc76338d94f25ebe6e2e8365b175a0ab387c1cc58b5361a790600090a250565b6105526107a1565b61055b856107fa565b6005546001600160a01b0316156105935761059385858560405180604001604052806003815260200162098b2b60eb1b8152506108dc565b836001600160a01b0316856001600160a01b03167ff7e9abad70d91e33a7a4ee8c0d98ddf716a8ce13001d223dfedf8778f541aa52856040516105f391815260406020820181905260039082015262098b2b60eb1b606082015260800190565b60405180910390a36040516352be989f60e11b81526001600160a01b037f0000000000000000000000000000000000000000000000000000000000000000169063a57d313e9061064d908790879087908790600401610b95565b600060405180830381600087803b15801561066757600080fd5b505af115801561067b573d6000803e3d6000fd5b50505050836001600160a01b0316856001600160a01b03167fcb5b93869e6ad4efd84aebf5a948eaa212cf106df787efe23a80a4ca561a1891856040516106df91815260406020820181905260039082015262098b2b60eb1b606082015260800190565b60405180910390a36106f060018055565b5050505050565b6000546001600160a01b031633146102355760405162461bcd60e51b815260206004820181905260248201527f4f776e61626c653a2063616c6c6572206973206e6f7420746865206f776e657260448201526064016102c5565b600080546001600160a01b038381166001600160a01b0319831681178455604051919092169283917f8be0079c531659141344cd1fd0a4f28419497f9722a3daafe3b4186f6b6457e09190a35050565b6002600154036107f35760405162461bcd60e51b815260206004820152601f60248201527f5265656e7472616e637947756172643a207265656e7472616e742063616c6c0060448201526064016102c5565b6002600155565b6001600160a01b0381166000908152600460205260409020544390811115610845576001600160a01b0382166000908152600360209081526040808320839055600490915290208190555b6001600160a01b038216600090815260036020526040812080549161086983610bc7565b90915550506002546001600160a01b03831660009081526003602052604090205411156108d85760405162461bcd60e51b815260206004820152601760248201527f45433a2072617465206c696d697420657863656564656400000000000000000060448201526064016102c5565b5050565b6040516108e89061096c565b604051809103906000f080158015610904573d6000803e3d6000fd5b5060055460405163edafcd5b60e01b81526001600160a01b039283169263edafcd5b9261093e929116908890889088908890600401610bee565b600060405180830381600087803b15801561095857600080fd5b505af19250505080156106f0575050505050565b61033d80610c6983390190565b6001600160a01b03811681146104f557600080fd5b6000602082840312156109a057600080fd5b81356109ab81610979565b9392505050565b6000602082840312156109c457600080fd5b5035919050565b60008083601f8401126109dd57600080fd5b50813567ffffffffffffffff8111156109f557600080fd5b602083019150836020828501011115610a0d57600080fd5b9250929050565b600080600080600080600060c0888a031215610a2f57600080fd5b8735610a3a81610979565b96506020880135610a4a81610979565b95506040880135610a5a81610979565b94506060880135935060808801358015158114610a7657600080fd5b925060a088013567ffffffffffffffff811115610a9257600080fd5b610a9e8a828b016109cb565b989b979a50959850939692959293505050565b600080600080600060808688031215610ac957600080fd5b8535610ad481610979565b94506020860135610ae481610979565b935060408601359250606086013567ffffffffffffffff811115610b0757600080fd5b610b13888289016109cb565b969995985093965092949392505050565b81835281816020850137506000828201602090810191909152601f909101601f19169091010190565b6001600160a01b0387811682528616602082015260408101859052831515606082015260a060808201819052600090610b899083018486610b24565b98975050505050505050565b60018060a01b0385168152836020820152606060408201526000610bbd606083018486610b24565b9695505050505050565b600060018201610be757634e487b7160e01b600052601160045260246000fd5b5060010190565b600060018060a01b038088168352602081881681850152818716604085015285606085015260a06080850152845191508160a085015260005b82811015610c435785810182015185820160c001528101610c27565b5050600060c0828501015260c0601f19601f830116840101915050969550505050505056fe608060405234801561001057600080fd5b5061031d806100206000396000f3fe608060405234801561001057600080fd5b506004361061002b5760003560e01c8063edafcd5b14610030575b600080fd5b61004361003e366004610166565b610045565b005b6000856001600160a01b0316858585856040516024016100689493929190610277565b60408051601f198184030181529181526020820180516001600160e01b0316635df16beb60e01b1790525161009d91906102cb565b6000604051808303816000865af19150503d80600081146100da576040519150601f19603f3d011682016040523d82523d6000602084013e6100df565b606091505b505090508061012c5760405162461bcd60e51b81526020600482015260156024820152741150ce88185d591a5d081a1bdbdac819985a5b1959605a1b604482015260640160405180910390fd5b505050505050565b80356001600160a01b038116811461014b57600080fd5b919050565b634e487b7160e01b600052604160045260246000fd5b600080600080600060a0868803121561017e57600080fd5b61018786610134565b945061019560208701610134565b93506101a360408701610134565b925060608601359150608086013567ffffffffffffffff808211156101c757600080fd5b818801915088601f8301126101db57600080fd5b8135818111156101ed576101ed610150565b604051601f8201601f19908116603f0116810190838211818310171561021557610215610150565b816040528281528b602084870101111561022e57600080fd5b8260208601602083013760006020848301015280955050505050509295509295909350565b60005b8381101561026e578181015183820152602001610256565b50506000910152565b600060018060a01b0380871683528086166020840152508360408301526080606083015282518060808401526102b48160a0850160208701610253565b601f01601f19169190910160a00195945050505050565b600082516102dd818460208701610253565b919091019291505056fea264697066735822122008b98cde8c911d62388f2dd600b98d4795711762721c98b34ea4490dba6e53e364736f6c63430008140033a264697066735822122006a56e0bb3acdc9d671678e1df9be06bc99af477f858b8513ba3e65af7ae2c4264736f6c63430008140033","opcodes":"PUSH1 0xC0 PUSH1 0x40 MSTORE PUSH1 0xA PUSH1 0x2 SSTORE CALLVALUE DUP1 ISZERO PUSH2 0x15 JUMPI PUSH1 0x0 DUP1 REVERT JUMPDEST POP PUSH1 0x40 MLOAD PUSH3 0x11B8 CODESIZE SUB DUP1 PUSH3 0x11B8 DUP4 CODECOPY DUP2 ADD PUSH1 0x40 DUP2 SWAP1 MSTORE PUSH2 0x36 SWAP2 PUSH2 0x166 JUMP JUMPDEST PUSH2 0x3F CALLER PUSH2 0xFA JUMP JUMPDEST PUSH1 0x1 DUP1 SSTORE PUSH1 0x1 PUSH1 0x1 PUSH1 0xA0 SHL SUB DUP3 AND PUSH2 0x8E JUMPI PUSH1 0x40 MLOAD PUSH3 0x461BCD PUSH1 0xE5 SHL DUP2 MSTORE PUSH1 0x20 PUSH1 0x4 DUP3 ADD MSTORE PUSH1 0xD PUSH1 0x24 DUP3 ADD MSTORE PUSH13 0x45433A207A65726F2073616665 PUSH1 0x98 SHL PUSH1 0x44 DUP3 ADD MSTORE PUSH1 0x64 ADD JUMPDEST PUSH1 0x40 MLOAD DUP1 SWAP2 SUB SWAP1 REVERT JUMPDEST PUSH1 0x1 PUSH1 0x1 PUSH1 0xA0 SHL SUB DUP2 AND PUSH2 0xD6 JUMPI PUSH1 0x40 MLOAD PUSH3 0x461BCD PUSH1 0xE5 SHL DUP2 MSTORE PUSH1 0x20 PUSH1 0x4 DUP3 ADD MSTORE PUSH1 0xF PUSH1 0x24 DUP3 ADD MSTORE PUSH15 0x45433A207A65726F20706F6C696379 PUSH1 0x88 SHL PUSH1 0x44 DUP3 ADD MSTORE PUSH1 0x64 ADD PUSH2 0x85 JUMP JUMPDEST PUSH1 0x1 PUSH1 0x1 PUSH1 0xA0 SHL SUB DUP1 DUP4 AND PUSH1 0x80 MSTORE DUP2 AND PUSH1 0xA0 MSTORE PUSH2 0xF2 DUP4 PUSH2 0xFA JUMP JUMPDEST POP POP POP PUSH2 0x1A9 JUMP JUMPDEST PUSH1 0x0 DUP1 SLOAD PUSH1 0x1 PUSH1 0x1 PUSH1 0xA0 SHL SUB DUP4 DUP2 AND PUSH1 0x1 PUSH1 0x1 PUSH1 0xA0 SHL SUB NOT DUP4 AND DUP2 OR DUP5 SSTORE PUSH1 0x40 MLOAD SWAP2 SWAP1 SWAP3 AND SWAP3 DUP4 SWAP2 PUSH32 0x8BE0079C531659141344CD1FD0A4F28419497F9722A3DAAFE3B4186F6B6457E0 SWAP2 SWAP1 LOG3 POP POP JUMP JUMPDEST DUP1 MLOAD PUSH1 0x1 PUSH1 0x1 PUSH1 0xA0 SHL SUB DUP2 AND DUP2 EQ PUSH2 0x161 JUMPI PUSH1 0x0 DUP1 REVERT JUMPDEST SWAP2 SWAP1 POP JUMP JUMPDEST PUSH1 0x0 DUP1 PUSH1 0x0 PUSH1 0x60 DUP5 DUP7 SUB SLT ISZERO PUSH2 0x17B JUMPI PUSH1 0x0 DUP1 REVERT JUMPDEST PUSH2 0x184 DUP5 PUSH2 0x14A JUMP JUMPDEST SWAP3 POP PUSH2 0x192 PUSH1 0x20 DUP6 ADD PUSH2 0x14A JUMP JUMPDEST SWAP2 POP PUSH2 0x1A0 PUSH1 0x40 DUP6 ADD PUSH2 0x14A JUMP JUMPDEST SWAP1 POP SWAP3 POP SWAP3 POP SWAP3 JUMP JUMPDEST PUSH1 0x80 MLOAD PUSH1 0xA0 MLOAD PUSH2 0xFDB PUSH3 0x1DD PUSH1 0x0 CODECOPY PUSH1 0x0 PUSH2 0x152 ADD MSTORE PUSH1 0x0 DUP2 DUP2 PUSH2 0x1B5 ADD MSTORE DUP2 DUP2 PUSH2 0x392 ADD MSTORE PUSH2 0x612 ADD MSTORE PUSH2 0xFDB PUSH1 0x0 RETURN INVALID PUSH1 0x80 PUSH1 0x40 MSTORE CALLVALUE DUP1 ISZERO PUSH2 0x10 JUMPI PUSH1 0x0 DUP1 REVERT JUMPDEST POP PUSH1 0x4 CALLDATASIZE LT PUSH2 0xCF JUMPI PUSH1 0x0 CALLDATALOAD PUSH1 0xE0 SHR DUP1 PUSH4 0xA27E790E GT PUSH2 0x8C JUMPI DUP1 PUSH4 0xE675A402 GT PUSH2 0x66 JUMPI DUP1 PUSH4 0xE675A402 EQ PUSH2 0x1D7 JUMPI DUP1 PUSH4 0xF2FDE38B EQ PUSH2 0x1EA JUMPI DUP1 PUSH4 0xF373A337 EQ PUSH2 0x1FD JUMPI DUP1 PUSH4 0xF9C44938 EQ PUSH2 0x210 JUMPI PUSH1 0x0 DUP1 REVERT JUMPDEST DUP1 PUSH4 0xA27E790E EQ PUSH2 0x194 JUMPI DUP1 PUSH4 0xA280E509 EQ PUSH2 0x1A7 JUMPI DUP1 PUSH4 0xC7D285AE EQ PUSH2 0x1B0 JUMPI PUSH1 0x0 DUP1 REVERT JUMPDEST DUP1 PUSH4 0x715018A6 EQ PUSH2 0xD4 JUMPI DUP1 PUSH4 0x7AC1792F EQ PUSH2 0xDE JUMPI DUP1 PUSH4 0x8877EA3D EQ PUSH2 0x111 JUMPI DUP1 PUSH4 0x8DA5CB5B EQ PUSH2 0x13C JUMPI DUP1 PUSH4 0x927399A5 EQ PUSH2 0x14D JUMPI DUP1 PUSH4 0x941EE20B EQ PUSH2 0x174 JUMPI JUMPDEST PUSH1 0x0 DUP1 REVERT JUMPDEST PUSH2 0xDC PUSH2 0x223 JUMP JUMPDEST STOP JUMPDEST PUSH2 0xFE PUSH2 0xEC CALLDATASIZE PUSH1 0x4 PUSH2 0x98E JUMP JUMPDEST PUSH1 0x3 PUSH1 0x20 MSTORE PUSH1 0x0 SWAP1 DUP2 MSTORE PUSH1 0x40 SWAP1 KECCAK256 SLOAD DUP2 JUMP JUMPDEST PUSH1 0x40 MLOAD SWAP1 DUP2 MSTORE PUSH1 0x20 ADD JUMPDEST PUSH1 0x40 MLOAD DUP1 SWAP2 SUB SWAP1 RETURN JUMPDEST PUSH1 0x5 SLOAD PUSH2 0x124 SWAP1 PUSH1 0x1 PUSH1 0x1 PUSH1 0xA0 SHL SUB AND DUP2 JUMP JUMPDEST PUSH1 0x40 MLOAD PUSH1 0x1 PUSH1 0x1 PUSH1 0xA0 SHL SUB SWAP1 SWAP2 AND DUP2 MSTORE PUSH1 0x20 ADD PUSH2 0x108 JUMP JUMPDEST PUSH1 0x0 SLOAD PUSH1 0x1 PUSH1 0x1 PUSH1 0xA0 SHL SUB AND PUSH2 0x124 JUMP JUMPDEST PUSH2 0x124 PUSH32 0x0 DUP2 JUMP JUMPDEST PUSH2 0xFE PUSH2 0x182 CALLDATASIZE PUSH1 0x4 PUSH2 0x98E JUMP JUMPDEST PUSH1 0x4 PUSH1 0x20 MSTORE PUSH1 0x0 SWAP1 DUP2 MSTORE PUSH1 0x40 SWAP1 KECCAK256 SLOAD DUP2 JUMP JUMPDEST PUSH2 0xDC PUSH2 0x1A2 CALLDATASIZE PUSH1 0x4 PUSH2 0x9B2 JUMP JUMPDEST PUSH2 0x237 JUMP JUMPDEST PUSH2 0xFE PUSH1 0x2 SLOAD DUP2 JUMP JUMPDEST PUSH2 0x124 PUSH32 0x0 DUP2 JUMP JUMPDEST PUSH2 0xDC PUSH2 0x1E5 CALLDATASIZE PUSH1 0x4 PUSH2 0xA14 JUMP JUMPDEST PUSH2 0x27A JUMP JUMPDEST PUSH2 0xDC PUSH2 0x1F8 CALLDATASIZE PUSH1 0x4 PUSH2 0x98E JUMP JUMPDEST PUSH2 0x47F JUMP JUMPDEST PUSH2 0xDC PUSH2 0x20B CALLDATASIZE PUSH1 0x4 PUSH2 0x98E JUMP JUMPDEST PUSH2 0x4F8 JUMP JUMPDEST PUSH2 0xDC PUSH2 0x21E CALLDATASIZE PUSH1 0x4 PUSH2 0xAB1 JUMP JUMPDEST PUSH2 0x54A JUMP JUMPDEST PUSH2 0x22B PUSH2 0x6F7 JUMP JUMPDEST PUSH2 0x235 PUSH1 0x0 PUSH2 0x751 JUMP JUMPDEST JUMP JUMPDEST PUSH2 0x23F PUSH2 0x6F7 JUMP JUMPDEST PUSH1 0x2 DUP2 SWAP1 SSTORE PUSH1 0x40 MLOAD DUP2 DUP2 MSTORE PUSH32 0x1939DE75D13C836BA62103F23C7A2622E9CBC2113AA33A8C74EB28E409313DB2 SWAP1 PUSH1 0x20 ADD PUSH1 0x40 MLOAD DUP1 SWAP2 SUB SWAP1 LOG1 POP JUMP JUMPDEST PUSH2 0x282 PUSH2 0x7A1 JUMP JUMPDEST PUSH1 0x1 PUSH1 0x1 PUSH1 0xA0 SHL SUB DUP7 AND PUSH2 0x2CE JUMPI PUSH1 0x40 MLOAD PUSH3 0x461BCD PUSH1 0xE5 SHL DUP2 MSTORE PUSH1 0x20 PUSH1 0x4 DUP3 ADD MSTORE PUSH1 0xE PUSH1 0x24 DUP3 ADD MSTORE PUSH14 0x22A19D103D32B937903A37B5B2B7 PUSH1 0x91 SHL PUSH1 0x44 DUP3 ADD MSTORE PUSH1 0x64 ADD JUMPDEST PUSH1 0x40 MLOAD DUP1 SWAP2 SUB SWAP1 REVERT JUMPDEST PUSH2 0x2D7 DUP8 PUSH2 0x7FA JUMP JUMPDEST PUSH1 0x5 SLOAD PUSH1 0x1 PUSH1 0x1 PUSH1 0xA0 SHL SUB AND ISZERO PUSH2 0x311 JUMPI PUSH2 0x311 DUP8 DUP7 DUP7 PUSH1 0x40 MLOAD DUP1 PUSH1 0x40 ADD PUSH1 0x40 MSTORE DUP1 PUSH1 0x5 DUP2 MSTORE PUSH1 0x20 ADD PUSH5 0x2A27A5A2A7 PUSH1 0xD9 SHL DUP2 MSTORE POP PUSH2 0x8DC JUMP JUMPDEST DUP5 PUSH1 0x1 PUSH1 0x1 PUSH1 0xA0 SHL SUB AND DUP8 PUSH1 0x1 PUSH1 0x1 PUSH1 0xA0 SHL SUB AND PUSH32 0xF7E9ABAD70D91E33A7A4EE8C0D98DDF716A8CE13001D223DFEDF8778F541AA52 DUP7 PUSH1 0x40 MLOAD PUSH2 0x373 SWAP2 DUP2 MSTORE PUSH1 0x40 PUSH1 0x20 DUP3 ADD DUP2 SWAP1 MSTORE PUSH1 0x5 SWAP1 DUP3 ADD MSTORE PUSH5 0x2A27A5A2A7 PUSH1 0xD9 SHL PUSH1 0x60 DUP3 ADD MSTORE PUSH1 0x80 ADD SWAP1 JUMP JUMPDEST PUSH1 0x40 MLOAD DUP1 SWAP2 SUB SWAP1 LOG3 PUSH1 0x40 MLOAD PUSH4 0x1F8A3361 PUSH1 0xE0 SHL DUP2 MSTORE PUSH1 0x1 PUSH1 0x1 PUSH1 0xA0 SHL SUB PUSH32 0x0 AND SWAP1 PUSH4 0x1F8A3361 SWAP1 PUSH2 0x3D1 SWAP1 DUP10 SWAP1 DUP10 SWAP1 DUP10 SWAP1 DUP10 SWAP1 DUP10 SWAP1 DUP10 SWAP1 PUSH1 0x4 ADD PUSH2 0xB4D JUMP JUMPDEST PUSH1 0x0 PUSH1 0x40 MLOAD DUP1 DUP4 SUB DUP2 PUSH1 0x0 DUP8 DUP1 EXTCODESIZE ISZERO DUP1 ISZERO PUSH2 0x3EB JUMPI PUSH1 0x0 DUP1 REVERT JUMPDEST POP GAS CALL ISZERO DUP1 ISZERO PUSH2 0x3FF JUMPI RETURNDATASIZE PUSH1 0x0 DUP1 RETURNDATACOPY RETURNDATASIZE PUSH1 0x0 REVERT JUMPDEST POP POP POP POP DUP5 PUSH1 0x1 PUSH1 0x1 PUSH1 0xA0 SHL SUB AND DUP8 PUSH1 0x1 PUSH1 0x1 PUSH1 0xA0 SHL SUB AND PUSH32 0xCB5B93869E6AD4EFD84AEBF5A948EAA212CF106DF787EFE23A80A4CA561A1891 DUP7 PUSH1 0x40 MLOAD PUSH2 0x465 SWAP2 DUP2 MSTORE PUSH1 0x40 PUSH1 0x20 DUP3 ADD DUP2 SWAP1 MSTORE PUSH1 0x5 SWAP1 DUP3 ADD MSTORE PUSH5 0x2A27A5A2A7 PUSH1 0xD9 SHL PUSH1 0x60 DUP3 ADD MSTORE PUSH1 0x80 ADD SWAP1 JUMP JUMPDEST PUSH1 0x40 MLOAD DUP1 SWAP2 SUB SWAP1 LOG3 PUSH2 0x476 PUSH1 0x1 DUP1 SSTORE JUMP JUMPDEST POP POP POP POP POP POP POP JUMP JUMPDEST PUSH2 0x487 PUSH2 0x6F7 JUMP JUMPDEST PUSH1 0x1 PUSH1 0x1 PUSH1 0xA0 SHL SUB DUP2 AND PUSH2 0x4EC JUMPI PUSH1 0x40 MLOAD PUSH3 0x461BCD PUSH1 0xE5 SHL DUP2 MSTORE PUSH1 0x20 PUSH1 0x4 DUP3 ADD MSTORE PUSH1 0x26 PUSH1 0x24 DUP3 ADD MSTORE PUSH32 0x4F776E61626C653A206E6577206F776E657220697320746865207A65726F2061 PUSH1 0x44 DUP3 ADD MSTORE PUSH6 0x646472657373 PUSH1 0xD0 SHL PUSH1 0x64 DUP3 ADD MSTORE PUSH1 0x84 ADD PUSH2 0x2C5 JUMP JUMPDEST PUSH2 0x4F5 DUP2 PUSH2 0x751 JUMP JUMPDEST POP JUMP JUMPDEST PUSH2 0x500 PUSH2 0x6F7 JUMP JUMPDEST PUSH1 0x5 DUP1 SLOAD PUSH1 0x1 PUSH1 0x1 PUSH1 0xA0 SHL SUB NOT AND PUSH1 0x1 PUSH1 0x1 PUSH1 0xA0 SHL SUB DUP4 AND SWAP1 DUP2 OR SWAP1 SWAP2 SSTORE PUSH1 0x40 MLOAD PUSH32 0x155F330B5167E3D2FC76338D94F25EBE6E2E8365B175A0AB387C1CC58B5361A7 SWAP1 PUSH1 0x0 SWAP1 LOG2 POP JUMP JUMPDEST PUSH2 0x552 PUSH2 0x7A1 JUMP JUMPDEST PUSH2 0x55B DUP6 PUSH2 0x7FA JUMP JUMPDEST PUSH1 0x5 SLOAD PUSH1 0x1 PUSH1 0x1 PUSH1 0xA0 SHL SUB AND ISZERO PUSH2 0x593 JUMPI PUSH2 0x593 DUP6 DUP6 DUP6 PUSH1 0x40 MLOAD DUP1 PUSH1 0x40 ADD PUSH1 0x40 MSTORE DUP1 PUSH1 0x3 DUP2 MSTORE PUSH1 0x20 ADD PUSH3 0x98B2B PUSH1 0xEB SHL DUP2 MSTORE POP PUSH2 0x8DC JUMP JUMPDEST DUP4 PUSH1 0x1 PUSH1 0x1 PUSH1 0xA0 SHL SUB AND DUP6 PUSH1 0x1 PUSH1 0x1 PUSH1 0xA0 SHL SUB AND PUSH32 0xF7E9ABAD70D91E33A7A4EE8C0D98DDF716A8CE13001D223DFEDF8778F541AA52 DUP6 PUSH1 0x40 MLOAD PUSH2 0x5F3 SWAP2 DUP2 MSTORE PUSH1 0x40 PUSH1 0x20 DUP3 ADD DUP2 SWAP1 MSTORE PUSH1 0x3 SWAP1 DUP3 ADD MSTORE PUSH3 0x98B2B PUSH1 0xEB SHL PUSH1 0x60 DUP3 ADD MSTORE PUSH1 0x80 ADD SWAP1 JUMP JUMPDEST PUSH1 0x40 MLOAD DUP1 SWAP2 SUB SWAP1 LOG3 PUSH1 0x40 MLOAD PUSH4 0x52BE989F PUSH1 0xE1 SHL DUP2 MSTORE PUSH1 0x1 PUSH1 0x1 PUSH1 0xA0 SHL SUB PUSH32 0x0 AND SWAP1 PUSH4 0xA57D313E SWAP1 PUSH2 0x64D SWAP1 DUP8 SWAP1 DUP8 SWAP1 DUP8 SWAP1 DUP8 SWAP1 PUSH1 0x4 ADD PUSH2 0xB95 JUMP JUMPDEST PUSH1 0x0 PUSH1 0x40 MLOAD DUP1 DUP4 SUB DUP2 PUSH1 0x0 DUP8 DUP1 EXTCODESIZE ISZERO DUP1 ISZERO PUSH2 0x667 JUMPI PUSH1 0x0 DUP1 REVERT JUMPDEST POP GAS CALL ISZERO DUP1 ISZERO PUSH2 0x67B JUMPI RETURNDATASIZE PUSH1 0x0 DUP1 RETURNDATACOPY RETURNDATASIZE PUSH1 0x0 REVERT JUMPDEST POP POP POP POP DUP4 PUSH1 0x1 PUSH1 0x1 PUSH1 0xA0 SHL SUB AND DUP6 PUSH1 0x1 PUSH1 0x1 PUSH1 0xA0 SHL SUB AND PUSH32 0xCB5B93869E6AD4EFD84AEBF5A948EAA212CF106DF787EFE23A80A4CA561A1891 DUP6 PUSH1 0x40 MLOAD PUSH2 0x6DF SWAP2 DUP2 MSTORE PUSH1 0x40 PUSH1 0x20 DUP3 ADD DUP2 SWAP1 MSTORE PUSH1 0x3 SWAP1 DUP3 ADD MSTORE PUSH3 0x98B2B PUSH1 0xEB SHL PUSH1 0x60 DUP3 ADD MSTORE PUSH1 0x80 ADD SWAP1 JUMP JUMPDEST PUSH1 0x40 MLOAD DUP1 SWAP2 SUB SWAP1 LOG3 PUSH2 0x6F0 PUSH1 0x1 DUP1 SSTORE JUMP JUMPDEST POP POP POP POP POP JUMP JUMPDEST PUSH1 0x0 SLOAD PUSH1 0x1 PUSH1 0x1 PUSH1 0xA0 SHL SUB AND CALLER EQ PUSH2 0x235 JUMPI PUSH1 0x40 MLOAD PUSH3 0x461BCD PUSH1 0xE5 SHL DUP2 MSTORE PUSH1 0x20 PUSH1 0x4 DUP3 ADD DUP2 SWAP1 MSTORE PUSH1 0x24 DUP3 ADD MSTORE PUSH32 0x4F776E61626C653A2063616C6C6572206973206E6F7420746865206F776E6572 PUSH1 0x44 DUP3 ADD MSTORE PUSH1 0x64 ADD PUSH2 0x2C5 JUMP JUMPDEST PUSH1 0x0 DUP1 SLOAD PUSH1 0x1 PUSH1 0x1 PUSH1 0xA0 SHL SUB DUP4 DUP2 AND PUSH1 0x1 PUSH1 0x1 PUSH1 0xA0 SHL SUB NOT DUP4 AND DUP2 OR DUP5 SSTORE PUSH1 0x40 MLOAD SWAP2 SWAP1 SWAP3 AND SWAP3 DUP4 SWAP2 PUSH32 0x8BE0079C531659141344CD1FD0A4F28419497F9722A3DAAFE3B4186F6B6457E0 SWAP2 SWAP1 LOG3 POP POP JUMP JUMPDEST PUSH1 0x2 PUSH1 0x1 SLOAD SUB PUSH2 0x7F3 JUMPI PUSH1 0x40 MLOAD PUSH3 0x461BCD PUSH1 0xE5 SHL DUP2 MSTORE PUSH1 0x20 PUSH1 0x4 DUP3 ADD MSTORE PUSH1 0x1F PUSH1 0x24 DUP3 ADD MSTORE PUSH32 0x5265656E7472616E637947756172643A207265656E7472616E742063616C6C00 PUSH1 0x44 DUP3 ADD MSTORE PUSH1 0x64 ADD PUSH2 0x2C5 JUMP JUMPDEST PUSH1 0x2 PUSH1 0x1 SSTORE JUMP JUMPDEST PUSH1 0x1 PUSH1 0x1 PUSH1 0xA0 SHL SUB DUP2 AND PUSH1 0x0 SWAP1 DUP2 MSTORE PUSH1 0x4 PUSH1 0x20 MSTORE PUSH1 0x40 SWAP1 KECCAK256 SLOAD NUMBER SWAP1 DUP2 GT ISZERO PUSH2 0x845 JUMPI PUSH1 0x1 PUSH1 0x1 PUSH1 0xA0 SHL SUB DUP3 AND PUSH1 0x0 SWAP1 DUP2 MSTORE PUSH1 0x3 PUSH1 0x20 SWAP1 DUP2 MSTORE PUSH1 0x40 DUP1 DUP4 KECCAK256 DUP4 SWAP1 SSTORE PUSH1 0x4 SWAP1 SWAP2 MSTORE SWAP1 KECCAK256 DUP2 SWAP1 SSTORE JUMPDEST PUSH1 0x1 PUSH1 0x1 PUSH1 0xA0 SHL SUB DUP3 AND PUSH1 0x0 SWAP1 DUP2 MSTORE PUSH1 0x3 PUSH1 0x20 MSTORE PUSH1 0x40 DUP2 KECCAK256 DUP1 SLOAD SWAP2 PUSH2 0x869 DUP4 PUSH2 0xBC7 JUMP JUMPDEST SWAP1 SWAP2 SSTORE POP POP PUSH1 0x2 SLOAD PUSH1 0x1 PUSH1 0x1 PUSH1 0xA0 SHL SUB DUP4 AND PUSH1 0x0 SWAP1 DUP2 MSTORE PUSH1 0x3 PUSH1 0x20 MSTORE PUSH1 0x40 SWAP1 KECCAK256 SLOAD GT ISZERO PUSH2 0x8D8 JUMPI PUSH1 0x40 MLOAD PUSH3 0x461BCD PUSH1 0xE5 SHL DUP2 MSTORE PUSH1 0x20 PUSH1 0x4 DUP3 ADD MSTORE PUSH1 0x17 PUSH1 0x24 DUP3 ADD MSTORE PUSH32 0x45433A2072617465206C696D6974206578636565646564000000000000000000 PUSH1 0x44 DUP3 ADD MSTORE PUSH1 0x64 ADD PUSH2 0x2C5 JUMP JUMPDEST POP POP JUMP JUMPDEST PUSH1 0x40 MLOAD PUSH2 0x8E8 SWAP1 PUSH2 0x96C JUMP JUMPDEST PUSH1 0x40 MLOAD DUP1 SWAP2 SUB SWAP1 PUSH1 0x0 CREATE DUP1 ISZERO DUP1 ISZERO PUSH2 0x904 JUMPI RETURNDATASIZE PUSH1 0x0 DUP1 RETURNDATACOPY RETURNDATASIZE PUSH1 0x0 REVERT JUMPDEST POP PUSH1 0x5 SLOAD PUSH1 0x40 MLOAD PUSH4 0xEDAFCD5B PUSH1 0xE0 SHL DUP2 MSTORE PUSH1 0x1 PUSH1 0x1 PUSH1 0xA0 SHL SUB SWAP3 DUP4 AND SWAP3 PUSH4 0xEDAFCD5B SWAP3 PUSH2 0x93E SWAP3 SWAP2 AND SWAP1 DUP9 SWAP1 DUP9 SWAP1 DUP9 SWAP1 DUP9 SWAP1 PUSH1 0x4 ADD PUSH2 0xBEE JUMP JUMPDEST PUSH1 0x0 PUSH1 0x40 MLOAD DUP1 DUP4 SUB DUP2 PUSH1 0x0 DUP8 DUP1 EXTCODESIZE ISZERO DUP1 ISZERO PUSH2 0x958 JUMPI PUSH1 0x0 DUP1 REVERT JUMPDEST POP GAS CALL SWAP3 POP POP POP DUP1 ISZERO PUSH2 0x6F0 JUMPI POP POP POP POP POP JUMP JUMPDEST PUSH2 0x33D DUP1 PUSH2 0xC69 DUP4 CODECOPY ADD SWAP1 JUMP JUMPDEST PUSH1 0x1 PUSH1 0x1 PUSH1 0xA0 SHL SUB DUP2 AND DUP2 EQ PUSH2 0x4F5 JUMPI PUSH1 0x0 DUP1 REVERT JUMPDEST PUSH1 0x0 PUSH1 0x20 DUP3 DUP5 SUB SLT ISZERO PUSH2 0x9A0 JUMPI PUSH1 0x0 DUP1 REVERT JUMPDEST DUP2 CALLDATALOAD PUSH2 0x9AB DUP2 PUSH2 0x979 JUMP JUMPDEST SWAP4 SWAP3 POP POP POP JUMP JUMPDEST PUSH1 0x0 PUSH1 0x20 DUP3 DUP5 SUB SLT ISZERO PUSH2 0x9C4 JUMPI PUSH1 0x0 DUP1 REVERT JUMPDEST POP CALLDATALOAD SWAP2 SWAP1 POP JUMP JUMPDEST PUSH1 0x0 DUP1 DUP4 PUSH1 0x1F DUP5 ADD SLT PUSH2 0x9DD JUMPI PUSH1 0x0 DUP1 REVERT JUMPDEST POP DUP2 CALLDATALOAD PUSH8 0xFFFFFFFFFFFFFFFF DUP2 GT ISZERO PUSH2 0x9F5 JUMPI PUSH1 0x0 DUP1 REVERT JUMPDEST PUSH1 0x20 DUP4 ADD SWAP2 POP DUP4 PUSH1 0x20 DUP3 DUP6 ADD ADD GT ISZERO PUSH2 0xA0D JUMPI PUSH1 0x0 DUP1 REVERT JUMPDEST SWAP3 POP SWAP3 SWAP1 POP JUMP JUMPDEST PUSH1 0x0 DUP1 PUSH1 0x0 DUP1 PUSH1 0x0 DUP1 PUSH1 0x0 PUSH1 0xC0 DUP9 DUP11 SUB SLT ISZERO PUSH2 0xA2F JUMPI PUSH1 0x0 DUP1 REVERT JUMPDEST DUP8 CALLDATALOAD PUSH2 0xA3A DUP2 PUSH2 0x979 JUMP JUMPDEST SWAP7 POP PUSH1 0x20 DUP9 ADD CALLDATALOAD PUSH2 0xA4A DUP2 PUSH2 0x979 JUMP JUMPDEST SWAP6 POP PUSH1 0x40 DUP9 ADD CALLDATALOAD PUSH2 0xA5A DUP2 PUSH2 0x979 JUMP JUMPDEST SWAP5 POP PUSH1 0x60 DUP9 ADD CALLDATALOAD SWAP4 POP PUSH1 0x80 DUP9 ADD CALLDATALOAD DUP1 ISZERO ISZERO DUP2 EQ PUSH2 0xA76 JUMPI PUSH1 0x0 DUP1 REVERT JUMPDEST SWAP3 POP PUSH1 0xA0 DUP9 ADD CALLDATALOAD PUSH8 0xFFFFFFFFFFFFFFFF DUP2 GT ISZERO PUSH2 0xA92 JUMPI PUSH1 0x0 DUP1 REVERT JUMPDEST PUSH2 0xA9E DUP11 DUP3 DUP12 ADD PUSH2 0x9CB JUMP JUMPDEST SWAP9 SWAP12 SWAP8 SWAP11 POP SWAP6 SWAP9 POP SWAP4 SWAP7 SWAP3 SWAP6 SWAP3 SWAP4 POP POP POP JUMP JUMPDEST PUSH1 0x0 DUP1 PUSH1 0x0 DUP1 PUSH1 0x0 PUSH1 0x80 DUP7 DUP9 SUB SLT ISZERO PUSH2 0xAC9 JUMPI PUSH1 0x0 DUP1 REVERT JUMPDEST DUP6 CALLDATALOAD PUSH2 0xAD4 DUP2 PUSH2 0x979 JUMP JUMPDEST SWAP5 POP PUSH1 0x20 DUP7 ADD CALLDATALOAD PUSH2 0xAE4 DUP2 PUSH2 0x979 JUMP JUMPDEST SWAP4 POP PUSH1 0x40 DUP7 ADD CALLDATALOAD SWAP3 POP PUSH1 0x60 DUP7 ADD CALLDATALOAD PUSH8 0xFFFFFFFFFFFFFFFF DUP2 GT ISZERO PUSH2 0xB07 JUMPI PUSH1 0x0 DUP1 REVERT JUMPDEST PUSH2 0xB13 DUP9 DUP3 DUP10 ADD PUSH2 0x9CB JUMP JUMPDEST SWAP7 SWAP10 SWAP6 SWAP9 POP SWAP4 SWAP7 POP SWAP3 SWAP5 SWAP4 SWAP3 POP POP POP JUMP JUMPDEST DUP2 DUP4 MSTORE DUP2 DUP2 PUSH1 0x20 DUP6 ADD CALLDATACOPY POP PUSH1 0x0 DUP3 DUP3 ADD PUSH1 0x20 SWAP1 DUP2 ADD SWAP2 SWAP1 SWAP2 MSTORE PUSH1 0x1F SWAP1 SWAP2 ADD PUSH1 0x1F NOT AND SWAP1 SWAP2 ADD ADD SWAP1 JUMP JUMPDEST PUSH1 0x1 PUSH1 0x1 PUSH1 0xA0 SHL SUB DUP8 DUP2 AND DUP3 MSTORE DUP7 AND PUSH1 0x20 DUP3 ADD MSTORE PUSH1 0x40 DUP2 ADD DUP6 SWAP1 MSTORE DUP4 ISZERO ISZERO PUSH1 0x60 DUP3 ADD MSTORE PUSH1 0xA0 PUSH1 0x80 DUP3 ADD DUP2 SWAP1 MSTORE PUSH1 0x0 SWAP1 PUSH2 0xB89 SWAP1 DUP4 ADD DUP5 DUP7 PUSH2 0xB24 JUMP JUMPDEST SWAP9 SWAP8 POP POP POP POP POP POP POP POP JUMP JUMPDEST PUSH1 0x1 DUP1 PUSH1 0xA0 SHL SUB DUP6 AND DUP2 MSTORE DUP4 PUSH1 0x20 DUP3 ADD MSTORE PUSH1 0x60 PUSH1 0x40 DUP3 ADD MSTORE PUSH1 0x0 PUSH2 0xBBD PUSH1 0x60 DUP4 ADD DUP5 DUP7 PUSH2 0xB24 JUMP JUMPDEST SWAP7 SWAP6 POP POP POP POP POP POP JUMP JUMPDEST PUSH1 0x0 PUSH1 0x1 DUP3 ADD PUSH2 0xBE7 JUMPI PUSH4 0x4E487B71 PUSH1 0xE0 SHL PUSH1 0x0 MSTORE PUSH1 0x11 PUSH1 0x4 MSTORE PUSH1 0x24 PUSH1 0x0 REVERT JUMPDEST POP PUSH1 0x1 ADD SWAP1 JUMP JUMPDEST PUSH1 0x0 PUSH1 0x1 DUP1 PUSH1 0xA0 SHL SUB DUP1 DUP9 AND DUP4 MSTORE PUSH1 0x20 DUP2 DUP9 AND DUP2 DUP6 ADD MSTORE DUP2 DUP8 AND PUSH1 0x40 DUP6 ADD MSTORE DUP6 PUSH1 0x60 DUP6 ADD MSTORE PUSH1 0xA0 PUSH1 0x80 DUP6 ADD MSTORE DUP5 MLOAD SWAP2 POP DUP2 PUSH1 0xA0 DUP6 ADD MSTORE PUSH1 0x0 JUMPDEST DUP3 DUP2 LT ISZERO PUSH2 0xC43 JUMPI DUP6 DUP2 ADD DUP3 ADD MLOAD DUP6 DUP3 ADD PUSH1 0xC0 ADD MSTORE DUP2 ADD PUSH2 0xC27 JUMP JUMPDEST POP POP PUSH1 0x0 PUSH1 0xC0 DUP3 DUP6 ADD ADD MSTORE PUSH1 0xC0 PUSH1 0x1F NOT PUSH1 0x1F DUP4 ADD AND DUP5 ADD ADD SWAP2 POP POP SWAP7 SWAP6 POP POP POP POP POP POP JUMP INVALID PUSH1 0x80 PUSH1 0x40 MSTORE CALLVALUE DUP1 ISZERO PUSH2 0x10 JUMPI PUSH1 0x0 DUP1 REVERT JUMPDEST POP PUSH2 0x31D DUP1 PUSH2 0x20 PUSH1 0x0 CODECOPY PUSH1 0x0 RETURN INVALID PUSH1 0x80 PUSH1 0x40 MSTORE CALLVALUE DUP1 ISZERO PUSH2 0x10 JUMPI PUSH1 0x0 DUP1 REVERT JUMPDEST POP PUSH1 0x4 CALLDATASIZE LT PUSH2 0x2B JUMPI PUSH1 0x0 CALLDATALOAD PUSH1 0xE0 SHR DUP1 PUSH4 0xEDAFCD5B EQ PUSH2 0x30 JUMPI JUMPDEST PUSH1 0x0 DUP1 REVERT JUMPDEST PUSH2 0x43 PUSH2 0x3E CALLDATASIZE PUSH1 0x4 PUSH2 0x166 JUMP JUMPDEST PUSH2 0x45 JUMP JUMPDEST STOP JUMPDEST PUSH1 0x0 DUP6 PUSH1 0x1 PUSH1 0x1 PUSH1 0xA0 SHL SUB AND DUP6 DUP6 DUP6 DUP6 PUSH1 0x40 MLOAD PUSH1 0x24 ADD PUSH2 0x68 SWAP5 SWAP4 SWAP3 SWAP2 SWAP1 PUSH2 0x277 JUMP JUMPDEST PUSH1 0x40 DUP1 MLOAD PUSH1 0x1F NOT DUP2 DUP5 SUB ADD DUP2 MSTORE SWAP2 DUP2 MSTORE PUSH1 0x20 DUP3 ADD DUP1 MLOAD PUSH1 0x1 PUSH1 0x1 PUSH1 0xE0 SHL SUB AND PUSH4 0x5DF16BEB PUSH1 0xE0 SHL OR SWAP1 MSTORE MLOAD PUSH2 0x9D SWAP2 SWAP1 PUSH2 0x2CB JUMP JUMPDEST PUSH1 0x0 PUSH1 0x40 MLOAD DUP1 DUP4 SUB DUP2 PUSH1 0x0 DUP7 GAS CALL SWAP2 POP POP RETURNDATASIZE DUP1 PUSH1 0x0 DUP2 EQ PUSH2 0xDA JUMPI PUSH1 0x40 MLOAD SWAP2 POP PUSH1 0x1F NOT PUSH1 0x3F RETURNDATASIZE ADD AND DUP3 ADD PUSH1 0x40 MSTORE RETURNDATASIZE DUP3 MSTORE RETURNDATASIZE PUSH1 0x0 PUSH1 0x20 DUP5 ADD RETURNDATACOPY PUSH2 0xDF JUMP JUMPDEST PUSH1 0x60 SWAP2 POP JUMPDEST POP POP SWAP1 POP DUP1 PUSH2 0x12C JUMPI PUSH1 0x40 MLOAD PUSH3 0x461BCD PUSH1 0xE5 SHL DUP2 MSTORE PUSH1 0x20 PUSH1 0x4 DUP3 ADD MSTORE PUSH1 0x15 PUSH1 0x24 DUP3 ADD MSTORE PUSH21 0x1150CE88185D591A5D081A1BDBDAC819985A5B1959 PUSH1 0x5A SHL PUSH1 0x44 DUP3 ADD MSTORE PUSH1 0x64 ADD PUSH1 0x40 MLOAD DUP1 SWAP2 SUB SWAP1 REVERT JUMPDEST POP POP POP POP POP POP JUMP JUMPDEST DUP1 CALLDATALOAD PUSH1 0x1 PUSH1 0x1 PUSH1 0xA0 SHL SUB DUP2 AND DUP2 EQ PUSH2 0x14B JUMPI PUSH1 0x0 DUP1 REVERT JUMPDEST SWAP2 SWAP1 POP JUMP JUMPDEST PUSH4 0x4E487B71 PUSH1 0xE0 SHL PUSH1 0x0 MSTORE PUSH1 0x41 PUSH1 0x4 MSTORE PUSH1 0x24 PUSH1 0x0 REVERT JUMPDEST PUSH1 0x0 DUP1 PUSH1 0x0 DUP1 PUSH1 0x0 PUSH1 0xA0 DUP7 DUP9 SUB SLT ISZERO PUSH2 0x17E JUMPI PUSH1 0x0 DUP1 REVERT JUMPDEST PUSH2 0x187 DUP7 PUSH2 0x134 JUMP JUMPDEST SWAP5 POP PUSH2 0x195 PUSH1 0x20 DUP8 ADD PUSH2 0x134 JUMP JUMPDEST SWAP4 POP PUSH2 0x1A3 PUSH1 0x40 DUP8 ADD PUSH2 0x134 JUMP JUMPDEST SWAP3 POP PUSH1 0x60 DUP7 ADD CALLDATALOAD SWAP2 POP PUSH1 0x80 DUP7 ADD CALLDATALOAD PUSH8 0xFFFFFFFFFFFFFFFF DUP1 DUP3 GT ISZERO PUSH2 0x1C7 JUMPI PUSH1 0x0 DUP1 REVERT JUMPDEST DUP2 DUP9 ADD SWAP2 POP DUP9 PUSH1 0x1F DUP4 ADD SLT PUSH2 0x1DB JUMPI PUSH1 0x0 DUP1 REVERT JUMPDEST DUP2 CALLDATALOAD DUP2 DUP2 GT ISZERO PUSH2 0x1ED JUMPI PUSH2 0x1ED PUSH2 0x150 JUMP JUMPDEST PUSH1 0x40 MLOAD PUSH1 0x1F DUP3 ADD PUSH1 0x1F NOT SWAP1 DUP2 AND PUSH1 0x3F ADD AND DUP2 ADD SWAP1 DUP4 DUP3 GT DUP2 DUP4 LT OR ISZERO PUSH2 0x215 JUMPI PUSH2 0x215 PUSH2 0x150 JUMP JUMPDEST DUP2 PUSH1 0x40 MSTORE DUP3 DUP2 MSTORE DUP12 PUSH1 0x20 DUP5 DUP8 ADD ADD GT ISZERO PUSH2 0x22E JUMPI PUSH1 0x0 DUP1 REVERT JUMPDEST DUP3 PUSH1 0x20 DUP7 ADD PUSH1 0x20 DUP4 ADD CALLDATACOPY PUSH1 0x0 PUSH1 0x20 DUP5 DUP4 ADD ADD MSTORE DUP1 SWAP6 POP POP POP POP POP POP SWAP3 SWAP6 POP SWAP3 SWAP6 SWAP1 SWAP4 POP JUMP JUMPDEST PUSH1 0x0 JUMPDEST DUP4 DUP2 LT ISZERO PUSH2 0x26E JUMPI DUP2 DUP2 ADD MLOAD DUP4 DUP3 ADD MSTORE PUSH1 0x20 ADD PUSH2 0x256 JUMP JUMPDEST POP POP PUSH1 0x0 SWAP2 ADD MSTORE JUMP JUMPDEST PUSH1 0x0 PUSH1 0x1 DUP1 PUSH1 0xA0 SHL SUB DUP1 DUP8 AND DUP4 MSTORE DUP1 DUP7 AND PUSH1 0x20 DUP5 ADD MSTORE POP DUP4 PUSH1 0x40 DUP4 ADD MSTORE PUSH1 0x80 PUSH1 0x60 DUP4 ADD MSTORE DUP3 MLOAD DUP1 PUSH1 0x80 DUP5 ADD MSTORE PUSH2 0x2B4 DUP2 PUSH1 0xA0 DUP6 ADD PUSH1 0x20 DUP8 ADD PUSH2 0x253 JUMP JUMPDEST PUSH1 0x1F ADD PUSH1 0x1F NOT AND SWAP2 SWAP1 SWAP2 ADD PUSH1 0xA0 ADD SWAP6 SWAP5 POP POP POP POP POP JUMP JUMPDEST PUSH1 0x0 DUP3 MLOAD PUSH2 0x2DD DUP2 DUP5 PUSH1 0x20 DUP8 ADD PUSH2 0x253 JUMP JUMPDEST SWAP2 SWAP1 SWAP2 ADD SWAP3 SWAP2 POP POP JUMP INVALID LOG2 PUSH5 0x6970667358 0x22 SLT KECCAK256 ADDMOD 0xB9 DUP13 0xDE DUP13 SWAP2 SAR PUSH3 0x388F2D 0xD6 STOP 0xB9 DUP14 SELFBALANCE SWAP6 PUSH18 0x1762721C98B34EA4490DBA6E53E364736F6C PUSH4 0x43000814 STOP CALLER LOG2 PUSH5 0x6970667358 0x22 SLT KECCAK256 MOD 0xA5 PUSH15 0xBB3ACDC9D671678E1DF9BE06BC99A DELEGATECALL PUSH24 0xF858B8513BA3E65AF7AE2C4264736F6C6343000814003300 "},"methodIdentifiers":{"agentSafe()":"c7d285ae","auditHook()":"8877ea3d","callsInBlock(address)":"7ac1792f","executeTokenWithPolicies(address,address,address,uint256,bool,bytes)":"e675a402","executeWithPolicies(address,address,uint256,bytes)":"f9c44938","lastBlockNumber(address)":"941ee20b","maxCallsPerBlock()":"a280e509","owner()":"8da5cb5b","policyEngine()":"927399a5","renounceOwnership()":"715018a6","setAuditHook(address)":"f373a337","setMaxCallsPerBlock(uint256)":"a27e790e","transferOwnership(address)":"f2fde38b"}}}}}