{"contracts/coordination/AgentCoordinator.sol":{"AgentCoordinator":{"abi":[{"inputs":[],"stateMutability":"nonpayable","type":"constructor"},{"anonymous":false,"inputs":[{"indexed":true,"internalType":"address","name":"agent","type":"address"},{"indexed":false,"internalType":"bool","name":"isContract","type":"bool"},{"indexed":false,"internalType":"uint256","name":"maxGasPerCall","type":"uint256"},{"indexed":false,"internalType":"bool","name":"allowedAutomation","type":"bool"}],"name":"AgentRegistered","type":"event"},{"anonymous":false,"inputs":[{"indexed":true,"internalType":"address","name":"agent","type":"address"},{"indexed":true,"internalType":"bytes32","name":"capability","type":"bytes32"}],"name":"CapabilityGranted","type":"event"},{"anonymous":false,"inputs":[{"indexed":true,"internalType":"address","name":"agent","type":"address"},{"indexed":true,"internalType":"bytes32","name":"capability","type":"bytes32"}],"name":"CapabilityRevoked","type":"event"},{"anonymous":false,"inputs":[{"indexed":true,"internalType":"address","name":"previousOwner","type":"address"},{"indexed":true,"internalType":"address","name":"newOwner","type":"address"}],"name":"OwnershipTransferred","type":"event"},{"anonymous":false,"inputs":[{"indexed":true,"internalType":"address","name":"oldAdmin","type":"address"},{"indexed":true,"internalType":"address","name":"newAdmin","type":"address"}],"name":"RoleAdminChanged","type":"event"},{"anonymous":false,"inputs":[{"indexed":true,"internalType":"address","name":"agent","type":"address"},{"indexed":true,"internalType":"bytes32","name":"role","type":"bytes32"},{"indexed":false,"internalType":"bytes32[]","name":"capabilities","type":"bytes32[]"}],"name":"RoleDefinedForAgent","type":"event"},{"anonymous":false,"inputs":[{"indexed":true,"internalType":"address","name":"agent","type":"address"},{"indexed":true,"internalType":"bytes32","name":"role","type":"bytes32"}],"name":"RoleRevoked","type":"event"},{"inputs":[],"name":"CAN_PAY","outputs":[{"internalType":"bytes32","name":"","type":"bytes32"}],"stateMutability":"view","type":"function"},{"inputs":[],"name":"CAN_REBALANCE","outputs":[{"internalType":"bytes32","name":"","type":"bytes32"}],"stateMutability":"view","type":"function"},{"inputs":[],"name":"CAN_SUBSCRIBE","outputs":[{"internalType":"bytes32","name":"","type":"bytes32"}],"stateMutability":"view","type":"function"},{"inputs":[],"name":"CAN_TRADE","outputs":[{"internalType":"bytes32","name":"","type":"bytes32"}],"stateMutability":"view","type":"function"},{"inputs":[],"name":"CAN_TRANSFER","outputs":[{"internalType":"bytes32","name":"","type":"bytes32"}],"stateMutability":"view","type":"function"},{"inputs":[],"name":"CAN_YIELD","outputs":[{"internalType":"bytes32","name":"","type":"bytes32"}],"stateMutability":"view","type":"function"},{"inputs":[{"internalType":"address","name":"","type":"address"},{"internalType":"uint256","name":"","type":"uint256"}],"name":"agentRoles","outputs":[{"internalType":"bytes32","name":"","type":"bytes32"}],"stateMutability":"view","type":"function"},{"inputs":[{"internalType":"address","name":"","type":"address"}],"name":"agents","outputs":[{"internalType":"bool","name":"isContract","type":"bool"},{"internalType":"uint256","name":"maxGasPerCall","type":"uint256"},{"internalType":"bool","name":"allowedAutomation","type":"bool"}],"stateMutability":"view","type":"function"},{"inputs":[{"internalType":"address","name":"agent","type":"address"},{"internalType":"bytes32","name":"role","type":"bytes32"},{"internalType":"bytes32[]","name":"capabilities","type":"bytes32[]"}],"name":"assignRole","outputs":[],"stateMutability":"nonpayable","type":"function"},{"inputs":[{"internalType":"address","name":"agent","type":"address"}],"name":"canBeAutomated","outputs":[{"internalType":"bool","name":"","type":"bool"}],"stateMutability":"view","type":"function"},{"inputs":[{"internalType":"address","name":"agent","type":"address"}],"name":"getAgentConfig","outputs":[{"components":[{"internalType":"bool","name":"isContract","type":"bool"},{"internalType":"uint256","name":"maxGasPerCall","type":"uint256"},{"internalType":"bool","name":"allowedAutomation","type":"bool"}],"internalType":"struct AgentCoordinator.AgentConfig","name":"","type":"tuple"}],"stateMutability":"view","type":"function"},{"inputs":[{"internalType":"address","name":"agent","type":"address"}],"name":"getAgentRoles","outputs":[{"internalType":"bytes32[]","name":"","type":"bytes32[]"}],"stateMutability":"view","type":"function"},{"inputs":[{"internalType":"bytes32","name":"role","type":"bytes32"}],"name":"getCapabilitiesForRole","outputs":[{"internalType":"bytes32[]","name":"","type":"bytes32[]"}],"stateMutability":"view","type":"function"},{"inputs":[{"internalType":"address","name":"agent","type":"address"}],"name":"getMaxGasPerCall","outputs":[{"internalType":"uint256","name":"","type":"uint256"}],"stateMutability":"view","type":"function"},{"inputs":[{"internalType":"bytes32","name":"role","type":"bytes32"}],"name":"getRoleMembers","outputs":[{"internalType":"address[]","name":"","type":"address[]"}],"stateMutability":"view","type":"function"},{"inputs":[{"internalType":"address","name":"agent","type":"address"},{"internalType":"bytes32","name":"capability","type":"bytes32"}],"name":"grantCapability","outputs":[],"stateMutability":"nonpayable","type":"function"},{"inputs":[{"internalType":"address","name":"","type":"address"},{"internalType":"bytes32","name":"","type":"bytes32"}],"name":"hasCapability","outputs":[{"internalType":"bool","name":"","type":"bool"}],"stateMutability":"view","type":"function"},{"inputs":[{"internalType":"address","name":"agent","type":"address"},{"internalType":"bytes32","name":"role","type":"bytes32"}],"name":"hasRole","outputs":[{"internalType":"bool","name":"","type":"bool"}],"stateMutability":"view","type":"function"},{"inputs":[{"internalType":"address","name":"","type":"address"}],"name":"isAgentRegistered","outputs":[{"internalType":"bool","name":"","type":"bool"}],"stateMutability":"view","type":"function"},{"inputs":[{"internalType":"address","name":"agent","type":"address"}],"name":"isContractAgent","outputs":[{"internalType":"bool","name":"","type":"bool"}],"stateMutability":"view","type":"function"},{"inputs":[],"name":"owner","outputs":[{"internalType":"address","name":"","type":"address"}],"stateMutability":"view","type":"function"},{"inputs":[{"internalType":"address","name":"agent","type":"address"},{"internalType":"uint256","name":"maxGasPerCall","type":"uint256"},{"internalType":"bool","name":"allowedAutomation","type":"bool"}],"name":"registerAgent","outputs":[],"stateMutability":"nonpayable","type":"function"},{"inputs":[],"name":"renounceOwnership","outputs":[],"stateMutability":"nonpayable","type":"function"},{"inputs":[{"internalType":"address","name":"agent","type":"address"},{"internalType":"bytes32","name":"capability","type":"bytes32"}],"name":"revokeCapability","outputs":[],"stateMutability":"nonpayable","type":"function"},{"inputs":[{"internalType":"address","name":"agent","type":"address"},{"internalType":"bytes32","name":"role","type":"bytes32"}],"name":"revokeRole","outputs":[],"stateMutability":"nonpayable","type":"function"},{"inputs":[],"name":"roleAdmin","outputs":[{"internalType":"address","name":"","type":"address"}],"stateMutability":"view","type":"function"},{"inputs":[{"internalType":"bytes32","name":"","type":"bytes32"},{"internalType":"uint256","name":"","type":"uint256"}],"name":"roleCapabilities","outputs":[{"internalType":"bytes32","name":"","type":"bytes32"}],"stateMutability":"view","type":"function"},{"inputs":[{"internalType":"bytes32","name":"","type":"bytes32"},{"internalType":"uint256","name":"","type":"uint256"}],"name":"roleMembers","outputs":[{"internalType":"address","name":"","type":"address"}],"stateMutability":"view","type":"function"},{"inputs":[{"internalType":"address","name":"agent","type":"address"},{"internalType":"bool","name":"allowed","type":"bool"}],"name":"setAllowedAutomation","outputs":[],"stateMutability":"nonpayable","type":"function"},{"inputs":[{"internalType":"address","name":"agent","type":"address"},{"internalType":"uint256","name":"newLimit","type":"uint256"}],"name":"setMaxGasPerCall","outputs":[],"stateMutability":"nonpayable","type":"function"},{"inputs":[{"internalType":"address","name":"newAdmin","type":"address"}],"name":"setRoleAdmin","outputs":[],"stateMutability":"nonpayable","type":"function"},{"inputs":[{"internalType":"address","name":"newOwner","type":"address"}],"name":"transferOwnership","outputs":[],"stateMutability":"nonpayable","type":"function"}],"evm":{"bytecode":{"linkReferences":{},"object":"608060405234801561001057600080fd5b5061001a33610031565b600780546001600160a01b03191633179055610081565b600080546001600160a01b038381166001600160a01b0319831681178455604051919092169283917f8be0079c531659141344cd1fd0a4f28419497f9722a3daafe3b4186f6b6457e09190a35050565b6119d9806100906000396000f3fe608060405234801561001057600080fd5b50600436106101f05760003560e01c80638da5cb5b1161010f578063b3be5529116100a2578063cf1bdae211610071578063cf1bdae2146105ca578063db73355d146105dd578063f2fde38b146105f0578063fd66091e1461060357600080fd5b8063b3be552914610550578063b728839e14610563578063c415accb14610590578063c5c2e025146105b757600080fd5b8063a3246ad3116100de578063a3246ad3146104e3578063a593386414610503578063ac4ab3fb1461052a578063b153958f1461053d57600080fd5b80638da5cb5b1461048557806393867fb51461049657806395b74e3d146104a957806397d19a54146104bc57600080fd5b806356bad863116101875780637f528155116101565780637f528155146103f95780637fecccfc14610424578063804b24d51461044b57806386eae19b1461045e57600080fd5b806356bad863146103085780635ecea824146103a0578063689b6c44146103ce578063715018a6146103f157600080fd5b8063330506d9116101c3578063330506d91461027e57806344ea1d431461029157806350e637f3146102c057806356ad850a146102d357600080fd5b806313fcbb48146101f5578063208dd1ff14610236578063228e3f9b1461024b5780632c60993c1461025e575b600080fd5b610221610203366004611659565b6001600160a01b031660009081526001602052604090205460ff1690565b60405190151581526020015b60405180910390f35b61024961024436600461167b565b610657565b005b61024961025936600461167b565b6109aa565b61027161026c3660046116a5565b610ac4565b60405161022d91906116be565b61024961028c36600461167b565b610b26565b61022161029f366004611659565b6001600160a01b031660009081526001602052604090206002015460ff1690565b6102716102ce366004611659565b610c79565b6102fa7f4244f9b94cc1e80fcc4fd9194847d3ef0eb179ba97aa042f48336b300c496c0a81565b60405190815260200161022d565b61037a610316366004611659565b6040805160608082018352600080835260208084018290529284018190526001600160a01b0394909416845260018083529383902083519182018452805460ff90811615158352948101549282019290925260029091015490921615159082015290565b60408051825115158152602080840151908201529181015115159082015260600161022d565b6102216103ae36600461167b565b600660209081526000928352604080842090915290825290205460ff1681565b6102216103dc366004611659565b60026020526000908152604090205460ff1681565b610249610ce3565b61040c610407366004611702565b610cf7565b6040516001600160a01b03909116815260200161022d565b6102fa7f1b6fc749b7603ccdc46a3d42847a5c46d1b34b260ea0c04cbba4d0cdb53e5f9c81565b610249610459366004611724565b610d2f565b6102fa7fed5516c47986bf8d5731a1ec97330da6aa82bdf5c591b9a2ea854807c759369381565b6000546001600160a01b031661040c565b60075461040c906001600160a01b031681565b6102fa6104b736600461167b565b61108e565b6102fa7fd83c3da79be62ce05b444acc669ce9f22e334fc4ad85b8bfa2c131fc5331750181565b6104f66104f13660046116a5565b6110bf565b60405161022d91906117ae565b6102fa7f3ca1aa796739d3af38a7033426b43b1eb1d63961fd971a84c5de1e3b901c628481565b61022161053836600461167b565b61112a565b6102fa61054b366004611702565b6111b3565b61024961055e366004611659565b6111cf565b6102fa610571366004611659565b6001600160a01b03166000908152600160208190526040909120015490565b6102fa7fb868dee755c9ac92b4f9c7191d25f5d5bdf1c66713d472e3b1173c438942d66f81565b6102496105c536600461167b565b611273565b6102496105d83660046117ff565b6112f5565b6102496105eb366004611832565b61134d565b6102496105fe366004611659565b6114ba565b610638610611366004611659565b600160208190526000918252604090912080549181015460029091015460ff928316921683565b604080519315158452602084019290925215159082015260600161022d565b6007546001600160a01b0316331461068a5760405162461bcd60e51b81526004016106819061186e565b60405180910390fd5b6001600160a01b0382166106b05760405162461bcd60e51b81526004016106819061189a565b806106f05760405162461bcd60e51b815260206004820152601060248201526f41433a20696e76616c696420726f6c6560801b6044820152606401610681565b60005b6001600160a01b038316600090815260056020526040902054811015610829576001600160a01b0383166000908152600560205260409020805483919083908110610740576107406118c5565b906000526020600020015403610817576001600160a01b03831660009081526005602052604090208054610776906001906118f1565b81548110610786576107866118c5565b906000526020600020015460056000856001600160a01b03166001600160a01b0316815260200190815260200160002082815481106107c7576107c76118c5565b60009182526020808320909101929092556001600160a01b03851681526005909152604090208054806107fc576107fc611904565b60019003818190600052602060002001600090559055610829565b806108218161191a565b9150506106f3565b5060005b60008281526004602052604090205481101561096f57600082815260046020526040902080546001600160a01b03851691908390811061086f5761086f6118c5565b6000918252602090912001546001600160a01b03160361095d57600082815260046020526040902080546108a5906001906118f1565b815481106108b5576108b56118c5565b60009182526020808320909101548483526004909152604090912080546001600160a01b0390921691839081106108ee576108ee6118c5565b600091825260208083209190910180546001600160a01b0319166001600160a01b03949094169390931790925583815260049091526040902080548061093657610936611904565b600082815260209020810160001990810180546001600160a01b031916905501905561096f565b806109678161191a565b91505061082d565b5060405181906001600160a01b038416907fea83a7caef01824e96446a8c4bc8ff4669edd99e129b53e32c077f85d216808190600090a35050565b6007546001600160a01b031633146109d45760405162461bcd60e51b81526004016106819061186e565b6001600160a01b0382166109fa5760405162461bcd60e51b81526004016106819061189a565b80610a405760405162461bcd60e51b815260206004820152601660248201527541433a20696e76616c6964206361706162696c69747960501b6044820152606401610681565b6001600160a01b038216600090815260066020908152604080832084845290915290205460ff1615610ac0576001600160a01b0382166000818152600660209081526040808320858452909152808220805460ff19169055518392917f6cc46c13bf9ecc309370a9150165239f833c3742128d77220c49cb4915a07bc791a35b5050565b600081815260036020908152604091829020805483518184028101840190945280845260609392830182828015610b1a57602002820191906000526020600020905b815481526020019060010190808311610b06575b50505050509050919050565b6007546001600160a01b03163314610b505760405162461bcd60e51b81526004016106819061186e565b6001600160a01b038216610b765760405162461bcd60e51b81526004016106819061189a565b80610bbc5760405162461bcd60e51b815260206004820152601660248201527541433a20696e76616c6964206361706162696c69747960501b6044820152606401610681565b6001600160a01b03821660009081526002602052604090205460ff16610bf45760405162461bcd60e51b815260040161068190611933565b6001600160a01b038216600090815260066020908152604080832084845290915290205460ff16610ac0576001600160a01b0382166000818152600660209081526040808320858452909152808220805460ff19166001179055518392917faf409f79c52d1fc6127b156de998c22b9c6cf6d4f0f58e934e62f983c4dc82bf91a35050565b6001600160a01b038116600090815260056020908152604091829020805483518184028101840190945280845260609392830182828015610b1a5760200282019190600052602060002090815481526020019060010190808311610b065750505050509050919050565b610ceb611533565b610cf5600061158d565b565b60046020528160005260406000208181548110610d1357600080fd5b6000918252602090912001546001600160a01b03169150829050565b6007546001600160a01b03163314610d595760405162461bcd60e51b81526004016106819061186e565b6001600160a01b038416610d7f5760405162461bcd60e51b81526004016106819061189a565b82610dbf5760405162461bcd60e51b815260206004820152601060248201526f41433a20696e76616c696420726f6c6560801b6044820152606401610681565b6001600160a01b03841660009081526002602052604090205460ff16610df75760405162461bcd60e51b815260040161068190611933565b6000805b6001600160a01b038616600090815260056020526040902054811015610e73576001600160a01b0386166000908152600560205260409020805486919083908110610e4857610e486118c5565b906000526020600020015403610e615760019150610e73565b80610e6b8161191a565b915050610dfb565b5080610ea5576001600160a01b0385166000908152600560209081526040822080546001810182559083529120018490555b8115610f895760005b82811015610f6d576000848483818110610eca57610eca6118c5565b6001600160a01b038a166000908152600660209081526040808320938202959095013580835292905292909220549192505060ff16610f5a576001600160a01b0387166000818152600660209081526040808320858452909152808220805460ff19166001179055518392917faf409f79c52d1fc6127b156de998c22b9c6cf6d4f0f58e934e62f983c4dc82bf91a35b5080610f658161191a565b915050610eae565b506000848152600360205260409020610f879084846115dd565b505b6000805b60008681526004602052604090205481101561100457600086815260046020526040902080546001600160a01b038916919083908110610fcf57610fcf6118c5565b6000918252602090912001546001600160a01b031603610ff25760019150611004565b80610ffc8161191a565b915050610f8d565b50806110425760008581526004602090815260408220805460018101825590835291200180546001600160a01b0319166001600160a01b0388161790555b84866001600160a01b03167f31753fbf38c02193f5bca8319060f42703779a89de79debec356788c7d7266c4868660405161107e92919061196a565b60405180910390a3505050505050565b600560205281600052604060002081815481106110aa57600080fd5b90600052602060002001600091509150505481565b600081815260046020908152604091829020805483518184028101840190945280845260609392830182828015610b1a57602002820191906000526020600020905b81546001600160a01b031681526001909101906020018083116111015750505050509050919050565b6000805b6001600160a01b0384166000908152600560205260409020548110156111a7576001600160a01b038416600090815260056020526040902080548491908390811061117b5761117b6118c5565b9060005260206000200154036111955760019150506111ad565b8061119f8161191a565b91505061112e565b50600090505b92915050565b600360205281600052604060002081815481106110aa57600080fd5b6111d7611533565b6001600160a01b0381166112215760405162461bcd60e51b815260206004820152601160248201527020a19d1034b73b30b634b21030b236b4b760791b6044820152606401610681565b600780546001600160a01b038381166001600160a01b0319831681179093556040519116919082907f6dc5a6386166d4aea56c8d14b28e24c501c6f8d53554066f3c1e8216af5fe99c90600090a35050565b6007546001600160a01b0316331461129d5760405162461bcd60e51b81526004016106819061186e565b6001600160a01b03821660009081526002602052604090205460ff166112d55760405162461bcd60e51b815260040161068190611933565b6001600160a01b0390911660009081526001602081905260409091200155565b6007546001600160a01b0316331461131f5760405162461bcd60e51b81526004016106819061186e565b6001600160a01b03919091166000908152600160205260409020600201805460ff1916911515919091179055565b6007546001600160a01b031633146113775760405162461bcd60e51b81526004016106819061186e565b6001600160a01b03831661139d5760405162461bcd60e51b81526004016106819061189a565b6001600160a01b03831660009081526002602052604090205460ff16156113ff5760405162461bcd60e51b81526020600482015260166024820152751050ce88185b1c9958591e481c9959da5cdd195c995960521b6044820152606401610681565b60408051606080820183526001600160a01b038616803b15158084526020808501888152871515868801818152600086815260018086528a822099518a5490151560ff19918216178b5594518a82015591516002998a018054911515918616919091179055978452968890208054909216909617905585518281529081018890529485019390935291927feaf678fffad7ed90837cd73662f49f039d912348456152b3d5ff23d556f5b7db910160405180910390a250505050565b6114c2611533565b6001600160a01b0381166115275760405162461bcd60e51b815260206004820152602660248201527f4f776e61626c653a206e6577206f776e657220697320746865207a65726f206160448201526564647265737360d01b6064820152608401610681565b6115308161158d565b50565b6000546001600160a01b03163314610cf55760405162461bcd60e51b815260206004820181905260248201527f4f776e61626c653a2063616c6c6572206973206e6f7420746865206f776e65726044820152606401610681565b600080546001600160a01b038381166001600160a01b0319831681178455604051919092169283917f8be0079c531659141344cd1fd0a4f28419497f9722a3daafe3b4186f6b6457e09190a35050565b828054828255906000526020600020908101928215611618579160200282015b828111156116185782358255916020019190600101906115fd565b50611624929150611628565b5090565b5b808211156116245760008155600101611629565b80356001600160a01b038116811461165457600080fd5b919050565b60006020828403121561166b57600080fd5b6116748261163d565b9392505050565b6000806040838503121561168e57600080fd5b6116978361163d565b946020939093013593505050565b6000602082840312156116b757600080fd5b5035919050565b6020808252825182820181905260009190848201906040850190845b818110156116f6578351835292840192918401916001016116da565b50909695505050505050565b6000806040838503121561171557600080fd5b50508035926020909101359150565b6000806000806060858703121561173a57600080fd5b6117438561163d565b935060208501359250604085013567ffffffffffffffff8082111561176757600080fd5b818701915087601f83011261177b57600080fd5b81358181111561178a57600080fd5b8860208260051b850101111561179f57600080fd5b95989497505060200194505050565b6020808252825182820181905260009190848201906040850190845b818110156116f65783516001600160a01b0316835292840192918401916001016117ca565b8035801515811461165457600080fd5b6000806040838503121561181257600080fd5b61181b8361163d565b9150611829602084016117ef565b90509250929050565b60008060006060848603121561184757600080fd5b6118508461163d565b925060208401359150611865604085016117ef565b90509250925092565b60208082526012908201527120a19d1037b7363c903937b632a0b236b4b760711b604082015260600190565b6020808252601190820152701050ce881a5b9d985b1a59081859d95b9d607a1b604082015260600190565b634e487b7160e01b600052603260045260246000fd5b634e487b7160e01b600052601160045260246000fd5b818103818111156111ad576111ad6118db565b634e487b7160e01b600052603160045260246000fd5b60006001820161192c5761192c6118db565b5060010190565b60208082526018908201527f41433a206167656e74206e6f7420726567697374657265640000000000000000604082015260600190565b6020808252810182905260006001600160fb1b0383111561198a57600080fd5b8260051b8085604085013791909101604001939250505056fea2646970667358221220d54ffc807fee30aa6b22e8ccb37e7ab5646b6053dbbd750ea988bed760ca558d64736f6c63430008140033","opcodes":"PUSH1 0x80 PUSH1 0x40 MSTORE CALLVALUE DUP1 ISZERO PUSH2 0x10 JUMPI PUSH1 0x0 DUP1 REVERT JUMPDEST POP PUSH2 0x1A CALLER PUSH2 0x31 JUMP JUMPDEST PUSH1 0x7 DUP1 SLOAD PUSH1 0x1 PUSH1 0x1 PUSH1 0xA0 SHL SUB NOT AND CALLER OR SWAP1 SSTORE PUSH2 0x81 JUMP JUMPDEST PUSH1 0x0 DUP1 SLOAD PUSH1 0x1 PUSH1 0x1 PUSH1 0xA0 SHL SUB DUP4 DUP2 AND PUSH1 0x1 PUSH1 0x1 PUSH1 0xA0 SHL SUB NOT DUP4 AND DUP2 OR DUP5 SSTORE PUSH1 0x40 MLOAD SWAP2 SWAP1 SWAP3 AND SWAP3 DUP4 SWAP2 PUSH32 0x8BE0079C531659141344CD1FD0A4F28419497F9722A3DAAFE3B4186F6B6457E0 SWAP2 SWAP1 LOG3 POP POP JUMP JUMPDEST PUSH2 0x19D9 DUP1 PUSH2 0x90 PUSH1 0x0 CODECOPY PUSH1 0x0 RETURN INVALID PUSH1 0x80 PUSH1 0x40 MSTORE CALLVALUE DUP1 ISZERO PUSH2 0x10 JUMPI PUSH1 0x0 DUP1 REVERT JUMPDEST POP PUSH1 0x4 CALLDATASIZE LT PUSH2 0x1F0 JUMPI PUSH1 0x0 CALLDATALOAD PUSH1 0xE0 SHR DUP1 PUSH4 0x8DA5CB5B GT PUSH2 0x10F JUMPI DUP1 PUSH4 0xB3BE5529 GT PUSH2 0xA2 JUMPI DUP1 PUSH4 0xCF1BDAE2 GT PUSH2 0x71 JUMPI DUP1 PUSH4 0xCF1BDAE2 EQ PUSH2 0x5CA JUMPI DUP1 PUSH4 0xDB73355D EQ PUSH2 0x5DD JUMPI DUP1 PUSH4 0xF2FDE38B EQ PUSH2 0x5F0 JUMPI DUP1 PUSH4 0xFD66091E EQ PUSH2 0x603 JUMPI PUSH1 0x0 DUP1 REVERT JUMPDEST DUP1 PUSH4 0xB3BE5529 EQ PUSH2 0x550 JUMPI DUP1 PUSH4 0xB728839E EQ PUSH2 0x563 JUMPI DUP1 PUSH4 0xC415ACCB EQ PUSH2 0x590 JUMPI DUP1 PUSH4 0xC5C2E025 EQ PUSH2 0x5B7 JUMPI PUSH1 0x0 DUP1 REVERT JUMPDEST DUP1 PUSH4 0xA3246AD3 GT PUSH2 0xDE JUMPI DUP1 PUSH4 0xA3246AD3 EQ PUSH2 0x4E3 JUMPI DUP1 PUSH4 0xA5933864 EQ PUSH2 0x503 JUMPI DUP1 PUSH4 0xAC4AB3FB EQ PUSH2 0x52A JUMPI DUP1 PUSH4 0xB153958F EQ PUSH2 0x53D JUMPI PUSH1 0x0 DUP1 REVERT JUMPDEST DUP1 PUSH4 0x8DA5CB5B EQ PUSH2 0x485 JUMPI DUP1 PUSH4 0x93867FB5 EQ PUSH2 0x496 JUMPI DUP1 PUSH4 0x95B74E3D EQ PUSH2 0x4A9 JUMPI DUP1 PUSH4 0x97D19A54 EQ PUSH2 0x4BC JUMPI PUSH1 0x0 DUP1 REVERT JUMPDEST DUP1 PUSH4 0x56BAD863 GT PUSH2 0x187 JUMPI DUP1 PUSH4 0x7F528155 GT PUSH2 0x156 JUMPI DUP1 PUSH4 0x7F528155 EQ PUSH2 0x3F9 JUMPI DUP1 PUSH4 0x7FECCCFC EQ PUSH2 0x424 JUMPI DUP1 PUSH4 0x804B24D5 EQ PUSH2 0x44B JUMPI DUP1 PUSH4 0x86EAE19B EQ PUSH2 0x45E JUMPI PUSH1 0x0 DUP1 REVERT JUMPDEST DUP1 PUSH4 0x56BAD863 EQ PUSH2 0x308 JUMPI DUP1 PUSH4 0x5ECEA824 EQ PUSH2 0x3A0 JUMPI DUP1 PUSH4 0x689B6C44 EQ PUSH2 0x3CE JUMPI DUP1 PUSH4 0x715018A6 EQ PUSH2 0x3F1 JUMPI PUSH1 0x0 DUP1 REVERT JUMPDEST DUP1 PUSH4 0x330506D9 GT PUSH2 0x1C3 JUMPI DUP1 PUSH4 0x330506D9 EQ PUSH2 0x27E JUMPI DUP1 PUSH4 0x44EA1D43 EQ PUSH2 0x291 JUMPI DUP1 PUSH4 0x50E637F3 EQ PUSH2 0x2C0 JUMPI DUP1 PUSH4 0x56AD850A EQ PUSH2 0x2D3 JUMPI PUSH1 0x0 DUP1 REVERT JUMPDEST DUP1 PUSH4 0x13FCBB48 EQ PUSH2 0x1F5 JUMPI DUP1 PUSH4 0x208DD1FF EQ PUSH2 0x236 JUMPI DUP1 PUSH4 0x228E3F9B EQ PUSH2 0x24B JUMPI DUP1 PUSH4 0x2C60993C EQ PUSH2 0x25E JUMPI JUMPDEST PUSH1 0x0 DUP1 REVERT JUMPDEST PUSH2 0x221 PUSH2 0x203 CALLDATASIZE PUSH1 0x4 PUSH2 0x1659 JUMP JUMPDEST PUSH1 0x1 PUSH1 0x1 PUSH1 0xA0 SHL SUB AND PUSH1 0x0 SWAP1 DUP2 MSTORE PUSH1 0x1 PUSH1 0x20 MSTORE PUSH1 0x40 SWAP1 KECCAK256 SLOAD PUSH1 0xFF AND SWAP1 JUMP JUMPDEST PUSH1 0x40 MLOAD SWAP1 ISZERO ISZERO DUP2 MSTORE PUSH1 0x20 ADD JUMPDEST PUSH1 0x40 MLOAD DUP1 SWAP2 SUB SWAP1 RETURN JUMPDEST PUSH2 0x249 PUSH2 0x244 CALLDATASIZE PUSH1 0x4 PUSH2 0x167B JUMP JUMPDEST PUSH2 0x657 JUMP JUMPDEST STOP JUMPDEST PUSH2 0x249 PUSH2 0x259 CALLDATASIZE PUSH1 0x4 PUSH2 0x167B JUMP JUMPDEST PUSH2 0x9AA JUMP JUMPDEST PUSH2 0x271 PUSH2 0x26C CALLDATASIZE PUSH1 0x4 PUSH2 0x16A5 JUMP JUMPDEST PUSH2 0xAC4 JUMP JUMPDEST PUSH1 0x40 MLOAD PUSH2 0x22D SWAP2 SWAP1 PUSH2 0x16BE JUMP JUMPDEST PUSH2 0x249 PUSH2 0x28C CALLDATASIZE PUSH1 0x4 PUSH2 0x167B JUMP JUMPDEST PUSH2 0xB26 JUMP JUMPDEST PUSH2 0x221 PUSH2 0x29F CALLDATASIZE PUSH1 0x4 PUSH2 0x1659 JUMP JUMPDEST PUSH1 0x1 PUSH1 0x1 PUSH1 0xA0 SHL SUB AND PUSH1 0x0 SWAP1 DUP2 MSTORE PUSH1 0x1 PUSH1 0x20 MSTORE PUSH1 0x40 SWAP1 KECCAK256 PUSH1 0x2 ADD SLOAD PUSH1 0xFF AND SWAP1 JUMP JUMPDEST PUSH2 0x271 PUSH2 0x2CE CALLDATASIZE PUSH1 0x4 PUSH2 0x1659 JUMP JUMPDEST PUSH2 0xC79 JUMP JUMPDEST PUSH2 0x2FA PUSH32 0x4244F9B94CC1E80FCC4FD9194847D3EF0EB179BA97AA042F48336B300C496C0A DUP2 JUMP JUMPDEST PUSH1 0x40 MLOAD SWAP1 DUP2 MSTORE PUSH1 0x20 ADD PUSH2 0x22D JUMP JUMPDEST PUSH2 0x37A PUSH2 0x316 CALLDATASIZE PUSH1 0x4 PUSH2 0x1659 JUMP JUMPDEST PUSH1 0x40 DUP1 MLOAD PUSH1 0x60 DUP1 DUP3 ADD DUP4 MSTORE PUSH1 0x0 DUP1 DUP4 MSTORE PUSH1 0x20 DUP1 DUP5 ADD DUP3 SWAP1 MSTORE SWAP3 DUP5 ADD DUP2 SWAP1 MSTORE PUSH1 0x1 PUSH1 0x1 PUSH1 0xA0 SHL SUB SWAP5 SWAP1 SWAP5 AND DUP5 MSTORE PUSH1 0x1 DUP1 DUP4 MSTORE SWAP4 DUP4 SWAP1 KECCAK256 DUP4 MLOAD SWAP2 DUP3 ADD DUP5 MSTORE DUP1 SLOAD PUSH1 0xFF SWAP1 DUP2 AND ISZERO ISZERO DUP4 MSTORE SWAP5 DUP2 ADD SLOAD SWAP3 DUP3 ADD SWAP3 SWAP1 SWAP3 MSTORE PUSH1 0x2 SWAP1 SWAP2 ADD SLOAD SWAP1 SWAP3 AND ISZERO ISZERO SWAP1 DUP3 ADD MSTORE SWAP1 JUMP JUMPDEST PUSH1 0x40 DUP1 MLOAD DUP3 MLOAD ISZERO ISZERO DUP2 MSTORE PUSH1 0x20 DUP1 DUP5 ADD MLOAD SWAP1 DUP3 ADD MSTORE SWAP2 DUP2 ADD MLOAD ISZERO ISZERO SWAP1 DUP3 ADD MSTORE PUSH1 0x60 ADD PUSH2 0x22D JUMP JUMPDEST PUSH2 0x221 PUSH2 0x3AE CALLDATASIZE PUSH1 0x4 PUSH2 0x167B JUMP JUMPDEST PUSH1 0x6 PUSH1 0x20 SWAP1 DUP2 MSTORE PUSH1 0x0 SWAP3 DUP4 MSTORE PUSH1 0x40 DUP1 DUP5 KECCAK256 SWAP1 SWAP2 MSTORE SWAP1 DUP3 MSTORE SWAP1 KECCAK256 SLOAD PUSH1 0xFF AND DUP2 JUMP JUMPDEST PUSH2 0x221 PUSH2 0x3DC CALLDATASIZE PUSH1 0x4 PUSH2 0x1659 JUMP JUMPDEST PUSH1 0x2 PUSH1 0x20 MSTORE PUSH1 0x0 SWAP1 DUP2 MSTORE PUSH1 0x40 SWAP1 KECCAK256 SLOAD PUSH1 0xFF AND DUP2 JUMP JUMPDEST PUSH2 0x249 PUSH2 0xCE3 JUMP JUMPDEST PUSH2 0x40C PUSH2 0x407 CALLDATASIZE PUSH1 0x4 PUSH2 0x1702 JUMP JUMPDEST PUSH2 0xCF7 JUMP JUMPDEST PUSH1 0x40 MLOAD PUSH1 0x1 PUSH1 0x1 PUSH1 0xA0 SHL SUB SWAP1 SWAP2 AND DUP2 MSTORE PUSH1 0x20 ADD PUSH2 0x22D JUMP JUMPDEST PUSH2 0x2FA PUSH32 0x1B6FC749B7603CCDC46A3D42847A5C46D1B34B260EA0C04CBBA4D0CDB53E5F9C DUP2 JUMP JUMPDEST PUSH2 0x249 PUSH2 0x459 CALLDATASIZE PUSH1 0x4 PUSH2 0x1724 JUMP JUMPDEST PUSH2 0xD2F JUMP JUMPDEST PUSH2 0x2FA PUSH32 0xED5516C47986BF8D5731A1EC97330DA6AA82BDF5C591B9A2EA854807C7593693 DUP2 JUMP JUMPDEST PUSH1 0x0 SLOAD PUSH1 0x1 PUSH1 0x1 PUSH1 0xA0 SHL SUB AND PUSH2 0x40C JUMP JUMPDEST PUSH1 0x7 SLOAD PUSH2 0x40C SWAP1 PUSH1 0x1 PUSH1 0x1 PUSH1 0xA0 SHL SUB AND DUP2 JUMP JUMPDEST PUSH2 0x2FA PUSH2 0x4B7 CALLDATASIZE PUSH1 0x4 PUSH2 0x167B JUMP JUMPDEST PUSH2 0x108E JUMP JUMPDEST PUSH2 0x2FA PUSH32 0xD83C3DA79BE62CE05B444ACC669CE9F22E334FC4AD85B8BFA2C131FC53317501 DUP2 JUMP JUMPDEST PUSH2 0x4F6 PUSH2 0x4F1 CALLDATASIZE PUSH1 0x4 PUSH2 0x16A5 JUMP JUMPDEST PUSH2 0x10BF JUMP JUMPDEST PUSH1 0x40 MLOAD PUSH2 0x22D SWAP2 SWAP1 PUSH2 0x17AE JUMP JUMPDEST PUSH2 0x2FA PUSH32 0x3CA1AA796739D3AF38A7033426B43B1EB1D63961FD971A84C5DE1E3B901C6284 DUP2 JUMP JUMPDEST PUSH2 0x221 PUSH2 0x538 CALLDATASIZE PUSH1 0x4 PUSH2 0x167B JUMP JUMPDEST PUSH2 0x112A JUMP JUMPDEST PUSH2 0x2FA PUSH2 0x54B CALLDATASIZE PUSH1 0x4 PUSH2 0x1702 JUMP JUMPDEST PUSH2 0x11B3 JUMP JUMPDEST PUSH2 0x249 PUSH2 0x55E CALLDATASIZE PUSH1 0x4 PUSH2 0x1659 JUMP JUMPDEST PUSH2 0x11CF JUMP JUMPDEST PUSH2 0x2FA PUSH2 0x571 CALLDATASIZE PUSH1 0x4 PUSH2 0x1659 JUMP JUMPDEST PUSH1 0x1 PUSH1 0x1 PUSH1 0xA0 SHL SUB AND PUSH1 0x0 SWAP1 DUP2 MSTORE PUSH1 0x1 PUSH1 0x20 DUP2 SWAP1 MSTORE PUSH1 0x40 SWAP1 SWAP2 KECCAK256 ADD SLOAD SWAP1 JUMP JUMPDEST PUSH2 0x2FA PUSH32 0xB868DEE755C9AC92B4F9C7191D25F5D5BDF1C66713D472E3B1173C438942D66F DUP2 JUMP JUMPDEST PUSH2 0x249 PUSH2 0x5C5 CALLDATASIZE PUSH1 0x4 PUSH2 0x167B JUMP JUMPDEST PUSH2 0x1273 JUMP JUMPDEST PUSH2 0x249 PUSH2 0x5D8 CALLDATASIZE PUSH1 0x4 PUSH2 0x17FF JUMP JUMPDEST PUSH2 0x12F5 JUMP JUMPDEST PUSH2 0x249 PUSH2 0x5EB CALLDATASIZE PUSH1 0x4 PUSH2 0x1832 JUMP JUMPDEST PUSH2 0x134D JUMP JUMPDEST PUSH2 0x249 PUSH2 0x5FE CALLDATASIZE PUSH1 0x4 PUSH2 0x1659 JUMP JUMPDEST PUSH2 0x14BA JUMP JUMPDEST PUSH2 0x638 PUSH2 0x611 CALLDATASIZE PUSH1 0x4 PUSH2 0x1659 JUMP JUMPDEST PUSH1 0x1 PUSH1 0x20 DUP2 SWAP1 MSTORE PUSH1 0x0 SWAP2 DUP3 MSTORE PUSH1 0x40 SWAP1 SWAP2 KECCAK256 DUP1 SLOAD SWAP2 DUP2 ADD SLOAD PUSH1 0x2 SWAP1 SWAP2 ADD SLOAD PUSH1 0xFF SWAP3 DUP4 AND SWAP3 AND DUP4 JUMP JUMPDEST PUSH1 0x40 DUP1 MLOAD SWAP4 ISZERO ISZERO DUP5 MSTORE PUSH1 0x20 DUP5 ADD SWAP3 SWAP1 SWAP3 MSTORE ISZERO ISZERO SWAP1 DUP3 ADD MSTORE PUSH1 0x60 ADD PUSH2 0x22D JUMP JUMPDEST PUSH1 0x7 SLOAD PUSH1 0x1 PUSH1 0x1 PUSH1 0xA0 SHL SUB AND CALLER EQ PUSH2 0x68A JUMPI PUSH1 0x40 MLOAD PUSH3 0x461BCD PUSH1 0xE5 SHL DUP2 MSTORE PUSH1 0x4 ADD PUSH2 0x681 SWAP1 PUSH2 0x186E JUMP JUMPDEST PUSH1 0x40 MLOAD DUP1 SWAP2 SUB SWAP1 REVERT JUMPDEST PUSH1 0x1 PUSH1 0x1 PUSH1 0xA0 SHL SUB DUP3 AND PUSH2 0x6B0 JUMPI PUSH1 0x40 MLOAD PUSH3 0x461BCD PUSH1 0xE5 SHL DUP2 MSTORE PUSH1 0x4 ADD PUSH2 0x681 SWAP1 PUSH2 0x189A JUMP JUMPDEST DUP1 PUSH2 0x6F0 JUMPI PUSH1 0x40 MLOAD PUSH3 0x461BCD PUSH1 0xE5 SHL DUP2 MSTORE PUSH1 0x20 PUSH1 0x4 DUP3 ADD MSTORE PUSH1 0x10 PUSH1 0x24 DUP3 ADD MSTORE PUSH16 0x41433A20696E76616C696420726F6C65 PUSH1 0x80 SHL PUSH1 0x44 DUP3 ADD MSTORE PUSH1 0x64 ADD PUSH2 0x681 JUMP JUMPDEST PUSH1 0x0 JUMPDEST PUSH1 0x1 PUSH1 0x1 PUSH1 0xA0 SHL SUB DUP4 AND PUSH1 0x0 SWAP1 DUP2 MSTORE PUSH1 0x5 PUSH1 0x20 MSTORE PUSH1 0x40 SWAP1 KECCAK256 SLOAD DUP2 LT ISZERO PUSH2 0x829 JUMPI PUSH1 0x1 PUSH1 0x1 PUSH1 0xA0 SHL SUB DUP4 AND PUSH1 0x0 SWAP1 DUP2 MSTORE PUSH1 0x5 PUSH1 0x20 MSTORE PUSH1 0x40 SWAP1 KECCAK256 DUP1 SLOAD DUP4 SWAP2 SWAP1 DUP4 SWAP1 DUP2 LT PUSH2 0x740 JUMPI PUSH2 0x740 PUSH2 0x18C5 JUMP JUMPDEST SWAP1 PUSH1 0x0 MSTORE PUSH1 0x20 PUSH1 0x0 KECCAK256 ADD SLOAD SUB PUSH2 0x817 JUMPI PUSH1 0x1 PUSH1 0x1 PUSH1 0xA0 SHL SUB DUP4 AND PUSH1 0x0 SWAP1 DUP2 MSTORE PUSH1 0x5 PUSH1 0x20 MSTORE PUSH1 0x40 SWAP1 KECCAK256 DUP1 SLOAD PUSH2 0x776 SWAP1 PUSH1 0x1 SWAP1 PUSH2 0x18F1 JUMP JUMPDEST DUP2 SLOAD DUP2 LT PUSH2 0x786 JUMPI PUSH2 0x786 PUSH2 0x18C5 JUMP JUMPDEST SWAP1 PUSH1 0x0 MSTORE PUSH1 0x20 PUSH1 0x0 KECCAK256 ADD SLOAD PUSH1 0x5 PUSH1 0x0 DUP6 PUSH1 0x1 PUSH1 0x1 PUSH1 0xA0 SHL SUB AND PUSH1 0x1 PUSH1 0x1 PUSH1 0xA0 SHL SUB AND DUP2 MSTORE PUSH1 0x20 ADD SWAP1 DUP2 MSTORE PUSH1 0x20 ADD PUSH1 0x0 KECCAK256 DUP3 DUP2 SLOAD DUP2 LT PUSH2 0x7C7 JUMPI PUSH2 0x7C7 PUSH2 0x18C5 JUMP JUMPDEST PUSH1 0x0 SWAP2 DUP3 MSTORE PUSH1 0x20 DUP1 DUP4 KECCAK256 SWAP1 SWAP2 ADD SWAP3 SWAP1 SWAP3 SSTORE PUSH1 0x1 PUSH1 0x1 PUSH1 0xA0 SHL SUB DUP6 AND DUP2 MSTORE PUSH1 0x5 SWAP1 SWAP2 MSTORE PUSH1 0x40 SWAP1 KECCAK256 DUP1 SLOAD DUP1 PUSH2 0x7FC JUMPI PUSH2 0x7FC PUSH2 0x1904 JUMP JUMPDEST PUSH1 0x1 SWAP1 SUB DUP2 DUP2 SWAP1 PUSH1 0x0 MSTORE PUSH1 0x20 PUSH1 0x0 KECCAK256 ADD PUSH1 0x0 SWAP1 SSTORE SWAP1 SSTORE PUSH2 0x829 JUMP JUMPDEST DUP1 PUSH2 0x821 DUP2 PUSH2 0x191A JUMP JUMPDEST SWAP2 POP POP PUSH2 0x6F3 JUMP JUMPDEST POP PUSH1 0x0 JUMPDEST PUSH1 0x0 DUP3 DUP2 MSTORE PUSH1 0x4 PUSH1 0x20 MSTORE PUSH1 0x40 SWAP1 KECCAK256 SLOAD DUP2 LT ISZERO PUSH2 0x96F JUMPI PUSH1 0x0 DUP3 DUP2 MSTORE PUSH1 0x4 PUSH1 0x20 MSTORE PUSH1 0x40 SWAP1 KECCAK256 DUP1 SLOAD PUSH1 0x1 PUSH1 0x1 PUSH1 0xA0 SHL SUB DUP6 AND SWAP2 SWAP1 DUP4 SWAP1 DUP2 LT PUSH2 0x86F JUMPI PUSH2 0x86F PUSH2 0x18C5 JUMP JUMPDEST PUSH1 0x0 SWAP2 DUP3 MSTORE PUSH1 0x20 SWAP1 SWAP2 KECCAK256 ADD SLOAD PUSH1 0x1 PUSH1 0x1 PUSH1 0xA0 SHL SUB AND SUB PUSH2 0x95D JUMPI PUSH1 0x0 DUP3 DUP2 MSTORE PUSH1 0x4 PUSH1 0x20 MSTORE PUSH1 0x40 SWAP1 KECCAK256 DUP1 SLOAD PUSH2 0x8A5 SWAP1 PUSH1 0x1 SWAP1 PUSH2 0x18F1 JUMP JUMPDEST DUP2 SLOAD DUP2 LT PUSH2 0x8B5 JUMPI PUSH2 0x8B5 PUSH2 0x18C5 JUMP JUMPDEST PUSH1 0x0 SWAP2 DUP3 MSTORE PUSH1 0x20 DUP1 DUP4 KECCAK256 SWAP1 SWAP2 ADD SLOAD DUP5 DUP4 MSTORE PUSH1 0x4 SWAP1 SWAP2 MSTORE PUSH1 0x40 SWAP1 SWAP2 KECCAK256 DUP1 SLOAD PUSH1 0x1 PUSH1 0x1 PUSH1 0xA0 SHL SUB SWAP1 SWAP3 AND SWAP2 DUP4 SWAP1 DUP2 LT PUSH2 0x8EE JUMPI PUSH2 0x8EE PUSH2 0x18C5 JUMP JUMPDEST PUSH1 0x0 SWAP2 DUP3 MSTORE PUSH1 0x20 DUP1 DUP4 KECCAK256 SWAP2 SWAP1 SWAP2 ADD DUP1 SLOAD PUSH1 0x1 PUSH1 0x1 PUSH1 0xA0 SHL SUB NOT AND PUSH1 0x1 PUSH1 0x1 PUSH1 0xA0 SHL SUB SWAP5 SWAP1 SWAP5 AND SWAP4 SWAP1 SWAP4 OR SWAP1 SWAP3 SSTORE DUP4 DUP2 MSTORE PUSH1 0x4 SWAP1 SWAP2 MSTORE PUSH1 0x40 SWAP1 KECCAK256 DUP1 SLOAD DUP1 PUSH2 0x936 JUMPI PUSH2 0x936 PUSH2 0x1904 JUMP JUMPDEST PUSH1 0x0 DUP3 DUP2 MSTORE PUSH1 0x20 SWAP1 KECCAK256 DUP2 ADD PUSH1 0x0 NOT SWAP1 DUP2 ADD DUP1 SLOAD PUSH1 0x1 PUSH1 0x1 PUSH1 0xA0 SHL SUB NOT AND SWAP1 SSTORE ADD SWAP1 SSTORE PUSH2 0x96F JUMP JUMPDEST DUP1 PUSH2 0x967 DUP2 PUSH2 0x191A JUMP JUMPDEST SWAP2 POP POP PUSH2 0x82D JUMP JUMPDEST POP PUSH1 0x40 MLOAD DUP2 SWAP1 PUSH1 0x1 PUSH1 0x1 PUSH1 0xA0 SHL SUB DUP5 AND SWAP1 PUSH32 0xEA83A7CAEF01824E96446A8C4BC8FF4669EDD99E129B53E32C077F85D2168081 SWAP1 PUSH1 0x0 SWAP1 LOG3 POP POP JUMP JUMPDEST PUSH1 0x7 SLOAD PUSH1 0x1 PUSH1 0x1 PUSH1 0xA0 SHL SUB AND CALLER EQ PUSH2 0x9D4 JUMPI PUSH1 0x40 MLOAD PUSH3 0x461BCD PUSH1 0xE5 SHL DUP2 MSTORE PUSH1 0x4 ADD PUSH2 0x681 SWAP1 PUSH2 0x186E JUMP JUMPDEST PUSH1 0x1 PUSH1 0x1 PUSH1 0xA0 SHL SUB DUP3 AND PUSH2 0x9FA JUMPI PUSH1 0x40 MLOAD PUSH3 0x461BCD PUSH1 0xE5 SHL DUP2 MSTORE PUSH1 0x4 ADD PUSH2 0x681 SWAP1 PUSH2 0x189A JUMP JUMPDEST DUP1 PUSH2 0xA40 JUMPI PUSH1 0x40 MLOAD PUSH3 0x461BCD PUSH1 0xE5 SHL DUP2 MSTORE PUSH1 0x20 PUSH1 0x4 DUP3 ADD MSTORE PUSH1 0x16 PUSH1 0x24 DUP3 ADD MSTORE PUSH22 0x41433A20696E76616C6964206361706162696C697479 PUSH1 0x50 SHL PUSH1 0x44 DUP3 ADD MSTORE PUSH1 0x64 ADD PUSH2 0x681 JUMP JUMPDEST PUSH1 0x1 PUSH1 0x1 PUSH1 0xA0 SHL SUB DUP3 AND PUSH1 0x0 SWAP1 DUP2 MSTORE PUSH1 0x6 PUSH1 0x20 SWAP1 DUP2 MSTORE PUSH1 0x40 DUP1 DUP4 KECCAK256 DUP5 DUP5 MSTORE SWAP1 SWAP2 MSTORE SWAP1 KECCAK256 SLOAD PUSH1 0xFF AND ISZERO PUSH2 0xAC0 JUMPI PUSH1 0x1 PUSH1 0x1 PUSH1 0xA0 SHL SUB DUP3 AND PUSH1 0x0 DUP2 DUP2 MSTORE PUSH1 0x6 PUSH1 0x20 SWAP1 DUP2 MSTORE PUSH1 0x40 DUP1 DUP4 KECCAK256 DUP6 DUP5 MSTORE SWAP1 SWAP2 MSTORE DUP1 DUP3 KECCAK256 DUP1 SLOAD PUSH1 0xFF NOT AND SWAP1 SSTORE MLOAD DUP4 SWAP3 SWAP2 PUSH32 0x6CC46C13BF9ECC309370A9150165239F833C3742128D77220C49CB4915A07BC7 SWAP2 LOG3 JUMPDEST POP POP JUMP JUMPDEST PUSH1 0x0 DUP2 DUP2 MSTORE PUSH1 0x3 PUSH1 0x20 SWAP1 DUP2 MSTORE PUSH1 0x40 SWAP2 DUP3 SWAP1 KECCAK256 DUP1 SLOAD DUP4 MLOAD DUP2 DUP5 MUL DUP2 ADD DUP5 ADD SWAP1 SWAP5 MSTORE DUP1 DUP5 MSTORE PUSH1 0x60 SWAP4 SWAP3 DUP4 ADD DUP3 DUP3 DUP1 ISZERO PUSH2 0xB1A JUMPI PUSH1 0x20 MUL DUP3 ADD SWAP2 SWAP1 PUSH1 0x0 MSTORE PUSH1 0x20 PUSH1 0x0 KECCAK256 SWAP1 JUMPDEST DUP2 SLOAD DUP2 MSTORE PUSH1 0x20 ADD SWAP1 PUSH1 0x1 ADD SWAP1 DUP1 DUP4 GT PUSH2 0xB06 JUMPI JUMPDEST POP POP POP POP POP SWAP1 POP SWAP2 SWAP1 POP JUMP JUMPDEST PUSH1 0x7 SLOAD PUSH1 0x1 PUSH1 0x1 PUSH1 0xA0 SHL SUB AND CALLER EQ PUSH2 0xB50 JUMPI PUSH1 0x40 MLOAD PUSH3 0x461BCD PUSH1 0xE5 SHL DUP2 MSTORE PUSH1 0x4 ADD PUSH2 0x681 SWAP1 PUSH2 0x186E JUMP JUMPDEST PUSH1 0x1 PUSH1 0x1 PUSH1 0xA0 SHL SUB DUP3 AND PUSH2 0xB76 JUMPI PUSH1 0x40 MLOAD PUSH3 0x461BCD PUSH1 0xE5 SHL DUP2 MSTORE PUSH1 0x4 ADD PUSH2 0x681 SWAP1 PUSH2 0x189A JUMP JUMPDEST DUP1 PUSH2 0xBBC JUMPI PUSH1 0x40 MLOAD PUSH3 0x461BCD PUSH1 0xE5 SHL DUP2 MSTORE PUSH1 0x20 PUSH1 0x4 DUP3 ADD MSTORE PUSH1 0x16 PUSH1 0x24 DUP3 ADD MSTORE PUSH22 0x41433A20696E76616C6964206361706162696C697479 PUSH1 0x50 SHL PUSH1 0x44 DUP3 ADD MSTORE PUSH1 0x64 ADD PUSH2 0x681 JUMP JUMPDEST PUSH1 0x1 PUSH1 0x1 PUSH1 0xA0 SHL SUB DUP3 AND PUSH1 0x0 SWAP1 DUP2 MSTORE PUSH1 0x2 PUSH1 0x20 MSTORE PUSH1 0x40 SWAP1 KECCAK256 SLOAD PUSH1 0xFF AND PUSH2 0xBF4 JUMPI PUSH1 0x40 MLOAD PUSH3 0x461BCD PUSH1 0xE5 SHL DUP2 MSTORE PUSH1 0x4 ADD PUSH2 0x681 SWAP1 PUSH2 0x1933 JUMP JUMPDEST PUSH1 0x1 PUSH1 0x1 PUSH1 0xA0 SHL SUB DUP3 AND PUSH1 0x0 SWAP1 DUP2 MSTORE PUSH1 0x6 PUSH1 0x20 SWAP1 DUP2 MSTORE PUSH1 0x40 DUP1 DUP4 KECCAK256 DUP5 DUP5 MSTORE SWAP1 SWAP2 MSTORE SWAP1 KECCAK256 SLOAD PUSH1 0xFF AND PUSH2 0xAC0 JUMPI PUSH1 0x1 PUSH1 0x1 PUSH1 0xA0 SHL SUB DUP3 AND PUSH1 0x0 DUP2 DUP2 MSTORE PUSH1 0x6 PUSH1 0x20 SWAP1 DUP2 MSTORE PUSH1 0x40 DUP1 DUP4 KECCAK256 DUP6 DUP5 MSTORE SWAP1 SWAP2 MSTORE DUP1 DUP3 KECCAK256 DUP1 SLOAD PUSH1 0xFF NOT AND PUSH1 0x1 OR SWAP1 SSTORE MLOAD DUP4 SWAP3 SWAP2 PUSH32 0xAF409F79C52D1FC6127B156DE998C22B9C6CF6D4F0F58E934E62F983C4DC82BF SWAP2 LOG3 POP POP JUMP JUMPDEST PUSH1 0x1 PUSH1 0x1 PUSH1 0xA0 SHL SUB DUP2 AND PUSH1 0x0 SWAP1 DUP2 MSTORE PUSH1 0x5 PUSH1 0x20 SWAP1 DUP2 MSTORE PUSH1 0x40 SWAP2 DUP3 SWAP1 KECCAK256 DUP1 SLOAD DUP4 MLOAD DUP2 DUP5 MUL DUP2 ADD DUP5 ADD SWAP1 SWAP5 MSTORE DUP1 DUP5 MSTORE PUSH1 0x60 SWAP4 SWAP3 DUP4 ADD DUP3 DUP3 DUP1 ISZERO PUSH2 0xB1A JUMPI PUSH1 0x20 MUL DUP3 ADD SWAP2 SWAP1 PUSH1 0x0 MSTORE PUSH1 0x20 PUSH1 0x0 KECCAK256 SWAP1 DUP2 SLOAD DUP2 MSTORE PUSH1 0x20 ADD SWAP1 PUSH1 0x1 ADD SWAP1 DUP1 DUP4 GT PUSH2 0xB06 JUMPI POP POP POP POP POP SWAP1 POP SWAP2 SWAP1 POP JUMP JUMPDEST PUSH2 0xCEB PUSH2 0x1533 JUMP JUMPDEST PUSH2 0xCF5 PUSH1 0x0 PUSH2 0x158D JUMP JUMPDEST JUMP JUMPDEST PUSH1 0x4 PUSH1 0x20 MSTORE DUP2 PUSH1 0x0 MSTORE PUSH1 0x40 PUSH1 0x0 KECCAK256 DUP2 DUP2 SLOAD DUP2 LT PUSH2 0xD13 JUMPI PUSH1 0x0 DUP1 REVERT JUMPDEST PUSH1 0x0 SWAP2 DUP3 MSTORE PUSH1 0x20 SWAP1 SWAP2 KECCAK256 ADD SLOAD PUSH1 0x1 PUSH1 0x1 PUSH1 0xA0 SHL SUB AND SWAP2 POP DUP3 SWAP1 POP JUMP JUMPDEST PUSH1 0x7 SLOAD PUSH1 0x1 PUSH1 0x1 PUSH1 0xA0 SHL SUB AND CALLER EQ PUSH2 0xD59 JUMPI PUSH1 0x40 MLOAD PUSH3 0x461BCD PUSH1 0xE5 SHL DUP2 MSTORE PUSH1 0x4 ADD PUSH2 0x681 SWAP1 PUSH2 0x186E JUMP JUMPDEST PUSH1 0x1 PUSH1 0x1 PUSH1 0xA0 SHL SUB DUP5 AND PUSH2 0xD7F JUMPI PUSH1 0x40 MLOAD PUSH3 0x461BCD PUSH1 0xE5 SHL DUP2 MSTORE PUSH1 0x4 ADD PUSH2 0x681 SWAP1 PUSH2 0x189A JUMP JUMPDEST DUP3 PUSH2 0xDBF JUMPI PUSH1 0x40 MLOAD PUSH3 0x461BCD PUSH1 0xE5 SHL DUP2 MSTORE PUSH1 0x20 PUSH1 0x4 DUP3 ADD MSTORE PUSH1 0x10 PUSH1 0x24 DUP3 ADD MSTORE PUSH16 0x41433A20696E76616C696420726F6C65 PUSH1 0x80 SHL PUSH1 0x44 DUP3 ADD MSTORE PUSH1 0x64 ADD PUSH2 0x681 JUMP JUMPDEST PUSH1 0x1 PUSH1 0x1 PUSH1 0xA0 SHL SUB DUP5 AND PUSH1 0x0 SWAP1 DUP2 MSTORE PUSH1 0x2 PUSH1 0x20 MSTORE PUSH1 0x40 SWAP1 KECCAK256 SLOAD PUSH1 0xFF AND PUSH2 0xDF7 JUMPI PUSH1 0x40 MLOAD PUSH3 0x461BCD PUSH1 0xE5 SHL DUP2 MSTORE PUSH1 0x4 ADD PUSH2 0x681 SWAP1 PUSH2 0x1933 JUMP JUMPDEST PUSH1 0x0 DUP1 JUMPDEST PUSH1 0x1 PUSH1 0x1 PUSH1 0xA0 SHL SUB DUP7 AND PUSH1 0x0 SWAP1 DUP2 MSTORE PUSH1 0x5 PUSH1 0x20 MSTORE PUSH1 0x40 SWAP1 KECCAK256 SLOAD DUP2 LT ISZERO PUSH2 0xE73 JUMPI PUSH1 0x1 PUSH1 0x1 PUSH1 0xA0 SHL SUB DUP7 AND PUSH1 0x0 SWAP1 DUP2 MSTORE PUSH1 0x5 PUSH1 0x20 MSTORE PUSH1 0x40 SWAP1 KECCAK256 DUP1 SLOAD DUP7 SWAP2 SWAP1 DUP4 SWAP1 DUP2 LT PUSH2 0xE48 JUMPI PUSH2 0xE48 PUSH2 0x18C5 JUMP JUMPDEST SWAP1 PUSH1 0x0 MSTORE PUSH1 0x20 PUSH1 0x0 KECCAK256 ADD SLOAD SUB PUSH2 0xE61 JUMPI PUSH1 0x1 SWAP2 POP PUSH2 0xE73 JUMP JUMPDEST DUP1 PUSH2 0xE6B DUP2 PUSH2 0x191A JUMP JUMPDEST SWAP2 POP POP PUSH2 0xDFB JUMP JUMPDEST POP DUP1 PUSH2 0xEA5 JUMPI PUSH1 0x1 PUSH1 0x1 PUSH1 0xA0 SHL SUB DUP6 AND PUSH1 0x0 SWAP1 DUP2 MSTORE PUSH1 0x5 PUSH1 0x20 SWAP1 DUP2 MSTORE PUSH1 0x40 DUP3 KECCAK256 DUP1 SLOAD PUSH1 0x1 DUP2 ADD DUP3 SSTORE SWAP1 DUP4 MSTORE SWAP2 KECCAK256 ADD DUP5 SWAP1 SSTORE JUMPDEST DUP2 ISZERO PUSH2 0xF89 JUMPI PUSH1 0x0 JUMPDEST DUP3 DUP2 LT ISZERO PUSH2 0xF6D JUMPI PUSH1 0x0 DUP5 DUP5 DUP4 DUP2 DUP2 LT PUSH2 0xECA JUMPI PUSH2 0xECA PUSH2 0x18C5 JUMP JUMPDEST PUSH1 0x1 PUSH1 0x1 PUSH1 0xA0 SHL SUB DUP11 AND PUSH1 0x0 SWAP1 DUP2 MSTORE PUSH1 0x6 PUSH1 0x20 SWAP1 DUP2 MSTORE PUSH1 0x40 DUP1 DUP4 KECCAK256 SWAP4 DUP3 MUL SWAP6 SWAP1 SWAP6 ADD CALLDATALOAD DUP1 DUP4 MSTORE SWAP3 SWAP1 MSTORE SWAP3 SWAP1 SWAP3 KECCAK256 SLOAD SWAP2 SWAP3 POP POP PUSH1 0xFF AND PUSH2 0xF5A JUMPI PUSH1 0x1 PUSH1 0x1 PUSH1 0xA0 SHL SUB DUP8 AND PUSH1 0x0 DUP2 DUP2 MSTORE PUSH1 0x6 PUSH1 0x20 SWAP1 DUP2 MSTORE PUSH1 0x40 DUP1 DUP4 KECCAK256 DUP6 DUP5 MSTORE SWAP1 SWAP2 MSTORE DUP1 DUP3 KECCAK256 DUP1 SLOAD PUSH1 0xFF NOT AND PUSH1 0x1 OR SWAP1 SSTORE MLOAD DUP4 SWAP3 SWAP2 PUSH32 0xAF409F79C52D1FC6127B156DE998C22B9C6CF6D4F0F58E934E62F983C4DC82BF SWAP2 LOG3 JUMPDEST POP DUP1 PUSH2 0xF65 DUP2 PUSH2 0x191A JUMP JUMPDEST SWAP2 POP POP PUSH2 0xEAE JUMP JUMPDEST POP PUSH1 0x0 DUP5 DUP2 MSTORE PUSH1 0x3 PUSH1 0x20 MSTORE PUSH1 0x40 SWAP1 KECCAK256 PUSH2 0xF87 SWAP1 DUP5 DUP5 PUSH2 0x15DD JUMP JUMPDEST POP JUMPDEST PUSH1 0x0 DUP1 JUMPDEST PUSH1 0x0 DUP7 DUP2 MSTORE PUSH1 0x4 PUSH1 0x20 MSTORE PUSH1 0x40 SWAP1 KECCAK256 SLOAD DUP2 LT ISZERO PUSH2 0x1004 JUMPI PUSH1 0x0 DUP7 DUP2 MSTORE PUSH1 0x4 PUSH1 0x20 MSTORE PUSH1 0x40 SWAP1 KECCAK256 DUP1 SLOAD PUSH1 0x1 PUSH1 0x1 PUSH1 0xA0 SHL SUB DUP10 AND SWAP2 SWAP1 DUP4 SWAP1 DUP2 LT PUSH2 0xFCF JUMPI PUSH2 0xFCF PUSH2 0x18C5 JUMP JUMPDEST PUSH1 0x0 SWAP2 DUP3 MSTORE PUSH1 0x20 SWAP1 SWAP2 KECCAK256 ADD SLOAD PUSH1 0x1 PUSH1 0x1 PUSH1 0xA0 SHL SUB AND SUB PUSH2 0xFF2 JUMPI PUSH1 0x1 SWAP2 POP PUSH2 0x1004 JUMP JUMPDEST DUP1 PUSH2 0xFFC DUP2 PUSH2 0x191A JUMP JUMPDEST SWAP2 POP POP PUSH2 0xF8D JUMP JUMPDEST POP DUP1 PUSH2 0x1042 JUMPI PUSH1 0x0 DUP6 DUP2 MSTORE PUSH1 0x4 PUSH1 0x20 SWAP1 DUP2 MSTORE PUSH1 0x40 DUP3 KECCAK256 DUP1 SLOAD PUSH1 0x1 DUP2 ADD DUP3 SSTORE SWAP1 DUP4 MSTORE SWAP2 KECCAK256 ADD DUP1 SLOAD PUSH1 0x1 PUSH1 0x1 PUSH1 0xA0 SHL SUB NOT AND PUSH1 0x1 PUSH1 0x1 PUSH1 0xA0 SHL SUB DUP9 AND OR SWAP1 SSTORE JUMPDEST DUP5 DUP7 PUSH1 0x1 PUSH1 0x1 PUSH1 0xA0 SHL SUB AND PUSH32 0x31753FBF38C02193F5BCA8319060F42703779A89DE79DEBEC356788C7D7266C4 DUP7 DUP7 PUSH1 0x40 MLOAD PUSH2 0x107E SWAP3 SWAP2 SWAP1 PUSH2 0x196A JUMP JUMPDEST PUSH1 0x40 MLOAD DUP1 SWAP2 SUB SWAP1 LOG3 POP POP POP POP POP POP JUMP JUMPDEST PUSH1 0x5 PUSH1 0x20 MSTORE DUP2 PUSH1 0x0 MSTORE PUSH1 0x40 PUSH1 0x0 KECCAK256 DUP2 DUP2 SLOAD DUP2 LT PUSH2 0x10AA JUMPI PUSH1 0x0 DUP1 REVERT JUMPDEST SWAP1 PUSH1 0x0 MSTORE PUSH1 0x20 PUSH1 0x0 KECCAK256 ADD PUSH1 0x0 SWAP2 POP SWAP2 POP POP SLOAD DUP2 JUMP JUMPDEST PUSH1 0x0 DUP2 DUP2 MSTORE PUSH1 0x4 PUSH1 0x20 SWAP1 DUP2 MSTORE PUSH1 0x40 SWAP2 DUP3 SWAP1 KECCAK256 DUP1 SLOAD DUP4 MLOAD DUP2 DUP5 MUL DUP2 ADD DUP5 ADD SWAP1 SWAP5 MSTORE DUP1 DUP5 MSTORE PUSH1 0x60 SWAP4 SWAP3 DUP4 ADD DUP3 DUP3 DUP1 ISZERO PUSH2 0xB1A JUMPI PUSH1 0x20 MUL DUP3 ADD SWAP2 SWAP1 PUSH1 0x0 MSTORE PUSH1 0x20 PUSH1 0x0 KECCAK256 SWAP1 JUMPDEST DUP2 SLOAD PUSH1 0x1 PUSH1 0x1 PUSH1 0xA0 SHL SUB AND DUP2 MSTORE PUSH1 0x1 SWAP1 SWAP2 ADD SWAP1 PUSH1 0x20 ADD DUP1 DUP4 GT PUSH2 0x1101 JUMPI POP POP POP POP POP SWAP1 POP SWAP2 SWAP1 POP JUMP JUMPDEST PUSH1 0x0 DUP1 JUMPDEST PUSH1 0x1 PUSH1 0x1 PUSH1 0xA0 SHL SUB DUP5 AND PUSH1 0x0 SWAP1 DUP2 MSTORE PUSH1 0x5 PUSH1 0x20 MSTORE PUSH1 0x40 SWAP1 KECCAK256 SLOAD DUP2 LT ISZERO PUSH2 0x11A7 JUMPI PUSH1 0x1 PUSH1 0x1 PUSH1 0xA0 SHL SUB DUP5 AND PUSH1 0x0 SWAP1 DUP2 MSTORE PUSH1 0x5 PUSH1 0x20 MSTORE PUSH1 0x40 SWAP1 KECCAK256 DUP1 SLOAD DUP5 SWAP2 SWAP1 DUP4 SWAP1 DUP2 LT PUSH2 0x117B JUMPI PUSH2 0x117B PUSH2 0x18C5 JUMP JUMPDEST SWAP1 PUSH1 0x0 MSTORE PUSH1 0x20 PUSH1 0x0 KECCAK256 ADD SLOAD SUB PUSH2 0x1195 JUMPI PUSH1 0x1 SWAP2 POP POP PUSH2 0x11AD JUMP JUMPDEST DUP1 PUSH2 0x119F DUP2 PUSH2 0x191A JUMP JUMPDEST SWAP2 POP POP PUSH2 0x112E JUMP JUMPDEST POP PUSH1 0x0 SWAP1 POP JUMPDEST SWAP3 SWAP2 POP POP JUMP JUMPDEST PUSH1 0x3 PUSH1 0x20 MSTORE DUP2 PUSH1 0x0 MSTORE PUSH1 0x40 PUSH1 0x0 KECCAK256 DUP2 DUP2 SLOAD DUP2 LT PUSH2 0x10AA JUMPI PUSH1 0x0 DUP1 REVERT JUMPDEST PUSH2 0x11D7 PUSH2 0x1533 JUMP JUMPDEST PUSH1 0x1 PUSH1 0x1 PUSH1 0xA0 SHL SUB DUP2 AND PUSH2 0x1221 JUMPI PUSH1 0x40 MLOAD PUSH3 0x461BCD PUSH1 0xE5 SHL DUP2 MSTORE PUSH1 0x20 PUSH1 0x4 DUP3 ADD MSTORE PUSH1 0x11 PUSH1 0x24 DUP3 ADD MSTORE PUSH17 0x20A19D1034B73B30B634B21030B236B4B7 PUSH1 0x79 SHL PUSH1 0x44 DUP3 ADD MSTORE PUSH1 0x64 ADD PUSH2 0x681 JUMP JUMPDEST PUSH1 0x7 DUP1 SLOAD PUSH1 0x1 PUSH1 0x1 PUSH1 0xA0 SHL SUB DUP4 DUP2 AND PUSH1 0x1 PUSH1 0x1 PUSH1 0xA0 SHL SUB NOT DUP4 AND DUP2 OR SWAP1 SWAP4 SSTORE PUSH1 0x40 MLOAD SWAP2 AND SWAP2 SWAP1 DUP3 SWAP1 PUSH32 0x6DC5A6386166D4AEA56C8D14B28E24C501C6F8D53554066F3C1E8216AF5FE99C SWAP1 PUSH1 0x0 SWAP1 LOG3 POP POP JUMP JUMPDEST PUSH1 0x7 SLOAD PUSH1 0x1 PUSH1 0x1 PUSH1 0xA0 SHL SUB AND CALLER EQ PUSH2 0x129D JUMPI PUSH1 0x40 MLOAD PUSH3 0x461BCD PUSH1 0xE5 SHL DUP2 MSTORE PUSH1 0x4 ADD PUSH2 0x681 SWAP1 PUSH2 0x186E JUMP JUMPDEST PUSH1 0x1 PUSH1 0x1 PUSH1 0xA0 SHL SUB DUP3 AND PUSH1 0x0 SWAP1 DUP2 MSTORE PUSH1 0x2 PUSH1 0x20 MSTORE PUSH1 0x40 SWAP1 KECCAK256 SLOAD PUSH1 0xFF AND PUSH2 0x12D5 JUMPI PUSH1 0x40 MLOAD PUSH3 0x461BCD PUSH1 0xE5 SHL DUP2 MSTORE PUSH1 0x4 ADD PUSH2 0x681 SWAP1 PUSH2 0x1933 JUMP JUMPDEST PUSH1 0x1 PUSH1 0x1 PUSH1 0xA0 SHL SUB SWAP1 SWAP2 AND PUSH1 0x0 SWAP1 DUP2 MSTORE PUSH1 0x1 PUSH1 0x20 DUP2 SWAP1 MSTORE PUSH1 0x40 SWAP1 SWAP2 KECCAK256 ADD SSTORE JUMP JUMPDEST PUSH1 0x7 SLOAD PUSH1 0x1 PUSH1 0x1 PUSH1 0xA0 SHL SUB AND CALLER EQ PUSH2 0x131F JUMPI PUSH1 0x40 MLOAD PUSH3 0x461BCD PUSH1 0xE5 SHL DUP2 MSTORE PUSH1 0x4 ADD PUSH2 0x681 SWAP1 PUSH2 0x186E JUMP JUMPDEST PUSH1 0x1 PUSH1 0x1 PUSH1 0xA0 SHL SUB SWAP2 SWAP1 SWAP2 AND PUSH1 0x0 SWAP1 DUP2 MSTORE PUSH1 0x1 PUSH1 0x20 MSTORE PUSH1 0x40 SWAP1 KECCAK256 PUSH1 0x2 ADD DUP1 SLOAD PUSH1 0xFF NOT AND SWAP2 ISZERO ISZERO SWAP2 SWAP1 SWAP2 OR SWAP1 SSTORE JUMP JUMPDEST PUSH1 0x7 SLOAD PUSH1 0x1 PUSH1 0x1 PUSH1 0xA0 SHL SUB AND CALLER EQ PUSH2 0x1377 JUMPI PUSH1 0x40 MLOAD PUSH3 0x461BCD PUSH1 0xE5 SHL DUP2 MSTORE PUSH1 0x4 ADD PUSH2 0x681 SWAP1 PUSH2 0x186E JUMP JUMPDEST PUSH1 0x1 PUSH1 0x1 PUSH1 0xA0 SHL SUB DUP4 AND PUSH2 0x139D JUMPI PUSH1 0x40 MLOAD PUSH3 0x461BCD PUSH1 0xE5 SHL DUP2 MSTORE PUSH1 0x4 ADD PUSH2 0x681 SWAP1 PUSH2 0x189A JUMP JUMPDEST PUSH1 0x1 PUSH1 0x1 PUSH1 0xA0 SHL SUB DUP4 AND PUSH1 0x0 SWAP1 DUP2 MSTORE PUSH1 0x2 PUSH1 0x20 MSTORE PUSH1 0x40 SWAP1 KECCAK256 SLOAD PUSH1 0xFF AND ISZERO PUSH2 0x13FF JUMPI PUSH1 0x40 MLOAD PUSH3 0x461BCD PUSH1 0xE5 SHL DUP2 MSTORE PUSH1 0x20 PUSH1 0x4 DUP3 ADD MSTORE PUSH1 0x16 PUSH1 0x24 DUP3 ADD MSTORE PUSH22 0x1050CE88185B1C9958591E481C9959DA5CDD195C9959 PUSH1 0x52 SHL PUSH1 0x44 DUP3 ADD MSTORE PUSH1 0x64 ADD PUSH2 0x681 JUMP JUMPDEST PUSH1 0x40 DUP1 MLOAD PUSH1 0x60 DUP1 DUP3 ADD DUP4 MSTORE PUSH1 0x1 PUSH1 0x1 PUSH1 0xA0 SHL SUB DUP7 AND DUP1 EXTCODESIZE ISZERO ISZERO DUP1 DUP5 MSTORE PUSH1 0x20 DUP1 DUP6 ADD DUP9 DUP2 MSTORE DUP8 ISZERO ISZERO DUP7 DUP9 ADD DUP2 DUP2 MSTORE PUSH1 0x0 DUP7 DUP2 MSTORE PUSH1 0x1 DUP1 DUP7 MSTORE DUP11 DUP3 KECCAK256 SWAP10 MLOAD DUP11 SLOAD SWAP1 ISZERO ISZERO PUSH1 0xFF NOT SWAP2 DUP3 AND OR DUP12 SSTORE SWAP5 MLOAD DUP11 DUP3 ADD SSTORE SWAP2 MLOAD PUSH1 0x2 SWAP10 DUP11 ADD DUP1 SLOAD SWAP2 ISZERO ISZERO SWAP2 DUP7 AND SWAP2 SWAP1 SWAP2 OR SWAP1 SSTORE SWAP8 DUP5 MSTORE SWAP7 DUP9 SWAP1 KECCAK256 DUP1 SLOAD SWAP1 SWAP3 AND SWAP1 SWAP7 OR SWAP1 SSTORE DUP6 MLOAD DUP3 DUP2 MSTORE SWAP1 DUP2 ADD DUP9 SWAP1 MSTORE SWAP5 DUP6 ADD SWAP4 SWAP1 SWAP4 MSTORE SWAP2 SWAP3 PUSH32 0xEAF678FFFAD7ED90837CD73662F49F039D912348456152B3D5FF23D556F5B7DB SWAP2 ADD PUSH1 0x40 MLOAD DUP1 SWAP2 SUB SWAP1 LOG2 POP POP POP POP JUMP JUMPDEST PUSH2 0x14C2 PUSH2 0x1533 JUMP JUMPDEST PUSH1 0x1 PUSH1 0x1 PUSH1 0xA0 SHL SUB DUP2 AND PUSH2 0x1527 JUMPI PUSH1 0x40 MLOAD PUSH3 0x461BCD PUSH1 0xE5 SHL DUP2 MSTORE PUSH1 0x20 PUSH1 0x4 DUP3 ADD MSTORE PUSH1 0x26 PUSH1 0x24 DUP3 ADD MSTORE PUSH32 0x4F776E61626C653A206E6577206F776E657220697320746865207A65726F2061 PUSH1 0x44 DUP3 ADD MSTORE PUSH6 0x646472657373 PUSH1 0xD0 SHL PUSH1 0x64 DUP3 ADD MSTORE PUSH1 0x84 ADD PUSH2 0x681 JUMP JUMPDEST PUSH2 0x1530 DUP2 PUSH2 0x158D JUMP JUMPDEST POP JUMP JUMPDEST PUSH1 0x0 SLOAD PUSH1 0x1 PUSH1 0x1 PUSH1 0xA0 SHL SUB AND CALLER EQ PUSH2 0xCF5 JUMPI PUSH1 0x40 MLOAD PUSH3 0x461BCD PUSH1 0xE5 SHL DUP2 MSTORE PUSH1 0x20 PUSH1 0x4 DUP3 ADD DUP2 SWAP1 MSTORE PUSH1 0x24 DUP3 ADD MSTORE PUSH32 0x4F776E61626C653A2063616C6C6572206973206E6F7420746865206F776E6572 PUSH1 0x44 DUP3 ADD MSTORE PUSH1 0x64 ADD PUSH2 0x681 JUMP JUMPDEST PUSH1 0x0 DUP1 SLOAD PUSH1 0x1 PUSH1 0x1 PUSH1 0xA0 SHL SUB DUP4 DUP2 AND PUSH1 0x1 PUSH1 0x1 PUSH1 0xA0 SHL SUB NOT DUP4 AND DUP2 OR DUP5 SSTORE PUSH1 0x40 MLOAD SWAP2 SWAP1 SWAP3 AND SWAP3 DUP4 SWAP2 PUSH32 0x8BE0079C531659141344CD1FD0A4F28419497F9722A3DAAFE3B4186F6B6457E0 SWAP2 SWAP1 LOG3 POP POP JUMP JUMPDEST DUP3 DUP1 SLOAD DUP3 DUP3 SSTORE SWAP1 PUSH1 0x0 MSTORE PUSH1 0x20 PUSH1 0x0 KECCAK256 SWAP1 DUP2 ADD SWAP3 DUP3 ISZERO PUSH2 0x1618 JUMPI SWAP2 PUSH1 0x20 MUL DUP3 ADD JUMPDEST DUP3 DUP2 GT ISZERO PUSH2 0x1618 JUMPI DUP3 CALLDATALOAD DUP3 SSTORE SWAP2 PUSH1 0x20 ADD SWAP2 SWAP1 PUSH1 0x1 ADD SWAP1 PUSH2 0x15FD JUMP JUMPDEST POP PUSH2 0x1624 SWAP3 SWAP2 POP PUSH2 0x1628 JUMP JUMPDEST POP SWAP1 JUMP JUMPDEST JUMPDEST DUP1 DUP3 GT ISZERO PUSH2 0x1624 JUMPI PUSH1 0x0 DUP2 SSTORE PUSH1 0x1 ADD PUSH2 0x1629 JUMP JUMPDEST DUP1 CALLDATALOAD PUSH1 0x1 PUSH1 0x1 PUSH1 0xA0 SHL SUB DUP2 AND DUP2 EQ PUSH2 0x1654 JUMPI PUSH1 0x0 DUP1 REVERT JUMPDEST SWAP2 SWAP1 POP JUMP JUMPDEST PUSH1 0x0 PUSH1 0x20 DUP3 DUP5 SUB SLT ISZERO PUSH2 0x166B JUMPI PUSH1 0x0 DUP1 REVERT JUMPDEST PUSH2 0x1674 DUP3 PUSH2 0x163D JUMP JUMPDEST SWAP4 SWAP3 POP POP POP JUMP JUMPDEST PUSH1 0x0 DUP1 PUSH1 0x40 DUP4 DUP6 SUB SLT ISZERO PUSH2 0x168E JUMPI PUSH1 0x0 DUP1 REVERT JUMPDEST PUSH2 0x1697 DUP4 PUSH2 0x163D JUMP JUMPDEST SWAP5 PUSH1 0x20 SWAP4 SWAP1 SWAP4 ADD CALLDATALOAD SWAP4 POP POP POP JUMP JUMPDEST PUSH1 0x0 PUSH1 0x20 DUP3 DUP5 SUB SLT ISZERO PUSH2 0x16B7 JUMPI PUSH1 0x0 DUP1 REVERT JUMPDEST POP CALLDATALOAD SWAP2 SWAP1 POP JUMP JUMPDEST PUSH1 0x20 DUP1 DUP3 MSTORE DUP3 MLOAD DUP3 DUP3 ADD DUP2 SWAP1 MSTORE PUSH1 0x0 SWAP2 SWAP1 DUP5 DUP3 ADD SWAP1 PUSH1 0x40 DUP6 ADD SWAP1 DUP5 JUMPDEST DUP2 DUP2 LT ISZERO PUSH2 0x16F6 JUMPI DUP4 MLOAD DUP4 MSTORE SWAP3 DUP5 ADD SWAP3 SWAP2 DUP5 ADD SWAP2 PUSH1 0x1 ADD PUSH2 0x16DA JUMP JUMPDEST POP SWAP1 SWAP7 SWAP6 POP POP POP POP POP POP JUMP JUMPDEST PUSH1 0x0 DUP1 PUSH1 0x40 DUP4 DUP6 SUB SLT ISZERO PUSH2 0x1715 JUMPI PUSH1 0x0 DUP1 REVERT JUMPDEST POP POP DUP1 CALLDATALOAD SWAP3 PUSH1 0x20 SWAP1 SWAP2 ADD CALLDATALOAD SWAP2 POP JUMP JUMPDEST PUSH1 0x0 DUP1 PUSH1 0x0 DUP1 PUSH1 0x60 DUP6 DUP8 SUB SLT ISZERO PUSH2 0x173A JUMPI PUSH1 0x0 DUP1 REVERT JUMPDEST PUSH2 0x1743 DUP6 PUSH2 0x163D JUMP JUMPDEST SWAP4 POP PUSH1 0x20 DUP6 ADD CALLDATALOAD SWAP3 POP PUSH1 0x40 DUP6 ADD CALLDATALOAD PUSH8 0xFFFFFFFFFFFFFFFF DUP1 DUP3 GT ISZERO PUSH2 0x1767 JUMPI PUSH1 0x0 DUP1 REVERT JUMPDEST DUP2 DUP8 ADD SWAP2 POP DUP8 PUSH1 0x1F DUP4 ADD SLT PUSH2 0x177B JUMPI PUSH1 0x0 DUP1 REVERT JUMPDEST DUP2 CALLDATALOAD DUP2 DUP2 GT ISZERO PUSH2 0x178A JUMPI PUSH1 0x0 DUP1 REVERT JUMPDEST DUP9 PUSH1 0x20 DUP3 PUSH1 0x5 SHL DUP6 ADD ADD GT ISZERO PUSH2 0x179F JUMPI PUSH1 0x0 DUP1 REVERT JUMPDEST SWAP6 SWAP9 SWAP5 SWAP8 POP POP PUSH1 0x20 ADD SWAP5 POP POP POP JUMP JUMPDEST PUSH1 0x20 DUP1 DUP3 MSTORE DUP3 MLOAD DUP3 DUP3 ADD DUP2 SWAP1 MSTORE PUSH1 0x0 SWAP2 SWAP1 DUP5 DUP3 ADD SWAP1 PUSH1 0x40 DUP6 ADD SWAP1 DUP5 JUMPDEST DUP2 DUP2 LT ISZERO PUSH2 0x16F6 JUMPI DUP4 MLOAD PUSH1 0x1 PUSH1 0x1 PUSH1 0xA0 SHL SUB AND DUP4 MSTORE SWAP3 DUP5 ADD SWAP3 SWAP2 DUP5 ADD SWAP2 PUSH1 0x1 ADD PUSH2 0x17CA JUMP JUMPDEST DUP1 CALLDATALOAD DUP1 ISZERO ISZERO DUP2 EQ PUSH2 0x1654 JUMPI PUSH1 0x0 DUP1 REVERT JUMPDEST PUSH1 0x0 DUP1 PUSH1 0x40 DUP4 DUP6 SUB SLT ISZERO PUSH2 0x1812 JUMPI PUSH1 0x0 DUP1 REVERT JUMPDEST PUSH2 0x181B DUP4 PUSH2 0x163D JUMP JUMPDEST SWAP2 POP PUSH2 0x1829 PUSH1 0x20 DUP5 ADD PUSH2 0x17EF JUMP JUMPDEST SWAP1 POP SWAP3 POP SWAP3 SWAP1 POP JUMP JUMPDEST PUSH1 0x0 DUP1 PUSH1 0x0 PUSH1 0x60 DUP5 DUP7 SUB SLT ISZERO PUSH2 0x1847 JUMPI PUSH1 0x0 DUP1 REVERT JUMPDEST PUSH2 0x1850 DUP5 PUSH2 0x163D JUMP JUMPDEST SWAP3 POP PUSH1 0x20 DUP5 ADD CALLDATALOAD SWAP2 POP PUSH2 0x1865 PUSH1 0x40 DUP6 ADD PUSH2 0x17EF JUMP JUMPDEST SWAP1 POP SWAP3 POP SWAP3 POP SWAP3 JUMP JUMPDEST PUSH1 0x20 DUP1 DUP3 MSTORE PUSH1 0x12 SWAP1 DUP3 ADD MSTORE PUSH18 0x20A19D1037B7363C903937B632A0B236B4B7 PUSH1 0x71 SHL PUSH1 0x40 DUP3 ADD MSTORE PUSH1 0x60 ADD SWAP1 JUMP JUMPDEST PUSH1 0x20 DUP1 DUP3 MSTORE PUSH1 0x11 SWAP1 DUP3 ADD MSTORE PUSH17 0x1050CE881A5B9D985B1A59081859D95B9D PUSH1 0x7A SHL PUSH1 0x40 DUP3 ADD MSTORE PUSH1 0x60 ADD SWAP1 JUMP JUMPDEST PUSH4 0x4E487B71 PUSH1 0xE0 SHL PUSH1 0x0 MSTORE PUSH1 0x32 PUSH1 0x4 MSTORE PUSH1 0x24 PUSH1 0x0 REVERT JUMPDEST PUSH4 0x4E487B71 PUSH1 0xE0 SHL PUSH1 0x0 MSTORE PUSH1 0x11 PUSH1 0x4 MSTORE PUSH1 0x24 PUSH1 0x0 REVERT JUMPDEST DUP2 DUP2 SUB DUP2 DUP2 GT ISZERO PUSH2 0x11AD JUMPI PUSH2 0x11AD PUSH2 0x18DB JUMP JUMPDEST PUSH4 0x4E487B71 PUSH1 0xE0 SHL PUSH1 0x0 MSTORE PUSH1 0x31 PUSH1 0x4 MSTORE PUSH1 0x24 PUSH1 0x0 REVERT JUMPDEST PUSH1 0x0 PUSH1 0x1 DUP3 ADD PUSH2 0x192C JUMPI PUSH2 0x192C PUSH2 0x18DB JUMP JUMPDEST POP PUSH1 0x1 ADD SWAP1 JUMP JUMPDEST PUSH1 0x20 DUP1 DUP3 MSTORE PUSH1 0x18 SWAP1 DUP3 ADD MSTORE PUSH32 0x41433A206167656E74206E6F7420726567697374657265640000000000000000 PUSH1 0x40 DUP3 ADD MSTORE PUSH1 0x60 ADD SWAP1 JUMP JUMPDEST PUSH1 0x20 DUP1 DUP3 MSTORE DUP2 ADD DUP3 SWAP1 MSTORE PUSH1 0x0 PUSH1 0x1 PUSH1 0x1 PUSH1 0xFB SHL SUB DUP4 GT ISZERO PUSH2 0x198A JUMPI PUSH1 0x0 DUP1 REVERT JUMPDEST DUP3 PUSH1 0x5 SHL DUP1 DUP6 PUSH1 0x40 DUP6 ADD CALLDATACOPY SWAP2 SWAP1 SWAP2 ADD PUSH1 0x40 ADD SWAP4 SWAP3 POP POP POP JUMP INVALID LOG2 PUSH5 0x6970667358 0x22 SLT KECCAK256 0xD5 0x4F 0xFC DUP1 PUSH32 0xEE30AA6B22E8CCB37E7AB5646B6053DBBD750EA988BED760CA558D64736F6C63 NUMBER STOP ADDMOD EQ STOP CALLER "},"methodIdentifiers":{"CAN_PAY()":"c415accb","CAN_REBALANCE()":"86eae19b","CAN_SUBSCRIBE()":"56ad850a","CAN_TRADE()":"7fecccfc","CAN_TRANSFER()":"a5933864","CAN_YIELD()":"97d19a54","agentRoles(address,uint256)":"95b74e3d","agents(address)":"fd66091e","assignRole(address,bytes32,bytes32[])":"804b24d5","canBeAutomated(address)":"44ea1d43","getAgentConfig(address)":"56bad863","getAgentRoles(address)":"50e637f3","getCapabilitiesForRole(bytes32)":"2c60993c","getMaxGasPerCall(address)":"b728839e","getRoleMembers(bytes32)":"a3246ad3","grantCapability(address,bytes32)":"330506d9","hasCapability(address,bytes32)":"5ecea824","hasRole(address,bytes32)":"ac4ab3fb","isAgentRegistered(address)":"689b6c44","isContractAgent(address)":"13fcbb48","owner()":"8da5cb5b","registerAgent(address,uint256,bool)":"db73355d","renounceOwnership()":"715018a6","revokeCapability(address,bytes32)":"228e3f9b","revokeRole(address,bytes32)":"208dd1ff","roleAdmin()":"93867fb5","roleCapabilities(bytes32,uint256)":"b153958f","roleMembers(bytes32,uint256)":"7f528155","setAllowedAutomation(address,bool)":"cf1bdae2","setMaxGasPerCall(address,uint256)":"c5c2e025","setRoleAdmin(address)":"b3be5529","transferOwnership(address)":"f2fde38b"}}}}}