{"contracts/financial-graph/SharedBudgetPool.sol":{"SharedBudgetPool":{"abi":[{"inputs":[{"internalType":"address","name":"_authorizedPolicy","type":"address"}],"stateMutability":"nonpayable","type":"constructor"},{"anonymous":false,"inputs":[{"indexed":true,"internalType":"address","name":"oldPolicy","type":"address"},{"indexed":true,"internalType":"address","name":"newPolicy","type":"address"}],"name":"AuthorizedPolicyChanged","type":"event"},{"anonymous":false,"inputs":[{"indexed":true,"internalType":"bytes32","name":"poolId","type":"bytes32"},{"indexed":true,"internalType":"address","name":"vault","type":"address"},{"indexed":false,"internalType":"uint256","name":"amount","type":"uint256"},{"indexed":false,"internalType":"uint256","name":"newSpent","type":"uint256"}],"name":"BudgetSpent","type":"event"},{"anonymous":false,"inputs":[{"indexed":true,"internalType":"bytes32","name":"childPool","type":"bytes32"},{"indexed":true,"internalType":"bytes32","name":"parentPool","type":"bytes32"}],"name":"ChildPoolAdded","type":"event"},{"anonymous":false,"inputs":[{"indexed":true,"internalType":"address","name":"previousOwner","type":"address"},{"indexed":true,"internalType":"address","name":"newOwner","type":"address"}],"name":"OwnershipTransferred","type":"event"},{"anonymous":false,"inputs":[{"indexed":true,"internalType":"bytes32","name":"poolId","type":"bytes32"},{"indexed":false,"internalType":"uint256","name":"newPeriodStart","type":"uint256"}],"name":"PeriodReset","type":"event"},{"anonymous":false,"inputs":[{"indexed":true,"internalType":"bytes32","name":"poolId","type":"bytes32"},{"indexed":true,"internalType":"bytes32","name":"parentPool","type":"bytes32"},{"indexed":false,"internalType":"uint256","name":"budget","type":"uint256"},{"indexed":false,"internalType":"enum SharedBudgetPool.Period","name":"period","type":"uint8"}],"name":"PoolCreated","type":"event"},{"anonymous":false,"inputs":[{"indexed":true,"internalType":"address","name":"vault","type":"address"},{"indexed":true,"internalType":"bytes32","name":"poolId","type":"bytes32"}],"name":"VaultAddedToPool","type":"event"},{"inputs":[],"name":"MAX_CHILD_POOLS","outputs":[{"internalType":"uint256","name":"","type":"uint256"}],"stateMutability":"view","type":"function"},{"inputs":[],"name":"MAX_POOL_DEPTH","outputs":[{"internalType":"uint256","name":"","type":"uint256"}],"stateMutability":"view","type":"function"},{"inputs":[],"name":"MAX_VAULTS_PER_POOL","outputs":[{"internalType":"uint256","name":"","type":"uint256"}],"stateMutability":"view","type":"function"},{"inputs":[{"internalType":"bytes32","name":"parentId","type":"bytes32"},{"internalType":"bytes32","name":"childId","type":"bytes32"}],"name":"addChildPool","outputs":[],"stateMutability":"nonpayable","type":"function"},{"inputs":[{"internalType":"bytes32","name":"poolId","type":"bytes32"},{"internalType":"address","name":"vault","type":"address"}],"name":"addVaultToPool","outputs":[],"stateMutability":"nonpayable","type":"function"},{"inputs":[],"name":"authorizedPolicy","outputs":[{"internalType":"address","name":"","type":"address"}],"stateMutability":"view","type":"function"},{"inputs":[{"internalType":"bytes32","name":"poolId","type":"bytes32"},{"internalType":"bytes32","name":"parentPool","type":"bytes32"},{"internalType":"uint256","name":"budget","type":"uint256"},{"internalType":"enum SharedBudgetPool.Period","name":"_period","type":"uint8"},{"internalType":"address[]","name":"vaults","type":"address[]"},{"internalType":"bytes32[]","name":"childPoolIds","type":"bytes32[]"}],"name":"createPool","outputs":[],"stateMutability":"nonpayable","type":"function"},{"inputs":[{"internalType":"bytes32","name":"poolId","type":"bytes32"}],"name":"getPool","outputs":[{"internalType":"uint256","name":"budget","type":"uint256"},{"internalType":"uint256","name":"spent","type":"uint256"},{"internalType":"uint256","name":"periodStart","type":"uint256"},{"internalType":"enum SharedBudgetPool.Period","name":"period","type":"uint8"},{"internalType":"bytes32","name":"parentPool","type":"bytes32"},{"internalType":"address[]","name":"vaultMembers","type":"address[]"},{"internalType":"bytes32[]","name":"childPools","type":"bytes32[]"}],"stateMutability":"view","type":"function"},{"inputs":[{"internalType":"bytes32","name":"poolId","type":"bytes32"}],"name":"getPoolRemaining","outputs":[{"internalType":"uint256","name":"","type":"uint256"}],"stateMutability":"view","type":"function"},{"inputs":[{"internalType":"address","name":"vault","type":"address"}],"name":"getVaultAncestry","outputs":[{"internalType":"bytes32[]","name":"","type":"bytes32[]"}],"stateMutability":"view","type":"function"},{"inputs":[{"internalType":"address","name":"vault","type":"address"}],"name":"getVaultPool","outputs":[{"internalType":"bytes32","name":"","type":"bytes32"}],"stateMutability":"view","type":"function"},{"inputs":[],"name":"owner","outputs":[{"internalType":"address","name":"","type":"address"}],"stateMutability":"view","type":"function"},{"inputs":[{"internalType":"bytes32","name":"","type":"bytes32"}],"name":"pools","outputs":[{"internalType":"uint256","name":"budget","type":"uint256"},{"internalType":"uint256","name":"spent","type":"uint256"},{"internalType":"uint256","name":"periodStart","type":"uint256"},{"internalType":"enum SharedBudgetPool.Period","name":"period","type":"uint8"},{"internalType":"bytes32","name":"parentPool","type":"bytes32"},{"internalType":"bool","name":"initialized","type":"bool"}],"stateMutability":"view","type":"function"},{"inputs":[{"internalType":"address","name":"vault","type":"address"},{"internalType":"uint256","name":"amount","type":"uint256"}],"name":"recordSpend","outputs":[],"stateMutability":"nonpayable","type":"function"},{"inputs":[],"name":"renounceOwnership","outputs":[],"stateMutability":"nonpayable","type":"function"},{"inputs":[{"internalType":"address","name":"_authorizedPolicy","type":"address"}],"name":"setAuthorizedPolicy","outputs":[],"stateMutability":"nonpayable","type":"function"},{"inputs":[{"internalType":"address","name":"newOwner","type":"address"}],"name":"transferOwnership","outputs":[],"stateMutability":"nonpayable","type":"function"},{"inputs":[{"internalType":"address","name":"","type":"address"}],"name":"vaultToPool","outputs":[{"internalType":"bytes32","name":"","type":"bytes32"}],"stateMutability":"view","type":"function"},{"inputs":[{"internalType":"address","name":"vault","type":"address"},{"internalType":"uint256","name":"amount","type":"uint256"}],"name":"wouldExceedBudget","outputs":[{"internalType":"bool","name":"","type":"bool"}],"stateMutability":"view","type":"function"}],"evm":{"bytecode":{"linkReferences":{},"object":"60806040523480156200001157600080fd5b5060405162001cc538038062001cc5833981016040819052620000349162000114565b6200003f33620000c4565b600180556001600160a01b0381166200009e5760405162461bcd60e51b815260206004820152601360248201527f5342503a20696e76616c696420706f6c69637900000000000000000000000000604482015260640160405180910390fd5b600480546001600160a01b0319166001600160a01b039290921691909117905562000146565b600080546001600160a01b038381166001600160a01b0319831681178455604051919092169283917f8be0079c531659141344cd1fd0a4f28419497f9722a3daafe3b4186f6b6457e09190a35050565b6000602082840312156200012757600080fd5b81516001600160a01b03811681146200013f57600080fd5b9392505050565b611b6f80620001566000396000f3fe608060405234801561001057600080fd5b50600436106101215760003560e01c8063715018a6116100ad578063e1de5c0911610071578063e1de5c09146102a9578063e28825a4146102bc578063f01d4121146102e5578063f2fde38b146102ed578063f6c009271461030057600080fd5b8063715018a6146101ea5780638da5cb5b146101f2578063ae6fa17414610217578063b5217bb41461023a578063e19acc9e1461029657600080fd5b806336a74dd2116100f457806336a74dd2146101715780633ee4522a14610191578063446a1519146101b1578063488e66be146101c457806349559f94146101d757600080fd5b806307402bcc146101265780630e7817cd146101415780631cfd8ded146101565780632d69fd3114610169575b600080fd5b61012e600481565b6040519081526020015b60405180910390f35b61015461014f3660046117be565b610326565b005b61015461016436600461187d565b610973565b61012e603281565b61012e61017f3660046118a7565b60036020526000908152604090205481565b6101a461019f3660046118a7565b610c27565b60405161013891906118fd565b6101546101bf366004611910565b610d76565b6101546101d23660046118a7565b610f29565b61012e6101e536600461193c565b610fcf565b61015461102e565b6000546001600160a01b03165b6040516001600160a01b039091168152602001610138565b61022a61022536600461187d565b611042565b6040519015158152602001610138565b61028461024836600461193c565b6002602081905260009182526040909120805460018201549282015460038301546004840154600790940154929493919260ff91821692911686565b6040516101389695949392919061198d565b6004546101ff906001600160a01b031681565b6101546102b73660046119c8565b6110bc565b61012e6102ca3660046118a7565b6001600160a01b031660009081526003602052604090205490565b61012e606481565b6101546102fb3660046118a7565b611278565b61031361030e36600461193c565b6112f1565b60405161013897969594939291906119ea565b61032e61141b565b876103765760405162461bcd60e51b815260206004820152601360248201527214d0940e881a5b9d985b1a59081c1bdbdb1259606a1b60448201526064015b60405180910390fd5b60008881526002602052604090206007015460ff16156103cb5760405162461bcd60e51b815260206004820152601060248201526f5342503a20706f6f6c2065786973747360801b604482015260640161036d565b6000861161041b5760405162461bcd60e51b815260206004820152601760248201527f5342503a20627564676574206d757374206265203e2030000000000000000000604482015260640161036d565b60648311156104635760405162461bcd60e51b81526020600482015260146024820152735342503a20746f6f206d616e79207661756c747360601b604482015260640161036d565b60328111156104b45760405162461bcd60e51b815260206004820152601960248201527f5342503a20746f6f206d616e79206368696c6420706f6f6c7300000000000000604482015260640161036d565b861561051d5760008781526002602052604090206007015460ff166105135760405162461bcd60e51b815260206004820152601560248201527414d0940e881c185c995b9d081b9bdd08199bdd5b99605a1b604482015260640161036d565b61051d8888611475565b6040518061010001604052808781526020016000815260200142815260200186600281111561054e5761054e611955565b8152602001888152602001858580806020026020016040519081016040528093929190818152602001838360200280828437600092019190915250505090825250604080516020858102828101820190935285825292830192909186918691829185019084908082843760009201829052509385525050600160209384018190528c8352600280855260409384902086518155948601518583015592850151848401556060850151600385018054919490935060ff199091169190849081111561061a5761061a611955565b02179055506080820151600482015560a082015180516106449160058401916020909101906116bd565b5060c08201518051610660916006840191602090910190611722565b5060e091909101516007909101805460ff191691151591909117905560005b838110156107d657600060038187878581811061069e5761069e611a77565b90506020020160208101906106b391906118a7565b6001600160a01b03166001600160a01b0316815260200190815260200160002054146107215760405162461bcd60e51b815260206004820152601a60248201527f5342503a207661756c7420616c726561647920696e20706f6f6c000000000000604482015260640161036d565b886003600087878581811061073857610738611a77565b905060200201602081019061074d91906118a7565b6001600160a01b031681526020810191909152604001600020558885858381811061077a5761077a611a77565b905060200201602081019061078f91906118a7565b6001600160a01b03167f8213ba11bda1e8e1243581c289127d29df2100de6c56445da238875fb07b557460405160405180910390a3806107ce81611aa3565b91505061067f565b5060005b8181101561092d57600260008484848181106107f8576107f8611a77565b602090810292909201358352508101919091526040016000206007015460ff166108645760405162461bcd60e51b815260206004820152601960248201527f5342503a206368696c6420706f6f6c206e6f7420666f756e6400000000000000604482015260640161036d565b886002600085858581811061087b5761087b611a77565b90506020020135815260200190815260200160002060040154146108d55760405162461bcd60e51b815260206004820152601160248201527014d0940e881ddc9bdb99c81c185c995b9d607a1b604482015260640161036d565b888383838181106108e8576108e8611a77565b905060200201357f10a6d0b5ec32ee38c68775452b2d723ef5ae9bd05935e1745c93d611fdfde4be60405160405180910390a38061092581611aa3565b9150506107da565b5086887f28b024e51dc9035944dac76da59b4958a4885a29d8f0168edbff6a10a5b52c848888604051610961929190611abc565b60405180910390a35050505050505050565b61097b61153f565b6004546001600160a01b031633146109d55760405162461bcd60e51b815260206004820152601b60248201527f5342503a206f6e6c7920617574686f72697a656420706f6c6963790000000000604482015260640161036d565b6001600160a01b038216610a205760405162461bcd60e51b815260206004820152601260248201527114d0940e881a5b9d985b1a59081d985d5b1d60721b604482015260640161036d565b60008111610a705760405162461bcd60e51b815260206004820152601760248201527f5342503a20616d6f756e74206d757374206265203e2030000000000000000000604482015260640161036d565b6001600160a01b03821660009081526003602052604090205480610ad65760405162461bcd60e51b815260206004820152601a60248201527f5342503a207661756c74206e6f7420696e20616e7920706f6f6c000000000000604482015260640161036d565b805b8015610c18576000818152600260205260409020600781015460ff16610b405760405162461bcd60e51b815260206004820152601a60248201527f5342503a20696e76616c696420706f6f6c20696e20636861696e000000000000604482015260640161036d565b610b4982611598565b80546001820154610b5b908690611ad0565b1115610ba95760405162461bcd60e51b815260206004820152601c60248201527f5342503a2062756467657420657863656564656420696e20706f6f6c00000000604482015260640161036d565b83816001016000828254610bbd9190611ad0565b909155505060018101546040805186815260208101929092526001600160a01b0387169184917e9d5070cabaee82ed020c4dc03962fc807a84d074eff88af6c7d019eadbe328910160405180910390a3600401549050610ad8565b5050610c2360018055565b5050565b6001600160a01b03811660009081526003602052604090205460609080610c5e575050604080516000815260208101909152919050565b60408051600480825260a08201909252600091602082016080803683370190505090506000825b8015610cd05780838381518110610c9e57610c9e611a77565b602090810291909101015281610cb381611aa3565b60009283526002602052604090922060040154919250610c859050565b60008267ffffffffffffffff811115610ceb57610ceb611ae3565b604051908082528060200260200182016040528015610d14578160200160208202803683370190505b50905060005b83811015610d6b57848181518110610d3457610d34611a77565b6020026020010151828281518110610d4e57610d4e611a77565b602090810291909101015280610d6381611aa3565b915050610d1a565b509695505050505050565b610d7e61141b565b6001600160a01b038116610dc95760405162461bcd60e51b815260206004820152601260248201527114d0940e881a5b9d985b1a59081d985d5b1d60721b604482015260640161036d565b60008281526002602052604090206007015460ff16610dfa5760405162461bcd60e51b815260040161036d90611af9565b6001600160a01b03811660009081526003602052604090205415610e605760405162461bcd60e51b815260206004820152601a60248201527f5342503a207661756c7420616c726561647920696e20706f6f6c000000000000604482015260640161036d565b600082815260026020526040902060050154606411610eb25760405162461bcd60e51b815260206004820152600e60248201526d14d0940e881c1bdbdb08199d5b1b60921b604482015260640161036d565b600082815260026020908152604080832060050180546001810182559084528284200180546001600160a01b0319166001600160a01b03861690811790915580845260039092528083208590555184927f8213ba11bda1e8e1243581c289127d29df2100de6c56445da238875fb07b557491a35050565b610f3161141b565b6001600160a01b038116610f7d5760405162461bcd60e51b81526020600482015260136024820152725342503a20696e76616c696420706f6c69637960681b604482015260640161036d565b600480546001600160a01b038381166001600160a01b0319831681179093556040519116919082907fae617a8a30dd936054d41af00251620690222493ed7663fe06e1a699b483da8290600090a35050565b6000818152600260205260408120600781015460ff166110015760405162461bcd60e51b815260040161036d90611af9565b80546001820154106110165750600092915050565b600181015481546110279190611b26565b9392505050565b61103661141b565b611040600061161c565b565b6001600160a01b0382166000908152600360205260408120548061106a5760009150506110b6565b805b80156110af57600081815260026020526040902080546001820154611092908790611ad0565b11156110a457600193505050506110b6565b60040154905061106c565b6000925050505b92915050565b6110c461141b565b60008281526002602052604090206007015460ff1661111d5760405162461bcd60e51b815260206004820152601560248201527414d0940e881c185c995b9d081b9bdd08199bdd5b99605a1b604482015260640161036d565b60008181526002602052604090206007015460ff166111755760405162461bcd60e51b815260206004820152601460248201527314d0940e8818da1a5b19081b9bdd08199bdd5b9960621b604482015260640161036d565b60008181526002602052604090206004015482146111c95760405162461bcd60e51b815260206004820152601160248201527014d0940e881ddc9bdb99c81c185c995b9d607a1b604482015260640161036d565b6000828152600260205260409020600601546032116112235760405162461bcd60e51b815260206004820152601660248201527529a1281d103a37b79036b0b73c9031b434b6323932b760511b604482015260640161036d565b6000828152600260209081526040808320600601805460018101825590845291832090910183905551839183917f10a6d0b5ec32ee38c68775452b2d723ef5ae9bd05935e1745c93d611fdfde4be9190a35050565b61128061141b565b6001600160a01b0381166112e55760405162461bcd60e51b815260206004820152602660248201527f4f776e61626c653a206e6577206f776e657220697320746865207a65726f206160448201526564647265737360d01b606482015260840161036d565b6112ee8161161c565b50565b600081815260026020526040812060078101548291829182918291606091829160ff166113305760405162461bcd60e51b815260040161036d90611af9565b805460018201546002830154600384015460048501546005860180546040805160208084028201810190925282815260ff9095169460068a019290918491908301828280156113a857602002820191906000526020600020905b81546001600160a01b0316815260019091019060200180831161138a575b50505050509150808054806020026020016040519081016040528092919081815260200182805480156113fa57602002820191906000526020600020905b8154815260200190600101908083116113e6575b50505050509050975097509750975097509750975050919395979092949650565b6000546001600160a01b031633146110405760405162461bcd60e51b815260206004820181905260248201527f4f776e61626c653a2063616c6c6572206973206e6f7420746865206f776e6572604482015260640161036d565b6001815b8015611539578381036114ce5760405162461bcd60e51b815260206004820152601760248201527f5342503a20776f756c6420637265617465206379636c65000000000000000000604482015260640161036d565b816114d881611aa3565b92505060048211156115225760405162461bcd60e51b815260206004820152601360248201527214d0940e8819195c1d1a08195e18d959591959606a1b604482015260640161036d565b600090815260026020526040902060040154611479565b50505050565b6002600154036115915760405162461bcd60e51b815260206004820152601f60248201527f5265656e7472616e637947756172643a207265656e7472616e742063616c6c00604482015260640161036d565b6002600155565b600081815260026020526040812060038101549091906115ba9060ff1661166c565b90508082600201546115cc9190611ad0565b42106116175760006001830155426002830181905560405190815283907fafb44b8ca98d7fa0449fa840a169ddbffee8fc1e4633a422ea2f3d16ed52cf4b9060200160405180910390a25b505050565b600080546001600160a01b038381166001600160a01b0319831681178455604051919092169283917f8be0079c531659141344cd1fd0a4f28419497f9722a3daafe3b4186f6b6457e09190a35050565b60008082600281111561168157611681611955565b03611690575062015180919050565b60018260028111156116a4576116a4611955565b036116b3575062093a80919050565b5062278d00919050565b828054828255906000526020600020908101928215611712579160200282015b8281111561171257825182546001600160a01b0319166001600160a01b039091161782556020909201916001909101906116dd565b5061171e92915061175d565b5090565b828054828255906000526020600020908101928215611712579160200282015b82811115611712578251825591602001919060010190611742565b5b8082111561171e576000815560010161175e565b60008083601f84011261178457600080fd5b50813567ffffffffffffffff81111561179c57600080fd5b6020830191508360208260051b85010111156117b757600080fd5b9250929050565b60008060008060008060008060c0898b0312156117da57600080fd5b8835975060208901359650604089013595506060890135600381106117fe57600080fd5b9450608089013567ffffffffffffffff8082111561181b57600080fd5b6118278c838d01611772565b909650945060a08b013591508082111561184057600080fd5b5061184d8b828c01611772565b999c989b5096995094979396929594505050565b80356001600160a01b038116811461187857600080fd5b919050565b6000806040838503121561189057600080fd5b61189983611861565b946020939093013593505050565b6000602082840312156118b957600080fd5b61102782611861565b600081518084526020808501945080840160005b838110156118f2578151875295820195908201906001016118d6565b509495945050505050565b60208152600061102760208301846118c2565b6000806040838503121561192357600080fd5b8235915061193360208401611861565b90509250929050565b60006020828403121561194e57600080fd5b5035919050565b634e487b7160e01b600052602160045260246000fd5b6003811061198957634e487b7160e01b600052602160045260246000fd5b9052565b868152602081018690526040810185905260c081016119af606083018661196b565b83608083015282151560a0830152979650505050505050565b600080604083850312156119db57600080fd5b50508035926020909101359150565b600060e0820189835260208981850152886040850152611a0d606085018961196b565b6080840187905260e060a08501528551918290528086019161010085019060005b81811015611a535784516001600160a01b031683529383019391830191600101611a2e565b505084810360c0860152611a6781876118c2565b9c9b505050505050505050505050565b634e487b7160e01b600052603260045260246000fd5b634e487b7160e01b600052601160045260246000fd5b600060018201611ab557611ab5611a8d565b5060010190565b82815260408101611027602083018461196b565b808201808211156110b6576110b6611a8d565b634e487b7160e01b600052604160045260246000fd5b60208082526013908201527214d0940e881c1bdbdb081b9bdd08199bdd5b99606a1b604082015260600190565b818103818111156110b6576110b6611a8d56fea2646970667358221220870800782849c115c24863ece1637b4d12675fcee679e6f1c6dbfd11ce218ca964736f6c63430008140033","opcodes":"PUSH1 0x80 PUSH1 0x40 MSTORE CALLVALUE DUP1 ISZERO PUSH3 0x11 JUMPI PUSH1 0x0 DUP1 REVERT JUMPDEST POP PUSH1 0x40 MLOAD PUSH3 0x1CC5 CODESIZE SUB DUP1 PUSH3 0x1CC5 DUP4 CODECOPY DUP2 ADD PUSH1 0x40 DUP2 SWAP1 MSTORE PUSH3 0x34 SWAP2 PUSH3 0x114 JUMP JUMPDEST PUSH3 0x3F CALLER PUSH3 0xC4 JUMP JUMPDEST PUSH1 0x1 DUP1 SSTORE PUSH1 0x1 PUSH1 0x1 PUSH1 0xA0 SHL SUB DUP2 AND PUSH3 0x9E JUMPI PUSH1 0x40 MLOAD PUSH3 0x461BCD PUSH1 0xE5 SHL DUP2 MSTORE PUSH1 0x20 PUSH1 0x4 DUP3 ADD MSTORE PUSH1 0x13 PUSH1 0x24 DUP3 ADD MSTORE PUSH32 0x5342503A20696E76616C696420706F6C69637900000000000000000000000000 PUSH1 0x44 DUP3 ADD MSTORE PUSH1 0x64 ADD PUSH1 0x40 MLOAD DUP1 SWAP2 SUB SWAP1 REVERT JUMPDEST PUSH1 0x4 DUP1 SLOAD PUSH1 0x1 PUSH1 0x1 PUSH1 0xA0 SHL SUB NOT AND PUSH1 0x1 PUSH1 0x1 PUSH1 0xA0 SHL SUB SWAP3 SWAP1 SWAP3 AND SWAP2 SWAP1 SWAP2 OR SWAP1 SSTORE PUSH3 0x146 JUMP JUMPDEST PUSH1 0x0 DUP1 SLOAD PUSH1 0x1 PUSH1 0x1 PUSH1 0xA0 SHL SUB DUP4 DUP2 AND PUSH1 0x1 PUSH1 0x1 PUSH1 0xA0 SHL SUB NOT DUP4 AND DUP2 OR DUP5 SSTORE PUSH1 0x40 MLOAD SWAP2 SWAP1 SWAP3 AND SWAP3 DUP4 SWAP2 PUSH32 0x8BE0079C531659141344CD1FD0A4F28419497F9722A3DAAFE3B4186F6B6457E0 SWAP2 SWAP1 LOG3 POP POP JUMP JUMPDEST PUSH1 0x0 PUSH1 0x20 DUP3 DUP5 SUB SLT ISZERO PUSH3 0x127 JUMPI PUSH1 0x0 DUP1 REVERT JUMPDEST DUP2 MLOAD PUSH1 0x1 PUSH1 0x1 PUSH1 0xA0 SHL SUB DUP2 AND DUP2 EQ PUSH3 0x13F JUMPI PUSH1 0x0 DUP1 REVERT JUMPDEST SWAP4 SWAP3 POP POP POP JUMP JUMPDEST PUSH2 0x1B6F DUP1 PUSH3 0x156 PUSH1 0x0 CODECOPY PUSH1 0x0 RETURN INVALID PUSH1 0x80 PUSH1 0x40 MSTORE CALLVALUE DUP1 ISZERO PUSH2 0x10 JUMPI PUSH1 0x0 DUP1 REVERT JUMPDEST POP PUSH1 0x4 CALLDATASIZE LT PUSH2 0x121 JUMPI PUSH1 0x0 CALLDATALOAD PUSH1 0xE0 SHR DUP1 PUSH4 0x715018A6 GT PUSH2 0xAD JUMPI DUP1 PUSH4 0xE1DE5C09 GT PUSH2 0x71 JUMPI DUP1 PUSH4 0xE1DE5C09 EQ PUSH2 0x2A9 JUMPI DUP1 PUSH4 0xE28825A4 EQ PUSH2 0x2BC JUMPI DUP1 PUSH4 0xF01D4121 EQ PUSH2 0x2E5 JUMPI DUP1 PUSH4 0xF2FDE38B EQ PUSH2 0x2ED JUMPI DUP1 PUSH4 0xF6C00927 EQ PUSH2 0x300 JUMPI PUSH1 0x0 DUP1 REVERT JUMPDEST DUP1 PUSH4 0x715018A6 EQ PUSH2 0x1EA JUMPI DUP1 PUSH4 0x8DA5CB5B EQ PUSH2 0x1F2 JUMPI DUP1 PUSH4 0xAE6FA174 EQ PUSH2 0x217 JUMPI DUP1 PUSH4 0xB5217BB4 EQ PUSH2 0x23A JUMPI DUP1 PUSH4 0xE19ACC9E EQ PUSH2 0x296 JUMPI PUSH1 0x0 DUP1 REVERT JUMPDEST DUP1 PUSH4 0x36A74DD2 GT PUSH2 0xF4 JUMPI DUP1 PUSH4 0x36A74DD2 EQ PUSH2 0x171 JUMPI DUP1 PUSH4 0x3EE4522A EQ PUSH2 0x191 JUMPI DUP1 PUSH4 0x446A1519 EQ PUSH2 0x1B1 JUMPI DUP1 PUSH4 0x488E66BE EQ PUSH2 0x1C4 JUMPI DUP1 PUSH4 0x49559F94 EQ PUSH2 0x1D7 JUMPI PUSH1 0x0 DUP1 REVERT JUMPDEST DUP1 PUSH4 0x7402BCC EQ PUSH2 0x126 JUMPI DUP1 PUSH4 0xE7817CD EQ PUSH2 0x141 JUMPI DUP1 PUSH4 0x1CFD8DED EQ PUSH2 0x156 JUMPI DUP1 PUSH4 0x2D69FD31 EQ PUSH2 0x169 JUMPI JUMPDEST PUSH1 0x0 DUP1 REVERT JUMPDEST PUSH2 0x12E PUSH1 0x4 DUP2 JUMP JUMPDEST PUSH1 0x40 MLOAD SWAP1 DUP2 MSTORE PUSH1 0x20 ADD JUMPDEST PUSH1 0x40 MLOAD DUP1 SWAP2 SUB SWAP1 RETURN JUMPDEST PUSH2 0x154 PUSH2 0x14F CALLDATASIZE PUSH1 0x4 PUSH2 0x17BE JUMP JUMPDEST PUSH2 0x326 JUMP JUMPDEST STOP JUMPDEST PUSH2 0x154 PUSH2 0x164 CALLDATASIZE PUSH1 0x4 PUSH2 0x187D JUMP JUMPDEST PUSH2 0x973 JUMP JUMPDEST PUSH2 0x12E PUSH1 0x32 DUP2 JUMP JUMPDEST PUSH2 0x12E PUSH2 0x17F CALLDATASIZE PUSH1 0x4 PUSH2 0x18A7 JUMP JUMPDEST PUSH1 0x3 PUSH1 0x20 MSTORE PUSH1 0x0 SWAP1 DUP2 MSTORE PUSH1 0x40 SWAP1 KECCAK256 SLOAD DUP2 JUMP JUMPDEST PUSH2 0x1A4 PUSH2 0x19F CALLDATASIZE PUSH1 0x4 PUSH2 0x18A7 JUMP JUMPDEST PUSH2 0xC27 JUMP JUMPDEST PUSH1 0x40 MLOAD PUSH2 0x138 SWAP2 SWAP1 PUSH2 0x18FD JUMP JUMPDEST PUSH2 0x154 PUSH2 0x1BF CALLDATASIZE PUSH1 0x4 PUSH2 0x1910 JUMP JUMPDEST PUSH2 0xD76 JUMP JUMPDEST PUSH2 0x154 PUSH2 0x1D2 CALLDATASIZE PUSH1 0x4 PUSH2 0x18A7 JUMP JUMPDEST PUSH2 0xF29 JUMP JUMPDEST PUSH2 0x12E PUSH2 0x1E5 CALLDATASIZE PUSH1 0x4 PUSH2 0x193C JUMP JUMPDEST PUSH2 0xFCF JUMP JUMPDEST PUSH2 0x154 PUSH2 0x102E JUMP JUMPDEST PUSH1 0x0 SLOAD PUSH1 0x1 PUSH1 0x1 PUSH1 0xA0 SHL SUB AND JUMPDEST PUSH1 0x40 MLOAD PUSH1 0x1 PUSH1 0x1 PUSH1 0xA0 SHL SUB SWAP1 SWAP2 AND DUP2 MSTORE PUSH1 0x20 ADD PUSH2 0x138 JUMP JUMPDEST PUSH2 0x22A PUSH2 0x225 CALLDATASIZE PUSH1 0x4 PUSH2 0x187D JUMP JUMPDEST PUSH2 0x1042 JUMP JUMPDEST PUSH1 0x40 MLOAD SWAP1 ISZERO ISZERO DUP2 MSTORE PUSH1 0x20 ADD PUSH2 0x138 JUMP JUMPDEST PUSH2 0x284 PUSH2 0x248 CALLDATASIZE PUSH1 0x4 PUSH2 0x193C JUMP JUMPDEST PUSH1 0x2 PUSH1 0x20 DUP2 SWAP1 MSTORE PUSH1 0x0 SWAP2 DUP3 MSTORE PUSH1 0x40 SWAP1 SWAP2 KECCAK256 DUP1 SLOAD PUSH1 0x1 DUP3 ADD SLOAD SWAP3 DUP3 ADD SLOAD PUSH1 0x3 DUP4 ADD SLOAD PUSH1 0x4 DUP5 ADD SLOAD PUSH1 0x7 SWAP1 SWAP5 ADD SLOAD SWAP3 SWAP5 SWAP4 SWAP2 SWAP3 PUSH1 0xFF SWAP2 DUP3 AND SWAP3 SWAP2 AND DUP7 JUMP JUMPDEST PUSH1 0x40 MLOAD PUSH2 0x138 SWAP7 SWAP6 SWAP5 SWAP4 SWAP3 SWAP2 SWAP1 PUSH2 0x198D JUMP JUMPDEST PUSH1 0x4 SLOAD PUSH2 0x1FF SWAP1 PUSH1 0x1 PUSH1 0x1 PUSH1 0xA0 SHL SUB AND DUP2 JUMP JUMPDEST PUSH2 0x154 PUSH2 0x2B7 CALLDATASIZE PUSH1 0x4 PUSH2 0x19C8 JUMP JUMPDEST PUSH2 0x10BC JUMP JUMPDEST PUSH2 0x12E PUSH2 0x2CA CALLDATASIZE PUSH1 0x4 PUSH2 0x18A7 JUMP JUMPDEST PUSH1 0x1 PUSH1 0x1 PUSH1 0xA0 SHL SUB AND PUSH1 0x0 SWAP1 DUP2 MSTORE PUSH1 0x3 PUSH1 0x20 MSTORE PUSH1 0x40 SWAP1 KECCAK256 SLOAD SWAP1 JUMP JUMPDEST PUSH2 0x12E PUSH1 0x64 DUP2 JUMP JUMPDEST PUSH2 0x154 PUSH2 0x2FB CALLDATASIZE PUSH1 0x4 PUSH2 0x18A7 JUMP JUMPDEST PUSH2 0x1278 JUMP JUMPDEST PUSH2 0x313 PUSH2 0x30E CALLDATASIZE PUSH1 0x4 PUSH2 0x193C JUMP JUMPDEST PUSH2 0x12F1 JUMP JUMPDEST PUSH1 0x40 MLOAD PUSH2 0x138 SWAP8 SWAP7 SWAP6 SWAP5 SWAP4 SWAP3 SWAP2 SWAP1 PUSH2 0x19EA JUMP JUMPDEST PUSH2 0x32E PUSH2 0x141B JUMP JUMPDEST DUP8 PUSH2 0x376 JUMPI PUSH1 0x40 MLOAD PUSH3 0x461BCD PUSH1 0xE5 SHL DUP2 MSTORE PUSH1 0x20 PUSH1 0x4 DUP3 ADD MSTORE PUSH1 0x13 PUSH1 0x24 DUP3 ADD MSTORE PUSH19 0x14D0940E881A5B9D985B1A59081C1BDBDB1259 PUSH1 0x6A SHL PUSH1 0x44 DUP3 ADD MSTORE PUSH1 0x64 ADD JUMPDEST PUSH1 0x40 MLOAD DUP1 SWAP2 SUB SWAP1 REVERT JUMPDEST PUSH1 0x0 DUP9 DUP2 MSTORE PUSH1 0x2 PUSH1 0x20 MSTORE PUSH1 0x40 SWAP1 KECCAK256 PUSH1 0x7 ADD SLOAD PUSH1 0xFF AND ISZERO PUSH2 0x3CB JUMPI PUSH1 0x40 MLOAD PUSH3 0x461BCD PUSH1 0xE5 SHL DUP2 MSTORE PUSH1 0x20 PUSH1 0x4 DUP3 ADD MSTORE PUSH1 0x10 PUSH1 0x24 DUP3 ADD MSTORE PUSH16 0x5342503A20706F6F6C20657869737473 PUSH1 0x80 SHL PUSH1 0x44 DUP3 ADD MSTORE PUSH1 0x64 ADD PUSH2 0x36D JUMP JUMPDEST PUSH1 0x0 DUP7 GT PUSH2 0x41B JUMPI PUSH1 0x40 MLOAD PUSH3 0x461BCD PUSH1 0xE5 SHL DUP2 MSTORE PUSH1 0x20 PUSH1 0x4 DUP3 ADD MSTORE PUSH1 0x17 PUSH1 0x24 DUP3 ADD MSTORE PUSH32 0x5342503A20627564676574206D757374206265203E2030000000000000000000 PUSH1 0x44 DUP3 ADD MSTORE PUSH1 0x64 ADD PUSH2 0x36D JUMP JUMPDEST PUSH1 0x64 DUP4 GT ISZERO PUSH2 0x463 JUMPI PUSH1 0x40 MLOAD PUSH3 0x461BCD PUSH1 0xE5 SHL DUP2 MSTORE PUSH1 0x20 PUSH1 0x4 DUP3 ADD MSTORE PUSH1 0x14 PUSH1 0x24 DUP3 ADD MSTORE PUSH20 0x5342503A20746F6F206D616E79207661756C7473 PUSH1 0x60 SHL PUSH1 0x44 DUP3 ADD MSTORE PUSH1 0x64 ADD PUSH2 0x36D JUMP JUMPDEST PUSH1 0x32 DUP2 GT ISZERO PUSH2 0x4B4 JUMPI PUSH1 0x40 MLOAD PUSH3 0x461BCD PUSH1 0xE5 SHL DUP2 MSTORE PUSH1 0x20 PUSH1 0x4 DUP3 ADD MSTORE PUSH1 0x19 PUSH1 0x24 DUP3 ADD MSTORE PUSH32 0x5342503A20746F6F206D616E79206368696C6420706F6F6C7300000000000000 PUSH1 0x44 DUP3 ADD MSTORE PUSH1 0x64 ADD PUSH2 0x36D JUMP JUMPDEST DUP7 ISZERO PUSH2 0x51D JUMPI PUSH1 0x0 DUP8 DUP2 MSTORE PUSH1 0x2 PUSH1 0x20 MSTORE PUSH1 0x40 SWAP1 KECCAK256 PUSH1 0x7 ADD SLOAD PUSH1 0xFF AND PUSH2 0x513 JUMPI PUSH1 0x40 MLOAD PUSH3 0x461BCD PUSH1 0xE5 SHL DUP2 MSTORE PUSH1 0x20 PUSH1 0x4 DUP3 ADD MSTORE PUSH1 0x15 PUSH1 0x24 DUP3 ADD MSTORE PUSH21 0x14D0940E881C185C995B9D081B9BDD08199BDD5B99 PUSH1 0x5A SHL PUSH1 0x44 DUP3 ADD MSTORE PUSH1 0x64 ADD PUSH2 0x36D JUMP JUMPDEST PUSH2 0x51D DUP9 DUP9 PUSH2 0x1475 JUMP JUMPDEST PUSH1 0x40 MLOAD DUP1 PUSH2 0x100 ADD PUSH1 0x40 MSTORE DUP1 DUP8 DUP2 MSTORE PUSH1 0x20 ADD PUSH1 0x0 DUP2 MSTORE PUSH1 0x20 ADD TIMESTAMP DUP2 MSTORE PUSH1 0x20 ADD DUP7 PUSH1 0x2 DUP2 GT ISZERO PUSH2 0x54E JUMPI PUSH2 0x54E PUSH2 0x1955 JUMP JUMPDEST DUP2 MSTORE PUSH1 0x20 ADD DUP9 DUP2 MSTORE PUSH1 0x20 ADD DUP6 DUP6 DUP1 DUP1 PUSH1 0x20 MUL PUSH1 0x20 ADD PUSH1 0x40 MLOAD SWAP1 DUP2 ADD PUSH1 0x40 MSTORE DUP1 SWAP4 SWAP3 SWAP2 SWAP1 DUP2 DUP2 MSTORE PUSH1 0x20 ADD DUP4 DUP4 PUSH1 0x20 MUL DUP1 DUP3 DUP5 CALLDATACOPY PUSH1 0x0 SWAP3 ADD SWAP2 SWAP1 SWAP2 MSTORE POP POP POP SWAP1 DUP3 MSTORE POP PUSH1 0x40 DUP1 MLOAD PUSH1 0x20 DUP6 DUP2 MUL DUP3 DUP2 ADD DUP3 ADD SWAP1 SWAP4 MSTORE DUP6 DUP3 MSTORE SWAP3 DUP4 ADD SWAP3 SWAP1 SWAP2 DUP7 SWAP2 DUP7 SWAP2 DUP3 SWAP2 DUP6 ADD SWAP1 DUP5 SWAP1 DUP1 DUP3 DUP5 CALLDATACOPY PUSH1 0x0 SWAP3 ADD DUP3 SWAP1 MSTORE POP SWAP4 DUP6 MSTORE POP POP PUSH1 0x1 PUSH1 0x20 SWAP4 DUP5 ADD DUP2 SWAP1 MSTORE DUP13 DUP4 MSTORE PUSH1 0x2 DUP1 DUP6 MSTORE PUSH1 0x40 SWAP4 DUP5 SWAP1 KECCAK256 DUP7 MLOAD DUP2 SSTORE SWAP5 DUP7 ADD MLOAD DUP6 DUP4 ADD SSTORE SWAP3 DUP6 ADD MLOAD DUP5 DUP5 ADD SSTORE PUSH1 0x60 DUP6 ADD MLOAD PUSH1 0x3 DUP6 ADD DUP1 SLOAD SWAP2 SWAP5 SWAP1 SWAP4 POP PUSH1 0xFF NOT SWAP1 SWAP2 AND SWAP2 SWAP1 DUP5 SWAP1 DUP2 GT ISZERO PUSH2 0x61A JUMPI PUSH2 0x61A PUSH2 0x1955 JUMP JUMPDEST MUL OR SWAP1 SSTORE POP PUSH1 0x80 DUP3 ADD MLOAD PUSH1 0x4 DUP3 ADD SSTORE PUSH1 0xA0 DUP3 ADD MLOAD DUP1 MLOAD PUSH2 0x644 SWAP2 PUSH1 0x5 DUP5 ADD SWAP2 PUSH1 0x20 SWAP1 SWAP2 ADD SWAP1 PUSH2 0x16BD JUMP JUMPDEST POP PUSH1 0xC0 DUP3 ADD MLOAD DUP1 MLOAD PUSH2 0x660 SWAP2 PUSH1 0x6 DUP5 ADD SWAP2 PUSH1 0x20 SWAP1 SWAP2 ADD SWAP1 PUSH2 0x1722 JUMP JUMPDEST POP PUSH1 0xE0 SWAP2 SWAP1 SWAP2 ADD MLOAD PUSH1 0x7 SWAP1 SWAP2 ADD DUP1 SLOAD PUSH1 0xFF NOT AND SWAP2 ISZERO ISZERO SWAP2 SWAP1 SWAP2 OR SWAP1 SSTORE PUSH1 0x0 JUMPDEST DUP4 DUP2 LT ISZERO PUSH2 0x7D6 JUMPI PUSH1 0x0 PUSH1 0x3 DUP2 DUP8 DUP8 DUP6 DUP2 DUP2 LT PUSH2 0x69E JUMPI PUSH2 0x69E PUSH2 0x1A77 JUMP JUMPDEST SWAP1 POP PUSH1 0x20 MUL ADD PUSH1 0x20 DUP2 ADD SWAP1 PUSH2 0x6B3 SWAP2 SWAP1 PUSH2 0x18A7 JUMP JUMPDEST PUSH1 0x1 PUSH1 0x1 PUSH1 0xA0 SHL SUB AND PUSH1 0x1 PUSH1 0x1 PUSH1 0xA0 SHL SUB AND DUP2 MSTORE PUSH1 0x20 ADD SWAP1 DUP2 MSTORE PUSH1 0x20 ADD PUSH1 0x0 KECCAK256 SLOAD EQ PUSH2 0x721 JUMPI PUSH1 0x40 MLOAD PUSH3 0x461BCD PUSH1 0xE5 SHL DUP2 MSTORE PUSH1 0x20 PUSH1 0x4 DUP3 ADD MSTORE PUSH1 0x1A PUSH1 0x24 DUP3 ADD MSTORE PUSH32 0x5342503A207661756C7420616C726561647920696E20706F6F6C000000000000 PUSH1 0x44 DUP3 ADD MSTORE PUSH1 0x64 ADD PUSH2 0x36D JUMP JUMPDEST DUP9 PUSH1 0x3 PUSH1 0x0 DUP8 DUP8 DUP6 DUP2 DUP2 LT PUSH2 0x738 JUMPI PUSH2 0x738 PUSH2 0x1A77 JUMP JUMPDEST SWAP1 POP PUSH1 0x20 MUL ADD PUSH1 0x20 DUP2 ADD SWAP1 PUSH2 0x74D SWAP2 SWAP1 PUSH2 0x18A7 JUMP JUMPDEST PUSH1 0x1 PUSH1 0x1 PUSH1 0xA0 SHL SUB AND DUP2 MSTORE PUSH1 0x20 DUP2 ADD SWAP2 SWAP1 SWAP2 MSTORE PUSH1 0x40 ADD PUSH1 0x0 KECCAK256 SSTORE DUP9 DUP6 DUP6 DUP4 DUP2 DUP2 LT PUSH2 0x77A JUMPI PUSH2 0x77A PUSH2 0x1A77 JUMP JUMPDEST SWAP1 POP PUSH1 0x20 MUL ADD PUSH1 0x20 DUP2 ADD SWAP1 PUSH2 0x78F SWAP2 SWAP1 PUSH2 0x18A7 JUMP JUMPDEST PUSH1 0x1 PUSH1 0x1 PUSH1 0xA0 SHL SUB AND PUSH32 0x8213BA11BDA1E8E1243581C289127D29DF2100DE6C56445DA238875FB07B5574 PUSH1 0x40 MLOAD PUSH1 0x40 MLOAD DUP1 SWAP2 SUB SWAP1 LOG3 DUP1 PUSH2 0x7CE DUP2 PUSH2 0x1AA3 JUMP JUMPDEST SWAP2 POP POP PUSH2 0x67F JUMP JUMPDEST POP PUSH1 0x0 JUMPDEST DUP2 DUP2 LT ISZERO PUSH2 0x92D JUMPI PUSH1 0x2 PUSH1 0x0 DUP5 DUP5 DUP5 DUP2 DUP2 LT PUSH2 0x7F8 JUMPI PUSH2 0x7F8 PUSH2 0x1A77 JUMP JUMPDEST PUSH1 0x20 SWAP1 DUP2 MUL SWAP3 SWAP1 SWAP3 ADD CALLDATALOAD DUP4 MSTORE POP DUP2 ADD SWAP2 SWAP1 SWAP2 MSTORE PUSH1 0x40 ADD PUSH1 0x0 KECCAK256 PUSH1 0x7 ADD SLOAD PUSH1 0xFF AND PUSH2 0x864 JUMPI PUSH1 0x40 MLOAD PUSH3 0x461BCD PUSH1 0xE5 SHL DUP2 MSTORE PUSH1 0x20 PUSH1 0x4 DUP3 ADD MSTORE PUSH1 0x19 PUSH1 0x24 DUP3 ADD MSTORE PUSH32 0x5342503A206368696C6420706F6F6C206E6F7420666F756E6400000000000000 PUSH1 0x44 DUP3 ADD MSTORE PUSH1 0x64 ADD PUSH2 0x36D JUMP JUMPDEST DUP9 PUSH1 0x2 PUSH1 0x0 DUP6 DUP6 DUP6 DUP2 DUP2 LT PUSH2 0x87B JUMPI PUSH2 0x87B PUSH2 0x1A77 JUMP JUMPDEST SWAP1 POP PUSH1 0x20 MUL ADD CALLDATALOAD DUP2 MSTORE PUSH1 0x20 ADD SWAP1 DUP2 MSTORE PUSH1 0x20 ADD PUSH1 0x0 KECCAK256 PUSH1 0x4 ADD SLOAD EQ PUSH2 0x8D5 JUMPI PUSH1 0x40 MLOAD PUSH3 0x461BCD PUSH1 0xE5 SHL DUP2 MSTORE PUSH1 0x20 PUSH1 0x4 DUP3 ADD MSTORE PUSH1 0x11 PUSH1 0x24 DUP3 ADD MSTORE PUSH17 0x14D0940E881DDC9BDB99C81C185C995B9D PUSH1 0x7A SHL PUSH1 0x44 DUP3 ADD MSTORE PUSH1 0x64 ADD PUSH2 0x36D JUMP JUMPDEST DUP9 DUP4 DUP4 DUP4 DUP2 DUP2 LT PUSH2 0x8E8 JUMPI PUSH2 0x8E8 PUSH2 0x1A77 JUMP JUMPDEST SWAP1 POP PUSH1 0x20 MUL ADD CALLDATALOAD PUSH32 0x10A6D0B5EC32EE38C68775452B2D723EF5AE9BD05935E1745C93D611FDFDE4BE PUSH1 0x40 MLOAD PUSH1 0x40 MLOAD DUP1 SWAP2 SUB SWAP1 LOG3 DUP1 PUSH2 0x925 DUP2 PUSH2 0x1AA3 JUMP JUMPDEST SWAP2 POP POP PUSH2 0x7DA JUMP JUMPDEST POP DUP7 DUP9 PUSH32 0x28B024E51DC9035944DAC76DA59B4958A4885A29D8F0168EDBFF6A10A5B52C84 DUP9 DUP9 PUSH1 0x40 MLOAD PUSH2 0x961 SWAP3 SWAP2 SWAP1 PUSH2 0x1ABC JUMP JUMPDEST PUSH1 0x40 MLOAD DUP1 SWAP2 SUB SWAP1 LOG3 POP POP POP POP POP POP POP POP JUMP JUMPDEST PUSH2 0x97B PUSH2 0x153F JUMP JUMPDEST PUSH1 0x4 SLOAD PUSH1 0x1 PUSH1 0x1 PUSH1 0xA0 SHL SUB AND CALLER EQ PUSH2 0x9D5 JUMPI PUSH1 0x40 MLOAD PUSH3 0x461BCD PUSH1 0xE5 SHL DUP2 MSTORE PUSH1 0x20 PUSH1 0x4 DUP3 ADD MSTORE PUSH1 0x1B PUSH1 0x24 DUP3 ADD MSTORE PUSH32 0x5342503A206F6E6C7920617574686F72697A656420706F6C6963790000000000 PUSH1 0x44 DUP3 ADD MSTORE PUSH1 0x64 ADD PUSH2 0x36D JUMP JUMPDEST PUSH1 0x1 PUSH1 0x1 PUSH1 0xA0 SHL SUB DUP3 AND PUSH2 0xA20 JUMPI PUSH1 0x40 MLOAD PUSH3 0x461BCD PUSH1 0xE5 SHL DUP2 MSTORE PUSH1 0x20 PUSH1 0x4 DUP3 ADD MSTORE PUSH1 0x12 PUSH1 0x24 DUP3 ADD MSTORE PUSH18 0x14D0940E881A5B9D985B1A59081D985D5B1D PUSH1 0x72 SHL PUSH1 0x44 DUP3 ADD MSTORE PUSH1 0x64 ADD PUSH2 0x36D JUMP JUMPDEST PUSH1 0x0 DUP2 GT PUSH2 0xA70 JUMPI PUSH1 0x40 MLOAD PUSH3 0x461BCD PUSH1 0xE5 SHL DUP2 MSTORE PUSH1 0x20 PUSH1 0x4 DUP3 ADD MSTORE PUSH1 0x17 PUSH1 0x24 DUP3 ADD MSTORE PUSH32 0x5342503A20616D6F756E74206D757374206265203E2030000000000000000000 PUSH1 0x44 DUP3 ADD MSTORE PUSH1 0x64 ADD PUSH2 0x36D JUMP JUMPDEST PUSH1 0x1 PUSH1 0x1 PUSH1 0xA0 SHL SUB DUP3 AND PUSH1 0x0 SWAP1 DUP2 MSTORE PUSH1 0x3 PUSH1 0x20 MSTORE PUSH1 0x40 SWAP1 KECCAK256 SLOAD DUP1 PUSH2 0xAD6 JUMPI PUSH1 0x40 MLOAD PUSH3 0x461BCD PUSH1 0xE5 SHL DUP2 MSTORE PUSH1 0x20 PUSH1 0x4 DUP3 ADD MSTORE PUSH1 0x1A PUSH1 0x24 DUP3 ADD MSTORE PUSH32 0x5342503A207661756C74206E6F7420696E20616E7920706F6F6C000000000000 PUSH1 0x44 DUP3 ADD MSTORE PUSH1 0x64 ADD PUSH2 0x36D JUMP JUMPDEST DUP1 JUMPDEST DUP1 ISZERO PUSH2 0xC18 JUMPI PUSH1 0x0 DUP2 DUP2 MSTORE PUSH1 0x2 PUSH1 0x20 MSTORE PUSH1 0x40 SWAP1 KECCAK256 PUSH1 0x7 DUP2 ADD SLOAD PUSH1 0xFF AND PUSH2 0xB40 JUMPI PUSH1 0x40 MLOAD PUSH3 0x461BCD PUSH1 0xE5 SHL DUP2 MSTORE PUSH1 0x20 PUSH1 0x4 DUP3 ADD MSTORE PUSH1 0x1A PUSH1 0x24 DUP3 ADD MSTORE PUSH32 0x5342503A20696E76616C696420706F6F6C20696E20636861696E000000000000 PUSH1 0x44 DUP3 ADD MSTORE PUSH1 0x64 ADD PUSH2 0x36D JUMP JUMPDEST PUSH2 0xB49 DUP3 PUSH2 0x1598 JUMP JUMPDEST DUP1 SLOAD PUSH1 0x1 DUP3 ADD SLOAD PUSH2 0xB5B SWAP1 DUP7 SWAP1 PUSH2 0x1AD0 JUMP JUMPDEST GT ISZERO PUSH2 0xBA9 JUMPI PUSH1 0x40 MLOAD PUSH3 0x461BCD PUSH1 0xE5 SHL DUP2 MSTORE PUSH1 0x20 PUSH1 0x4 DUP3 ADD MSTORE PUSH1 0x1C PUSH1 0x24 DUP3 ADD MSTORE PUSH32 0x5342503A2062756467657420657863656564656420696E20706F6F6C00000000 PUSH1 0x44 DUP3 ADD MSTORE PUSH1 0x64 ADD PUSH2 0x36D JUMP JUMPDEST DUP4 DUP2 PUSH1 0x1 ADD PUSH1 0x0 DUP3 DUP3 SLOAD PUSH2 0xBBD SWAP2 SWAP1 PUSH2 0x1AD0 JUMP JUMPDEST SWAP1 SWAP2 SSTORE POP POP PUSH1 0x1 DUP2 ADD SLOAD PUSH1 0x40 DUP1 MLOAD DUP7 DUP2 MSTORE PUSH1 0x20 DUP2 ADD SWAP3 SWAP1 SWAP3 MSTORE PUSH1 0x1 PUSH1 0x1 PUSH1 0xA0 SHL SUB DUP8 AND SWAP2 DUP5 SWAP2 PUSH31 0x9D5070CABAEE82ED020C4DC03962FC807A84D074EFF88AF6C7D019EADBE328 SWAP2 ADD PUSH1 0x40 MLOAD DUP1 SWAP2 SUB SWAP1 LOG3 PUSH1 0x4 ADD SLOAD SWAP1 POP PUSH2 0xAD8 JUMP JUMPDEST POP POP PUSH2 0xC23 PUSH1 0x1 DUP1 SSTORE JUMP JUMPDEST POP POP JUMP JUMPDEST PUSH1 0x1 PUSH1 0x1 PUSH1 0xA0 SHL SUB DUP2 AND PUSH1 0x0 SWAP1 DUP2 MSTORE PUSH1 0x3 PUSH1 0x20 MSTORE PUSH1 0x40 SWAP1 KECCAK256 SLOAD PUSH1 0x60 SWAP1 DUP1 PUSH2 0xC5E JUMPI POP POP PUSH1 0x40 DUP1 MLOAD PUSH1 0x0 DUP2 MSTORE PUSH1 0x20 DUP2 ADD SWAP1 SWAP2 MSTORE SWAP2 SWAP1 POP JUMP JUMPDEST PUSH1 0x40 DUP1 MLOAD PUSH1 0x4 DUP1 DUP3 MSTORE PUSH1 0xA0 DUP3 ADD SWAP1 SWAP3 MSTORE PUSH1 0x0 SWAP2 PUSH1 0x20 DUP3 ADD PUSH1 0x80 DUP1 CALLDATASIZE DUP4 CALLDATACOPY ADD SWAP1 POP POP SWAP1 POP PUSH1 0x0 DUP3 JUMPDEST DUP1 ISZERO PUSH2 0xCD0 JUMPI DUP1 DUP4 DUP4 DUP2 MLOAD DUP2 LT PUSH2 0xC9E JUMPI PUSH2 0xC9E PUSH2 0x1A77 JUMP JUMPDEST PUSH1 0x20 SWAP1 DUP2 MUL SWAP2 SWAP1 SWAP2 ADD ADD MSTORE DUP2 PUSH2 0xCB3 DUP2 PUSH2 0x1AA3 JUMP JUMPDEST PUSH1 0x0 SWAP3 DUP4 MSTORE PUSH1 0x2 PUSH1 0x20 MSTORE PUSH1 0x40 SWAP1 SWAP3 KECCAK256 PUSH1 0x4 ADD SLOAD SWAP2 SWAP3 POP PUSH2 0xC85 SWAP1 POP JUMP JUMPDEST PUSH1 0x0 DUP3 PUSH8 0xFFFFFFFFFFFFFFFF DUP2 GT ISZERO PUSH2 0xCEB JUMPI PUSH2 0xCEB PUSH2 0x1AE3 JUMP JUMPDEST PUSH1 0x40 MLOAD SWAP1 DUP1 DUP3 MSTORE DUP1 PUSH1 0x20 MUL PUSH1 0x20 ADD DUP3 ADD PUSH1 0x40 MSTORE DUP1 ISZERO PUSH2 0xD14 JUMPI DUP2 PUSH1 0x20 ADD PUSH1 0x20 DUP3 MUL DUP1 CALLDATASIZE DUP4 CALLDATACOPY ADD SWAP1 POP JUMPDEST POP SWAP1 POP PUSH1 0x0 JUMPDEST DUP4 DUP2 LT ISZERO PUSH2 0xD6B JUMPI DUP5 DUP2 DUP2 MLOAD DUP2 LT PUSH2 0xD34 JUMPI PUSH2 0xD34 PUSH2 0x1A77 JUMP JUMPDEST PUSH1 0x20 MUL PUSH1 0x20 ADD ADD MLOAD DUP3 DUP3 DUP2 MLOAD DUP2 LT PUSH2 0xD4E JUMPI PUSH2 0xD4E PUSH2 0x1A77 JUMP JUMPDEST PUSH1 0x20 SWAP1 DUP2 MUL SWAP2 SWAP1 SWAP2 ADD ADD MSTORE DUP1 PUSH2 0xD63 DUP2 PUSH2 0x1AA3 JUMP JUMPDEST SWAP2 POP POP PUSH2 0xD1A JUMP JUMPDEST POP SWAP7 SWAP6 POP POP POP POP POP POP JUMP JUMPDEST PUSH2 0xD7E PUSH2 0x141B JUMP JUMPDEST PUSH1 0x1 PUSH1 0x1 PUSH1 0xA0 SHL SUB DUP2 AND PUSH2 0xDC9 JUMPI PUSH1 0x40 MLOAD PUSH3 0x461BCD PUSH1 0xE5 SHL DUP2 MSTORE PUSH1 0x20 PUSH1 0x4 DUP3 ADD MSTORE PUSH1 0x12 PUSH1 0x24 DUP3 ADD MSTORE PUSH18 0x14D0940E881A5B9D985B1A59081D985D5B1D PUSH1 0x72 SHL PUSH1 0x44 DUP3 ADD MSTORE PUSH1 0x64 ADD PUSH2 0x36D JUMP JUMPDEST PUSH1 0x0 DUP3 DUP2 MSTORE PUSH1 0x2 PUSH1 0x20 MSTORE PUSH1 0x40 SWAP1 KECCAK256 PUSH1 0x7 ADD SLOAD PUSH1 0xFF AND PUSH2 0xDFA JUMPI PUSH1 0x40 MLOAD PUSH3 0x461BCD PUSH1 0xE5 SHL DUP2 MSTORE PUSH1 0x4 ADD PUSH2 0x36D SWAP1 PUSH2 0x1AF9 JUMP JUMPDEST PUSH1 0x1 PUSH1 0x1 PUSH1 0xA0 SHL SUB DUP2 AND PUSH1 0x0 SWAP1 DUP2 MSTORE PUSH1 0x3 PUSH1 0x20 MSTORE PUSH1 0x40 SWAP1 KECCAK256 SLOAD ISZERO PUSH2 0xE60 JUMPI PUSH1 0x40 MLOAD PUSH3 0x461BCD PUSH1 0xE5 SHL DUP2 MSTORE PUSH1 0x20 PUSH1 0x4 DUP3 ADD MSTORE PUSH1 0x1A PUSH1 0x24 DUP3 ADD MSTORE PUSH32 0x5342503A207661756C7420616C726561647920696E20706F6F6C000000000000 PUSH1 0x44 DUP3 ADD MSTORE PUSH1 0x64 ADD PUSH2 0x36D JUMP JUMPDEST PUSH1 0x0 DUP3 DUP2 MSTORE PUSH1 0x2 PUSH1 0x20 MSTORE PUSH1 0x40 SWAP1 KECCAK256 PUSH1 0x5 ADD SLOAD PUSH1 0x64 GT PUSH2 0xEB2 JUMPI PUSH1 0x40 MLOAD PUSH3 0x461BCD PUSH1 0xE5 SHL DUP2 MSTORE PUSH1 0x20 PUSH1 0x4 DUP3 ADD MSTORE PUSH1 0xE PUSH1 0x24 DUP3 ADD MSTORE PUSH14 0x14D0940E881C1BDBDB08199D5B1B PUSH1 0x92 SHL PUSH1 0x44 DUP3 ADD MSTORE PUSH1 0x64 ADD PUSH2 0x36D JUMP JUMPDEST PUSH1 0x0 DUP3 DUP2 MSTORE PUSH1 0x2 PUSH1 0x20 SWAP1 DUP2 MSTORE PUSH1 0x40 DUP1 DUP4 KECCAK256 PUSH1 0x5 ADD DUP1 SLOAD PUSH1 0x1 DUP2 ADD DUP3 SSTORE SWAP1 DUP5 MSTORE DUP3 DUP5 KECCAK256 ADD DUP1 SLOAD PUSH1 0x1 PUSH1 0x1 PUSH1 0xA0 SHL SUB NOT AND PUSH1 0x1 PUSH1 0x1 PUSH1 0xA0 SHL SUB DUP7 AND SWAP1 DUP2 OR SWAP1 SWAP2 SSTORE DUP1 DUP5 MSTORE PUSH1 0x3 SWAP1 SWAP3 MSTORE DUP1 DUP4 KECCAK256 DUP6 SWAP1 SSTORE MLOAD DUP5 SWAP3 PUSH32 0x8213BA11BDA1E8E1243581C289127D29DF2100DE6C56445DA238875FB07B5574 SWAP2 LOG3 POP POP JUMP JUMPDEST PUSH2 0xF31 PUSH2 0x141B JUMP JUMPDEST PUSH1 0x1 PUSH1 0x1 PUSH1 0xA0 SHL SUB DUP2 AND PUSH2 0xF7D JUMPI PUSH1 0x40 MLOAD PUSH3 0x461BCD PUSH1 0xE5 SHL DUP2 MSTORE PUSH1 0x20 PUSH1 0x4 DUP3 ADD MSTORE PUSH1 0x13 PUSH1 0x24 DUP3 ADD MSTORE PUSH19 0x5342503A20696E76616C696420706F6C696379 PUSH1 0x68 SHL PUSH1 0x44 DUP3 ADD MSTORE PUSH1 0x64 ADD PUSH2 0x36D JUMP JUMPDEST PUSH1 0x4 DUP1 SLOAD PUSH1 0x1 PUSH1 0x1 PUSH1 0xA0 SHL SUB DUP4 DUP2 AND PUSH1 0x1 PUSH1 0x1 PUSH1 0xA0 SHL SUB NOT DUP4 AND DUP2 OR SWAP1 SWAP4 SSTORE PUSH1 0x40 MLOAD SWAP2 AND SWAP2 SWAP1 DUP3 SWAP1 PUSH32 0xAE617A8A30DD936054D41AF00251620690222493ED7663FE06E1A699B483DA82 SWAP1 PUSH1 0x0 SWAP1 LOG3 POP POP JUMP JUMPDEST PUSH1 0x0 DUP2 DUP2 MSTORE PUSH1 0x2 PUSH1 0x20 MSTORE PUSH1 0x40 DUP2 KECCAK256 PUSH1 0x7 DUP2 ADD SLOAD PUSH1 0xFF AND PUSH2 0x1001 JUMPI PUSH1 0x40 MLOAD PUSH3 0x461BCD PUSH1 0xE5 SHL DUP2 MSTORE PUSH1 0x4 ADD PUSH2 0x36D SWAP1 PUSH2 0x1AF9 JUMP JUMPDEST DUP1 SLOAD PUSH1 0x1 DUP3 ADD SLOAD LT PUSH2 0x1016 JUMPI POP PUSH1 0x0 SWAP3 SWAP2 POP POP JUMP JUMPDEST PUSH1 0x1 DUP2 ADD SLOAD DUP2 SLOAD PUSH2 0x1027 SWAP2 SWAP1 PUSH2 0x1B26 JUMP JUMPDEST SWAP4 SWAP3 POP POP POP JUMP JUMPDEST PUSH2 0x1036 PUSH2 0x141B JUMP JUMPDEST PUSH2 0x1040 PUSH1 0x0 PUSH2 0x161C JUMP JUMPDEST JUMP JUMPDEST PUSH1 0x1 PUSH1 0x1 PUSH1 0xA0 SHL SUB DUP3 AND PUSH1 0x0 SWAP1 DUP2 MSTORE PUSH1 0x3 PUSH1 0x20 MSTORE PUSH1 0x40 DUP2 KECCAK256 SLOAD DUP1 PUSH2 0x106A JUMPI PUSH1 0x0 SWAP2 POP POP PUSH2 0x10B6 JUMP JUMPDEST DUP1 JUMPDEST DUP1 ISZERO PUSH2 0x10AF JUMPI PUSH1 0x0 DUP2 DUP2 MSTORE PUSH1 0x2 PUSH1 0x20 MSTORE PUSH1 0x40 SWAP1 KECCAK256 DUP1 SLOAD PUSH1 0x1 DUP3 ADD SLOAD PUSH2 0x1092 SWAP1 DUP8 SWAP1 PUSH2 0x1AD0 JUMP JUMPDEST GT ISZERO PUSH2 0x10A4 JUMPI PUSH1 0x1 SWAP4 POP POP POP POP PUSH2 0x10B6 JUMP JUMPDEST PUSH1 0x4 ADD SLOAD SWAP1 POP PUSH2 0x106C JUMP JUMPDEST PUSH1 0x0 SWAP3 POP POP POP JUMPDEST SWAP3 SWAP2 POP POP JUMP JUMPDEST PUSH2 0x10C4 PUSH2 0x141B JUMP JUMPDEST PUSH1 0x0 DUP3 DUP2 MSTORE PUSH1 0x2 PUSH1 0x20 MSTORE PUSH1 0x40 SWAP1 KECCAK256 PUSH1 0x7 ADD SLOAD PUSH1 0xFF AND PUSH2 0x111D JUMPI PUSH1 0x40 MLOAD PUSH3 0x461BCD PUSH1 0xE5 SHL DUP2 MSTORE PUSH1 0x20 PUSH1 0x4 DUP3 ADD MSTORE PUSH1 0x15 PUSH1 0x24 DUP3 ADD MSTORE PUSH21 0x14D0940E881C185C995B9D081B9BDD08199BDD5B99 PUSH1 0x5A SHL PUSH1 0x44 DUP3 ADD MSTORE PUSH1 0x64 ADD PUSH2 0x36D JUMP JUMPDEST PUSH1 0x0 DUP2 DUP2 MSTORE PUSH1 0x2 PUSH1 0x20 MSTORE PUSH1 0x40 SWAP1 KECCAK256 PUSH1 0x7 ADD SLOAD PUSH1 0xFF AND PUSH2 0x1175 JUMPI PUSH1 0x40 MLOAD PUSH3 0x461BCD PUSH1 0xE5 SHL DUP2 MSTORE PUSH1 0x20 PUSH1 0x4 DUP3 ADD MSTORE PUSH1 0x14 PUSH1 0x24 DUP3 ADD MSTORE PUSH20 0x14D0940E8818DA1A5B19081B9BDD08199BDD5B99 PUSH1 0x62 SHL PUSH1 0x44 DUP3 ADD MSTORE PUSH1 0x64 ADD PUSH2 0x36D JUMP JUMPDEST PUSH1 0x0 DUP2 DUP2 MSTORE PUSH1 0x2 PUSH1 0x20 MSTORE PUSH1 0x40 SWAP1 KECCAK256 PUSH1 0x4 ADD SLOAD DUP3 EQ PUSH2 0x11C9 JUMPI PUSH1 0x40 MLOAD PUSH3 0x461BCD PUSH1 0xE5 SHL DUP2 MSTORE PUSH1 0x20 PUSH1 0x4 DUP3 ADD MSTORE PUSH1 0x11 PUSH1 0x24 DUP3 ADD MSTORE PUSH17 0x14D0940E881DDC9BDB99C81C185C995B9D PUSH1 0x7A SHL PUSH1 0x44 DUP3 ADD MSTORE PUSH1 0x64 ADD PUSH2 0x36D JUMP JUMPDEST PUSH1 0x0 DUP3 DUP2 MSTORE PUSH1 0x2 PUSH1 0x20 MSTORE PUSH1 0x40 SWAP1 KECCAK256 PUSH1 0x6 ADD SLOAD PUSH1 0x32 GT PUSH2 0x1223 JUMPI PUSH1 0x40 MLOAD PUSH3 0x461BCD PUSH1 0xE5 SHL DUP2 MSTORE PUSH1 0x20 PUSH1 0x4 DUP3 ADD MSTORE PUSH1 0x16 PUSH1 0x24 DUP3 ADD MSTORE PUSH22 0x29A1281D103A37B79036B0B73C9031B434B6323932B7 PUSH1 0x51 SHL PUSH1 0x44 DUP3 ADD MSTORE PUSH1 0x64 ADD PUSH2 0x36D JUMP JUMPDEST PUSH1 0x0 DUP3 DUP2 MSTORE PUSH1 0x2 PUSH1 0x20 SWAP1 DUP2 MSTORE PUSH1 0x40 DUP1 DUP4 KECCAK256 PUSH1 0x6 ADD DUP1 SLOAD PUSH1 0x1 DUP2 ADD DUP3 SSTORE SWAP1 DUP5 MSTORE SWAP2 DUP4 KECCAK256 SWAP1 SWAP2 ADD DUP4 SWAP1 SSTORE MLOAD DUP4 SWAP2 DUP4 SWAP2 PUSH32 0x10A6D0B5EC32EE38C68775452B2D723EF5AE9BD05935E1745C93D611FDFDE4BE SWAP2 SWAP1 LOG3 POP POP JUMP JUMPDEST PUSH2 0x1280 PUSH2 0x141B JUMP JUMPDEST PUSH1 0x1 PUSH1 0x1 PUSH1 0xA0 SHL SUB DUP2 AND PUSH2 0x12E5 JUMPI PUSH1 0x40 MLOAD PUSH3 0x461BCD PUSH1 0xE5 SHL DUP2 MSTORE PUSH1 0x20 PUSH1 0x4 DUP3 ADD MSTORE PUSH1 0x26 PUSH1 0x24 DUP3 ADD MSTORE PUSH32 0x4F776E61626C653A206E6577206F776E657220697320746865207A65726F2061 PUSH1 0x44 DUP3 ADD MSTORE PUSH6 0x646472657373 PUSH1 0xD0 SHL PUSH1 0x64 DUP3 ADD MSTORE PUSH1 0x84 ADD PUSH2 0x36D JUMP JUMPDEST PUSH2 0x12EE DUP2 PUSH2 0x161C JUMP JUMPDEST POP JUMP JUMPDEST PUSH1 0x0 DUP2 DUP2 MSTORE PUSH1 0x2 PUSH1 0x20 MSTORE PUSH1 0x40 DUP2 KECCAK256 PUSH1 0x7 DUP2 ADD SLOAD DUP3 SWAP2 DUP3 SWAP2 DUP3 SWAP2 DUP3 SWAP2 PUSH1 0x60 SWAP2 DUP3 SWAP2 PUSH1 0xFF AND PUSH2 0x1330 JUMPI PUSH1 0x40 MLOAD PUSH3 0x461BCD PUSH1 0xE5 SHL DUP2 MSTORE PUSH1 0x4 ADD PUSH2 0x36D SWAP1 PUSH2 0x1AF9 JUMP JUMPDEST DUP1 SLOAD PUSH1 0x1 DUP3 ADD SLOAD PUSH1 0x2 DUP4 ADD SLOAD PUSH1 0x3 DUP5 ADD SLOAD PUSH1 0x4 DUP6 ADD SLOAD PUSH1 0x5 DUP7 ADD DUP1 SLOAD PUSH1 0x40 DUP1 MLOAD PUSH1 0x20 DUP1 DUP5 MUL DUP3 ADD DUP2 ADD SWAP1 SWAP3 MSTORE DUP3 DUP2 MSTORE PUSH1 0xFF SWAP1 SWAP6 AND SWAP5 PUSH1 0x6 DUP11 ADD SWAP3 SWAP1 SWAP2 DUP5 SWAP2 SWAP1 DUP4 ADD DUP3 DUP3 DUP1 ISZERO PUSH2 0x13A8 JUMPI PUSH1 0x20 MUL DUP3 ADD SWAP2 SWAP1 PUSH1 0x0 MSTORE PUSH1 0x20 PUSH1 0x0 KECCAK256 SWAP1 JUMPDEST DUP2 SLOAD PUSH1 0x1 PUSH1 0x1 PUSH1 0xA0 SHL SUB AND DUP2 MSTORE PUSH1 0x1 SWAP1 SWAP2 ADD SWAP1 PUSH1 0x20 ADD DUP1 DUP4 GT PUSH2 0x138A JUMPI JUMPDEST POP POP POP POP POP SWAP2 POP DUP1 DUP1 SLOAD DUP1 PUSH1 0x20 MUL PUSH1 0x20 ADD PUSH1 0x40 MLOAD SWAP1 DUP2 ADD PUSH1 0x40 MSTORE DUP1 SWAP3 SWAP2 SWAP1 DUP2 DUP2 MSTORE PUSH1 0x20 ADD DUP3 DUP1 SLOAD DUP1 ISZERO PUSH2 0x13FA JUMPI PUSH1 0x20 MUL DUP3 ADD SWAP2 SWAP1 PUSH1 0x0 MSTORE PUSH1 0x20 PUSH1 0x0 KECCAK256 SWAP1 JUMPDEST DUP2 SLOAD DUP2 MSTORE PUSH1 0x20 ADD SWAP1 PUSH1 0x1 ADD SWAP1 DUP1 DUP4 GT PUSH2 0x13E6 JUMPI JUMPDEST POP POP POP POP POP SWAP1 POP SWAP8 POP SWAP8 POP SWAP8 POP SWAP8 POP SWAP8 POP SWAP8 POP SWAP8 POP POP SWAP2 SWAP4 SWAP6 SWAP8 SWAP1 SWAP3 SWAP5 SWAP7 POP JUMP JUMPDEST PUSH1 0x0 SLOAD PUSH1 0x1 PUSH1 0x1 PUSH1 0xA0 SHL SUB AND CALLER EQ PUSH2 0x1040 JUMPI PUSH1 0x40 MLOAD PUSH3 0x461BCD PUSH1 0xE5 SHL DUP2 MSTORE PUSH1 0x20 PUSH1 0x4 DUP3 ADD DUP2 SWAP1 MSTORE PUSH1 0x24 DUP3 ADD MSTORE PUSH32 0x4F776E61626C653A2063616C6C6572206973206E6F7420746865206F776E6572 PUSH1 0x44 DUP3 ADD MSTORE PUSH1 0x64 ADD PUSH2 0x36D JUMP JUMPDEST PUSH1 0x1 DUP2 JUMPDEST DUP1 ISZERO PUSH2 0x1539 JUMPI DUP4 DUP2 SUB PUSH2 0x14CE JUMPI PUSH1 0x40 MLOAD PUSH3 0x461BCD PUSH1 0xE5 SHL DUP2 MSTORE PUSH1 0x20 PUSH1 0x4 DUP3 ADD MSTORE PUSH1 0x17 PUSH1 0x24 DUP3 ADD MSTORE PUSH32 0x5342503A20776F756C6420637265617465206379636C65000000000000000000 PUSH1 0x44 DUP3 ADD MSTORE PUSH1 0x64 ADD PUSH2 0x36D JUMP JUMPDEST DUP2 PUSH2 0x14D8 DUP2 PUSH2 0x1AA3 JUMP JUMPDEST SWAP3 POP POP PUSH1 0x4 DUP3 GT ISZERO PUSH2 0x1522 JUMPI PUSH1 0x40 MLOAD PUSH3 0x461BCD PUSH1 0xE5 SHL DUP2 MSTORE PUSH1 0x20 PUSH1 0x4 DUP3 ADD MSTORE PUSH1 0x13 PUSH1 0x24 DUP3 ADD MSTORE PUSH19 0x14D0940E8819195C1D1A08195E18D959591959 PUSH1 0x6A SHL PUSH1 0x44 DUP3 ADD MSTORE PUSH1 0x64 ADD PUSH2 0x36D JUMP JUMPDEST PUSH1 0x0 SWAP1 DUP2 MSTORE PUSH1 0x2 PUSH1 0x20 MSTORE PUSH1 0x40 SWAP1 KECCAK256 PUSH1 0x4 ADD SLOAD PUSH2 0x1479 JUMP JUMPDEST POP POP POP POP JUMP JUMPDEST PUSH1 0x2 PUSH1 0x1 SLOAD SUB PUSH2 0x1591 JUMPI PUSH1 0x40 MLOAD PUSH3 0x461BCD PUSH1 0xE5 SHL DUP2 MSTORE PUSH1 0x20 PUSH1 0x4 DUP3 ADD MSTORE PUSH1 0x1F PUSH1 0x24 DUP3 ADD MSTORE PUSH32 0x5265656E7472616E637947756172643A207265656E7472616E742063616C6C00 PUSH1 0x44 DUP3 ADD MSTORE PUSH1 0x64 ADD PUSH2 0x36D JUMP JUMPDEST PUSH1 0x2 PUSH1 0x1 SSTORE JUMP JUMPDEST PUSH1 0x0 DUP2 DUP2 MSTORE PUSH1 0x2 PUSH1 0x20 MSTORE PUSH1 0x40 DUP2 KECCAK256 PUSH1 0x3 DUP2 ADD SLOAD SWAP1 SWAP2 SWAP1 PUSH2 0x15BA SWAP1 PUSH1 0xFF AND PUSH2 0x166C JUMP JUMPDEST SWAP1 POP DUP1 DUP3 PUSH1 0x2 ADD SLOAD PUSH2 0x15CC SWAP2 SWAP1 PUSH2 0x1AD0 JUMP JUMPDEST TIMESTAMP LT PUSH2 0x1617 JUMPI PUSH1 0x0 PUSH1 0x1 DUP4 ADD SSTORE TIMESTAMP PUSH1 0x2 DUP4 ADD DUP2 SWAP1 SSTORE PUSH1 0x40 MLOAD SWAP1 DUP2 MSTORE DUP4 SWAP1 PUSH32 0xAFB44B8CA98D7FA0449FA840A169DDBFFEE8FC1E4633A422EA2F3D16ED52CF4B SWAP1 PUSH1 0x20 ADD PUSH1 0x40 MLOAD DUP1 SWAP2 SUB SWAP1 LOG2 JUMPDEST POP POP POP JUMP JUMPDEST PUSH1 0x0 DUP1 SLOAD PUSH1 0x1 PUSH1 0x1 PUSH1 0xA0 SHL SUB DUP4 DUP2 AND PUSH1 0x1 PUSH1 0x1 PUSH1 0xA0 SHL SUB NOT DUP4 AND DUP2 OR DUP5 SSTORE PUSH1 0x40 MLOAD SWAP2 SWAP1 SWAP3 AND SWAP3 DUP4 SWAP2 PUSH32 0x8BE0079C531659141344CD1FD0A4F28419497F9722A3DAAFE3B4186F6B6457E0 SWAP2 SWAP1 LOG3 POP POP JUMP JUMPDEST PUSH1 0x0 DUP1 DUP3 PUSH1 0x2 DUP2 GT ISZERO PUSH2 0x1681 JUMPI PUSH2 0x1681 PUSH2 0x1955 JUMP JUMPDEST SUB PUSH2 0x1690 JUMPI POP PUSH3 0x15180 SWAP2 SWAP1 POP JUMP JUMPDEST PUSH1 0x1 DUP3 PUSH1 0x2 DUP2 GT ISZERO PUSH2 0x16A4 JUMPI PUSH2 0x16A4 PUSH2 0x1955 JUMP JUMPDEST SUB PUSH2 0x16B3 JUMPI POP PUSH3 0x93A80 SWAP2 SWAP1 POP JUMP JUMPDEST POP PUSH3 0x278D00 SWAP2 SWAP1 POP JUMP JUMPDEST DUP3 DUP1 SLOAD DUP3 DUP3 SSTORE SWAP1 PUSH1 0x0 MSTORE PUSH1 0x20 PUSH1 0x0 KECCAK256 SWAP1 DUP2 ADD SWAP3 DUP3 ISZERO PUSH2 0x1712 JUMPI SWAP2 PUSH1 0x20 MUL DUP3 ADD JUMPDEST DUP3 DUP2 GT ISZERO PUSH2 0x1712 JUMPI DUP3 MLOAD DUP3 SLOAD PUSH1 0x1 PUSH1 0x1 PUSH1 0xA0 SHL SUB NOT AND PUSH1 0x1 PUSH1 0x1 PUSH1 0xA0 SHL SUB SWAP1 SWAP2 AND OR DUP3 SSTORE PUSH1 0x20 SWAP1 SWAP3 ADD SWAP2 PUSH1 0x1 SWAP1 SWAP2 ADD SWAP1 PUSH2 0x16DD JUMP JUMPDEST POP PUSH2 0x171E SWAP3 SWAP2 POP PUSH2 0x175D JUMP JUMPDEST POP SWAP1 JUMP JUMPDEST DUP3 DUP1 SLOAD DUP3 DUP3 SSTORE SWAP1 PUSH1 0x0 MSTORE PUSH1 0x20 PUSH1 0x0 KECCAK256 SWAP1 DUP2 ADD SWAP3 DUP3 ISZERO PUSH2 0x1712 JUMPI SWAP2 PUSH1 0x20 MUL DUP3 ADD JUMPDEST DUP3 DUP2 GT ISZERO PUSH2 0x1712 JUMPI DUP3 MLOAD DUP3 SSTORE SWAP2 PUSH1 0x20 ADD SWAP2 SWAP1 PUSH1 0x1 ADD SWAP1 PUSH2 0x1742 JUMP JUMPDEST JUMPDEST DUP1 DUP3 GT ISZERO PUSH2 0x171E JUMPI PUSH1 0x0 DUP2 SSTORE PUSH1 0x1 ADD PUSH2 0x175E JUMP JUMPDEST PUSH1 0x0 DUP1 DUP4 PUSH1 0x1F DUP5 ADD SLT PUSH2 0x1784 JUMPI PUSH1 0x0 DUP1 REVERT JUMPDEST POP DUP2 CALLDATALOAD PUSH8 0xFFFFFFFFFFFFFFFF DUP2 GT ISZERO PUSH2 0x179C JUMPI PUSH1 0x0 DUP1 REVERT JUMPDEST PUSH1 0x20 DUP4 ADD SWAP2 POP DUP4 PUSH1 0x20 DUP3 PUSH1 0x5 SHL DUP6 ADD ADD GT ISZERO PUSH2 0x17B7 JUMPI PUSH1 0x0 DUP1 REVERT JUMPDEST SWAP3 POP SWAP3 SWAP1 POP JUMP JUMPDEST PUSH1 0x0 DUP1 PUSH1 0x0 DUP1 PUSH1 0x0 DUP1 PUSH1 0x0 DUP1 PUSH1 0xC0 DUP10 DUP12 SUB SLT ISZERO PUSH2 0x17DA JUMPI PUSH1 0x0 DUP1 REVERT JUMPDEST DUP9 CALLDATALOAD SWAP8 POP PUSH1 0x20 DUP10 ADD CALLDATALOAD SWAP7 POP PUSH1 0x40 DUP10 ADD CALLDATALOAD SWAP6 POP PUSH1 0x60 DUP10 ADD CALLDATALOAD PUSH1 0x3 DUP2 LT PUSH2 0x17FE JUMPI PUSH1 0x0 DUP1 REVERT JUMPDEST SWAP5 POP PUSH1 0x80 DUP10 ADD CALLDATALOAD PUSH8 0xFFFFFFFFFFFFFFFF DUP1 DUP3 GT ISZERO PUSH2 0x181B JUMPI PUSH1 0x0 DUP1 REVERT JUMPDEST PUSH2 0x1827 DUP13 DUP4 DUP14 ADD PUSH2 0x1772 JUMP JUMPDEST SWAP1 SWAP7 POP SWAP5 POP PUSH1 0xA0 DUP12 ADD CALLDATALOAD SWAP2 POP DUP1 DUP3 GT ISZERO PUSH2 0x1840 JUMPI PUSH1 0x0 DUP1 REVERT JUMPDEST POP PUSH2 0x184D DUP12 DUP3 DUP13 ADD PUSH2 0x1772 JUMP JUMPDEST SWAP10 SWAP13 SWAP9 SWAP12 POP SWAP7 SWAP10 POP SWAP5 SWAP8 SWAP4 SWAP7 SWAP3 SWAP6 SWAP5 POP POP POP JUMP JUMPDEST DUP1 CALLDATALOAD PUSH1 0x1 PUSH1 0x1 PUSH1 0xA0 SHL SUB DUP2 AND DUP2 EQ PUSH2 0x1878 JUMPI PUSH1 0x0 DUP1 REVERT JUMPDEST SWAP2 SWAP1 POP JUMP JUMPDEST PUSH1 0x0 DUP1 PUSH1 0x40 DUP4 DUP6 SUB SLT ISZERO PUSH2 0x1890 JUMPI PUSH1 0x0 DUP1 REVERT JUMPDEST PUSH2 0x1899 DUP4 PUSH2 0x1861 JUMP JUMPDEST SWAP5 PUSH1 0x20 SWAP4 SWAP1 SWAP4 ADD CALLDATALOAD SWAP4 POP POP POP JUMP JUMPDEST PUSH1 0x0 PUSH1 0x20 DUP3 DUP5 SUB SLT ISZERO PUSH2 0x18B9 JUMPI PUSH1 0x0 DUP1 REVERT JUMPDEST PUSH2 0x1027 DUP3 PUSH2 0x1861 JUMP JUMPDEST PUSH1 0x0 DUP2 MLOAD DUP1 DUP5 MSTORE PUSH1 0x20 DUP1 DUP6 ADD SWAP5 POP DUP1 DUP5 ADD PUSH1 0x0 JUMPDEST DUP4 DUP2 LT ISZERO PUSH2 0x18F2 JUMPI DUP2 MLOAD DUP8 MSTORE SWAP6 DUP3 ADD SWAP6 SWAP1 DUP3 ADD SWAP1 PUSH1 0x1 ADD PUSH2 0x18D6 JUMP JUMPDEST POP SWAP5 SWAP6 SWAP5 POP POP POP POP POP JUMP JUMPDEST PUSH1 0x20 DUP2 MSTORE PUSH1 0x0 PUSH2 0x1027 PUSH1 0x20 DUP4 ADD DUP5 PUSH2 0x18C2 JUMP JUMPDEST PUSH1 0x0 DUP1 PUSH1 0x40 DUP4 DUP6 SUB SLT ISZERO PUSH2 0x1923 JUMPI PUSH1 0x0 DUP1 REVERT JUMPDEST DUP3 CALLDATALOAD SWAP2 POP PUSH2 0x1933 PUSH1 0x20 DUP5 ADD PUSH2 0x1861 JUMP JUMPDEST SWAP1 POP SWAP3 POP SWAP3 SWAP1 POP JUMP JUMPDEST PUSH1 0x0 PUSH1 0x20 DUP3 DUP5 SUB SLT ISZERO PUSH2 0x194E JUMPI PUSH1 0x0 DUP1 REVERT JUMPDEST POP CALLDATALOAD SWAP2 SWAP1 POP JUMP JUMPDEST PUSH4 0x4E487B71 PUSH1 0xE0 SHL PUSH1 0x0 MSTORE PUSH1 0x21 PUSH1 0x4 MSTORE PUSH1 0x24 PUSH1 0x0 REVERT JUMPDEST PUSH1 0x3 DUP2 LT PUSH2 0x1989 JUMPI PUSH4 0x4E487B71 PUSH1 0xE0 SHL PUSH1 0x0 MSTORE PUSH1 0x21 PUSH1 0x4 MSTORE PUSH1 0x24 PUSH1 0x0 REVERT JUMPDEST SWAP1 MSTORE JUMP JUMPDEST DUP7 DUP2 MSTORE PUSH1 0x20 DUP2 ADD DUP7 SWAP1 MSTORE PUSH1 0x40 DUP2 ADD DUP6 SWAP1 MSTORE PUSH1 0xC0 DUP2 ADD PUSH2 0x19AF PUSH1 0x60 DUP4 ADD DUP7 PUSH2 0x196B JUMP JUMPDEST DUP4 PUSH1 0x80 DUP4 ADD MSTORE DUP3 ISZERO ISZERO PUSH1 0xA0 DUP4 ADD MSTORE SWAP8 SWAP7 POP POP POP POP POP POP POP JUMP JUMPDEST PUSH1 0x0 DUP1 PUSH1 0x40 DUP4 DUP6 SUB SLT ISZERO PUSH2 0x19DB JUMPI PUSH1 0x0 DUP1 REVERT JUMPDEST POP POP DUP1 CALLDATALOAD SWAP3 PUSH1 0x20 SWAP1 SWAP2 ADD CALLDATALOAD SWAP2 POP JUMP JUMPDEST PUSH1 0x0 PUSH1 0xE0 DUP3 ADD DUP10 DUP4 MSTORE PUSH1 0x20 DUP10 DUP2 DUP6 ADD MSTORE DUP9 PUSH1 0x40 DUP6 ADD MSTORE PUSH2 0x1A0D PUSH1 0x60 DUP6 ADD DUP10 PUSH2 0x196B JUMP JUMPDEST PUSH1 0x80 DUP5 ADD DUP8 SWAP1 MSTORE PUSH1 0xE0 PUSH1 0xA0 DUP6 ADD MSTORE DUP6 MLOAD SWAP2 DUP3 SWAP1 MSTORE DUP1 DUP7 ADD SWAP2 PUSH2 0x100 DUP6 ADD SWAP1 PUSH1 0x0 JUMPDEST DUP2 DUP2 LT ISZERO PUSH2 0x1A53 JUMPI DUP5 MLOAD PUSH1 0x1 PUSH1 0x1 PUSH1 0xA0 SHL SUB AND DUP4 MSTORE SWAP4 DUP4 ADD SWAP4 SWAP2 DUP4 ADD SWAP2 PUSH1 0x1 ADD PUSH2 0x1A2E JUMP JUMPDEST POP POP DUP5 DUP2 SUB PUSH1 0xC0 DUP7 ADD MSTORE PUSH2 0x1A67 DUP2 DUP8 PUSH2 0x18C2 JUMP JUMPDEST SWAP13 SWAP12 POP POP POP POP POP POP POP POP POP POP POP POP JUMP JUMPDEST PUSH4 0x4E487B71 PUSH1 0xE0 SHL PUSH1 0x0 MSTORE PUSH1 0x32 PUSH1 0x4 MSTORE PUSH1 0x24 PUSH1 0x0 REVERT JUMPDEST PUSH4 0x4E487B71 PUSH1 0xE0 SHL PUSH1 0x0 MSTORE PUSH1 0x11 PUSH1 0x4 MSTORE PUSH1 0x24 PUSH1 0x0 REVERT JUMPDEST PUSH1 0x0 PUSH1 0x1 DUP3 ADD PUSH2 0x1AB5 JUMPI PUSH2 0x1AB5 PUSH2 0x1A8D JUMP JUMPDEST POP PUSH1 0x1 ADD SWAP1 JUMP JUMPDEST DUP3 DUP2 MSTORE PUSH1 0x40 DUP2 ADD PUSH2 0x1027 PUSH1 0x20 DUP4 ADD DUP5 PUSH2 0x196B JUMP JUMPDEST DUP1 DUP3 ADD DUP1 DUP3 GT ISZERO PUSH2 0x10B6 JUMPI PUSH2 0x10B6 PUSH2 0x1A8D JUMP JUMPDEST PUSH4 0x4E487B71 PUSH1 0xE0 SHL PUSH1 0x0 MSTORE PUSH1 0x41 PUSH1 0x4 MSTORE PUSH1 0x24 PUSH1 0x0 REVERT JUMPDEST PUSH1 0x20 DUP1 DUP3 MSTORE PUSH1 0x13 SWAP1 DUP3 ADD MSTORE PUSH19 0x14D0940E881C1BDBDB081B9BDD08199BDD5B99 PUSH1 0x6A SHL PUSH1 0x40 DUP3 ADD MSTORE PUSH1 0x60 ADD SWAP1 JUMP JUMPDEST DUP2 DUP2 SUB DUP2 DUP2 GT ISZERO PUSH2 0x10B6 JUMPI PUSH2 0x10B6 PUSH2 0x1A8D JUMP INVALID LOG2 PUSH5 0x6970667358 0x22 SLT KECCAK256 DUP8 ADDMOD STOP PUSH25 0x2849C115C24863ECE1637B4D12675FCEE679E6F1C6DBFD11CE 0x21 DUP13 0xA9 PUSH5 0x736F6C6343 STOP ADDMOD EQ STOP CALLER "},"methodIdentifiers":{"MAX_CHILD_POOLS()":"2d69fd31","MAX_POOL_DEPTH()":"07402bcc","MAX_VAULTS_PER_POOL()":"f01d4121","addChildPool(bytes32,bytes32)":"e1de5c09","addVaultToPool(bytes32,address)":"446a1519","authorizedPolicy()":"e19acc9e","createPool(bytes32,bytes32,uint256,uint8,address[],bytes32[])":"0e7817cd","getPool(bytes32)":"f6c00927","getPoolRemaining(bytes32)":"49559f94","getVaultAncestry(address)":"3ee4522a","getVaultPool(address)":"e28825a4","owner()":"8da5cb5b","pools(bytes32)":"b5217bb4","recordSpend(address,uint256)":"1cfd8ded","renounceOwnership()":"715018a6","setAuthorizedPolicy(address)":"488e66be","transferOwnership(address)":"f2fde38b","vaultToPool(address)":"36a74dd2","wouldExceedBudget(address,uint256)":"ae6fa174"}}}}}