{
  "_format": "hh-sol-artifact-1",
  "contractName": "TaskScheduler",
  "sourceName": "contracts/automation/TaskScheduler.sol",
  "abi": [
    {
      "inputs": [],
      "stateMutability": "nonpayable",
      "type": "constructor"
    },
    {
      "anonymous": false,
      "inputs": [
        {
          "indexed": true,
          "internalType": "address",
          "name": "keeper",
          "type": "address"
        }
      ],
      "name": "KeeperAdded",
      "type": "event"
    },
    {
      "anonymous": false,
      "inputs": [
        {
          "indexed": true,
          "internalType": "address",
          "name": "keeper",
          "type": "address"
        }
      ],
      "name": "KeeperRemoved",
      "type": "event"
    },
    {
      "anonymous": false,
      "inputs": [
        {
          "indexed": false,
          "internalType": "bool",
          "name": "enabled",
          "type": "bool"
        }
      ],
      "name": "KeeperWhitelistChanged",
      "type": "event"
    },
    {
      "anonymous": false,
      "inputs": [
        {
          "indexed": true,
          "internalType": "address",
          "name": "previousOwner",
          "type": "address"
        },
        {
          "indexed": true,
          "internalType": "address",
          "name": "newOwner",
          "type": "address"
        }
      ],
      "name": "OwnershipTransferred",
      "type": "event"
    },
    {
      "anonymous": false,
      "inputs": [
        {
          "indexed": true,
          "internalType": "bytes32",
          "name": "taskId",
          "type": "bytes32"
        },
        {
          "indexed": true,
          "internalType": "address",
          "name": "vault",
          "type": "address"
        },
        {
          "indexed": true,
          "internalType": "address",
          "name": "keyManager",
          "type": "address"
        },
        {
          "indexed": false,
          "internalType": "enum TaskScheduler.TriggerType",
          "name": "triggerType",
          "type": "uint8"
        },
        {
          "indexed": false,
          "internalType": "uint256",
          "name": "nextExecution",
          "type": "uint256"
        },
        {
          "indexed": false,
          "internalType": "uint256",
          "name": "interval",
          "type": "uint256"
        }
      ],
      "name": "TaskCreated",
      "type": "event"
    },
    {
      "anonymous": false,
      "inputs": [
        {
          "indexed": true,
          "internalType": "bytes32",
          "name": "taskId",
          "type": "bytes32"
        }
      ],
      "name": "TaskDisabled",
      "type": "event"
    },
    {
      "anonymous": false,
      "inputs": [
        {
          "indexed": true,
          "internalType": "bytes32",
          "name": "taskId",
          "type": "bytes32"
        }
      ],
      "name": "TaskEnabled",
      "type": "event"
    },
    {
      "anonymous": false,
      "inputs": [
        {
          "indexed": true,
          "internalType": "bytes32",
          "name": "taskId",
          "type": "bytes32"
        },
        {
          "indexed": false,
          "internalType": "uint256",
          "name": "newNextExecution",
          "type": "uint256"
        },
        {
          "indexed": false,
          "internalType": "uint256",
          "name": "executedAt",
          "type": "uint256"
        }
      ],
      "name": "TaskExecuted",
      "type": "event"
    },
    {
      "anonymous": false,
      "inputs": [
        {
          "indexed": true,
          "internalType": "bytes32",
          "name": "taskId",
          "type": "bytes32"
        },
        {
          "indexed": false,
          "internalType": "uint256",
          "name": "newNextExecution",
          "type": "uint256"
        },
        {
          "indexed": false,
          "internalType": "uint256",
          "name": "newInterval",
          "type": "uint256"
        }
      ],
      "name": "TaskUpdated",
      "type": "event"
    },
    {
      "inputs": [],
      "name": "MIN_TIMESTAMP_INTERVAL",
      "outputs": [
        {
          "internalType": "uint256",
          "name": "",
          "type": "uint256"
        }
      ],
      "stateMutability": "view",
      "type": "function"
    },
    {
      "inputs": [
        {
          "internalType": "address",
          "name": "keeper",
          "type": "address"
        }
      ],
      "name": "addKeeper",
      "outputs": [],
      "stateMutability": "nonpayable",
      "type": "function"
    },
    {
      "inputs": [
        {
          "internalType": "uint256",
          "name": "",
          "type": "uint256"
        }
      ],
      "name": "allTaskIds",
      "outputs": [
        {
          "internalType": "bytes32",
          "name": "",
          "type": "bytes32"
        }
      ],
      "stateMutability": "view",
      "type": "function"
    },
    {
      "inputs": [
        {
          "internalType": "bytes32",
          "name": "taskId",
          "type": "bytes32"
        },
        {
          "internalType": "address",
          "name": "vault",
          "type": "address"
        },
        {
          "internalType": "address",
          "name": "keyManager",
          "type": "address"
        },
        {
          "internalType": "bytes",
          "name": "executeCalldata",
          "type": "bytes"
        },
        {
          "internalType": "enum TaskScheduler.TriggerType",
          "name": "triggerType",
          "type": "uint8"
        },
        {
          "internalType": "uint256",
          "name": "nextExecution",
          "type": "uint256"
        },
        {
          "internalType": "uint256",
          "name": "interval",
          "type": "uint256"
        }
      ],
      "name": "createTask",
      "outputs": [
        {
          "internalType": "bytes32",
          "name": "",
          "type": "bytes32"
        }
      ],
      "stateMutability": "nonpayable",
      "type": "function"
    },
    {
      "inputs": [
        {
          "internalType": "bytes32",
          "name": "taskId",
          "type": "bytes32"
        }
      ],
      "name": "disableTask",
      "outputs": [],
      "stateMutability": "nonpayable",
      "type": "function"
    },
    {
      "inputs": [
        {
          "internalType": "bytes32",
          "name": "taskId",
          "type": "bytes32"
        }
      ],
      "name": "enableTask",
      "outputs": [],
      "stateMutability": "nonpayable",
      "type": "function"
    },
    {
      "inputs": [
        {
          "internalType": "bytes32",
          "name": "taskId",
          "type": "bytes32"
        }
      ],
      "name": "executeTask",
      "outputs": [
        {
          "internalType": "bool",
          "name": "success",
          "type": "bool"
        }
      ],
      "stateMutability": "nonpayable",
      "type": "function"
    },
    {
      "inputs": [
        {
          "internalType": "bytes32",
          "name": "taskId",
          "type": "bytes32"
        }
      ],
      "name": "getBlocksUntilExecutable",
      "outputs": [
        {
          "internalType": "int256",
          "name": "",
          "type": "int256"
        }
      ],
      "stateMutability": "view",
      "type": "function"
    },
    {
      "inputs": [],
      "name": "getEligibleTasks",
      "outputs": [
        {
          "internalType": "bytes32[]",
          "name": "",
          "type": "bytes32[]"
        }
      ],
      "stateMutability": "view",
      "type": "function"
    },
    {
      "inputs": [
        {
          "internalType": "bytes32",
          "name": "taskId",
          "type": "bytes32"
        }
      ],
      "name": "getTask",
      "outputs": [
        {
          "internalType": "address",
          "name": "vault",
          "type": "address"
        },
        {
          "internalType": "address",
          "name": "keyManager",
          "type": "address"
        },
        {
          "internalType": "bytes",
          "name": "executeCalldata",
          "type": "bytes"
        },
        {
          "internalType": "enum TaskScheduler.TriggerType",
          "name": "triggerType",
          "type": "uint8"
        },
        {
          "internalType": "uint256",
          "name": "nextExecution",
          "type": "uint256"
        },
        {
          "internalType": "uint256",
          "name": "interval",
          "type": "uint256"
        },
        {
          "internalType": "bool",
          "name": "enabled",
          "type": "bool"
        },
        {
          "internalType": "uint256",
          "name": "createdAt",
          "type": "uint256"
        }
      ],
      "stateMutability": "view",
      "type": "function"
    },
    {
      "inputs": [],
      "name": "getTaskCount",
      "outputs": [
        {
          "internalType": "uint256",
          "name": "",
          "type": "uint256"
        }
      ],
      "stateMutability": "view",
      "type": "function"
    },
    {
      "inputs": [
        {
          "internalType": "uint256",
          "name": "offset",
          "type": "uint256"
        },
        {
          "internalType": "uint256",
          "name": "limit",
          "type": "uint256"
        }
      ],
      "name": "getTaskIds",
      "outputs": [
        {
          "internalType": "bytes32[]",
          "name": "",
          "type": "bytes32[]"
        }
      ],
      "stateMutability": "view",
      "type": "function"
    },
    {
      "inputs": [
        {
          "internalType": "address",
          "name": "vault",
          "type": "address"
        }
      ],
      "name": "getTasksForVault",
      "outputs": [
        {
          "internalType": "bytes32[]",
          "name": "",
          "type": "bytes32[]"
        }
      ],
      "stateMutability": "view",
      "type": "function"
    },
    {
      "inputs": [
        {
          "internalType": "bytes32",
          "name": "taskId",
          "type": "bytes32"
        }
      ],
      "name": "getTimeUntilExecutable",
      "outputs": [
        {
          "internalType": "int256",
          "name": "",
          "type": "int256"
        }
      ],
      "stateMutability": "view",
      "type": "function"
    },
    {
      "inputs": [
        {
          "internalType": "bytes32",
          "name": "taskId",
          "type": "bytes32"
        }
      ],
      "name": "isExecutable",
      "outputs": [
        {
          "internalType": "bool",
          "name": "",
          "type": "bool"
        }
      ],
      "stateMutability": "view",
      "type": "function"
    },
    {
      "inputs": [
        {
          "internalType": "address",
          "name": "",
          "type": "address"
        }
      ],
      "name": "isWhitelistedKeeper",
      "outputs": [
        {
          "internalType": "bool",
          "name": "",
          "type": "bool"
        }
      ],
      "stateMutability": "view",
      "type": "function"
    },
    {
      "inputs": [],
      "name": "keeperWhitelistEnabled",
      "outputs": [
        {
          "internalType": "bool",
          "name": "",
          "type": "bool"
        }
      ],
      "stateMutability": "view",
      "type": "function"
    },
    {
      "inputs": [],
      "name": "owner",
      "outputs": [
        {
          "internalType": "address",
          "name": "",
          "type": "address"
        }
      ],
      "stateMutability": "view",
      "type": "function"
    },
    {
      "inputs": [
        {
          "internalType": "address",
          "name": "keeper",
          "type": "address"
        }
      ],
      "name": "removeKeeper",
      "outputs": [],
      "stateMutability": "nonpayable",
      "type": "function"
    },
    {
      "inputs": [],
      "name": "renounceOwnership",
      "outputs": [],
      "stateMutability": "nonpayable",
      "type": "function"
    },
    {
      "inputs": [
        {
          "internalType": "bool",
          "name": "enabled",
          "type": "bool"
        }
      ],
      "name": "setKeeperWhitelistEnabled",
      "outputs": [],
      "stateMutability": "nonpayable",
      "type": "function"
    },
    {
      "inputs": [
        {
          "internalType": "bytes32",
          "name": "",
          "type": "bytes32"
        }
      ],
      "name": "tasks",
      "outputs": [
        {
          "internalType": "address",
          "name": "vault",
          "type": "address"
        },
        {
          "internalType": "address",
          "name": "keyManager",
          "type": "address"
        },
        {
          "internalType": "bytes",
          "name": "executeCalldata",
          "type": "bytes"
        },
        {
          "internalType": "enum TaskScheduler.TriggerType",
          "name": "triggerType",
          "type": "uint8"
        },
        {
          "internalType": "uint256",
          "name": "nextExecution",
          "type": "uint256"
        },
        {
          "internalType": "uint256",
          "name": "interval",
          "type": "uint256"
        },
        {
          "internalType": "bool",
          "name": "enabled",
          "type": "bool"
        },
        {
          "internalType": "uint256",
          "name": "createdAt",
          "type": "uint256"
        }
      ],
      "stateMutability": "view",
      "type": "function"
    },
    {
      "inputs": [
        {
          "internalType": "address",
          "name": "newOwner",
          "type": "address"
        }
      ],
      "name": "transferOwnership",
      "outputs": [],
      "stateMutability": "nonpayable",
      "type": "function"
    },
    {
      "inputs": [
        {
          "internalType": "bytes32",
          "name": "taskId",
          "type": "bytes32"
        },
        {
          "internalType": "uint256",
          "name": "newNextExecution",
          "type": "uint256"
        },
        {
          "internalType": "uint256",
          "name": "newInterval",
          "type": "uint256"
        }
      ],
      "name": "updateTask",
      "outputs": [],
      "stateMutability": "nonpayable",
      "type": "function"
    }
  ],
  "bytecode": "0x608060405234801561001057600080fd5b5061001a3361002d565b600180556005805460ff1916905561007d565b600080546001600160a01b038381166001600160a01b0319831681178455604051919092169283917f8be0079c531659141344cd1fd0a4f28419497f9722a3daafe3b4186f6b6457e09190a35050565b611e6a8061008c6000396000f3fe608060405234801561001057600080fd5b50600436106101585760003560e01c80639ead9c20116100c3578063e579f5001161007c578063e579f500146102e3578063eed2296f146102f6578063f2fde38b14610309578063f62fd1b41461031c578063f72fbaf31461032f578063f735cffb1461034257600080fd5b80639ead9c201461028d578063be84b8ff146102a0578063c17a340e146102ad578063c3008a18146102b5578063dcf1165c146102c8578063e0e2f8ac146102db57600080fd5b80636ce97452116101155780636ce9745214610210578063715018a61461022357806376c3504b1461022b5780638da5cb5b1461024c5780638e25c184146102675780639cf782cb1461027a57600080fd5b806314ae9f2e1461015d57806315a290351461017257806333659707146101a25780633f20a929146101b55780634032b72b146101ca57806343a4607f146101dd575b600080fd5b61017061016b366004611911565b610355565b005b61018561018036600461192c565b6103f6565b60405161019998979695949392919061197d565b60405180910390f35b6101706101b0366004611a25565b610527565b6101bd610576565b6040516101999190611a47565b6101706101d8366004611911565b6106fb565b6102006101eb366004611911565b60046020526000908152604090205460ff1681565b6040519015158152602001610199565b61017061021e36600461192c565b61079a565b610170610815565b61023e61023936600461192c565b610829565b604051908152602001610199565b6000546040516001600160a01b039091168152602001610199565b6101bd610275366004611a8b565b61084a565b61020061028836600461192c565b610977565b61017061029b36600461192c565b610a12565b6005546102009060ff1681565b60035461023e565b6101bd6102c3366004611911565b610a90565b6102006102d636600461192c565b610c7f565b61023e603c81565b6101856102f136600461192c565b610ed4565b61023e61030436600461192c565b610fb4565b610170610317366004611911565b611078565b61017061032a366004611aad565b6110f1565b61023e61033d366004611ae8565b611290565b61023e61035036600461192c565b611743565b61035d6117f7565b6001600160a01b0381166103ad5760405162461bcd60e51b81526020600482015260126024820152712a299d1034b73b30b634b21035b2b2b832b960711b60448201526064015b60405180910390fd5b6001600160a01b038116600081815260046020526040808220805460ff19169055517fa7a775c2c8141f7985c111748ec31c11e5e44b83528e105c8d1d4e8e6b81cf809190a250565b6000806060600080600080600080600260008b81526020019081526020016000209050806007015460000361043d5760405162461bcd60e51b81526004016103a490611ba9565b80546001820154600383015460048401546005850154600686015460078701546002880180546001600160a01b039889169890971696909560ff908116959493169190869061048b90611bd5565b80601f01602080910402602001604051908101604052809291908181526020018280546104b790611bd5565b80156105045780601f106104d957610100808354040283529160200191610504565b820191906000526020600020905b8154815290600101906020018083116104e757829003601f168201915b505050505095509850985098509850985098509850985050919395975091939597565b61052f6117f7565b6005805460ff19168215159081179091556040519081527f8a2a5a5c152a531745a567e59f2846185d05cf537b7be456a383c74955cba9e19060200160405180910390a150565b60035460609060009067ffffffffffffffff81111561059757610597611c0f565b6040519080825280602002602001820160405280156105c0578160200160208202803683370190505b5090506000805b600354811015610657576105f7600382815481106105e7576105e7611c25565b9060005260206000200154610977565b15610645576003818154811061060f5761060f611c25565b906000526020600020015483838151811061062c5761062c611c25565b60209081029190910101528161064181611c51565b9250505b8061064f81611c51565b9150506105c7565b5060008167ffffffffffffffff81111561067357610673611c0f565b60405190808252806020026020018201604052801561069c578160200160208202803683370190505b50905060005b828110156106f3578381815181106106bc576106bc611c25565b60200260200101518282815181106106d6576106d6611c25565b6020908102919091010152806106eb81611c51565b9150506106a2565b509392505050565b6107036117f7565b6001600160a01b03811661074e5760405162461bcd60e51b81526020600482015260126024820152712a299d1034b73b30b634b21035b2b2b832b960711b60448201526064016103a4565b6001600160a01b038116600081815260046020526040808220805460ff19166001179055517f1584773458d98c71b34a270ee1100b3a42889bf91e3b7a858563b684c24d838e9190a250565b6107a26117f7565b60008181526002602052604081206007015490036107d25760405162461bcd60e51b81526004016103a490611ba9565b600081815260026020526040808220600601805460ff191690555182917f31219462438a97abe5612cdbee5723ba65421eef031842c40cf911b756ca410d91a250565b61081d6117f7565b6108276000611851565b565b6003818154811061083957600080fd5b600091825260209091200154905081565b60035460609083108061085d5750600354155b61089e5760405162461bcd60e51b81526020600482015260126024820152711514ce881a5b9d985b1a59081bd9999cd95d60721b60448201526064016103a4565b60035482906108ad8286611c6a565b11156108c4576003546108c1908590611c7d565b90505b60008167ffffffffffffffff8111156108df576108df611c0f565b604051908082528060200260200182016040528015610908578160200160208202803683370190505b50905060005b8281101561096c5760036109228288611c6a565b8154811061093257610932611c25565b906000526020600020015482828151811061094f5761094f611c25565b60209081029190910101528061096481611c51565b91505061090e565b509150505b92915050565b6000818152600260205260408120600681015460ff1661099a5750600092915050565b80600701546000036109af5750600092915050565b6000600382015460ff1660018111156109ca576109ca611945565b036109dc576004015442101592915050565b6001600382015460ff1660018111156109f7576109f7611945565b03610a09576004015443101592915050565b50600092915050565b610a1a6117f7565b6000818152600260205260408120600701549003610a4a5760405162461bcd60e51b81526004016103a490611ba9565b600081815260026020526040808220600601805460ff191660011790555182917f5f1b8d2e6206b6838995947fc878ae5e593e18036d66662d1f243ef3791e29b491a250565b60606001600160a01b038216610adc5760405162461bcd60e51b81526020600482015260116024820152701514ce881a5b9d985b1a59081d985d5b1d607a1b60448201526064016103a4565b60035460009067ffffffffffffffff811115610afa57610afa611c0f565b604051908082528060200260200182016040528015610b23578160200160208202803683370190505b5090506000805b600354811015610bda57846001600160a01b03166002600060038481548110610b5557610b55611c25565b600091825260208083209091015483528201929092526040019020546001600160a01b031603610bc85760038181548110610b9257610b92611c25565b9060005260206000200154838381518110610baf57610baf611c25565b602090810291909101015281610bc481611c51565b9250505b80610bd281611c51565b915050610b2a565b5060008167ffffffffffffffff811115610bf657610bf6611c0f565b604051908082528060200260200182016040528015610c1f578160200160208202803683370190505b50905060005b82811015610c7657838181518110610c3f57610c3f611c25565b6020026020010151828281518110610c5957610c59611c25565b602090810291909101015280610c6e81611c51565b915050610c25565b50949350505050565b6000610c896118a1565b60008281526002602052604081206007810154909103610cbb5760405162461bcd60e51b81526004016103a490611ba9565b600681015460ff16610d035760405162461bcd60e51b81526020600482015260116024820152701514ce881d185cdac8191a5cd8589b1959607a1b60448201526064016103a4565b60055460ff1615610d6d573360009081526004602052604090205460ff16610d6d5760405162461bcd60e51b815260206004820152601a60248201527f54533a206b6565706572206e6f742077686974656c697374656400000000000060448201526064016103a4565b610d7683610977565b610dbb5760405162461bcd60e51b81526020600482015260166024820152751514ce881b9bdd08195e1958dd5d18589b19481e595d60521b60448201526064016103a4565b8060050154816004016000828254610dd39190611c6a565b909155505060018101546040516001600160a01b0390911690610dfa906002840190611c90565b6000604051808303816000865af19150503d8060008114610e37576040519150601f19603f3d011682016040523d82523d6000602084013e610e3c565b606091505b50508092505081610e865760405162461bcd60e51b81526020600482015260146024820152731514ce88195e1958dd5d1a5bdb8819985a5b195960621b60448201526064016103a4565b60048101546040805191825242602083015284917f1f1a39b4b27b1f6d1703804123070f5acf2ee64053574f7f119052a02865a35a910160405180910390a250610ecf60018055565b919050565b60026020819052600091825260409091208054600182015492820180546001600160a01b03928316949092169291610f0b90611bd5565b80601f0160208091040260200160405190810160405280929190818152602001828054610f3790611bd5565b8015610f845780601f10610f5957610100808354040283529160200191610f84565b820191906000526020600020905b815481529060010190602001808311610f6757829003601f168201915b505050506003830154600484015460058501546006860154600790960154949560ff938416959294509092169088565b600081815260026020526040812060078101548203610fe55760405162461bcd60e51b81526004016103a490611ba9565b6000600382015460ff16600181111561100057611000611945565b1461104d5760405162461bcd60e51b815260206004820152601860248201527f54533a206e6f7420612074696d657374616d70207461736b000000000000000060448201526064016103a4565b806004015442106110615750600092915050565b4281600401546110719190611c7d565b9392505050565b6110806117f7565b6001600160a01b0381166110e55760405162461bcd60e51b815260206004820152602660248201527f4f776e61626c653a206e6577206f776e657220697320746865207a65726f206160448201526564647265737360d01b60648201526084016103a4565b6110ee81611851565b50565b6110f96117f7565b60008381526002602052604081206007015490036111295760405162461bcd60e51b81526004016103a490611ba9565b600082116111715760405162461bcd60e51b81526020600482015260156024820152742a299d1034b73b30b634b21032bc32b1baba34b7b760591b60448201526064016103a4565b600081116111b85760405162461bcd60e51b81526020600482015260146024820152731514ce881a5b9d985b1a59081a5b9d195c9d985b60621b60448201526064016103a4565b60008381526002602052604081206003015460ff1660018111156111de576111de611945565b0361123457603c8110156112345760405162461bcd60e51b815260206004820181905260248201527f54533a20696e74657276616c2062656c6f77206d696e696d756d20283630732960448201526064016103a4565b60008381526002602090815260409182902060048101859055600501839055815184815290810183905284917fd1530ce534a8c2beaea77a65ae6ad931e29c84727381c531cdfb47f2889ebe63910160405180910390a2505050565b600061129a6117f7565b886112dc5760405162461bcd60e51b81526020600482015260126024820152711514ce881a5b9d985b1a59081d185cdad25960721b60448201526064016103a4565b6000898152600260205260409020600701541561133b5760405162461bcd60e51b815260206004820152601760248201527f54533a207461736b20616c72656164792065786973747300000000000000000060448201526064016103a4565b6001600160a01b0388166113855760405162461bcd60e51b81526020600482015260116024820152701514ce881a5b9d985b1a59081d985d5b1d607a1b60448201526064016103a4565b6001600160a01b0387166113d45760405162461bcd60e51b81526020600482015260166024820152752a299d1034b73b30b634b21035b2bca6b0b730b3b2b960511b60448201526064016103a4565b846114165760405162461bcd60e51b815260206004820152601260248201527154533a20656d7074792063616c6c6461746160701b60448201526064016103a4565b6000821161145d5760405162461bcd60e51b81526020600482015260146024820152731514ce881a5b9d985b1a59081a5b9d195c9d985b60621b60448201526064016103a4565b600084600181111561147157611471611945565b0361151457600083116114be5760405162461bcd60e51b8152602060048201526015602482015274054533a20696e76616c69642074696d657374616d7605c1b60448201526064016103a4565b603c82101561150f5760405162461bcd60e51b815260206004820181905260248201527f54533a20696e74657276616c2062656c6f77206d696e696d756d20283630732960448201526064016103a4565b611564565b600083116115645760405162461bcd60e51b815260206004820152601860248201527f54533a20696e76616c696420626c6f636b206e756d626572000000000000000060448201526064016103a4565b604051806101000160405280896001600160a01b03168152602001886001600160a01b0316815260200187878080601f0160208091040260200160405190810160405280939291908181526020018383808284376000920191909152505050908252506020018560018111156115dc576115dc611945565b8152602080820186905260408083018690526001606084018190524260809094019390935260008d8152600280845290829020855181546001600160a01b03199081166001600160a01b03928316178355948701519582018054909516951694909417909255830151908201906116539082611d55565b50606082015160038201805460ff19166001838181111561167657611676611945565b02179055506080820151600482015560a0820151600582015560c082015160068201805460ff191691151591909117905560e090910151600790910155600380546001810182556000919091527fc2575a0e9e593c00f959f8c92f12db2869c3395a3b0502d05e2516446f71f85b018990556040516001600160a01b0388811691908a16908b907f2f3992dc0eac82312f2c9831f613833b5c18d4353f44e00888de2a0987381f229061172e90899089908990611e15565b60405180910390a45096979650505050505050565b6000818152600260205260408120600781015482036117745760405162461bcd60e51b81526004016103a490611ba9565b6001600382015460ff16600181111561178f5761178f611945565b146117d35760405162461bcd60e51b815260206004820152601460248201527354533a206e6f74206120626c6f636b207461736b60601b60448201526064016103a4565b806004015443106117e75750600092915050565b4381600401546110719190611c7d565b6000546001600160a01b031633146108275760405162461bcd60e51b815260206004820181905260248201527f4f776e61626c653a2063616c6c6572206973206e6f7420746865206f776e657260448201526064016103a4565b600080546001600160a01b038381166001600160a01b0319831681178455604051919092169283917f8be0079c531659141344cd1fd0a4f28419497f9722a3daafe3b4186f6b6457e09190a35050565b6002600154036118f35760405162461bcd60e51b815260206004820152601f60248201527f5265656e7472616e637947756172643a207265656e7472616e742063616c6c0060448201526064016103a4565b6002600155565b80356001600160a01b0381168114610ecf57600080fd5b60006020828403121561192357600080fd5b611071826118fa565b60006020828403121561193e57600080fd5b5035919050565b634e487b7160e01b600052602160045260246000fd5b6002811061197957634e487b7160e01b600052602160045260246000fd5b9052565b6001600160a01b03898116825288166020808301919091526101006040830181905288519083018190526000918291905b818310156119cd578a83018101518584016101200152918201916119ae565b506101209150600082828601015281601f19601f830116850101925050506119f8606083018861195b565b8560808301528460a0830152611a1260c083018515159052565b8260e08301529998505050505050505050565b600060208284031215611a3757600080fd5b8135801515811461107157600080fd5b6020808252825182820181905260009190848201906040850190845b81811015611a7f57835183529284019291840191600101611a63565b50909695505050505050565b60008060408385031215611a9e57600080fd5b50508035926020909101359150565b600080600060608486031215611ac257600080fd5b505081359360208301359350604090920135919050565b803560028110610ecf57600080fd5b60008060008060008060008060e0898b031215611b0457600080fd5b88359750611b1460208a016118fa565b9650611b2260408a016118fa565b9550606089013567ffffffffffffffff80821115611b3f57600080fd5b818b0191508b601f830112611b5357600080fd5b813581811115611b6257600080fd5b8c6020828501011115611b7457600080fd5b602083019750809650505050611b8c60808a01611ad9565b925060a0890135915060c089013590509295985092959890939650565b6020808252601290820152711514ce881d185cdac81b9bdd08199bdd5b9960721b604082015260600190565b600181811c90821680611be957607f821691505b602082108103611c0957634e487b7160e01b600052602260045260246000fd5b50919050565b634e487b7160e01b600052604160045260246000fd5b634e487b7160e01b600052603260045260246000fd5b634e487b7160e01b600052601160045260246000fd5b600060018201611c6357611c63611c3b565b5060010190565b8082018082111561097157610971611c3b565b8181038181111561097157610971611c3b565b6000808354611c9e81611bd5565b60018281168015611cb65760018114611ccb57611cfa565b60ff1984168752821515830287019450611cfa565b8760005260208060002060005b85811015611cf15781548a820152908401908201611cd8565b50505082870194505b50929695505050505050565b601f821115611d5057600081815260208120601f850160051c81016020861015611d2d5750805b601f850160051c820191505b81811015611d4c57828155600101611d39565b5050505b505050565b815167ffffffffffffffff811115611d6f57611d6f611c0f565b611d8381611d7d8454611bd5565b84611d06565b602080601f831160018114611db85760008415611da05750858301515b600019600386901b1c1916600185901b178555611d4c565b600085815260208120601f198616915b82811015611de757888601518255948401946001909101908401611dc8565b5085821015611e055787850151600019600388901b60f8161c191681555b5050505050600190811b01905550565b60608101611e23828661195b565b60208201939093526040015291905056fea2646970667358221220d04518d0357abc80c902bea0961500cebc0c3cf1a3a2de7f128b876464b6555564736f6c63430008140033",
  "linkReferences": {},
  "deployedLinkReferences": {}
}