{
  "_format": "hh-sol-artifact-1",
  "contractName": "TemplateFactory",
  "sourceName": "contracts/templates/TemplateFactory.sol",
  "abi": [
    {
      "inputs": [
        {
          "internalType": "address",
          "name": "_registry",
          "type": "address"
        }
      ],
      "stateMutability": "nonpayable",
      "type": "constructor"
    },
    {
      "inputs": [
        {
          "internalType": "bytes32",
          "name": "templateId",
          "type": "bytes32"
        }
      ],
      "name": "UnknownTemplate",
      "type": "error"
    },
    {
      "anonymous": false,
      "inputs": [
        {
          "indexed": true,
          "internalType": "bytes32",
          "name": "templateId",
          "type": "bytes32"
        },
        {
          "indexed": true,
          "internalType": "address",
          "name": "owner",
          "type": "address"
        },
        {
          "indexed": true,
          "internalType": "address",
          "name": "safe",
          "type": "address"
        },
        {
          "indexed": false,
          "internalType": "string",
          "name": "label",
          "type": "string"
        }
      ],
      "name": "TemplateApplied",
      "type": "event"
    },
    {
      "inputs": [
        {
          "components": [
            {
              "internalType": "bytes32",
              "name": "templateId",
              "type": "bytes32"
            },
            {
              "internalType": "uint256",
              "name": "customBudget",
              "type": "uint256"
            },
            {
              "internalType": "uint256",
              "name": "customExpiration",
              "type": "uint256"
            },
            {
              "internalType": "address[]",
              "name": "customMerchants",
              "type": "address[]"
            },
            {
              "internalType": "string",
              "name": "customLabel",
              "type": "string"
            }
          ],
          "internalType": "struct TemplateFactory.TemplateParams",
          "name": "tp",
          "type": "tuple"
        },
        {
          "internalType": "address[]",
          "name": "agents",
          "type": "address[]"
        },
        {
          "internalType": "uint256[]",
          "name": "agentBudgets",
          "type": "uint256[]"
        }
      ],
      "name": "createFromTemplate",
      "outputs": [
        {
          "components": [
            {
              "internalType": "address",
              "name": "safe",
              "type": "address"
            },
            {
              "internalType": "address",
              "name": "keyManager",
              "type": "address"
            },
            {
              "internalType": "address",
              "name": "policyEngine",
              "type": "address"
            },
            {
              "internalType": "string",
              "name": "label",
              "type": "string"
            }
          ],
          "internalType": "struct AgentVaultRegistry.VaultRecord",
          "name": "record",
          "type": "tuple"
        }
      ],
      "stateMutability": "nonpayable",
      "type": "function"
    },
    {
      "inputs": [
        {
          "internalType": "bytes32",
          "name": "templateId",
          "type": "bytes32"
        }
      ],
      "name": "getTemplateName",
      "outputs": [
        {
          "internalType": "string",
          "name": "",
          "type": "string"
        }
      ],
      "stateMutability": "pure",
      "type": "function"
    },
    {
      "inputs": [],
      "name": "registry",
      "outputs": [
        {
          "internalType": "contract AgentVaultRegistry",
          "name": "",
          "type": "address"
        }
      ],
      "stateMutability": "view",
      "type": "function"
    }
  ],
  "bytecode": "0x60a060405234801561001057600080fd5b506040516110cb3803806110cb83398101604081905261002f9161008e565b6001600160a01b03811661007d5760405162461bcd60e51b815260206004820152601160248201527054463a207a65726f20726567697374727960781b604482015260640160405180910390fd5b6001600160a01b03166080526100be565b6000602082840312156100a057600080fd5b81516001600160a01b03811681146100b757600080fd5b9392505050565b608051610fec6100df60003960008181604b01526104230152610fec6000f3fe608060405234801561001057600080fd5b50600436106100415760003560e01c80637b10399914610046578063ab75e5541461008a578063f8d1f01a146100aa575b600080fd5b61006d7f000000000000000000000000000000000000000000000000000000000000000081565b6040516001600160a01b0390911681526020015b60405180910390f35b61009d610098366004610a10565b6100ca565b6040516100819190610a79565b6100bd6100b8366004610adf565b6100db565b6040516100819190610b7c565b60606100d582610505565b92915050565b604080516080810182526000808252602082018190529181018290526060808201529061010887356106c6565b905060208701351561011c57602087013581525b60408701351561013157604087013560608201525b60006101406060890189610bcb565b9050111561018c576101556060880188610bcb565b8080602002602001604051908101604052809392919081815260200183836020028082843760009201919091525050505060c08201525b600061019b6080890189610c15565b905011156101ea576101b06080880188610c15565b8080601f01602080910402602001604051908101604052809392919081815260200183838082843760009201919091525050505060e08201525b8215806101f657508285145b6102475760405162461bcd60e51b815260206004820181905260248201527f54463a206167656e7442756467657473206c656e677468206d69736d6174636860448201526064015b60405180910390fd5b60005b8581101561039d57600087878381811061026657610266610c5c565b905060200201602081019061027b9190610c8a565b6001600160a01b0316036102ca5760405162461bcd60e51b815260206004820152601660248201527554463a207a65726f206167656e74206164647265737360501b604482015260640161023e565b60005b8181101561038a578787828181106102e7576102e7610c5c565b90506020020160208101906102fc9190610c8a565b6001600160a01b031688888481811061031757610317610c5c565b905060200201602081019061032c9190610c8a565b6001600160a01b0316036103785760405162461bcd60e51b815260206004820152601360248201527215118e88191d5c1b1a58d85d19481859d95b9d606a1b604482015260640161023e565b8061038281610cbd565b9150506102cd565b508061039581610cbd565b91505061024a565b5085858080602002602001604051908101604052809392919081815260200183836020028082843760009201919091525050505060808201526040805160208086028281018201909352858252909186918691829185019084908082843760009201919091525050505060a0820152604051631ed87ce360e21b81526001600160a01b037f00000000000000000000000000000000000000000000000000000000000000001690637b61f38c9061045a9033908590600401610d6c565b6000604051808303816000875af1158015610479573d6000803e3d6000fd5b505050506040513d6000823e601f3d908101601f191682016040526104a19190810190610ea9565b915081600001516001600160a01b0316336001600160a01b031688600001357fcfb79dcf3403b40b274f543151e4022f0b6be0e8187585446748ddbbf8f020478460e001516040516104f39190610a79565b60405180910390a45095945050505050565b60607f0b398661f2d6aee26af5931f149aa432d07d41c1ed3f14b51861ccc4a2e97c0d820361055757505060408051808201909152600d81526c11dc9bd8d95c9e4815985d5b1d609a1b602082015290565b7faa0063150b0abc5bc557f00a80bac4aa257dc3c19fb3002877881cc974b5766082036105ac57505060408051808201909152601281527114dd589cd8dc9a5c1d1a5bdb8815985d5b1d60721b602082015290565b7f99a093f7eda0731507f121720316f9b6efb24d275b584c12ff09a3bf6d7b9e4482036105fd57505060408051808201909152600e81526d14dd1c985d1959de4815985d5b1d60921b602082015290565b7fc3c902bff13ebe20491088e4c58d40380cd87aca0d3e20f5cab21f10d8636334820361064d57505060408051808201909152600d81526c14185e5c9bdb1b0815985d5b1d609a1b602082015290565b7f5c0d3f445d821da8879be35779c8149f89e311686a763d78577896ab034a0d46820361069a57505060408051808201909152600a81526915195cdd0815985d5b1d60b21b602082015290565b505060408051808201909152601081526f556e6b6e6f776e2054656d706c61746560801b602082015290565b61071860408051610100810190915260008082526020820190815260200160006001600160a01b0316815260200160008152602001606081526020016060815260200160608152602001606081525090565b7f0b398661f2d6aee26af5931f149aa432d07d41c1ed3f14b51861ccc4a2e97c0d82036107ad5768056bc75e2d63100000815260016020820152600060408201526107664262093a80610fa3565b606082015260408051600081526020808201835260c08401919091528151808301909252600d82526c11dc9bd8d95c9e4815985d5b1d609a1b9082015260e0820152919050565b7faa0063150b0abc5bc557f00a80bac4aa257dc3c19fb3002877881cc974b57660820361084857681b1ae4d6e2ef500000815260026020820152600060408201526107fc426301e13380610fa3565b606082015260408051600081526020808201835260c08401919091528151808301909252601282527114dd589cd8dc9a5c1d1a5bdb8815985d5b1d60721b9082015260e0820152919050565b7f99a093f7eda0731507f121720316f9b6efb24d275b584c12ff09a3bf6d7b9e4482036108d857683635c9adc5dea000008152600160208201819052506000604082810182905260608301829052805182815260208101909152905060c082015260408051808201909152600e81526d14dd1c985d1959de4815985d5b1d60921b602082015260e0820152919050565b7fc3c902bff13ebe20491088e4c58d40380cd87aca0d3e20f5cab21f10d863633482036109685769021e19e0c9bab24000008152600260208201819052506000604082810182905260608301829052805182815260208101909152905060c082015260408051808201909152600d81526c14185e5c9bdb1b0815985d5b1d609a1b602082015260e0820152919050565b7f5c0d3f445d821da8879be35779c8149f89e311686a763d78577896ab034a0d4682036109f457680ad78ebc5ac62000008152600160208201819052506000604082810182905260608301829052805182815260208101909152905060c082015260408051808201909152600a81526915195cdd0815985d5b1d60b21b602082015260e0820152919050565b6040516335ee7b4d60e21b81526004810183905260240161023e565b600060208284031215610a2257600080fd5b5035919050565b60005b83811015610a44578181015183820152602001610a2c565b50506000910152565b60008151808452610a65816020860160208601610a29565b601f01601f19169290920160200192915050565b602081526000610a8c6020830184610a4d565b9392505050565b60008083601f840112610aa557600080fd5b50813567ffffffffffffffff811115610abd57600080fd5b6020830191508360208260051b8501011115610ad857600080fd5b9250929050565b600080600080600060608688031215610af757600080fd5b853567ffffffffffffffff80821115610b0f57600080fd5b9087019060a0828a031215610b2357600080fd5b90955060208701359080821115610b3957600080fd5b610b4589838a01610a93565b90965094506040880135915080821115610b5e57600080fd5b50610b6b88828901610a93565b969995985093965092949392505050565b60208152600060018060a01b03808451166020840152806020850151166040840152806040850151166060840152506060830151608080840152610bc360a0840182610a4d565b949350505050565b6000808335601e19843603018112610be257600080fd5b83018035915067ffffffffffffffff821115610bfd57600080fd5b6020019150600581901b3603821315610ad857600080fd5b6000808335601e19843603018112610c2c57600080fd5b83018035915067ffffffffffffffff821115610c4757600080fd5b602001915036819003821315610ad857600080fd5b634e487b7160e01b600052603260045260246000fd5b6001600160a01b0381168114610c8757600080fd5b50565b600060208284031215610c9c57600080fd5b8135610a8c81610c72565b634e487b7160e01b600052601160045260246000fd5b600060018201610ccf57610ccf610ca7565b5060010190565b60038110610cf457634e487b7160e01b600052602160045260246000fd5b9052565b600081518084526020808501945080840160005b83811015610d315781516001600160a01b031687529582019590820190600101610d0c565b509495945050505050565b600081518084526020808501945080840160005b83811015610d3157815187529582019590820190600101610d50565b60018060a01b0383168152604060208201528151604082015260006020830151610d996060840182610cd6565b5060408301516001600160a01b038116608084015250606083015160a083015260808301516101008060c0850152610dd5610140850183610cf8565b915060a0850151603f19808685030160e0870152610df38483610d3c565b935060c08701519150808685030183870152610e0f8483610cf8565b935060e0870151925080868503016101208701525050610e2f8282610a4d565b9695505050505050565b634e487b7160e01b600052604160045260246000fd5b6040516080810167ffffffffffffffff81118282101715610e7257610e72610e39565b60405290565b604051601f8201601f1916810167ffffffffffffffff81118282101715610ea157610ea1610e39565b604052919050565b60006020808385031215610ebc57600080fd5b825167ffffffffffffffff80821115610ed457600080fd5b9084019060808287031215610ee857600080fd5b610ef0610e4f565b8251610efb81610c72565b815282840151610f0a81610c72565b818501526040830151610f1c81610c72565b6040820152606083015182811115610f3357600080fd5b80840193505086601f840112610f4857600080fd5b825182811115610f5a57610f5a610e39565b610f6c601f8201601f19168601610e78565b92508083528785828601011115610f8257600080fd5b610f9181868501878701610a29565b50606081019190915295945050505050565b808201808211156100d5576100d5610ca756fea2646970667358221220c9d5717fbe729421a722ab0ad3e87a90ede1aaeb9293c4889fc7877320a3ff0764736f6c63430008140033",
  "linkReferences": {},
  "deployedLinkReferences": {}
}