{
  "_format": "hh-sol-artifact-1",
  "contractName": "LSP9Vault",
  "sourceName": "@lukso/lsp9-contracts/contracts/LSP9Vault.sol",
  "abi": [
    {
      "inputs": [
        {
          "internalType": "address",
          "name": "newOwner",
          "type": "address"
        }
      ],
      "stateMutability": "payable",
      "type": "constructor"
    },
    {
      "inputs": [],
      "name": "ERC725X_ContractDeploymentFailed",
      "type": "error"
    },
    {
      "inputs": [],
      "name": "ERC725X_CreateOperationsRequireEmptyRecipientAddress",
      "type": "error"
    },
    {
      "inputs": [],
      "name": "ERC725X_ExecuteParametersEmptyArray",
      "type": "error"
    },
    {
      "inputs": [],
      "name": "ERC725X_ExecuteParametersLengthMismatch",
      "type": "error"
    },
    {
      "inputs": [
        {
          "internalType": "uint256",
          "name": "balance",
          "type": "uint256"
        },
        {
          "internalType": "uint256",
          "name": "value",
          "type": "uint256"
        }
      ],
      "name": "ERC725X_InsufficientBalance",
      "type": "error"
    },
    {
      "inputs": [],
      "name": "ERC725X_MsgValueDisallowedInStaticCall",
      "type": "error"
    },
    {
      "inputs": [],
      "name": "ERC725X_NoContractBytecodeProvided",
      "type": "error"
    },
    {
      "inputs": [
        {
          "internalType": "uint256",
          "name": "operationTypeProvided",
          "type": "uint256"
        }
      ],
      "name": "ERC725X_UnknownOperationType",
      "type": "error"
    },
    {
      "inputs": [],
      "name": "ERC725Y_DataKeysValuesLengthMismatch",
      "type": "error"
    },
    {
      "inputs": [],
      "name": "ERC725Y_MsgValueDisallowed",
      "type": "error"
    },
    {
      "inputs": [
        {
          "internalType": "address",
          "name": "caller",
          "type": "address"
        }
      ],
      "name": "LSP14CallerNotPendingOwner",
      "type": "error"
    },
    {
      "inputs": [],
      "name": "LSP14CannotTransferOwnershipToSelf",
      "type": "error"
    },
    {
      "inputs": [],
      "name": "LSP14MustAcceptOwnershipInSeparateTransaction",
      "type": "error"
    },
    {
      "inputs": [
        {
          "internalType": "uint256",
          "name": "renounceOwnershipStart",
          "type": "uint256"
        },
        {
          "internalType": "uint256",
          "name": "renounceOwnershipEnd",
          "type": "uint256"
        }
      ],
      "name": "LSP14NotInRenounceOwnershipInterval",
      "type": "error"
    },
    {
      "inputs": [
        {
          "internalType": "bytes32",
          "name": "dataKey",
          "type": "bytes32"
        }
      ],
      "name": "LSP1DelegateNotAllowedToSetDataKey",
      "type": "error"
    },
    {
      "inputs": [
        {
          "internalType": "bytes4",
          "name": "functionSelector",
          "type": "bytes4"
        }
      ],
      "name": "NoExtensionFoundForFunctionSelector",
      "type": "error"
    },
    {
      "inputs": [
        {
          "internalType": "address",
          "name": "callerAddress",
          "type": "address"
        }
      ],
      "name": "OwnableCallerNotTheOwner",
      "type": "error"
    },
    {
      "anonymous": false,
      "inputs": [
        {
          "indexed": true,
          "internalType": "uint256",
          "name": "operationType",
          "type": "uint256"
        },
        {
          "indexed": true,
          "internalType": "address",
          "name": "contractAddress",
          "type": "address"
        },
        {
          "indexed": false,
          "internalType": "uint256",
          "name": "value",
          "type": "uint256"
        },
        {
          "indexed": true,
          "internalType": "bytes32",
          "name": "salt",
          "type": "bytes32"
        }
      ],
      "name": "ContractCreated",
      "type": "event"
    },
    {
      "anonymous": false,
      "inputs": [
        {
          "indexed": true,
          "internalType": "bytes32",
          "name": "dataKey",
          "type": "bytes32"
        },
        {
          "indexed": false,
          "internalType": "bytes",
          "name": "dataValue",
          "type": "bytes"
        }
      ],
      "name": "DataChanged",
      "type": "event"
    },
    {
      "anonymous": false,
      "inputs": [
        {
          "indexed": true,
          "internalType": "uint256",
          "name": "operationType",
          "type": "uint256"
        },
        {
          "indexed": true,
          "internalType": "address",
          "name": "target",
          "type": "address"
        },
        {
          "indexed": false,
          "internalType": "uint256",
          "name": "value",
          "type": "uint256"
        },
        {
          "indexed": true,
          "internalType": "bytes4",
          "name": "selector",
          "type": "bytes4"
        }
      ],
      "name": "Executed",
      "type": "event"
    },
    {
      "anonymous": false,
      "inputs": [],
      "name": "OwnershipRenounced",
      "type": "event"
    },
    {
      "anonymous": false,
      "inputs": [
        {
          "indexed": true,
          "internalType": "address",
          "name": "previousOwner",
          "type": "address"
        },
        {
          "indexed": true,
          "internalType": "address",
          "name": "newOwner",
          "type": "address"
        }
      ],
      "name": "OwnershipTransferStarted",
      "type": "event"
    },
    {
      "anonymous": false,
      "inputs": [
        {
          "indexed": true,
          "internalType": "address",
          "name": "previousOwner",
          "type": "address"
        },
        {
          "indexed": true,
          "internalType": "address",
          "name": "newOwner",
          "type": "address"
        }
      ],
      "name": "OwnershipTransferred",
      "type": "event"
    },
    {
      "anonymous": false,
      "inputs": [],
      "name": "RenounceOwnershipStarted",
      "type": "event"
    },
    {
      "anonymous": false,
      "inputs": [
        {
          "indexed": true,
          "internalType": "address",
          "name": "from",
          "type": "address"
        },
        {
          "indexed": true,
          "internalType": "uint256",
          "name": "value",
          "type": "uint256"
        },
        {
          "indexed": true,
          "internalType": "bytes32",
          "name": "typeId",
          "type": "bytes32"
        },
        {
          "indexed": false,
          "internalType": "bytes",
          "name": "receivedData",
          "type": "bytes"
        },
        {
          "indexed": false,
          "internalType": "bytes",
          "name": "returnedValue",
          "type": "bytes"
        }
      ],
      "name": "UniversalReceiver",
      "type": "event"
    },
    {
      "stateMutability": "payable",
      "type": "fallback"
    },
    {
      "inputs": [],
      "name": "RENOUNCE_OWNERSHIP_CONFIRMATION_DELAY",
      "outputs": [
        {
          "internalType": "uint256",
          "name": "",
          "type": "uint256"
        }
      ],
      "stateMutability": "view",
      "type": "function"
    },
    {
      "inputs": [],
      "name": "RENOUNCE_OWNERSHIP_CONFIRMATION_PERIOD",
      "outputs": [
        {
          "internalType": "uint256",
          "name": "",
          "type": "uint256"
        }
      ],
      "stateMutability": "view",
      "type": "function"
    },
    {
      "inputs": [],
      "name": "VERSION",
      "outputs": [
        {
          "internalType": "string",
          "name": "",
          "type": "string"
        }
      ],
      "stateMutability": "view",
      "type": "function"
    },
    {
      "inputs": [],
      "name": "acceptOwnership",
      "outputs": [],
      "stateMutability": "nonpayable",
      "type": "function"
    },
    {
      "inputs": [
        {
          "internalType": "bytes[]",
          "name": "data",
          "type": "bytes[]"
        }
      ],
      "name": "batchCalls",
      "outputs": [
        {
          "internalType": "bytes[]",
          "name": "results",
          "type": "bytes[]"
        }
      ],
      "stateMutability": "nonpayable",
      "type": "function"
    },
    {
      "inputs": [
        {
          "internalType": "uint256",
          "name": "operationType",
          "type": "uint256"
        },
        {
          "internalType": "address",
          "name": "target",
          "type": "address"
        },
        {
          "internalType": "uint256",
          "name": "value",
          "type": "uint256"
        },
        {
          "internalType": "bytes",
          "name": "data",
          "type": "bytes"
        }
      ],
      "name": "execute",
      "outputs": [
        {
          "internalType": "bytes",
          "name": "",
          "type": "bytes"
        }
      ],
      "stateMutability": "payable",
      "type": "function"
    },
    {
      "inputs": [
        {
          "internalType": "uint256[]",
          "name": "operationsType",
          "type": "uint256[]"
        },
        {
          "internalType": "address[]",
          "name": "targets",
          "type": "address[]"
        },
        {
          "internalType": "uint256[]",
          "name": "values",
          "type": "uint256[]"
        },
        {
          "internalType": "bytes[]",
          "name": "datas",
          "type": "bytes[]"
        }
      ],
      "name": "executeBatch",
      "outputs": [
        {
          "internalType": "bytes[]",
          "name": "",
          "type": "bytes[]"
        }
      ],
      "stateMutability": "payable",
      "type": "function"
    },
    {
      "inputs": [
        {
          "internalType": "bytes32",
          "name": "dataKey",
          "type": "bytes32"
        }
      ],
      "name": "getData",
      "outputs": [
        {
          "internalType": "bytes",
          "name": "dataValue",
          "type": "bytes"
        }
      ],
      "stateMutability": "view",
      "type": "function"
    },
    {
      "inputs": [
        {
          "internalType": "bytes32[]",
          "name": "dataKeys",
          "type": "bytes32[]"
        }
      ],
      "name": "getDataBatch",
      "outputs": [
        {
          "internalType": "bytes[]",
          "name": "dataValues",
          "type": "bytes[]"
        }
      ],
      "stateMutability": "view",
      "type": "function"
    },
    {
      "inputs": [],
      "name": "owner",
      "outputs": [
        {
          "internalType": "address",
          "name": "",
          "type": "address"
        }
      ],
      "stateMutability": "view",
      "type": "function"
    },
    {
      "inputs": [],
      "name": "pendingOwner",
      "outputs": [
        {
          "internalType": "address",
          "name": "",
          "type": "address"
        }
      ],
      "stateMutability": "view",
      "type": "function"
    },
    {
      "inputs": [],
      "name": "renounceOwnership",
      "outputs": [],
      "stateMutability": "nonpayable",
      "type": "function"
    },
    {
      "inputs": [
        {
          "internalType": "bytes32",
          "name": "dataKey",
          "type": "bytes32"
        },
        {
          "internalType": "bytes",
          "name": "dataValue",
          "type": "bytes"
        }
      ],
      "name": "setData",
      "outputs": [],
      "stateMutability": "payable",
      "type": "function"
    },
    {
      "inputs": [
        {
          "internalType": "bytes32[]",
          "name": "dataKeys",
          "type": "bytes32[]"
        },
        {
          "internalType": "bytes[]",
          "name": "dataValues",
          "type": "bytes[]"
        }
      ],
      "name": "setDataBatch",
      "outputs": [],
      "stateMutability": "payable",
      "type": "function"
    },
    {
      "inputs": [
        {
          "internalType": "bytes4",
          "name": "interfaceId",
          "type": "bytes4"
        }
      ],
      "name": "supportsInterface",
      "outputs": [
        {
          "internalType": "bool",
          "name": "",
          "type": "bool"
        }
      ],
      "stateMutability": "view",
      "type": "function"
    },
    {
      "inputs": [
        {
          "internalType": "address",
          "name": "newOwner",
          "type": "address"
        }
      ],
      "name": "transferOwnership",
      "outputs": [],
      "stateMutability": "nonpayable",
      "type": "function"
    },
    {
      "inputs": [
        {
          "internalType": "bytes32",
          "name": "typeId",
          "type": "bytes32"
        },
        {
          "internalType": "bytes",
          "name": "receivedData",
          "type": "bytes"
        }
      ],
      "name": "universalReceiver",
      "outputs": [
        {
          "internalType": "bytes",
          "name": "returnedValues",
          "type": "bytes"
        }
      ],
      "stateMutability": "payable",
      "type": "function"
    },
    {
      "stateMutability": "payable",
      "type": "receive"
    }
  ],
  "bytecode": "0x60806040526040516200300a3803806200300a833981016040819052620000269162000343565b3415620000ad577f468cd1581d7bc001c3b685513d2b929b55437be34700410383d58f3aa1ea0abc60001b34336001600160a01b03167f9c3ba68eb5742b8e3961aea0afc7371a71bf433c8a67a831803b64c064a178c2604051620000a4906040808252600090820181905260606020830181905282015260800190565b60405180910390a45b620000b8816200014e565b6040805180820190915260048152637c0334a160e01b602082015262000100907feafec4d89fa9619884b600007c0334a14085fefa8b51ae5a40895018882bdb9090620001bc565b60408051602081019091526000815262000147906001600160a01b038316907f79855c97dbc259ce395421d933d7bc0699b0f1561f988f09a9e8633fd542fe5c9062000215565b506200061e565b6000546001600160a01b03828116911614620001b957600080546040516001600160a01b03808516939216917f8be0079c531659141344cd1fd0a4f28419497f9722a3daafe3b4186f6b6457e091a3600080546001600160a01b0319166001600160a01b0383161790555b50565b6000828152600160205260409020620001d6828262000419565b50817fece574603820d07bc9b91f2a932baadf4628aabcb8afba49776529c14a6104b28260405162000209919062000539565b60405180910390a25050565b620002316001600160a01b038416631aed5a8560e21b620002b8565b15620002b357604051631aed5a8560e21b81526001600160a01b03841690636bb56a14906200026790859085906004016200054e565b6000604051808303816000875af115801562000287573d6000803e3d6000fd5b505050506040513d6000823e601f3d908101601f19168201604052620002b1919081019062000571565b505b505050565b604080516001600160e01b03198316602480830191909152825180830390910181526044909101909152602080820180516001600160e01b03166301ffc9a760e01b178152825160009392849283928392918391908a617530fa92503d915060005190508280156200032b575060208210155b8015620003385750600081115b979650505050505050565b6000602082840312156200035657600080fd5b81516001600160a01b03811681146200036e57600080fd5b9392505050565b634e487b7160e01b600052604160045260246000fd5b600181811c90821680620003a057607f821691505b602082108103620003c157634e487b7160e01b600052602260045260246000fd5b50919050565b601f821115620002b357600081815260208120601f850160051c81016020861015620003f05750805b601f850160051c820191505b818110156200041157828155600101620003fc565b505050505050565b81516001600160401b0381111562000435576200043562000375565b6200044d816200044684546200038b565b84620003c7565b602080601f8311600181146200048557600084156200046c5750858301515b600019600386901b1c1916600185901b17855562000411565b600085815260208120601f198616915b82811015620004b65788860151825594840194600190910190840162000495565b5085821015620004d55787850151600019600388901b60f8161c191681555b5050505050600190811b01905550565b60005b8381101562000502578181015183820152602001620004e8565b50506000910152565b6000815180845262000525816020860160208601620004e5565b601f01601f19169290920160200192915050565b6020815260006200036e60208301846200050b565b8281526040602082015260006200056960408301846200050b565b949350505050565b6000602082840312156200058457600080fd5b81516001600160401b03808211156200059c57600080fd5b818401915084601f830112620005b157600080fd5b815181811115620005c657620005c662000375565b604051601f8201601f19908116603f01168101908382118183101715620005f157620005f162000375565b816040528281528760208487010111156200060b57600080fd5b62000338836020830160208801620004e5565b6129dc806200062e6000396000f3fe6080604052600436106101025760003560e01c806379ba509711610095578063dedff9c611610064578063dedff9c61461033c578063e30c39781461035c578063ead3fbdf146101cf578063f2fde38b1461037a578063ffa1ad741461039a5761013b565b806379ba5097146102cf5780637f23690c146102e45780638da5cb5b146102f757806397902421146103295761013b565b806354f6127f116100d157806354f6127f146102675780636963d438146102875780636bb56a14146102a7578063715018a6146102ba5761013b565b806301bfba61146101cf57806301ffc9a7146101f7578063318584521461022757806344c028fe146102475761013b565b3661013b5734156101395761013760008051602061298783398151915260001b604051806020016040528060008152506103cc565b505b005b600036606060048210156101b75734156101a2576101a060008051602061298783398151915260001b84848080601f0160208091040260200160405190810160405280939291908181526020018383808284376000920191909152506103cc92505050565b505b506040805160208101909152600081526101c4565b6101c1838361069f565b90505b915050805190602001f35b3480156101db57600080fd5b506101e460c881565b6040519081526020015b60405180910390f35b34801561020357600080fd5b50610217610212366004612013565b610850565b60405190151581526020016101ee565b61023a610235366004612224565b6108ba565b6040516101ee919061237b565b61025a6102553660046123dd565b610952565b6040516101ee9190612431565b34801561027357600080fd5b5061025a610282366004612444565b6109df565b34801561029357600080fd5b5061023a6102a236600461245d565b6109ea565b61025a6102b53660046124d1565b6103cc565b3480156102c657600080fd5b50610139610b4c565b3480156102db57600080fd5b50610139610be2565b6101396102f23660046124d1565b610cc1565b34801561030357600080fd5b506000546001600160a01b03165b6040516001600160a01b0390911681526020016101ee565b610139610337366004612517565b610d7a565b34801561034857600080fd5b5061023a610357366004612570565b610f0a565b34801561036857600080fd5b506003546001600160a01b0316610311565b34801561038657600080fd5b506101396103953660046125a4565b610fb4565b3480156103a657600080fd5b5061025a60405180604001604052806006815260200165302e31352e3560d01b81525081565b606034158015906103eb57506000805160206129878339815191528314155b156104445761044260008051602061298783398151915260001b6000368080601f0160208091040260200160405190810160405280939291908181526020018383808284376000920191909152506103cc92505050565b505b600061046f7f0cfc51aec37c55a4d0b1a65c6255c4bf2fbdf6277f3cc0730c45b828b6db8b4761107f565b905060606014825110610532576000610487836125bf565b60601c905061049d81635122dded60e11b611121565b1561053057600480546001600160a01b0319166001600160a01b0383169081178255604051635122dded60e11b8152909163a245bbda916104e691339134918c918c91016125f6565b6000604051808303816000875af1158015610505573d6000803e3d6000fd5b505050506040513d6000823e601f3d908101601f1916820160405261052d9190810190612623565b91505b505b600061054b690cfc51aec37c55a4d0b160b01b876111aa565b905060006105588261107f565b90506060601482511061061b576000610570836125bf565b60601c905061058681635122dded60e11b611121565b1561061957600480546001600160a01b0319166001600160a01b0383169081178255604051635122dded60e11b8152909163a245bbda916105cf91339134918f918f91016125f6565b6000604051808303816000875af11580156105ee573d6000803e3d6000fd5b505050506040513d6000823e601f3d908101601f191682016040526106169190810190612623565b91505b505b600480546001600160a01b031916905560405161063e9085908390602001612690565b60405160208183030381529060405295508734336001600160a01b03167f9c3ba68eb5742b8e3961aea0afc7371a71bf433c8a67a831803b64c064a178c28a8a60405161068c929190612690565b60405180910390a4505050505092915050565b60606000806106b96000356001600160e01b0319166111f6565b91509150346000141580156106cc575080155b156107245761072260008051602061298783398151915260001b86868080601f0160208091040260200160405190810160405280939291908181526020018383808284376000920191909152506103cc92505050565b505b6000356001600160e01b03191615801561074557506001600160a01b038216155b1561076357604051806020016040528060008152509250505061084a565b6001600160a01b03821661079d5760405163bb370b2b60e01b81526001600160e01b03196000351660048201526024015b60405180910390fd5b600080836001600160a01b0316836107b65760006107b8565b345b888833346040516020016107cf94939291906126b5565b60408051601f19818403018152908290526107e9916126e0565b60006040518083038185875af1925050503d8060008114610826576040519150601f19603f3d011682016040523d82523d6000602084013e61082b565b606091505b5091509150811561084157935061084a92505050565b80518060208301fd5b92915050565b60006001600160e01b031982166314578bf360e11b148061088157506001600160e01b03198216631aed5a8560e21b145b8061089c57506001600160e01b031982166394be599960e01b145b806108ab57506108ab826112a6565b8061084a575061084a826112cb565b60606108c4611309565b341561093b576040516001600160e01b031960003516602082015260008051602061298783398151915290349033907f9c3ba68eb5742b8e3961aea0afc7371a71bf433c8a67a831803b64c064a178c29060240160408051601f1981840301815290829052610932916126fc565b60405180910390a45b61094785858585611347565b90505b949350505050565b606061095c611309565b34156109d3576040516001600160e01b031960003516602082015260008051602061298783398151915290349033907f9c3ba68eb5742b8e3961aea0afc7371a71bf433c8a67a831803b64c064a178c29060240160408051601f19818403018152908290526109ca916126fc565b60405180910390a45b610947858585856114a4565b606061084a8261107f565b6060816001600160401b03811115610a0457610a0461203d565b604051908082528060200260200182016040528015610a3757816020015b6060815260200190600190039081610a225790505b50905060005b82811015610b455760008030868685818110610a5b57610a5b612726565b9050602002810190610a6d919061273c565b604051610a7b929190612789565b600060405180830381855af49150503d8060008114610ab6576040519150601f19603f3d011682016040523d82523d6000602084013e610abb565b606091505b509150915081610b1d57805115610ad55780518082602001fd5b60405162461bcd60e51b815260206004820152601960248201527f4c5350393a20626174636843616c6c73207265766572746564000000000000006044820152606401610794565b80848481518110610b3057610b30612726565b60209081029190910101525050600101610a3d565b5092915050565b610b54611309565b6000546001600160a01b0316610b6861157e565b6000546001600160a01b0316610bdf57604080516001600160a01b0383166020820152600091810191909152610bdf907f0c622e58e6b7089ae35f1af1c86d997be92fcdd8c9509652022d41aa65169471906060015b60408051601f198184030181529190526001600160a01b0384169190611671565b50565b600354600160a01b900460ff1615610c0d57604051635758dd0760e01b815260040160405180910390fd5b6000546001600160a01b0316610c21611705565b604080516001600160a01b03831660208201523391810191909152610c6a907f0c622e58e6b7089ae35f1af1c86d997be92fcdd8c9509652022d41aa6516947190606001610bbe565b604080516001600160a01b0383166020820152338183018190528251808303840181526060909201909252610bdf91907f79855c97dbc259ce395421d933d7bc0699b0f1561f988f09a9e8633fd542fe5c90611671565b3415610ce05760405163f36ba73760e01b815260040160405180910390fd5b6000610cea611752565b90508015610d6b576001600160a01b03198316690cfc51aec37c55a4d0b160b01b1480610d2957506001600160d01b03198316654b80742de2bf60d01b145b80610d4a57506001600160a01b03198316696773c5a04a6d4300884b60b11b145b15610d6b5760405163199611f160e01b815260048101849052602401610794565b610d7583836117ec565b505050565b6000610d84611752565b90508151835114610da857604051633bcc897960e01b815260040160405180910390fd5b3415610dc75760405163f36ba73760e01b815260040160405180910390fd5b60005b8351811015610f04578115610ec0578351690cfc51aec37c55a4d0b160b01b90859083908110610dfc57610dfc612726565b60200260200101516001600160a01b0319161480610e4857508351654b80742de2bf60d01b90859083908110610e3457610e34612726565b60200260200101516001600160d01b031916145b80610e8557508351696773c5a04a6d4300884b60b11b90859083908110610e7157610e71612726565b60200260200101516001600160a01b031916145b15610ec057838181518110610e9c57610e9c612726565b602002602001015160405163199611f160e01b815260040161079491815260200190565b610efc848281518110610ed557610ed5612726565b6020026020010151848381518110610eef57610eef612726565b60200260200101516117ec565b600101610dca565b50505050565b606081516001600160401b03811115610f2557610f2561203d565b604051908082528060200260200182016040528015610f5857816020015b6060815260200190600190039081610f435790505b50905060005b8251811015610fae57610f89838281518110610f7c57610f7c612726565b602002602001015161107f565b828281518110610f9b57610f9b612726565b6020908102919091010152600101610f5e565b50919050565b610fbc611309565b6003805460ff60a01b1916600160a01b179055610fd881611841565b600080546040516001600160a01b03918216929184169183917f38d16b8cac22d99fc7c124b9cd0de2d3fa1faef420bfe791d8c362d765e227009190a3604080516001600160a01b0383811660208301528416818301819052825180830384018152606090920190925261106e91907faefd43f45fed1bcd8992f23c803b6f4ec45cf6b62b0d404d565f290a471e763f90611671565b50506003805460ff60a01b19169055565b600081815260016020526040902080546060919061109c90612799565b80601f01602080910402602001604051908101604052809291908181526020018280546110c890612799565b80156111155780601f106110ea57610100808354040283529160200191611115565b820191906000526020600020905b8154815290600101906020018083116110f857829003601f168201915b50505050509050919050565b604080516001600160e01b03198316602480830191909152825180830390910181526044909101909152602080820180516001600160e01b03166301ffc9a760e01b178152825160009392849283928392918391908a617530fa92503d91506000519050828015611193575060208210155b801561119f5750600081115b979650505050505050565b604080516001600160b01b0319841660208201526000602a82018190526001600160601b03198416602c8301529182910160405160208183030381529060405290508061094a906127cd565b6000808061121b696773c5a04a6d4300884b60b11b6001600160e01b031986166111aa565b905060006112288261107f565b9050601481511015611241575060009485945092505050565b805160150361128e578060148151811061125d5761125d612726565b01602001516001600160f81b031916600160f81b0361128e5761127f816125bf565b60601c95600195509350505050565b611297816125bf565b60601c95600095509350505050565b60006001600160e01b0319821663a918fa6b60e01b148061084a575061084a82611891565b6000806112de6301ffc9a760e01b6111f6565b5090506001600160a01b0381166112f85750600092915050565b6113028184611121565b9392505050565b3361131c6000546001600160a01b031690565b6001600160a01b0316146113455760405163bf1169c560e01b8152336004820152602401610794565b565b60608351855114158061136857508251845114158061136857508151835114155b1561138657604051633ff55f4d60e01b815260040160405180910390fd5b84516000036113a85760405163e9ad2b5f60e01b815260040160405180910390fd5b600085516001600160401b038111156113c3576113c361203d565b6040519080825280602002602001820160405280156113f657816020015b60608152602001906001900390816113e15790505b50905060005b865181101561149a5761147587828151811061141a5761141a612726565b602002602001015187838151811061143457611434612726565b602002602001015187848151811061144e5761144e612726565b602002602001015187858151811061146857611468612726565b60200260200101516114a4565b82828151811061148757611487612726565b60209081029190910101526001016113fc565b5095945050505050565b6060846114bd576114b68484846118b6565b905061094a565b600185036114f7576001600160a01b038416156114ed57604051631820c12560e11b815260040160405180910390fd5b6114b683836119e0565b60028503611531576001600160a01b0384161561152757604051631820c12560e11b815260040160405180910390fd5b6114b68383611adc565b60038503611562578215611558576040516339795e3560e11b815260040160405180910390fd5b6114b68483611bc1565b604051631d60ecef60e21b815260048101869052602401610794565b60025443906000906115929060c890612807565b905060006115a160c883612807565b9050808311806115b15750600254155b156115f9576002839055600380546001600160a01b03191690556040517f81b7f830f1f0084db6497c486cbe6974c86488dcc4e3738eab94ab6d6b1653e790600090a1505050565b8183101561162457604051630d8404a160e11b81526004810183905260248101829052604401610794565b61162e6000611cbe565b60006002819055600380546001600160a01b03191690556040517fd1f66c3d2bc1993a86be5e3d33709d98f0442381befcedd29f578b9b2506b1ce9190a1505050565b61168b6001600160a01b038416631aed5a8560e21b611121565b15610d7557604051631aed5a8560e21b81526001600160a01b03841690636bb56a14906116be908590859060040161281a565b6000604051808303816000875af11580156116dd573d6000803e3d6000fd5b505050506040513d6000823e601f3d908101601f19168201604052610f049190810190612623565b6003546001600160a01b03163314611732576040516308a3c8a560e31b8152336004820152602401610794565b61173b33611cbe565b600380546001600160a01b03191690556000600255565b600080546001600160a01b031633146117e9576004546001600160a01b031633146117e55760405162461bcd60e51b815260206004820152603b60248201527f4f6e6c79204f776e6572206f72207265656e746572656420556e69766572736160448201527f6c2052656365697665722044656c656761746520616c6c6f77656400000000006064820152608401610794565b5060015b90565b60008281526001602052604090206118048282612881565b50817fece574603820d07bc9b91f2a932baadf4628aabcb8afba49776529c14a6104b2826040516118359190612431565b60405180910390a25050565b306001600160a01b0382160361186a57604051631c0a54df60e31b815260040160405180910390fd5b600380546001600160a01b0319166001600160a01b03929092169190911790556000600255565b60006001600160e01b031982166318a6a9a560e21b148061084a575061084a82611d2c565b6060824710156118e2576040516301bf351f60e31b815247600482015260248101849052604401610794565b6118eb82612940565b6001600160e01b031916846001600160a01b031660007f4810874456b8e6487bd861375cf6abd8e1c8bb5858c8ce36a86a04dabfac199e8660405161193291815260200190565b60405180910390a4600080856001600160a01b0316858560405161195691906126e0565b60006040518083038185875af1925050503d8060008114611993576040519150601f19603f3d011682016040523d82523d6000602084013e611998565b606091505b50915091506119d682826040518060400160405280601681526020017522a9219b991aac1d102ab735b737bbb71022b93937b960511b815250611d61565b9695505050505050565b606082471015611a0c576040516301bf351f60e31b815247600482015260248101849052604401610794565b8151600003611a2e5760405163b81cd8d960e01b815260040160405180910390fd5b600082516020840185f090506001600160a01b038116611a6157604051630b07489b60e01b815260040160405180910390fd5b6000801b816001600160a01b031660017fa1fb700aaee2ae4a2ff6f91ce7eba292f89c2f5488b8ec4c5c5c8150692595c387604051611aa291815260200190565b60405180910390a46040516001600160601b0319606083901b16602082015260340160405160208183030381529060405291505092915050565b60608151600003611b005760405163b81cd8d960e01b815260040160405180910390fd5b6000611b198360208551611b149190612973565b611d7a565b90506000611b3684600060208751611b319190612973565b611dd8565b90506000611b45868484611ee5565b905082816001600160a01b031660027fa1fb700aaee2ae4a2ff6f91ce7eba292f89c2f5488b8ec4c5c5c8150692595c389604051611b8591815260200190565b60405180910390a46040516001600160601b0319606083901b166020820152603401604051602081830303815290604052935050505092915050565b6060611bcc82612940565b6001600160e01b031916836001600160a01b031660037f4810874456b8e6487bd861375cf6abd8e1c8bb5858c8ce36a86a04dabfac199e6000604051611c1491815260200190565b60405180910390a4600080846001600160a01b031684604051611c3791906126e0565b600060405180830381855afa9150503d8060008114611c72576040519150601f19603f3d011682016040523d82523d6000602084013e611c77565b606091505b5091509150611cb582826040518060400160405280601681526020017522a9219b991aac1d102ab735b737bbb71022b93937b960511b815250611d61565b95945050505050565b6000546001600160a01b03828116911614610bdf57600080546040516001600160a01b03808516939216917f8be0079c531659141344cd1fd0a4f28419497f9722a3daafe3b4186f6b6457e091a3600080546001600160a01b0383166001600160a01b031990911617905550565b60006001600160e01b03198216631d516b2b60e21b148061084a57506301ffc9a760e01b6001600160e01b031983161461084a565b60608315611d70575081611302565b6113028383611fe9565b6000611d87826020612807565b83511015611dcf5760405162461bcd60e51b8152602060048201526015602482015274746f427974657333325f6f75744f66426f756e647360581b6044820152606401610794565b50016020015190565b606081611de681601f612807565b1015611e255760405162461bcd60e51b815260206004820152600e60248201526d736c6963655f6f766572666c6f7760901b6044820152606401610794565b611e2f8284612807565b84511015611e735760405162461bcd60e51b8152602060048201526011602482015270736c6963655f6f75744f66426f756e647360781b6044820152606401610794565b606082158015611e925760405191506000825260208201604052611edc565b6040519150601f8416801560200281840101858101878315602002848b0101015b81831015611ecb578051835260209283019201611eb3565b5050858452601f01601f1916604052505b50949350505050565b600083471015611f375760405162461bcd60e51b815260206004820152601d60248201527f437265617465323a20696e73756666696369656e742062616c616e63650000006044820152606401610794565b8151600003611f885760405162461bcd60e51b815260206004820181905260248201527f437265617465323a2062797465636f6465206c656e677468206973207a65726f6044820152606401610794565b8282516020840186f590506001600160a01b0381166113025760405162461bcd60e51b815260206004820152601960248201527f437265617465323a204661696c6564206f6e206465706c6f79000000000000006044820152606401610794565b815115611ff95781518083602001fd5b8060405162461bcd60e51b81526004016107949190612431565b60006020828403121561202557600080fd5b81356001600160e01b03198116811461130257600080fd5b634e487b7160e01b600052604160045260246000fd5b604051601f8201601f191681016001600160401b038111828210171561207b5761207b61203d565b604052919050565b60006001600160401b0382111561209c5761209c61203d565b5060051b60200190565b600082601f8301126120b757600080fd5b813560206120cc6120c783612083565b612053565b82815260059290921b840181019181810190868411156120eb57600080fd5b8286015b8481101561210657803583529183019183016120ef565b509695505050505050565b80356001600160a01b038116811461212857600080fd5b919050565b60006001600160401b038211156121465761214661203d565b50601f01601f191660200190565b600082601f83011261216557600080fd5b81356121736120c78261212d565b81815284602083860101111561218857600080fd5b816020850160208301376000918101602001919091529392505050565b600082601f8301126121b657600080fd5b813560206121c66120c783612083565b82815260059290921b840181019181810190868411156121e557600080fd5b8286015b848110156121065780356001600160401b038111156122085760008081fd5b6122168986838b0101612154565b8452509183019183016121e9565b6000806000806080858703121561223a57600080fd5b84356001600160401b038082111561225157600080fd5b61225d888389016120a6565b955060209150818701358181111561227457600080fd5b8701601f8101891361228557600080fd5b80356122936120c782612083565b81815260059190911b8201840190848101908b8311156122b257600080fd5b928501925b828410156122d7576122c884612111565b825292850192908501906122b7565b975050505060408701359150808211156122f057600080fd5b6122fc888389016120a6565b9350606087013591508082111561231257600080fd5b5061231f878288016121a5565b91505092959194509250565b60005b8381101561234657818101518382015260200161232e565b50506000910152565b6000815180845261236781602086016020860161232b565b601f01601f19169290920160200192915050565b6000602080830181845280855180835260408601915060408160051b870101925083870160005b828110156123d057603f198886030184526123be85835161234f565b945092850192908501906001016123a2565b5092979650505050505050565b600080600080608085870312156123f357600080fd5b8435935061240360208601612111565b92506040850135915060608501356001600160401b0381111561242557600080fd5b61231f87828801612154565b602081526000611302602083018461234f565b60006020828403121561245657600080fd5b5035919050565b6000806020838503121561247057600080fd5b82356001600160401b038082111561248757600080fd5b818501915085601f83011261249b57600080fd5b8135818111156124aa57600080fd5b8660208260051b85010111156124bf57600080fd5b60209290920196919550909350505050565b600080604083850312156124e457600080fd5b8235915060208301356001600160401b0381111561250157600080fd5b61250d85828601612154565b9150509250929050565b6000806040838503121561252a57600080fd5b82356001600160401b038082111561254157600080fd5b61254d868387016120a6565b9350602085013591508082111561256357600080fd5b5061250d858286016121a5565b60006020828403121561258257600080fd5b81356001600160401b0381111561259857600080fd5b61094a848285016120a6565b6000602082840312156125b657600080fd5b61130282612111565b805160208201516001600160601b031980821692919060148310156125ee5780818460140360031b1b83161693505b505050919050565b60018060a01b03851681528360208201528260408201526080606082015260006119d6608083018461234f565b60006020828403121561263557600080fd5b81516001600160401b0381111561264b57600080fd5b8201601f8101841361265c57600080fd5b805161266a6120c78261212d565b81815285602083850101111561267f57600080fd5b611cb582602083016020860161232b565b6040815260006126a3604083018561234f565b8281036020840152611cb5818561234f565b8385823760609290921b6001600160601b031916919092019081526014810191909152603401919050565b600082516126f281846020870161232b565b9190910192915050565b60408152600061270f604083018461234f565b828103602093840152600081529190910192915050565b634e487b7160e01b600052603260045260246000fd5b6000808335601e1984360301811261275357600080fd5b8301803591506001600160401b0382111561276d57600080fd5b60200191503681900382131561278257600080fd5b9250929050565b8183823760009101908152919050565b600181811c908216806127ad57607f821691505b602082108103610fae57634e487b7160e01b600052602260045260246000fd5b80516020808301519190811015610fae5760001960209190910360031b1b16919050565b634e487b7160e01b600052601160045260246000fd5b8082018082111561084a5761084a6127f1565b82815260406020820152600061094a604083018461234f565b601f821115610d7557600081815260208120601f850160051c8101602086101561285a5750805b601f850160051c820191505b8181101561287957828155600101612866565b505050505050565b81516001600160401b0381111561289a5761289a61203d565b6128ae816128a88454612799565b84612833565b602080601f8311600181146128e357600084156128cb5750858301515b600019600386901b1c1916600185901b178555612879565b600085815260208120601f198616915b82811015612912578886015182559484019460019091019084016128f3565b50858210156129305787850151600019600388901b60f8161c191681555b5050505050600190811b01905550565b805160208201516001600160e01b031980821692919060048310156125ee5760049290920360031b82901b161692915050565b8181038181111561084a5761084a6127f156fe468cd1581d7bc001c3b685513d2b929b55437be34700410383d58f3aa1ea0abca264697066735822122048009abd3b2de38b7063325f76651b853ea929746fb495c4e7a1b75e8bfb681664736f6c63430008140033",
  "linkReferences": {},
  "deployedLinkReferences": {}
}