{
  "_format": "hh-sol-artifact-1",
  "contractName": "MerchantPolicy",
  "sourceName": "contracts/policies/MerchantPolicy.sol",
  "abi": [
    {
      "inputs": [
        {
          "internalType": "address",
          "name": "initialOwner",
          "type": "address"
        },
        {
          "internalType": "address",
          "name": "_policyEngine",
          "type": "address"
        }
      ],
      "stateMutability": "nonpayable",
      "type": "constructor"
    },
    {
      "anonymous": false,
      "inputs": [
        {
          "indexed": true,
          "internalType": "address",
          "name": "merchant",
          "type": "address"
        }
      ],
      "name": "MerchantAdded",
      "type": "event"
    },
    {
      "anonymous": false,
      "inputs": [
        {
          "indexed": true,
          "internalType": "address",
          "name": "merchant",
          "type": "address"
        }
      ],
      "name": "MerchantRemoved",
      "type": "event"
    },
    {
      "anonymous": false,
      "inputs": [
        {
          "indexed": true,
          "internalType": "address",
          "name": "previousOwner",
          "type": "address"
        },
        {
          "indexed": true,
          "internalType": "address",
          "name": "newOwner",
          "type": "address"
        }
      ],
      "name": "OwnershipTransferred",
      "type": "event"
    },
    {
      "inputs": [],
      "name": "MAX_MERCHANTS",
      "outputs": [
        {
          "internalType": "uint256",
          "name": "",
          "type": "uint256"
        }
      ],
      "stateMutability": "view",
      "type": "function"
    },
    {
      "inputs": [
        {
          "internalType": "address[]",
          "name": "merchants",
          "type": "address[]"
        }
      ],
      "name": "addMerchants",
      "outputs": [],
      "stateMutability": "nonpayable",
      "type": "function"
    },
    {
      "inputs": [],
      "name": "getMerchants",
      "outputs": [
        {
          "internalType": "address[]",
          "name": "",
          "type": "address[]"
        }
      ],
      "stateMutability": "view",
      "type": "function"
    },
    {
      "inputs": [
        {
          "internalType": "address",
          "name": "",
          "type": "address"
        }
      ],
      "name": "isMerchant",
      "outputs": [
        {
          "internalType": "bool",
          "name": "",
          "type": "bool"
        }
      ],
      "stateMutability": "view",
      "type": "function"
    },
    {
      "inputs": [
        {
          "internalType": "uint256",
          "name": "",
          "type": "uint256"
        }
      ],
      "name": "merchantList",
      "outputs": [
        {
          "internalType": "address",
          "name": "",
          "type": "address"
        }
      ],
      "stateMutability": "view",
      "type": "function"
    },
    {
      "inputs": [],
      "name": "owner",
      "outputs": [
        {
          "internalType": "address",
          "name": "",
          "type": "address"
        }
      ],
      "stateMutability": "view",
      "type": "function"
    },
    {
      "inputs": [],
      "name": "policyEngine",
      "outputs": [
        {
          "internalType": "address",
          "name": "",
          "type": "address"
        }
      ],
      "stateMutability": "view",
      "type": "function"
    },
    {
      "inputs": [
        {
          "internalType": "address",
          "name": "merchant",
          "type": "address"
        }
      ],
      "name": "removeMerchant",
      "outputs": [],
      "stateMutability": "nonpayable",
      "type": "function"
    },
    {
      "inputs": [],
      "name": "renounceOwnership",
      "outputs": [],
      "stateMutability": "nonpayable",
      "type": "function"
    },
    {
      "inputs": [
        {
          "internalType": "address",
          "name": "newOwner",
          "type": "address"
        }
      ],
      "name": "transferOwnership",
      "outputs": [],
      "stateMutability": "nonpayable",
      "type": "function"
    },
    {
      "inputs": [
        {
          "internalType": "address",
          "name": "",
          "type": "address"
        },
        {
          "internalType": "address",
          "name": "",
          "type": "address"
        },
        {
          "internalType": "address",
          "name": "to",
          "type": "address"
        },
        {
          "internalType": "uint256",
          "name": "",
          "type": "uint256"
        },
        {
          "internalType": "bytes",
          "name": "",
          "type": "bytes"
        }
      ],
      "name": "validate",
      "outputs": [],
      "stateMutability": "view",
      "type": "function"
    }
  ],
  "bytecode": "0x60a060405234801561001057600080fd5b50604051610ce5380380610ce583398101604081905261002f9161011b565b610038336100af565b6001600160a01b0381166100925760405162461bcd60e51b815260206004820152601560248201527f4d503a207a65726f20706f6c696379456e67696e650000000000000000000000604482015260640160405180910390fd5b6001600160a01b0381166080526100a8826100af565b505061014e565b600080546001600160a01b038381166001600160a01b0319831681178455604051919092169283917f8be0079c531659141344cd1fd0a4f28419497f9722a3daafe3b4186f6b6457e09190a35050565b80516001600160a01b038116811461011657600080fd5b919050565b6000806040838503121561012e57600080fd5b610137836100ff565b9150610145602084016100ff565b90509250929050565b608051610b756101706000396000818161018001526103a70152610b756000f3fe608060405234801561001057600080fd5b50600436106100a95760003560e01c8063715018a611610071578063715018a61461014f5780637e9f471d146101575780638da5cb5b1461016a578063927399a51461017b578063e2d1800f146101a2578063f2fde38b146101b757600080fd5b80630fd91bbf146100ae578063133adab6146100c95780631a2f7167146100de5780631b795d56146101115780634370e6871461013c575b600080fd5b6100b660c881565b6040519081526020015b60405180910390f35b6100dc6100d736600461090e565b6101ca565b005b6101016100ec36600461090e565b60016020526000908152604090205460ff1681565b60405190151581526020016100c0565b61012461011f366004610930565b610372565b6040516001600160a01b0390911681526020016100c0565b6100dc61014a366004610949565b61039c565b6100dc61047c565b6100dc6101653660046109f6565b610490565b6000546001600160a01b0316610124565b6101247f000000000000000000000000000000000000000000000000000000000000000081565b6101aa61076d565b6040516100c09190610a6b565b6100dc6101c536600461090e565b6107cf565b6101d2610848565b6001600160a01b03811660009081526001602052604090205460ff166102345760405162461bcd60e51b815260206004820152601260248201527113540e881b9bdd0818481b595c98da185b9d60721b60448201526064015b60405180910390fd5b6001600160a01b0381166000908152600160208181526040808420805460ff19169055600390915282205460025490929161026e91610ace565b90508082146102f65760006002828154811061028c5761028c610ae7565b600091825260209091200154600280546001600160a01b0390921692508291859081106102bb576102bb610ae7565b600091825260208083209190910180546001600160a01b0319166001600160a01b039485161790559290911681526003909152604090208290555b600280548061030757610307610afd565b60008281526020808220830160001990810180546001600160a01b03191690559092019092556001600160a01b038516808352600390915260408083208390555190917fae4bdf5adabafca6721399496d24fe50fb6564effcb386fbae92de33540763bc91a2505050565b6002818154811061038257600080fd5b6000918252602090912001546001600160a01b0316905081565b336001600160a01b037f0000000000000000000000000000000000000000000000000000000000000000161461040c5760405162461bcd60e51b81526020600482015260156024820152744d503a206f6e6c7920506f6c696379456e67696e6560581b604482015260640161022b565b6001600160a01b03841660009081526001602052604090205460ff166104745760405162461bcd60e51b815260206004820152601c60248201527f4d503a206d65726368616e74206e6f742077686974656c697374656400000000604482015260640161022b565b505050505050565b610484610848565b61048e60006108a2565b565b610498610848565b60648111156104df5760405162461bcd60e51b81526020600482015260136024820152724d503a20626174636820746f6f206c6172676560681b604482015260640161022b565b60025460c8906104f0908390610b13565b111561052e5760405162461bcd60e51b815260206004820152600d60248201526c13540e881b1a5cdd08199d5b1b609a1b604482015260640161022b565b60005b8181101561076857600083838381811061054d5761054d610ae7565b9050602002016020810190610562919061090e565b6001600160a01b0316036105ac5760405162461bcd60e51b815260206004820152601160248201527013540e881e995c9bc81b595c98da185b9d607a1b604482015260640161022b565b600160008484848181106105c2576105c2610ae7565b90506020020160208101906105d7919061090e565b6001600160a01b0316815260208101919091526040016000205460ff16610756576002546003600085858581811061061157610611610ae7565b9050602002016020810190610626919061090e565b6001600160a01b03166001600160a01b0316815260200190815260200160002081905550600180600085858581811061066157610661610ae7565b9050602002016020810190610676919061090e565b6001600160a01b031681526020810191909152604001600020805460ff191691151591909117905560028383838181106106b2576106b2610ae7565b90506020020160208101906106c7919061090e565b81546001810183556000928352602090922090910180546001600160a01b0319166001600160a01b0390921691909117905582828281811061070b5761070b610ae7565b9050602002016020810190610720919061090e565b6001600160a01b03167fc197da77b28f3c45c06c05226a579905fd0692f6603bd04fa0ed262f79e9195860405160405180910390a25b8061076081610b26565b915050610531565b505050565b606060028054806020026020016040519081016040528092919081815260200182805480156107c557602002820191906000526020600020905b81546001600160a01b031681526001909101906020018083116107a7575b5050505050905090565b6107d7610848565b6001600160a01b03811661083c5760405162461bcd60e51b815260206004820152602660248201527f4f776e61626c653a206e6577206f776e657220697320746865207a65726f206160448201526564647265737360d01b606482015260840161022b565b610845816108a2565b50565b6000546001600160a01b0316331461048e5760405162461bcd60e51b815260206004820181905260248201527f4f776e61626c653a2063616c6c6572206973206e6f7420746865206f776e6572604482015260640161022b565b600080546001600160a01b038381166001600160a01b0319831681178455604051919092169283917f8be0079c531659141344cd1fd0a4f28419497f9722a3daafe3b4186f6b6457e09190a35050565b80356001600160a01b038116811461090957600080fd5b919050565b60006020828403121561092057600080fd5b610929826108f2565b9392505050565b60006020828403121561094257600080fd5b5035919050565b60008060008060008060a0878903121561096257600080fd5b61096b876108f2565b9550610979602088016108f2565b9450610987604088016108f2565b935060608701359250608087013567ffffffffffffffff808211156109ab57600080fd5b818901915089601f8301126109bf57600080fd5b8135818111156109ce57600080fd5b8a60208285010111156109e057600080fd5b6020830194508093505050509295509295509295565b60008060208385031215610a0957600080fd5b823567ffffffffffffffff80821115610a2157600080fd5b818501915085601f830112610a3557600080fd5b813581811115610a4457600080fd5b8660208260051b8501011115610a5957600080fd5b60209290920196919550909350505050565b6020808252825182820181905260009190848201906040850190845b81811015610aac5783516001600160a01b031683529284019291840191600101610a87565b50909695505050505050565b634e487b7160e01b600052601160045260246000fd5b81810381811115610ae157610ae1610ab8565b92915050565b634e487b7160e01b600052603260045260246000fd5b634e487b7160e01b600052603160045260246000fd5b80820180821115610ae157610ae1610ab8565b600060018201610b3857610b38610ab8565b506001019056fea26469706673582212201dc3044235b795a80b8bfb70a49b477c1ed828f4dbed1d5f9d44e5f535f49c2f64736f6c63430008140033",
  "linkReferences": {},
  "deployedLinkReferences": {}
}