{
  "_format": "hh-sol-artifact-1",
  "contractName": "PolicyEngine",
  "sourceName": "contracts/PolicyEngine.sol",
  "abi": [
    {
      "inputs": [
        {
          "internalType": "address",
          "name": "initialOwner",
          "type": "address"
        },
        {
          "internalType": "address",
          "name": "_safe",
          "type": "address"
        }
      ],
      "stateMutability": "nonpayable",
      "type": "constructor"
    },
    {
      "anonymous": false,
      "inputs": [
        {
          "indexed": true,
          "internalType": "address",
          "name": "agent",
          "type": "address"
        },
        {
          "indexed": true,
          "internalType": "address",
          "name": "policy",
          "type": "address"
        },
        {
          "indexed": true,
          "internalType": "address",
          "name": "token",
          "type": "address"
        },
        {
          "indexed": false,
          "internalType": "address",
          "name": "to",
          "type": "address"
        },
        {
          "indexed": false,
          "internalType": "uint256",
          "name": "amount",
          "type": "uint256"
        },
        {
          "indexed": false,
          "internalType": "string",
          "name": "reason",
          "type": "string"
        }
      ],
      "name": "ExecutionBlocked",
      "type": "event"
    },
    {
      "anonymous": false,
      "inputs": [
        {
          "indexed": true,
          "internalType": "address",
          "name": "previousOwner",
          "type": "address"
        },
        {
          "indexed": true,
          "internalType": "address",
          "name": "newOwner",
          "type": "address"
        }
      ],
      "name": "OwnershipTransferred",
      "type": "event"
    },
    {
      "anonymous": false,
      "inputs": [
        {
          "indexed": true,
          "internalType": "address",
          "name": "policy",
          "type": "address"
        }
      ],
      "name": "PolicyAdded",
      "type": "event"
    },
    {
      "anonymous": false,
      "inputs": [
        {
          "indexed": true,
          "internalType": "uint256",
          "name": "index",
          "type": "uint256"
        },
        {
          "indexed": true,
          "internalType": "address",
          "name": "policy",
          "type": "address"
        }
      ],
      "name": "PolicyRemoved",
      "type": "event"
    },
    {
      "anonymous": false,
      "inputs": [
        {
          "indexed": true,
          "internalType": "address",
          "name": "agent",
          "type": "address"
        },
        {
          "indexed": true,
          "internalType": "address",
          "name": "token",
          "type": "address"
        },
        {
          "indexed": true,
          "internalType": "address",
          "name": "to",
          "type": "address"
        },
        {
          "indexed": false,
          "internalType": "uint256",
          "name": "amount",
          "type": "uint256"
        }
      ],
      "name": "Validated",
      "type": "event"
    },
    {
      "inputs": [],
      "name": "MAX_POLICIES",
      "outputs": [
        {
          "internalType": "uint256",
          "name": "",
          "type": "uint256"
        }
      ],
      "stateMutability": "view",
      "type": "function"
    },
    {
      "inputs": [
        {
          "internalType": "address",
          "name": "policy",
          "type": "address"
        }
      ],
      "name": "addPolicy",
      "outputs": [],
      "stateMutability": "nonpayable",
      "type": "function"
    },
    {
      "inputs": [],
      "name": "getPolicies",
      "outputs": [
        {
          "internalType": "address[]",
          "name": "",
          "type": "address[]"
        }
      ],
      "stateMutability": "view",
      "type": "function"
    },
    {
      "inputs": [
        {
          "internalType": "address",
          "name": "",
          "type": "address"
        }
      ],
      "name": "isPolicy",
      "outputs": [
        {
          "internalType": "bool",
          "name": "",
          "type": "bool"
        }
      ],
      "stateMutability": "view",
      "type": "function"
    },
    {
      "inputs": [],
      "name": "owner",
      "outputs": [
        {
          "internalType": "address",
          "name": "",
          "type": "address"
        }
      ],
      "stateMutability": "view",
      "type": "function"
    },
    {
      "inputs": [
        {
          "internalType": "uint256",
          "name": "",
          "type": "uint256"
        }
      ],
      "name": "policies",
      "outputs": [
        {
          "internalType": "address",
          "name": "",
          "type": "address"
        }
      ],
      "stateMutability": "view",
      "type": "function"
    },
    {
      "inputs": [
        {
          "internalType": "uint256",
          "name": "index",
          "type": "uint256"
        }
      ],
      "name": "removePolicy",
      "outputs": [],
      "stateMutability": "nonpayable",
      "type": "function"
    },
    {
      "inputs": [],
      "name": "renounceOwnership",
      "outputs": [],
      "stateMutability": "nonpayable",
      "type": "function"
    },
    {
      "inputs": [],
      "name": "safe",
      "outputs": [
        {
          "internalType": "address",
          "name": "",
          "type": "address"
        }
      ],
      "stateMutability": "view",
      "type": "function"
    },
    {
      "inputs": [
        {
          "internalType": "address",
          "name": "agent",
          "type": "address"
        },
        {
          "internalType": "address",
          "name": "token",
          "type": "address"
        },
        {
          "internalType": "address",
          "name": "to",
          "type": "address"
        },
        {
          "internalType": "uint256",
          "name": "amount",
          "type": "uint256"
        },
        {
          "internalType": "bytes",
          "name": "data",
          "type": "bytes"
        }
      ],
      "name": "simulateExecution",
      "outputs": [
        {
          "internalType": "address",
          "name": "blockingPolicy",
          "type": "address"
        },
        {
          "internalType": "string",
          "name": "reason",
          "type": "string"
        }
      ],
      "stateMutability": "nonpayable",
      "type": "function"
    },
    {
      "inputs": [],
      "name": "simulationActive",
      "outputs": [
        {
          "internalType": "bool",
          "name": "",
          "type": "bool"
        }
      ],
      "stateMutability": "view",
      "type": "function"
    },
    {
      "inputs": [
        {
          "internalType": "address",
          "name": "newOwner",
          "type": "address"
        }
      ],
      "name": "transferOwnership",
      "outputs": [],
      "stateMutability": "nonpayable",
      "type": "function"
    },
    {
      "inputs": [
        {
          "internalType": "address",
          "name": "agent",
          "type": "address"
        },
        {
          "internalType": "address",
          "name": "token",
          "type": "address"
        },
        {
          "internalType": "address",
          "name": "to",
          "type": "address"
        },
        {
          "internalType": "uint256",
          "name": "amount",
          "type": "uint256"
        },
        {
          "internalType": "bytes",
          "name": "data",
          "type": "bytes"
        }
      ],
      "name": "validate",
      "outputs": [],
      "stateMutability": "nonpayable",
      "type": "function"
    }
  ],
  "bytecode": "0x60a060405234801561001057600080fd5b50604051610dd0380380610dd083398101604081905261002f9161010b565b6100383361009f565b6001600160a01b0381166100825760405162461bcd60e51b815260206004820152600d60248201526c50453a207a65726f207361666560981b604482015260640160405180910390fd5b6001600160a01b0381166080526100988261009f565b505061013e565b600080546001600160a01b038381166001600160a01b0319831681178455604051919092169283917f8be0079c531659141344cd1fd0a4f28419497f9722a3daafe3b4186f6b6457e09190a35050565b80516001600160a01b038116811461010657600080fd5b919050565b6000806040838503121561011e57600080fd5b610127836100ef565b9150610135602084016100ef565b90509250929050565b608051610c7161015f6000396000818160d9015261028b0152610c716000f3fe608060405234801561001057600080fd5b50600436106100cf5760003560e01c806395fda8001161008c578063d3e8948311610066578063d3e89483146101b4578063e96c1aa2146101c7578063f2fde38b146101e8578063fad1c85c146101fb57600080fd5b806395fda8001461016e578063b84ef08114610184578063c10a09cf1461019757600080fd5b8063186f0354146100d45780633b04f6f1146101185780634370e6871461012d5780636caddcdc14610142578063715018a6146101555780638da5cb5b1461015d575b600080fd5b6100fb7f000000000000000000000000000000000000000000000000000000000000000081565b6040516001600160a01b0390911681526020015b60405180910390f35b61012061021e565b60405161010f91906109bb565b61014061013b366004610a24565b610280565b005b610140610150366004610ad1565b6103f7565b610140610570565b6000546001600160a01b03166100fb565b610176601481565b60405190815260200161010f565b610140610192366004610aea565b610584565b6003546101a49060ff1681565b604051901515815260200161010f565b6100fb6101c2366004610ad1565b61070b565b6101da6101d5366004610a24565b610735565b60405161010f929190610b0c565b6101406101f6366004610aea565b610898565b6101a4610209366004610aea565b60026020526000908152604090205460ff1681565b6060600180548060200260200160405190810160405280929190818152602001828054801561027657602002820191906000526020600020905b81546001600160a01b03168152600190910190602001808311610258575b5050505050905090565b336001600160a01b037f000000000000000000000000000000000000000000000000000000000000000016146102ed5760405162461bcd60e51b815260206004820152600d60248201526c50453a206f6e6c79207361666560981b60448201526064015b60405180910390fd5b60015460005b81811015610396576001818154811061030e5761030e610b6a565b600091825260209091200154604051634370e68760e01b81526001600160a01b0390911690634370e68790610351908b908b908b908b908b908b90600401610b80565b600060405180830381600087803b15801561036b57600080fd5b505af115801561037f573d6000803e3d6000fd5b50505050808061038e90610bf3565b9150506102f3565b50846001600160a01b0316866001600160a01b0316886001600160a01b03167f0c9f1e0f93202ed054e30931554649cb6be5da61c1b6892cae7d1aa90ab55b72876040516103e691815260200190565b60405180910390a450505050505050565b6103ff610911565b60015481106104445760405162461bcd60e51b815260206004820152601160248201527050453a206f7574206f6620626f756e647360781b60448201526064016102e4565b60006001828154811061045957610459610b6a565b60009182526020808320909101546001600160a01b031680835260029091526040909120805460ff191690556001805491925090610498908290610c0c565b815481106104a8576104a8610b6a565b600091825260209091200154600180546001600160a01b0390921691849081106104d4576104d4610b6a565b9060005260206000200160006101000a8154816001600160a01b0302191690836001600160a01b03160217905550600180548061051357610513610c25565b600082815260208120820160001990810180546001600160a01b03191690559091019091556040516001600160a01b0383169184917f32c0c3b8e819967869a0bb85ca7fdd96f84ef60145dc478b2bcda11335bb5e319190a35050565b610578610911565b610582600061096b565b565b61058c610911565b6001600160a01b0381166105d55760405162461bcd60e51b815260206004820152601060248201526f50453a207a65726f206164647265737360801b60448201526064016102e4565b6001600160a01b03811660009081526002602052604090205460ff161561062e5760405162461bcd60e51b815260206004820152600d60248201526c50453a206475706c696361746560981b60448201526064016102e4565b6001546014116106805760405162461bcd60e51b815260206004820152601860248201527f50453a206d617820706f6c69636965732072656163686564000000000000000060448201526064016102e4565b6001600160a01b038116600081815260026020526040808220805460ff19166001908117909155805480820182559083527fb10e2d527612073b26eecdfd717e6a320cf44b4afac2b0732d9fcbe2b7fa0cf60180546001600160a01b03191684179055517f1ed14278e1ad1e635937a5a835db93e1dfeb1f3846f7a9105c94a88e89c4b40d9190a250565b6001818154811061071b57600080fd5b6000918252602090912001546001600160a01b0316905081565b60035460009060609060ff161561078e5760405162461bcd60e51b815260206004820152601860248201527f50453a2073696d756c6174696f6e207265656e7472616e74000000000000000060448201526064016102e4565b6003805460ff191660019081179091555460005b8181101561086d576000600182815481106107bf576107bf610b6a565b600091825260209091200154604051634370e68760e01b81526001600160a01b0390911691508190634370e68790610805908e908e908e908e908e908e90600401610b80565b600060405180830381600087803b15801561081f57600080fd5b505af1925050508015610830575060015b61085a576003805460ff19169055604080516020810190915260008152909450925061088d915050565b508061086581610bf3565b9150506107a2565b50506003805460ff19169055505060408051602081019091526000808252905b965096945050505050565b6108a0610911565b6001600160a01b0381166109055760405162461bcd60e51b815260206004820152602660248201527f4f776e61626c653a206e6577206f776e657220697320746865207a65726f206160448201526564647265737360d01b60648201526084016102e4565b61090e8161096b565b50565b6000546001600160a01b031633146105825760405162461bcd60e51b815260206004820181905260248201527f4f776e61626c653a2063616c6c6572206973206e6f7420746865206f776e657260448201526064016102e4565b600080546001600160a01b038381166001600160a01b0319831681178455604051919092169283917f8be0079c531659141344cd1fd0a4f28419497f9722a3daafe3b4186f6b6457e09190a35050565b6020808252825182820181905260009190848201906040850190845b818110156109fc5783516001600160a01b0316835292840192918401916001016109d7565b50909695505050505050565b80356001600160a01b0381168114610a1f57600080fd5b919050565b60008060008060008060a08789031215610a3d57600080fd5b610a4687610a08565b9550610a5460208801610a08565b9450610a6260408801610a08565b935060608701359250608087013567ffffffffffffffff80821115610a8657600080fd5b818901915089601f830112610a9a57600080fd5b813581811115610aa957600080fd5b8a6020828501011115610abb57600080fd5b6020830194508093505050509295509295509295565b600060208284031215610ae357600080fd5b5035919050565b600060208284031215610afc57600080fd5b610b0582610a08565b9392505050565b60018060a01b038316815260006020604081840152835180604085015260005b81811015610b4857858101830151858201606001528201610b2c565b506000606082860101526060601f19601f830116850101925050509392505050565b634e487b7160e01b600052603260045260246000fd5b6001600160a01b0387811682528681166020830152851660408201526060810184905260a06080820181905281018290526000828460c0840137600060c0848401015260c0601f19601f8501168301019050979650505050505050565b634e487b7160e01b600052601160045260246000fd5b600060018201610c0557610c05610bdd565b5060010190565b81810381811115610c1f57610c1f610bdd565b92915050565b634e487b7160e01b600052603160045260246000fdfea2646970667358221220430f109daa34dd7565e9573e9fb706ca11e52259c8a6bb7476d4725eb2be929264736f6c63430008140033",
  "linkReferences": {},
  "deployedLinkReferences": {}
}