{
  "_format": "hh-sol-artifact-1",
  "contractName": "AgentCoordinator",
  "sourceName": "contracts/coordination/AgentCoordinator.sol",
  "abi": [
    {
      "inputs": [],
      "stateMutability": "nonpayable",
      "type": "constructor"
    },
    {
      "anonymous": false,
      "inputs": [
        {
          "indexed": true,
          "internalType": "address",
          "name": "agent",
          "type": "address"
        },
        {
          "indexed": false,
          "internalType": "bool",
          "name": "isContract",
          "type": "bool"
        },
        {
          "indexed": false,
          "internalType": "uint256",
          "name": "maxGasPerCall",
          "type": "uint256"
        },
        {
          "indexed": false,
          "internalType": "bool",
          "name": "allowedAutomation",
          "type": "bool"
        }
      ],
      "name": "AgentRegistered",
      "type": "event"
    },
    {
      "anonymous": false,
      "inputs": [
        {
          "indexed": true,
          "internalType": "address",
          "name": "agent",
          "type": "address"
        },
        {
          "indexed": true,
          "internalType": "bytes32",
          "name": "capability",
          "type": "bytes32"
        }
      ],
      "name": "CapabilityGranted",
      "type": "event"
    },
    {
      "anonymous": false,
      "inputs": [
        {
          "indexed": true,
          "internalType": "address",
          "name": "agent",
          "type": "address"
        },
        {
          "indexed": true,
          "internalType": "bytes32",
          "name": "capability",
          "type": "bytes32"
        }
      ],
      "name": "CapabilityRevoked",
      "type": "event"
    },
    {
      "anonymous": false,
      "inputs": [
        {
          "indexed": true,
          "internalType": "address",
          "name": "previousOwner",
          "type": "address"
        },
        {
          "indexed": true,
          "internalType": "address",
          "name": "newOwner",
          "type": "address"
        }
      ],
      "name": "OwnershipTransferred",
      "type": "event"
    },
    {
      "anonymous": false,
      "inputs": [
        {
          "indexed": true,
          "internalType": "address",
          "name": "oldAdmin",
          "type": "address"
        },
        {
          "indexed": true,
          "internalType": "address",
          "name": "newAdmin",
          "type": "address"
        }
      ],
      "name": "RoleAdminChanged",
      "type": "event"
    },
    {
      "anonymous": false,
      "inputs": [
        {
          "indexed": true,
          "internalType": "address",
          "name": "agent",
          "type": "address"
        },
        {
          "indexed": true,
          "internalType": "bytes32",
          "name": "role",
          "type": "bytes32"
        },
        {
          "indexed": false,
          "internalType": "bytes32[]",
          "name": "capabilities",
          "type": "bytes32[]"
        }
      ],
      "name": "RoleDefinedForAgent",
      "type": "event"
    },
    {
      "anonymous": false,
      "inputs": [
        {
          "indexed": true,
          "internalType": "address",
          "name": "agent",
          "type": "address"
        },
        {
          "indexed": true,
          "internalType": "bytes32",
          "name": "role",
          "type": "bytes32"
        }
      ],
      "name": "RoleRevoked",
      "type": "event"
    },
    {
      "inputs": [],
      "name": "CAN_PAY",
      "outputs": [
        {
          "internalType": "bytes32",
          "name": "",
          "type": "bytes32"
        }
      ],
      "stateMutability": "view",
      "type": "function"
    },
    {
      "inputs": [],
      "name": "CAN_REBALANCE",
      "outputs": [
        {
          "internalType": "bytes32",
          "name": "",
          "type": "bytes32"
        }
      ],
      "stateMutability": "view",
      "type": "function"
    },
    {
      "inputs": [],
      "name": "CAN_SUBSCRIBE",
      "outputs": [
        {
          "internalType": "bytes32",
          "name": "",
          "type": "bytes32"
        }
      ],
      "stateMutability": "view",
      "type": "function"
    },
    {
      "inputs": [],
      "name": "CAN_TRADE",
      "outputs": [
        {
          "internalType": "bytes32",
          "name": "",
          "type": "bytes32"
        }
      ],
      "stateMutability": "view",
      "type": "function"
    },
    {
      "inputs": [],
      "name": "CAN_TRANSFER",
      "outputs": [
        {
          "internalType": "bytes32",
          "name": "",
          "type": "bytes32"
        }
      ],
      "stateMutability": "view",
      "type": "function"
    },
    {
      "inputs": [],
      "name": "CAN_YIELD",
      "outputs": [
        {
          "internalType": "bytes32",
          "name": "",
          "type": "bytes32"
        }
      ],
      "stateMutability": "view",
      "type": "function"
    },
    {
      "inputs": [
        {
          "internalType": "address",
          "name": "",
          "type": "address"
        },
        {
          "internalType": "uint256",
          "name": "",
          "type": "uint256"
        }
      ],
      "name": "agentRoles",
      "outputs": [
        {
          "internalType": "bytes32",
          "name": "",
          "type": "bytes32"
        }
      ],
      "stateMutability": "view",
      "type": "function"
    },
    {
      "inputs": [
        {
          "internalType": "address",
          "name": "",
          "type": "address"
        }
      ],
      "name": "agents",
      "outputs": [
        {
          "internalType": "bool",
          "name": "isContract",
          "type": "bool"
        },
        {
          "internalType": "uint256",
          "name": "maxGasPerCall",
          "type": "uint256"
        },
        {
          "internalType": "bool",
          "name": "allowedAutomation",
          "type": "bool"
        }
      ],
      "stateMutability": "view",
      "type": "function"
    },
    {
      "inputs": [
        {
          "internalType": "address",
          "name": "agent",
          "type": "address"
        },
        {
          "internalType": "bytes32",
          "name": "role",
          "type": "bytes32"
        },
        {
          "internalType": "bytes32[]",
          "name": "capabilities",
          "type": "bytes32[]"
        }
      ],
      "name": "assignRole",
      "outputs": [],
      "stateMutability": "nonpayable",
      "type": "function"
    },
    {
      "inputs": [
        {
          "internalType": "address",
          "name": "agent",
          "type": "address"
        }
      ],
      "name": "canBeAutomated",
      "outputs": [
        {
          "internalType": "bool",
          "name": "",
          "type": "bool"
        }
      ],
      "stateMutability": "view",
      "type": "function"
    },
    {
      "inputs": [
        {
          "internalType": "address",
          "name": "agent",
          "type": "address"
        }
      ],
      "name": "getAgentConfig",
      "outputs": [
        {
          "components": [
            {
              "internalType": "bool",
              "name": "isContract",
              "type": "bool"
            },
            {
              "internalType": "uint256",
              "name": "maxGasPerCall",
              "type": "uint256"
            },
            {
              "internalType": "bool",
              "name": "allowedAutomation",
              "type": "bool"
            }
          ],
          "internalType": "struct AgentCoordinator.AgentConfig",
          "name": "",
          "type": "tuple"
        }
      ],
      "stateMutability": "view",
      "type": "function"
    },
    {
      "inputs": [
        {
          "internalType": "address",
          "name": "agent",
          "type": "address"
        }
      ],
      "name": "getAgentRoles",
      "outputs": [
        {
          "internalType": "bytes32[]",
          "name": "",
          "type": "bytes32[]"
        }
      ],
      "stateMutability": "view",
      "type": "function"
    },
    {
      "inputs": [
        {
          "internalType": "bytes32",
          "name": "role",
          "type": "bytes32"
        }
      ],
      "name": "getCapabilitiesForRole",
      "outputs": [
        {
          "internalType": "bytes32[]",
          "name": "",
          "type": "bytes32[]"
        }
      ],
      "stateMutability": "view",
      "type": "function"
    },
    {
      "inputs": [
        {
          "internalType": "address",
          "name": "agent",
          "type": "address"
        }
      ],
      "name": "getMaxGasPerCall",
      "outputs": [
        {
          "internalType": "uint256",
          "name": "",
          "type": "uint256"
        }
      ],
      "stateMutability": "view",
      "type": "function"
    },
    {
      "inputs": [
        {
          "internalType": "bytes32",
          "name": "role",
          "type": "bytes32"
        }
      ],
      "name": "getRoleMembers",
      "outputs": [
        {
          "internalType": "address[]",
          "name": "",
          "type": "address[]"
        }
      ],
      "stateMutability": "view",
      "type": "function"
    },
    {
      "inputs": [
        {
          "internalType": "address",
          "name": "agent",
          "type": "address"
        },
        {
          "internalType": "bytes32",
          "name": "capability",
          "type": "bytes32"
        }
      ],
      "name": "grantCapability",
      "outputs": [],
      "stateMutability": "nonpayable",
      "type": "function"
    },
    {
      "inputs": [
        {
          "internalType": "address",
          "name": "",
          "type": "address"
        },
        {
          "internalType": "bytes32",
          "name": "",
          "type": "bytes32"
        }
      ],
      "name": "hasCapability",
      "outputs": [
        {
          "internalType": "bool",
          "name": "",
          "type": "bool"
        }
      ],
      "stateMutability": "view",
      "type": "function"
    },
    {
      "inputs": [
        {
          "internalType": "address",
          "name": "agent",
          "type": "address"
        },
        {
          "internalType": "bytes32",
          "name": "role",
          "type": "bytes32"
        }
      ],
      "name": "hasRole",
      "outputs": [
        {
          "internalType": "bool",
          "name": "",
          "type": "bool"
        }
      ],
      "stateMutability": "view",
      "type": "function"
    },
    {
      "inputs": [
        {
          "internalType": "address",
          "name": "",
          "type": "address"
        }
      ],
      "name": "isAgentRegistered",
      "outputs": [
        {
          "internalType": "bool",
          "name": "",
          "type": "bool"
        }
      ],
      "stateMutability": "view",
      "type": "function"
    },
    {
      "inputs": [
        {
          "internalType": "address",
          "name": "agent",
          "type": "address"
        }
      ],
      "name": "isContractAgent",
      "outputs": [
        {
          "internalType": "bool",
          "name": "",
          "type": "bool"
        }
      ],
      "stateMutability": "view",
      "type": "function"
    },
    {
      "inputs": [],
      "name": "owner",
      "outputs": [
        {
          "internalType": "address",
          "name": "",
          "type": "address"
        }
      ],
      "stateMutability": "view",
      "type": "function"
    },
    {
      "inputs": [
        {
          "internalType": "address",
          "name": "agent",
          "type": "address"
        },
        {
          "internalType": "uint256",
          "name": "maxGasPerCall",
          "type": "uint256"
        },
        {
          "internalType": "bool",
          "name": "allowedAutomation",
          "type": "bool"
        }
      ],
      "name": "registerAgent",
      "outputs": [],
      "stateMutability": "nonpayable",
      "type": "function"
    },
    {
      "inputs": [],
      "name": "renounceOwnership",
      "outputs": [],
      "stateMutability": "nonpayable",
      "type": "function"
    },
    {
      "inputs": [
        {
          "internalType": "address",
          "name": "agent",
          "type": "address"
        },
        {
          "internalType": "bytes32",
          "name": "capability",
          "type": "bytes32"
        }
      ],
      "name": "revokeCapability",
      "outputs": [],
      "stateMutability": "nonpayable",
      "type": "function"
    },
    {
      "inputs": [
        {
          "internalType": "address",
          "name": "agent",
          "type": "address"
        },
        {
          "internalType": "bytes32",
          "name": "role",
          "type": "bytes32"
        }
      ],
      "name": "revokeRole",
      "outputs": [],
      "stateMutability": "nonpayable",
      "type": "function"
    },
    {
      "inputs": [],
      "name": "roleAdmin",
      "outputs": [
        {
          "internalType": "address",
          "name": "",
          "type": "address"
        }
      ],
      "stateMutability": "view",
      "type": "function"
    },
    {
      "inputs": [
        {
          "internalType": "bytes32",
          "name": "",
          "type": "bytes32"
        },
        {
          "internalType": "uint256",
          "name": "",
          "type": "uint256"
        }
      ],
      "name": "roleCapabilities",
      "outputs": [
        {
          "internalType": "bytes32",
          "name": "",
          "type": "bytes32"
        }
      ],
      "stateMutability": "view",
      "type": "function"
    },
    {
      "inputs": [
        {
          "internalType": "bytes32",
          "name": "",
          "type": "bytes32"
        },
        {
          "internalType": "uint256",
          "name": "",
          "type": "uint256"
        }
      ],
      "name": "roleMembers",
      "outputs": [
        {
          "internalType": "address",
          "name": "",
          "type": "address"
        }
      ],
      "stateMutability": "view",
      "type": "function"
    },
    {
      "inputs": [
        {
          "internalType": "address",
          "name": "agent",
          "type": "address"
        },
        {
          "internalType": "bool",
          "name": "allowed",
          "type": "bool"
        }
      ],
      "name": "setAllowedAutomation",
      "outputs": [],
      "stateMutability": "nonpayable",
      "type": "function"
    },
    {
      "inputs": [
        {
          "internalType": "address",
          "name": "agent",
          "type": "address"
        },
        {
          "internalType": "uint256",
          "name": "newLimit",
          "type": "uint256"
        }
      ],
      "name": "setMaxGasPerCall",
      "outputs": [],
      "stateMutability": "nonpayable",
      "type": "function"
    },
    {
      "inputs": [
        {
          "internalType": "address",
          "name": "newAdmin",
          "type": "address"
        }
      ],
      "name": "setRoleAdmin",
      "outputs": [],
      "stateMutability": "nonpayable",
      "type": "function"
    },
    {
      "inputs": [
        {
          "internalType": "address",
          "name": "newOwner",
          "type": "address"
        }
      ],
      "name": "transferOwnership",
      "outputs": [],
      "stateMutability": "nonpayable",
      "type": "function"
    }
  ],
  "bytecode": "0x608060405234801561001057600080fd5b5061001a33610031565b600780546001600160a01b03191633179055610081565b600080546001600160a01b038381166001600160a01b0319831681178455604051919092169283917f8be0079c531659141344cd1fd0a4f28419497f9722a3daafe3b4186f6b6457e09190a35050565b6119d9806100906000396000f3fe608060405234801561001057600080fd5b50600436106101f05760003560e01c80638da5cb5b1161010f578063b3be5529116100a2578063cf1bdae211610071578063cf1bdae2146105ca578063db73355d146105dd578063f2fde38b146105f0578063fd66091e1461060357600080fd5b8063b3be552914610550578063b728839e14610563578063c415accb14610590578063c5c2e025146105b757600080fd5b8063a3246ad3116100de578063a3246ad3146104e3578063a593386414610503578063ac4ab3fb1461052a578063b153958f1461053d57600080fd5b80638da5cb5b1461048557806393867fb51461049657806395b74e3d146104a957806397d19a54146104bc57600080fd5b806356bad863116101875780637f528155116101565780637f528155146103f95780637fecccfc14610424578063804b24d51461044b57806386eae19b1461045e57600080fd5b806356bad863146103085780635ecea824146103a0578063689b6c44146103ce578063715018a6146103f157600080fd5b8063330506d9116101c3578063330506d91461027e57806344ea1d431461029157806350e637f3146102c057806356ad850a146102d357600080fd5b806313fcbb48146101f5578063208dd1ff14610236578063228e3f9b1461024b5780632c60993c1461025e575b600080fd5b610221610203366004611659565b6001600160a01b031660009081526001602052604090205460ff1690565b60405190151581526020015b60405180910390f35b61024961024436600461167b565b610657565b005b61024961025936600461167b565b6109aa565b61027161026c3660046116a5565b610ac4565b60405161022d91906116be565b61024961028c36600461167b565b610b26565b61022161029f366004611659565b6001600160a01b031660009081526001602052604090206002015460ff1690565b6102716102ce366004611659565b610c79565b6102fa7f4244f9b94cc1e80fcc4fd9194847d3ef0eb179ba97aa042f48336b300c496c0a81565b60405190815260200161022d565b61037a610316366004611659565b6040805160608082018352600080835260208084018290529284018190526001600160a01b0394909416845260018083529383902083519182018452805460ff90811615158352948101549282019290925260029091015490921615159082015290565b60408051825115158152602080840151908201529181015115159082015260600161022d565b6102216103ae36600461167b565b600660209081526000928352604080842090915290825290205460ff1681565b6102216103dc366004611659565b60026020526000908152604090205460ff1681565b610249610ce3565b61040c610407366004611702565b610cf7565b6040516001600160a01b03909116815260200161022d565b6102fa7f1b6fc749b7603ccdc46a3d42847a5c46d1b34b260ea0c04cbba4d0cdb53e5f9c81565b610249610459366004611724565b610d2f565b6102fa7fed5516c47986bf8d5731a1ec97330da6aa82bdf5c591b9a2ea854807c759369381565b6000546001600160a01b031661040c565b60075461040c906001600160a01b031681565b6102fa6104b736600461167b565b61108e565b6102fa7fd83c3da79be62ce05b444acc669ce9f22e334fc4ad85b8bfa2c131fc5331750181565b6104f66104f13660046116a5565b6110bf565b60405161022d91906117ae565b6102fa7f3ca1aa796739d3af38a7033426b43b1eb1d63961fd971a84c5de1e3b901c628481565b61022161053836600461167b565b61112a565b6102fa61054b366004611702565b6111b3565b61024961055e366004611659565b6111cf565b6102fa610571366004611659565b6001600160a01b03166000908152600160208190526040909120015490565b6102fa7fb868dee755c9ac92b4f9c7191d25f5d5bdf1c66713d472e3b1173c438942d66f81565b6102496105c536600461167b565b611273565b6102496105d83660046117ff565b6112f5565b6102496105eb366004611832565b61134d565b6102496105fe366004611659565b6114ba565b610638610611366004611659565b600160208190526000918252604090912080549181015460029091015460ff928316921683565b604080519315158452602084019290925215159082015260600161022d565b6007546001600160a01b0316331461068a5760405162461bcd60e51b81526004016106819061186e565b60405180910390fd5b6001600160a01b0382166106b05760405162461bcd60e51b81526004016106819061189a565b806106f05760405162461bcd60e51b815260206004820152601060248201526f41433a20696e76616c696420726f6c6560801b6044820152606401610681565b60005b6001600160a01b038316600090815260056020526040902054811015610829576001600160a01b0383166000908152600560205260409020805483919083908110610740576107406118c5565b906000526020600020015403610817576001600160a01b03831660009081526005602052604090208054610776906001906118f1565b81548110610786576107866118c5565b906000526020600020015460056000856001600160a01b03166001600160a01b0316815260200190815260200160002082815481106107c7576107c76118c5565b60009182526020808320909101929092556001600160a01b03851681526005909152604090208054806107fc576107fc611904565b60019003818190600052602060002001600090559055610829565b806108218161191a565b9150506106f3565b5060005b60008281526004602052604090205481101561096f57600082815260046020526040902080546001600160a01b03851691908390811061086f5761086f6118c5565b6000918252602090912001546001600160a01b03160361095d57600082815260046020526040902080546108a5906001906118f1565b815481106108b5576108b56118c5565b60009182526020808320909101548483526004909152604090912080546001600160a01b0390921691839081106108ee576108ee6118c5565b600091825260208083209190910180546001600160a01b0319166001600160a01b03949094169390931790925583815260049091526040902080548061093657610936611904565b600082815260209020810160001990810180546001600160a01b031916905501905561096f565b806109678161191a565b91505061082d565b5060405181906001600160a01b038416907fea83a7caef01824e96446a8c4bc8ff4669edd99e129b53e32c077f85d216808190600090a35050565b6007546001600160a01b031633146109d45760405162461bcd60e51b81526004016106819061186e565b6001600160a01b0382166109fa5760405162461bcd60e51b81526004016106819061189a565b80610a405760405162461bcd60e51b815260206004820152601660248201527541433a20696e76616c6964206361706162696c69747960501b6044820152606401610681565b6001600160a01b038216600090815260066020908152604080832084845290915290205460ff1615610ac0576001600160a01b0382166000818152600660209081526040808320858452909152808220805460ff19169055518392917f6cc46c13bf9ecc309370a9150165239f833c3742128d77220c49cb4915a07bc791a35b5050565b600081815260036020908152604091829020805483518184028101840190945280845260609392830182828015610b1a57602002820191906000526020600020905b815481526020019060010190808311610b06575b50505050509050919050565b6007546001600160a01b03163314610b505760405162461bcd60e51b81526004016106819061186e565b6001600160a01b038216610b765760405162461bcd60e51b81526004016106819061189a565b80610bbc5760405162461bcd60e51b815260206004820152601660248201527541433a20696e76616c6964206361706162696c69747960501b6044820152606401610681565b6001600160a01b03821660009081526002602052604090205460ff16610bf45760405162461bcd60e51b815260040161068190611933565b6001600160a01b038216600090815260066020908152604080832084845290915290205460ff16610ac0576001600160a01b0382166000818152600660209081526040808320858452909152808220805460ff19166001179055518392917faf409f79c52d1fc6127b156de998c22b9c6cf6d4f0f58e934e62f983c4dc82bf91a35050565b6001600160a01b038116600090815260056020908152604091829020805483518184028101840190945280845260609392830182828015610b1a5760200282019190600052602060002090815481526020019060010190808311610b065750505050509050919050565b610ceb611533565b610cf5600061158d565b565b60046020528160005260406000208181548110610d1357600080fd5b6000918252602090912001546001600160a01b03169150829050565b6007546001600160a01b03163314610d595760405162461bcd60e51b81526004016106819061186e565b6001600160a01b038416610d7f5760405162461bcd60e51b81526004016106819061189a565b82610dbf5760405162461bcd60e51b815260206004820152601060248201526f41433a20696e76616c696420726f6c6560801b6044820152606401610681565b6001600160a01b03841660009081526002602052604090205460ff16610df75760405162461bcd60e51b815260040161068190611933565b6000805b6001600160a01b038616600090815260056020526040902054811015610e73576001600160a01b0386166000908152600560205260409020805486919083908110610e4857610e486118c5565b906000526020600020015403610e615760019150610e73565b80610e6b8161191a565b915050610dfb565b5080610ea5576001600160a01b0385166000908152600560209081526040822080546001810182559083529120018490555b8115610f895760005b82811015610f6d576000848483818110610eca57610eca6118c5565b6001600160a01b038a166000908152600660209081526040808320938202959095013580835292905292909220549192505060ff16610f5a576001600160a01b0387166000818152600660209081526040808320858452909152808220805460ff19166001179055518392917faf409f79c52d1fc6127b156de998c22b9c6cf6d4f0f58e934e62f983c4dc82bf91a35b5080610f658161191a565b915050610eae565b506000848152600360205260409020610f879084846115dd565b505b6000805b60008681526004602052604090205481101561100457600086815260046020526040902080546001600160a01b038916919083908110610fcf57610fcf6118c5565b6000918252602090912001546001600160a01b031603610ff25760019150611004565b80610ffc8161191a565b915050610f8d565b50806110425760008581526004602090815260408220805460018101825590835291200180546001600160a01b0319166001600160a01b0388161790555b84866001600160a01b03167f31753fbf38c02193f5bca8319060f42703779a89de79debec356788c7d7266c4868660405161107e92919061196a565b60405180910390a3505050505050565b600560205281600052604060002081815481106110aa57600080fd5b90600052602060002001600091509150505481565b600081815260046020908152604091829020805483518184028101840190945280845260609392830182828015610b1a57602002820191906000526020600020905b81546001600160a01b031681526001909101906020018083116111015750505050509050919050565b6000805b6001600160a01b0384166000908152600560205260409020548110156111a7576001600160a01b038416600090815260056020526040902080548491908390811061117b5761117b6118c5565b9060005260206000200154036111955760019150506111ad565b8061119f8161191a565b91505061112e565b50600090505b92915050565b600360205281600052604060002081815481106110aa57600080fd5b6111d7611533565b6001600160a01b0381166112215760405162461bcd60e51b815260206004820152601160248201527020a19d1034b73b30b634b21030b236b4b760791b6044820152606401610681565b600780546001600160a01b038381166001600160a01b0319831681179093556040519116919082907f6dc5a6386166d4aea56c8d14b28e24c501c6f8d53554066f3c1e8216af5fe99c90600090a35050565b6007546001600160a01b0316331461129d5760405162461bcd60e51b81526004016106819061186e565b6001600160a01b03821660009081526002602052604090205460ff166112d55760405162461bcd60e51b815260040161068190611933565b6001600160a01b0390911660009081526001602081905260409091200155565b6007546001600160a01b0316331461131f5760405162461bcd60e51b81526004016106819061186e565b6001600160a01b03919091166000908152600160205260409020600201805460ff1916911515919091179055565b6007546001600160a01b031633146113775760405162461bcd60e51b81526004016106819061186e565b6001600160a01b03831661139d5760405162461bcd60e51b81526004016106819061189a565b6001600160a01b03831660009081526002602052604090205460ff16156113ff5760405162461bcd60e51b81526020600482015260166024820152751050ce88185b1c9958591e481c9959da5cdd195c995960521b6044820152606401610681565b60408051606080820183526001600160a01b038616803b15158084526020808501888152871515868801818152600086815260018086528a822099518a5490151560ff19918216178b5594518a82015591516002998a018054911515918616919091179055978452968890208054909216909617905585518281529081018890529485019390935291927feaf678fffad7ed90837cd73662f49f039d912348456152b3d5ff23d556f5b7db910160405180910390a250505050565b6114c2611533565b6001600160a01b0381166115275760405162461bcd60e51b815260206004820152602660248201527f4f776e61626c653a206e6577206f776e657220697320746865207a65726f206160448201526564647265737360d01b6064820152608401610681565b6115308161158d565b50565b6000546001600160a01b03163314610cf55760405162461bcd60e51b815260206004820181905260248201527f4f776e61626c653a2063616c6c6572206973206e6f7420746865206f776e65726044820152606401610681565b600080546001600160a01b038381166001600160a01b0319831681178455604051919092169283917f8be0079c531659141344cd1fd0a4f28419497f9722a3daafe3b4186f6b6457e09190a35050565b828054828255906000526020600020908101928215611618579160200282015b828111156116185782358255916020019190600101906115fd565b50611624929150611628565b5090565b5b808211156116245760008155600101611629565b80356001600160a01b038116811461165457600080fd5b919050565b60006020828403121561166b57600080fd5b6116748261163d565b9392505050565b6000806040838503121561168e57600080fd5b6116978361163d565b946020939093013593505050565b6000602082840312156116b757600080fd5b5035919050565b6020808252825182820181905260009190848201906040850190845b818110156116f6578351835292840192918401916001016116da565b50909695505050505050565b6000806040838503121561171557600080fd5b50508035926020909101359150565b6000806000806060858703121561173a57600080fd5b6117438561163d565b935060208501359250604085013567ffffffffffffffff8082111561176757600080fd5b818701915087601f83011261177b57600080fd5b81358181111561178a57600080fd5b8860208260051b850101111561179f57600080fd5b95989497505060200194505050565b6020808252825182820181905260009190848201906040850190845b818110156116f65783516001600160a01b0316835292840192918401916001016117ca565b8035801515811461165457600080fd5b6000806040838503121561181257600080fd5b61181b8361163d565b9150611829602084016117ef565b90509250929050565b60008060006060848603121561184757600080fd5b6118508461163d565b925060208401359150611865604085016117ef565b90509250925092565b60208082526012908201527120a19d1037b7363c903937b632a0b236b4b760711b604082015260600190565b6020808252601190820152701050ce881a5b9d985b1a59081859d95b9d607a1b604082015260600190565b634e487b7160e01b600052603260045260246000fd5b634e487b7160e01b600052601160045260246000fd5b818103818111156111ad576111ad6118db565b634e487b7160e01b600052603160045260246000fd5b60006001820161192c5761192c6118db565b5060010190565b60208082526018908201527f41433a206167656e74206e6f7420726567697374657265640000000000000000604082015260600190565b6020808252810182905260006001600160fb1b0383111561198a57600080fd5b8260051b8085604085013791909101604001939250505056fea2646970667358221220d54ffc807fee30aa6b22e8ccb37e7ab5646b6053dbbd750ea988bed760ca558d64736f6c63430008140033",
  "linkReferences": {},
  "deployedLinkReferences": {}
}