{
  "_format": "hh-sol-artifact-1",
  "contractName": "MockReentrantToken",
  "sourceName": "contracts/mocks/MockReentrantToken.sol",
  "abi": [
    {
      "inputs": [
        {
          "internalType": "address",
          "name": "account",
          "type": "address"
        }
      ],
      "name": "balanceOf",
      "outputs": [
        {
          "internalType": "uint256",
          "name": "",
          "type": "uint256"
        }
      ],
      "stateMutability": "view",
      "type": "function"
    },
    {
      "inputs": [
        {
          "internalType": "address",
          "name": "to",
          "type": "address"
        },
        {
          "internalType": "uint256",
          "name": "amount",
          "type": "uint256"
        }
      ],
      "name": "mint",
      "outputs": [],
      "stateMutability": "nonpayable",
      "type": "function"
    },
    {
      "inputs": [
        {
          "internalType": "address",
          "name": "safe",
          "type": "address"
        }
      ],
      "name": "setTarget",
      "outputs": [],
      "stateMutability": "nonpayable",
      "type": "function"
    },
    {
      "inputs": [],
      "name": "targetSafe",
      "outputs": [
        {
          "internalType": "address",
          "name": "",
          "type": "address"
        }
      ],
      "stateMutability": "view",
      "type": "function"
    },
    {
      "inputs": [
        {
          "internalType": "address",
          "name": "from",
          "type": "address"
        },
        {
          "internalType": "address",
          "name": "to",
          "type": "address"
        },
        {
          "internalType": "uint256",
          "name": "amount",
          "type": "uint256"
        },
        {
          "internalType": "bool",
          "name": "allowNonLSP1Recipient",
          "type": "bool"
        },
        {
          "internalType": "bytes",
          "name": "",
          "type": "bytes"
        }
      ],
      "name": "transfer",
      "outputs": [],
      "stateMutability": "nonpayable",
      "type": "function"
    }
  ],
  "bytecode": "0x608060405234801561001057600080fd5b50610479806100206000396000f3fe608060405234801561001057600080fd5b50600436106100575760003560e01c806340c10f191461005c57806370a0823114610071578063760d9bba146100ad578063776d1a01146100c0578063d6ad7a7e146100f0575b600080fd5b61006f61006a366004610301565b61011b565b005b61009a61007f36600461032b565b6001600160a01b031660009081526020819052604090205490565b6040519081526020015b60405180910390f35b61006f6100bb36600461034d565b61014c565b61006f6100ce36600461032b565b600180546001600160a01b0319166001600160a01b0392909216919091179055565b600154610103906001600160a01b031681565b6040516001600160a01b0390911681526020016100a4565b6001600160a01b03821660009081526020819052604081208054839290610143908490610417565b90915550505050565b6001600160a01b0386166000908152602081905260409020548411156101b85760405162461bcd60e51b815260206004820152601f60248201527f4d6f636b546f6b656e3a20696e73756666696369656e742062616c616e636500604482015260640160405180910390fd5b600154600160a01b900460ff161580156101dc57506001546001600160a01b031615155b156102835760018054600160a01b60ff60a01b19821617909155604051631f8a336160e01b81523060048201526001600160a01b03878116602483015260448201879052851515606483015260a06084830152600060a483015290911690631f8a33619060c401600060405180830381600087803b15801561025d57600080fd5b505af1158015610271573d6000803e3d6000fd5b50506001805460ff60a01b1916905550505b6001600160a01b038616600090815260208190526040812080548692906102ab908490610430565b90915550506001600160a01b038516600090815260208190526040812080548692906102d8908490610417565b9091555050505050505050565b80356001600160a01b03811681146102fc57600080fd5b919050565b6000806040838503121561031457600080fd5b61031d836102e5565b946020939093013593505050565b60006020828403121561033d57600080fd5b610346826102e5565b9392505050565b60008060008060008060a0878903121561036657600080fd5b61036f876102e5565b955061037d602088016102e5565b9450604087013593506060870135801515811461039957600080fd5b9250608087013567ffffffffffffffff808211156103b657600080fd5b818901915089601f8301126103ca57600080fd5b8135818111156103d957600080fd5b8a60208285010111156103eb57600080fd5b6020830194508093505050509295509295509295565b634e487b7160e01b600052601160045260246000fd5b8082018082111561042a5761042a610401565b92915050565b8181038181111561042a5761042a61040156fea2646970667358221220c6993ae3404cbbbe88a4cae4fbdeb97fb008c9023263dc830f7a5f5c61632f7b64736f6c63430008140033",
  "linkReferences": {},
  "deployedLinkReferences": {}
}