{
  "_format": "hh-sol-artifact-1",
  "contractName": "VaultDirectory",
  "sourceName": "contracts/financial-graph/VaultDirectory.sol",
  "abi": [
    {
      "anonymous": false,
      "inputs": [
        {
          "indexed": true,
          "internalType": "address",
          "name": "previousOwner",
          "type": "address"
        },
        {
          "indexed": true,
          "internalType": "address",
          "name": "newOwner",
          "type": "address"
        }
      ],
      "name": "OwnershipTransferred",
      "type": "event"
    },
    {
      "anonymous": false,
      "inputs": [
        {
          "indexed": true,
          "internalType": "address",
          "name": "vault",
          "type": "address"
        },
        {
          "indexed": false,
          "internalType": "bytes32",
          "name": "newPool",
          "type": "bytes32"
        }
      ],
      "name": "PoolLinkUpdated",
      "type": "event"
    },
    {
      "anonymous": false,
      "inputs": [
        {
          "indexed": true,
          "internalType": "address",
          "name": "vault",
          "type": "address"
        },
        {
          "indexed": false,
          "internalType": "string",
          "name": "newLabel",
          "type": "string"
        }
      ],
      "name": "VaultLabelUpdated",
      "type": "event"
    },
    {
      "anonymous": false,
      "inputs": [
        {
          "indexed": true,
          "internalType": "address",
          "name": "vault",
          "type": "address"
        },
        {
          "indexed": false,
          "internalType": "string",
          "name": "label",
          "type": "string"
        },
        {
          "indexed": false,
          "internalType": "bytes32",
          "name": "linkedPool",
          "type": "bytes32"
        }
      ],
      "name": "VaultRegistered",
      "type": "event"
    },
    {
      "anonymous": false,
      "inputs": [
        {
          "indexed": true,
          "internalType": "address",
          "name": "vault",
          "type": "address"
        }
      ],
      "name": "VaultUnregistered",
      "type": "event"
    },
    {
      "inputs": [],
      "name": "MAX_SAFE_BATCH",
      "outputs": [
        {
          "internalType": "uint256",
          "name": "",
          "type": "uint256"
        }
      ],
      "stateMutability": "view",
      "type": "function"
    },
    {
      "inputs": [
        {
          "internalType": "uint256",
          "name": "",
          "type": "uint256"
        }
      ],
      "name": "allVaults",
      "outputs": [
        {
          "internalType": "address",
          "name": "",
          "type": "address"
        }
      ],
      "stateMutability": "view",
      "type": "function"
    },
    {
      "inputs": [],
      "name": "getAllVaults",
      "outputs": [
        {
          "internalType": "address[]",
          "name": "",
          "type": "address[]"
        }
      ],
      "stateMutability": "view",
      "type": "function"
    },
    {
      "inputs": [
        {
          "internalType": "address",
          "name": "vault",
          "type": "address"
        }
      ],
      "name": "getVault",
      "outputs": [
        {
          "internalType": "address",
          "name": "vaultAddr",
          "type": "address"
        },
        {
          "internalType": "string",
          "name": "label",
          "type": "string"
        },
        {
          "internalType": "bytes32",
          "name": "linkedPool",
          "type": "bytes32"
        },
        {
          "internalType": "bool",
          "name": "registered",
          "type": "bool"
        }
      ],
      "stateMutability": "view",
      "type": "function"
    },
    {
      "inputs": [],
      "name": "getVaultCount",
      "outputs": [
        {
          "internalType": "uint256",
          "name": "",
          "type": "uint256"
        }
      ],
      "stateMutability": "view",
      "type": "function"
    },
    {
      "inputs": [
        {
          "internalType": "address",
          "name": "vault",
          "type": "address"
        }
      ],
      "name": "getVaultLabel",
      "outputs": [
        {
          "internalType": "string",
          "name": "",
          "type": "string"
        }
      ],
      "stateMutability": "view",
      "type": "function"
    },
    {
      "inputs": [
        {
          "internalType": "address",
          "name": "vault",
          "type": "address"
        }
      ],
      "name": "getVaultPool",
      "outputs": [
        {
          "internalType": "bytes32",
          "name": "",
          "type": "bytes32"
        }
      ],
      "stateMutability": "view",
      "type": "function"
    },
    {
      "inputs": [
        {
          "internalType": "uint256",
          "name": "offset",
          "type": "uint256"
        },
        {
          "internalType": "uint256",
          "name": "limit",
          "type": "uint256"
        }
      ],
      "name": "getVaults",
      "outputs": [
        {
          "internalType": "address[]",
          "name": "",
          "type": "address[]"
        }
      ],
      "stateMutability": "view",
      "type": "function"
    },
    {
      "inputs": [
        {
          "internalType": "address",
          "name": "vault",
          "type": "address"
        }
      ],
      "name": "isVaultRegistered",
      "outputs": [
        {
          "internalType": "bool",
          "name": "",
          "type": "bool"
        }
      ],
      "stateMutability": "view",
      "type": "function"
    },
    {
      "inputs": [],
      "name": "owner",
      "outputs": [
        {
          "internalType": "address",
          "name": "",
          "type": "address"
        }
      ],
      "stateMutability": "view",
      "type": "function"
    },
    {
      "inputs": [
        {
          "internalType": "address",
          "name": "vault",
          "type": "address"
        },
        {
          "internalType": "string",
          "name": "label",
          "type": "string"
        },
        {
          "internalType": "bytes32",
          "name": "linkedPool",
          "type": "bytes32"
        }
      ],
      "name": "registerVault",
      "outputs": [],
      "stateMutability": "nonpayable",
      "type": "function"
    },
    {
      "inputs": [],
      "name": "renounceOwnership",
      "outputs": [],
      "stateMutability": "nonpayable",
      "type": "function"
    },
    {
      "inputs": [
        {
          "internalType": "address",
          "name": "newOwner",
          "type": "address"
        }
      ],
      "name": "transferOwnership",
      "outputs": [],
      "stateMutability": "nonpayable",
      "type": "function"
    },
    {
      "inputs": [
        {
          "internalType": "address",
          "name": "vault",
          "type": "address"
        }
      ],
      "name": "unregisterVault",
      "outputs": [],
      "stateMutability": "nonpayable",
      "type": "function"
    },
    {
      "inputs": [
        {
          "internalType": "address",
          "name": "vault",
          "type": "address"
        },
        {
          "internalType": "bytes32",
          "name": "newPool",
          "type": "bytes32"
        }
      ],
      "name": "updatePoolLink",
      "outputs": [],
      "stateMutability": "nonpayable",
      "type": "function"
    },
    {
      "inputs": [
        {
          "internalType": "address",
          "name": "vault",
          "type": "address"
        },
        {
          "internalType": "string",
          "name": "newLabel",
          "type": "string"
        }
      ],
      "name": "updateVaultLabel",
      "outputs": [],
      "stateMutability": "nonpayable",
      "type": "function"
    },
    {
      "inputs": [
        {
          "internalType": "address",
          "name": "",
          "type": "address"
        }
      ],
      "name": "vaults",
      "outputs": [
        {
          "internalType": "address",
          "name": "vault",
          "type": "address"
        },
        {
          "internalType": "string",
          "name": "label",
          "type": "string"
        },
        {
          "internalType": "bytes32",
          "name": "linkedPool",
          "type": "bytes32"
        },
        {
          "internalType": "bool",
          "name": "registered",
          "type": "bool"
        }
      ],
      "stateMutability": "view",
      "type": "function"
    }
  ],
  "bytecode": "0x608060405234801561001057600080fd5b5061001a3361001f565b61006f565b600080546001600160a01b038381166001600160a01b0319831681178455604051919092169283917f8be0079c531659141344cd1fd0a4f28419497f9722a3daafe3b4186f6b6457e09190a35050565b6115e88061007e6000396000f3fe608060405234801561001057600080fd5b506004361061010b5760003560e01c806374d4e491116100a257806397331bf91161007157806397331bf914610248578063a622ee7c1461025d578063b98cca3714610270578063e28825a414610283578063f2fde38b1461029657600080fd5b806374d4e491146101e8578063885cd4bd146101f05780638da5cb5b146102105780639094a91e1461023557600080fd5b80632633b70f116100de5780632633b70f146101a35780632969ba16146101b6578063478fa248146101c9578063715018a6146101e057600080fd5b80630eb9af3814610110578063105a88e31461013c5780631789e8c61461017b578063210a089414610190575b600080fd5b61012361011e366004610fe7565b6102a9565b604051610133949392919061104f565b60405180910390f35b61016b61014a366004610fe7565b6001600160a01b031660009081526001602052604090206003015460ff1690565b6040519015158152602001610133565b61018e61018936600461108b565b610383565b005b61018e61019e3660046110fe565b610451565b61018e6101b1366004610fe7565b61057a565b61018e6101c4366004611151565b61076e565b6101d26101f481565b604051908152602001610133565b61018e6109b1565b6002546101d2565b6102036101fe366004610fe7565b6109c5565b60405161013391906111ab565b6000546001600160a01b03165b6040516001600160a01b039091168152602001610133565b61021d6102433660046111be565b610ad5565b610250610aff565b60405161013391906111d7565b61012361026b366004610fe7565b610bcd565b61025061027e366004611224565b610c8d565b6101d2610291366004610fe7565b610dda565b61018e6102a4366004610fe7565b610e5a565b6001600160a01b0380821660009081526001602081905260408220805460028201546003830154938301805495966060968896879695909216939160ff169083906102f390611246565b80601f016020809104026020016040519081016040528092919081815260200182805461031f90611246565b801561036c5780601f106103415761010080835404028352916020019161036c565b820191906000526020600020905b81548152906001019060200180831161034f57829003601f168201915b505050505092509450945094509450509193509193565b61038b610ed3565b6001600160a01b0382166103ba5760405162461bcd60e51b81526004016103b190611280565b60405180910390fd5b6001600160a01b03821660009081526001602052604090206003015460ff166103f55760405162461bcd60e51b81526004016103b1906112ab565b6001600160a01b03821660008181526001602052604090819020600201839055517f0d752d21e2d61b4d5c371ce5589d7b4b0a5ae3d4c5aa06382be3cc2ce53f6a0e906104459084815260200190565b60405180910390a25050565b610459610ed3565b6001600160a01b03831661047f5760405162461bcd60e51b81526004016103b190611280565b801580159061048f575060808111155b6104cf5760405162461bcd60e51b815260206004820152601160248201527015910e881a5b9d985b1a59081b1858995b607a1b60448201526064016103b1565b6001600160a01b03831660009081526001602052604090206003015460ff1661050a5760405162461bcd60e51b81526004016103b1906112ab565b6001600160a01b038316600090815260016020819052604090912001610531828483611347565b50826001600160a01b03167f8c094138e703603593f0ec8bb32edf6811af7723eaacdb4d4d1aad582b05fefe838360405161056d929190611431565b60405180910390a2505050565b610582610ed3565b6001600160a01b0381166105a85760405162461bcd60e51b81526004016103b190611280565b6001600160a01b03811660009081526001602052604090206003015460ff166105e35760405162461bcd60e51b81526004016103b1906112ab565b6001600160a01b0381166000908152600160208190526040822080546001600160a01b0319168155919061061990830182610f7d565b506000600282018190556003909101805460ff191690555b60025481101561073657816001600160a01b0316600282815481106106585761065861144d565b6000918252602090912001546001600160a01b031603610724576002805461068290600190611479565b815481106106925761069261144d565b600091825260209091200154600280546001600160a01b0390921691839081106106be576106be61144d565b9060005260206000200160006101000a8154816001600160a01b0302191690836001600160a01b0316021790555060028054806106fd576106fd61148c565b600082815260209020810160001990810180546001600160a01b0319169055019055610736565b8061072e816114a2565b915050610631565b506040516001600160a01b038216907f6fd85269676191488efa05d4b8cef674e502d3db3864638c729a0394048423cf90600090a250565b610776610ed3565b6001600160a01b03841661079c5760405162461bcd60e51b81526004016103b190611280565b81158015906107ac575060808211155b6107ec5760405162461bcd60e51b815260206004820152601160248201527015910e881a5b9d985b1a59081b1858995b607a1b60448201526064016103b1565b6001600160a01b03841660009081526001602052604090206003015460ff16156108585760405162461bcd60e51b815260206004820152601c60248201527f56443a207661756c7420616c726561647920726567697374657265640000000060448201526064016103b1565b6040518060800160405280856001600160a01b0316815260200184848080601f01602080910402602001604051908101604052809392919081815260200183838082843760009201829052509385525050506020808301859052600160409384018190526001600160a01b03898116845281835293909220845181546001600160a01b0319169416939093178355830151908201906108f790826114bb565b506040828101516002838101919091556060909301516003909201805460ff19169215159290921790915581546001810183556000929092527f405787fa12a823e0f2b7631cc41b3ba8828b3321ca811111fa75cd3aa3bb5ace90910180546001600160a01b0319166001600160a01b03871690811790915590517fde6c790d5f8ed28edc32b64786fd75e627fa3709a4f85ef7ba7af6fd2284937c906109a39086908690869061157b565b60405180910390a250505050565b6109b9610ed3565b6109c36000610f2d565b565b6001600160a01b03811660009081526001602052604090206003015460609060ff16610a295760405162461bcd60e51b815260206004820152601360248201527215910e881d985d5b1d081b9bdd08199bdd5b99606a1b60448201526064016103b1565b6001600160a01b0382166000908152600160208190526040909120018054610a5090611246565b80601f0160208091040260200160405190810160405280929190818152602001828054610a7c90611246565b8015610ac95780601f10610a9e57610100808354040283529160200191610ac9565b820191906000526020600020905b815481529060010190602001808311610aac57829003601f168201915b50505050509050919050565b60028181548110610ae557600080fd5b6000918252602090912001546001600160a01b0316905081565b6002546060906101f41015610b6d5760405162461bcd60e51b815260206004820152602e60248201527f56443a20746f6f206d616e79207661756c74732c2075736520706167696e617460448201526d6564206765745661756c7473282960901b60648201526084016103b1565b6002805480602002602001604051908101604052809291908181526020018280548015610bc357602002820191906000526020600020905b81546001600160a01b03168152600190910190602001808311610ba5575b5050505050905090565b6001602081905260009182526040909120805491810180546001600160a01b0390931692610bfa90611246565b80601f0160208091040260200160405190810160405280929190818152602001828054610c2690611246565b8015610c735780601f10610c4857610100808354040283529160200191610c73565b820191906000526020600020905b815481529060010190602001808311610c5657829003601f168201915b50505050600283015460039093015491929160ff16905084565b600254606090831080610ca05750600254155b610ce15760405162461bcd60e51b815260206004820152601260248201527115910e881a5b9d985b1a59081bd9999cd95d60721b60448201526064016103b1565b6002548290610cf0828661159f565b1115610d0757600254610d04908590611479565b90505b60008167ffffffffffffffff811115610d2257610d226112e2565b604051908082528060200260200182016040528015610d4b578160200160208202803683370190505b50905060005b82811015610dcf576002610d65828861159f565b81548110610d7557610d7561144d565b9060005260206000200160009054906101000a90046001600160a01b0316828281518110610da557610da561144d565b6001600160a01b039092166020928302919091019091015280610dc7816114a2565b915050610d51565b509150505b92915050565b6001600160a01b03811660009081526001602052604081206003015460ff16610e3b5760405162461bcd60e51b815260206004820152601360248201527215910e881d985d5b1d081b9bdd08199bdd5b99606a1b60448201526064016103b1565b506001600160a01b031660009081526001602052604090206002015490565b610e62610ed3565b6001600160a01b038116610ec75760405162461bcd60e51b815260206004820152602660248201527f4f776e61626c653a206e6577206f776e657220697320746865207a65726f206160448201526564647265737360d01b60648201526084016103b1565b610ed081610f2d565b50565b6000546001600160a01b031633146109c35760405162461bcd60e51b815260206004820181905260248201527f4f776e61626c653a2063616c6c6572206973206e6f7420746865206f776e657260448201526064016103b1565b600080546001600160a01b038381166001600160a01b0319831681178455604051919092169283917f8be0079c531659141344cd1fd0a4f28419497f9722a3daafe3b4186f6b6457e09190a35050565b508054610f8990611246565b6000825580601f10610f99575050565b601f016020900490600052602060002090810190610ed091905b80821115610fc75760008155600101610fb3565b5090565b80356001600160a01b0381168114610fe257600080fd5b919050565b600060208284031215610ff957600080fd5b61100282610fcb565b9392505050565b6000815180845260005b8181101561102f57602081850181015186830182015201611013565b506000602082860101526020601f19601f83011685010191505092915050565b6001600160a01b038516815260806020820181905260009061107390830186611009565b60408301949094525090151560609091015292915050565b6000806040838503121561109e57600080fd5b6110a783610fcb565b946020939093013593505050565b60008083601f8401126110c757600080fd5b50813567ffffffffffffffff8111156110df57600080fd5b6020830191508360208285010111156110f757600080fd5b9250929050565b60008060006040848603121561111357600080fd5b61111c84610fcb565b9250602084013567ffffffffffffffff81111561113857600080fd5b611144868287016110b5565b9497909650939450505050565b6000806000806060858703121561116757600080fd5b61117085610fcb565b9350602085013567ffffffffffffffff81111561118c57600080fd5b611198878288016110b5565b9598909750949560400135949350505050565b6020815260006110026020830184611009565b6000602082840312156111d057600080fd5b5035919050565b6020808252825182820181905260009190848201906040850190845b818110156112185783516001600160a01b0316835292840192918401916001016111f3565b50909695505050505050565b6000806040838503121561123757600080fd5b50508035926020909101359150565b600181811c9082168061125a57607f821691505b60208210810361127a57634e487b7160e01b600052602260045260246000fd5b50919050565b60208082526011908201527015910e881a5b9d985b1a59081d985d5b1d607a1b604082015260600190565b60208082526018908201527f56443a207661756c74206e6f7420726567697374657265640000000000000000604082015260600190565b634e487b7160e01b600052604160045260246000fd5b601f82111561134257600081815260208120601f850160051c8101602086101561131f5750805b601f850160051c820191505b8181101561133e5782815560010161132b565b5050505b505050565b67ffffffffffffffff83111561135f5761135f6112e2565b6113738361136d8354611246565b836112f8565b6000601f8411600181146113a7576000851561138f5750838201355b600019600387901b1c1916600186901b178355611401565b600083815260209020601f19861690835b828110156113d857868501358255602094850194600190920191016113b8565b50868210156113f55760001960f88860031b161c19848701351681555b505060018560011b0183555b5050505050565b81835281816020850137506000828201602090810191909152601f909101601f19169091010190565b602081526000611445602083018486611408565b949350505050565b634e487b7160e01b600052603260045260246000fd5b634e487b7160e01b600052601160045260246000fd5b81810381811115610dd457610dd4611463565b634e487b7160e01b600052603160045260246000fd5b6000600182016114b4576114b4611463565b5060010190565b815167ffffffffffffffff8111156114d5576114d56112e2565b6114e9816114e38454611246565b846112f8565b602080601f83116001811461151e57600084156115065750858301515b600019600386901b1c1916600185901b17855561133e565b600085815260208120601f198616915b8281101561154d5788860151825594840194600190910190840161152e565b508582101561156b5787850151600019600388901b60f8161c191681555b5050505050600190811b01905550565b60408152600061158f604083018587611408565b9050826020830152949350505050565b80820180821115610dd457610dd461146356fea264697066735822122034e9f5218cf793db8178493f02259fe28e835621b026b64e735f0ab2f264942064736f6c63430008140033",
  "linkReferences": {},
  "deployedLinkReferences": {}
}